{
  "contractName": "Collection",
  "abi": [
    {
      "inputs": [
        {
          "internalType": "string",
          "name": "name",
          "type": "string"
        },
        {
          "internalType": "string",
          "name": "symbol",
          "type": "string"
        },
        {
          "internalType": "string",
          "name": "baseURI",
          "type": "string"
        }
      ],
      "stateMutability": "nonpayable",
      "type": "constructor"
    },
    {
      "anonymous": false,
      "inputs": [
        {
          "indexed": true,
          "internalType": "address",
          "name": "owner",
          "type": "address"
        },
        {
          "indexed": true,
          "internalType": "address",
          "name": "approved",
          "type": "address"
        },
        {
          "indexed": true,
          "internalType": "uint256",
          "name": "tokenId",
          "type": "uint256"
        }
      ],
      "name": "Approval",
      "type": "event"
    },
    {
      "anonymous": false,
      "inputs": [
        {
          "indexed": true,
          "internalType": "address",
          "name": "owner",
          "type": "address"
        },
        {
          "indexed": true,
          "internalType": "address",
          "name": "operator",
          "type": "address"
        },
        {
          "indexed": false,
          "internalType": "bool",
          "name": "approved",
          "type": "bool"
        }
      ],
      "name": "ApprovalForAll",
      "type": "event"
    },
    {
      "anonymous": false,
      "inputs": [
        {
          "indexed": true,
          "internalType": "address",
          "name": "previousOwner",
          "type": "address"
        },
        {
          "indexed": true,
          "internalType": "address",
          "name": "newOwner",
          "type": "address"
        }
      ],
      "name": "OwnershipTransferred",
      "type": "event"
    },
    {
      "anonymous": false,
      "inputs": [
        {
          "indexed": true,
          "internalType": "bytes32",
          "name": "role",
          "type": "bytes32"
        },
        {
          "indexed": true,
          "internalType": "bytes32",
          "name": "previousAdminRole",
          "type": "bytes32"
        },
        {
          "indexed": true,
          "internalType": "bytes32",
          "name": "newAdminRole",
          "type": "bytes32"
        }
      ],
      "name": "RoleAdminChanged",
      "type": "event"
    },
    {
      "anonymous": false,
      "inputs": [
        {
          "indexed": true,
          "internalType": "bytes32",
          "name": "role",
          "type": "bytes32"
        },
        {
          "indexed": true,
          "internalType": "address",
          "name": "account",
          "type": "address"
        },
        {
          "indexed": true,
          "internalType": "address",
          "name": "sender",
          "type": "address"
        }
      ],
      "name": "RoleGranted",
      "type": "event"
    },
    {
      "anonymous": false,
      "inputs": [
        {
          "indexed": true,
          "internalType": "bytes32",
          "name": "role",
          "type": "bytes32"
        },
        {
          "indexed": true,
          "internalType": "address",
          "name": "account",
          "type": "address"
        },
        {
          "indexed": true,
          "internalType": "address",
          "name": "sender",
          "type": "address"
        }
      ],
      "name": "RoleRevoked",
      "type": "event"
    },
    {
      "anonymous": false,
      "inputs": [
        {
          "indexed": true,
          "internalType": "address",
          "name": "from",
          "type": "address"
        },
        {
          "indexed": true,
          "internalType": "address",
          "name": "to",
          "type": "address"
        },
        {
          "indexed": true,
          "internalType": "uint256",
          "name": "tokenId",
          "type": "uint256"
        }
      ],
      "name": "Transfer",
      "type": "event"
    },
    {
      "inputs": [],
      "name": "DEFAULT_ADMIN_ROLE",
      "outputs": [
        {
          "internalType": "bytes32",
          "name": "",
          "type": "bytes32"
        }
      ],
      "stateMutability": "view",
      "type": "function"
    },
    {
      "inputs": [],
      "name": "MINTER_ROLE",
      "outputs": [
        {
          "internalType": "bytes32",
          "name": "",
          "type": "bytes32"
        }
      ],
      "stateMutability": "view",
      "type": "function"
    },
    {
      "inputs": [
        {
          "internalType": "address",
          "name": "to",
          "type": "address"
        },
        {
          "internalType": "uint256",
          "name": "tokenId",
          "type": "uint256"
        }
      ],
      "name": "approve",
      "outputs": [],
      "stateMutability": "nonpayable",
      "type": "function"
    },
    {
      "inputs": [
        {
          "internalType": "address",
          "name": "owner",
          "type": "address"
        }
      ],
      "name": "balanceOf",
      "outputs": [
        {
          "internalType": "uint256",
          "name": "",
          "type": "uint256"
        }
      ],
      "stateMutability": "view",
      "type": "function"
    },
    {
      "inputs": [
        {
          "internalType": "uint256",
          "name": "tokenId",
          "type": "uint256"
        }
      ],
      "name": "getApproved",
      "outputs": [
        {
          "internalType": "address",
          "name": "",
          "type": "address"
        }
      ],
      "stateMutability": "view",
      "type": "function"
    },
    {
      "inputs": [
        {
          "internalType": "bytes32",
          "name": "role",
          "type": "bytes32"
        }
      ],
      "name": "getRoleAdmin",
      "outputs": [
        {
          "internalType": "bytes32",
          "name": "",
          "type": "bytes32"
        }
      ],
      "stateMutability": "view",
      "type": "function"
    },
    {
      "inputs": [
        {
          "internalType": "bytes32",
          "name": "role",
          "type": "bytes32"
        },
        {
          "internalType": "uint256",
          "name": "index",
          "type": "uint256"
        }
      ],
      "name": "getRoleMember",
      "outputs": [
        {
          "internalType": "address",
          "name": "",
          "type": "address"
        }
      ],
      "stateMutability": "view",
      "type": "function"
    },
    {
      "inputs": [
        {
          "internalType": "bytes32",
          "name": "role",
          "type": "bytes32"
        }
      ],
      "name": "getRoleMemberCount",
      "outputs": [
        {
          "internalType": "uint256",
          "name": "",
          "type": "uint256"
        }
      ],
      "stateMutability": "view",
      "type": "function"
    },
    {
      "inputs": [
        {
          "internalType": "bytes32",
          "name": "role",
          "type": "bytes32"
        },
        {
          "internalType": "address",
          "name": "account",
          "type": "address"
        }
      ],
      "name": "grantRole",
      "outputs": [],
      "stateMutability": "nonpayable",
      "type": "function"
    },
    {
      "inputs": [
        {
          "internalType": "bytes32",
          "name": "role",
          "type": "bytes32"
        },
        {
          "internalType": "address",
          "name": "account",
          "type": "address"
        }
      ],
      "name": "hasRole",
      "outputs": [
        {
          "internalType": "bool",
          "name": "",
          "type": "bool"
        }
      ],
      "stateMutability": "view",
      "type": "function"
    },
    {
      "inputs": [
        {
          "internalType": "address",
          "name": "owner",
          "type": "address"
        },
        {
          "internalType": "address",
          "name": "operator",
          "type": "address"
        }
      ],
      "name": "isApprovedForAll",
      "outputs": [
        {
          "internalType": "bool",
          "name": "",
          "type": "bool"
        }
      ],
      "stateMutability": "view",
      "type": "function"
    },
    {
      "inputs": [],
      "name": "name",
      "outputs": [
        {
          "internalType": "string",
          "name": "",
          "type": "string"
        }
      ],
      "stateMutability": "view",
      "type": "function"
    },
    {
      "inputs": [],
      "name": "owner",
      "outputs": [
        {
          "internalType": "address",
          "name": "",
          "type": "address"
        }
      ],
      "stateMutability": "view",
      "type": "function"
    },
    {
      "inputs": [
        {
          "internalType": "uint256",
          "name": "tokenId",
          "type": "uint256"
        }
      ],
      "name": "ownerOf",
      "outputs": [
        {
          "internalType": "address",
          "name": "",
          "type": "address"
        }
      ],
      "stateMutability": "view",
      "type": "function"
    },
    {
      "inputs": [],
      "name": "renounceOwnership",
      "outputs": [],
      "stateMutability": "nonpayable",
      "type": "function"
    },
    {
      "inputs": [
        {
          "internalType": "bytes32",
          "name": "role",
          "type": "bytes32"
        },
        {
          "internalType": "address",
          "name": "account",
          "type": "address"
        }
      ],
      "name": "renounceRole",
      "outputs": [],
      "stateMutability": "nonpayable",
      "type": "function"
    },
    {
      "inputs": [
        {
          "internalType": "bytes32",
          "name": "role",
          "type": "bytes32"
        },
        {
          "internalType": "address",
          "name": "account",
          "type": "address"
        }
      ],
      "name": "revokeRole",
      "outputs": [],
      "stateMutability": "nonpayable",
      "type": "function"
    },
    {
      "inputs": [
        {
          "internalType": "address",
          "name": "from",
          "type": "address"
        },
        {
          "internalType": "address",
          "name": "to",
          "type": "address"
        },
        {
          "internalType": "uint256",
          "name": "tokenId",
          "type": "uint256"
        }
      ],
      "name": "safeTransferFrom",
      "outputs": [],
      "stateMutability": "nonpayable",
      "type": "function"
    },
    {
      "inputs": [
        {
          "internalType": "address",
          "name": "from",
          "type": "address"
        },
        {
          "internalType": "address",
          "name": "to",
          "type": "address"
        },
        {
          "internalType": "uint256",
          "name": "tokenId",
          "type": "uint256"
        },
        {
          "internalType": "bytes",
          "name": "_data",
          "type": "bytes"
        }
      ],
      "name": "safeTransferFrom",
      "outputs": [],
      "stateMutability": "nonpayable",
      "type": "function"
    },
    {
      "inputs": [
        {
          "internalType": "address",
          "name": "operator",
          "type": "address"
        },
        {
          "internalType": "bool",
          "name": "approved",
          "type": "bool"
        }
      ],
      "name": "setApprovalForAll",
      "outputs": [],
      "stateMutability": "nonpayable",
      "type": "function"
    },
    {
      "inputs": [],
      "name": "symbol",
      "outputs": [
        {
          "internalType": "string",
          "name": "",
          "type": "string"
        }
      ],
      "stateMutability": "view",
      "type": "function"
    },
    {
      "inputs": [
        {
          "internalType": "uint256",
          "name": "index",
          "type": "uint256"
        }
      ],
      "name": "tokenByIndex",
      "outputs": [
        {
          "internalType": "uint256",
          "name": "",
          "type": "uint256"
        }
      ],
      "stateMutability": "view",
      "type": "function"
    },
    {
      "inputs": [
        {
          "internalType": "address",
          "name": "owner",
          "type": "address"
        },
        {
          "internalType": "uint256",
          "name": "index",
          "type": "uint256"
        }
      ],
      "name": "tokenOfOwnerByIndex",
      "outputs": [
        {
          "internalType": "uint256",
          "name": "",
          "type": "uint256"
        }
      ],
      "stateMutability": "view",
      "type": "function"
    },
    {
      "inputs": [],
      "name": "totalSupply",
      "outputs": [
        {
          "internalType": "uint256",
          "name": "",
          "type": "uint256"
        }
      ],
      "stateMutability": "view",
      "type": "function"
    },
    {
      "inputs": [
        {
          "internalType": "address",
          "name": "from",
          "type": "address"
        },
        {
          "internalType": "address",
          "name": "to",
          "type": "address"
        },
        {
          "internalType": "uint256",
          "name": "tokenId",
          "type": "uint256"
        }
      ],
      "name": "transferFrom",
      "outputs": [],
      "stateMutability": "nonpayable",
      "type": "function"
    },
    {
      "inputs": [
        {
          "internalType": "address",
          "name": "newOwner",
          "type": "address"
        }
      ],
      "name": "transferOwnership",
      "outputs": [],
      "stateMutability": "nonpayable",
      "type": "function"
    },
    {
      "inputs": [
        {
          "internalType": "uint256",
          "name": "tokenId",
          "type": "uint256"
        }
      ],
      "name": "burn",
      "outputs": [],
      "stateMutability": "nonpayable",
      "type": "function"
    },
    {
      "inputs": [
        {
          "internalType": "bytes4",
          "name": "interfaceId",
          "type": "bytes4"
        }
      ],
      "name": "supportsInterface",
      "outputs": [
        {
          "internalType": "bool",
          "name": "",
          "type": "bool"
        }
      ],
      "stateMutability": "view",
      "type": "function"
    },
    {
      "inputs": [
        {
          "internalType": "string",
          "name": "newBaseUri",
          "type": "string"
        }
      ],
      "name": "setBaseURI",
      "outputs": [],
      "stateMutability": "nonpayable",
      "type": "function"
    },
    {
      "inputs": [
        {
          "internalType": "address",
          "name": "to",
          "type": "address"
        },
        {
          "internalType": "uint256",
          "name": "tokenId",
          "type": "uint256"
        }
      ],
      "name": "mint",
      "outputs": [],
      "stateMutability": "nonpayable",
      "type": "function"
    },
    {
      "inputs": [
        {
          "internalType": "uint256",
          "name": "tokenId",
          "type": "uint256"
        }
      ],
      "name": "tokenURI",
      "outputs": [
        {
          "internalType": "string",
          "name": "",
          "type": "string"
        }
      ],
      "stateMutability": "view",
      "type": "function"
    },
    {
      "inputs": [
        {
          "internalType": "uint256",
          "name": "tokenId",
          "type": "uint256"
        },
        {
          "internalType": "string",
          "name": "_tokenURI",
          "type": "string"
        }
      ],
      "name": "setTokenURI",
      "outputs": [],
      "stateMutability": "nonpayable",
      "type": "function"
    },
    {
      "inputs": [
        {
          "internalType": "address",
          "name": "addr",
          "type": "address"
        }
      ],
      "name": "setMinterRole",
      "outputs": [],
      "stateMutability": "nonpayable",
      "type": "function"
    }
  ],
  "bytecode": "0x60806040523480156200001157600080fd5b506040516200338b3803806200338b83398101604081905262000034916200047e565b8251839083906200004d90600290602085019062000325565b5080516200006390600390602084019062000325565b505050620000926200008362000111640100000000026401000000009004565b64010000000062000115810204565b620000ba6000620000ab64010000000062000111810204565b64010000000062000167810204565b620000f27f9f2df0fed2c77648de5860a4cc508cd0818c85b8b8a1ab4ceeef8d981c8956a6620000ab64010000000062000111810204565b80516200010790600e90602084019062000325565b5050505062000590565b3390565b600d8054600160a060020a03838116600160a060020a0319831681179093556040519116919082907f8be0079c531659141344cd1fd0a4f28419497f9722a3daafe3b4186f6b6457e090600090a35050565b6200017c828264010000000062000180810204565b5050565b6200019a828264010000000062000fa4620001c782021704565b6000828152600160205260409020620001c29082640100000000620010286200026382021704565b505050565b620001dc82826401000000006200028c810204565b6200017c57600082815260208181526040808320600160a060020a03851684529091529020805460ff191660011790556200021f64010000000062000111810204565b600160a060020a031681600160a060020a0316837f2f8788117e7eff1d82e926ec794901d17c78024a50270940304540a733656f0d60405160405180910390a45050565b60006200028383600160a060020a038416640100000000620002b5810204565b90505b92915050565b600091825260208281526040808420600160a060020a0393909316845291905290205460ff1690565b6000620002cc83836401000000006200030d810204565b620003045750815460018181018455600084815260208082209093018490558454848252828601909352604090209190915562000286565b50600062000286565b60009081526001919091016020526040902054151590565b82805462000333906200050b565b90600052602060002090601f016020900481019282620003575760008555620003a2565b82601f106200037257805160ff1916838001178555620003a2565b82800160010185558215620003a2579182015b82811115620003a257825182559160200191906001019062000385565b50620003b0929150620003b4565b5090565b5b80821115620003b05760008155600101620003b5565b600082601f830112620003dc578081fd5b81516001604060020a0380821115620003f957620003f962000561565b604051601f8301601f19908116603f0116810190828211818310171562000424576200042462000561565b8160405283815260209250868385880101111562000440578485fd5b8491505b8382101562000463578582018301518183018401529082019062000444565b838211156200047457848385830101525b9695505050505050565b60008060006060848603121562000493578283fd5b83516001604060020a0380821115620004aa578485fd5b620004b887838801620003cb565b94506020860151915080821115620004ce578384fd5b620004dc87838801620003cb565b93506040860151915080821115620004f2578283fd5b506200050186828701620003cb565b9150509250925092565b6002810460018216806200052057607f821691505b602082108114156200055b577f4e487b7100000000000000000000000000000000000000000000000000000000600052602260045260246000fd5b50919050565b7f4e487b7100000000000000000000000000000000000000000000000000000000600052604160045260246000fd5b612deb80620005a06000396000f3fe608060405234801561001057600080fd5b5060043610610218576000357c0100000000000000000000000000000000000000000000000000000000900480636352211e11610137578063a217fddf116100ca578063ca15c87311610099578063ca15c8731461044e578063d539139314610461578063d547741f14610488578063e985e9c51461049b578063f2fde38b146104d757600080fd5b8063a217fddf1461040d578063a22cb46514610415578063b88d4fde14610428578063c87b56dd1461043b57600080fd5b80639010d07c116101065780639010d07c146103cc57806391d14854146103df578063945d1229146103f257806395d89b411461040557600080fd5b80636352211e1461038d57806370a08231146103a0578063715018a6146103b35780638da5cb5b146103bb57600080fd5b80632f2ff15d116101af57806342842e0e1161017e57806342842e0e1461034157806342966c68146103545780634f6ccce71461036757806355f804b31461037a57600080fd5b80632f2ff15d146102f55780632f745c591461030857806336568abe1461031b57806340c10f191461032e57600080fd5b8063162094c4116101eb578063162094c41461029a57806318160ddd146102ad57806323b872dd146102bf578063248a9ca3146102d257600080fd5b806301ffc9a71461021d57806306fdde0314610245578063081812fc1461025a578063095ea7b314610285575b600080fd5b61023061022b366004612978565b6104ea565b60405190151581526020015b60405180910390f35b61024d61052e565b60405161023c9190612b40565b61026d61026836600461291d565b6105c0565b604051600160a060020a03909116815260200161023c565b6102986102933660046128f4565b610661565b005b6102986102a83660046129e3565b610799565b600a545b60405190815260200161023c565b6102986102cd366004612806565b610827565b6102b16102e036600461291d565b60009081526020819052604090206001015490565b610298610303366004612935565b61085c565b6102b16103163660046128f4565b610881565b610298610329366004612935565b61092c565b61029861033c3660046128f4565b6109b7565b61029861034f366004612806565b610a60565b61029861036236600461291d565b610a7b565b6102b161037536600461291d565b610b05565b6102986103883660046129b0565b610bbd565b61026d61039b36600461291d565b610c50565b6102b16103ae3660046127ba565b610cde565b610298610d7b565b600d54600160a060020a031661026d565b61026d6103da366004612957565b610db4565b6102306103ed366004612935565b610dd3565b6102986104003660046127ba565b610dfc565b61024d610e53565b6102b1600081565b6102986104233660046128ba565b610e62565b610298610436366004612841565b610e6d565b61024d61044936600461291d565b610ea8565b6102b161045c36600461291d565b610eb3565b6102b17f9f2df0fed2c77648de5860a4cc508cd0818c85b8b8a1ab4ceeef8d981c8956a681565b610298610496366004612935565b610eca565b6102306104a93660046127d4565b600160a060020a03918216600090815260076020908152604080832093909416825291909152205460ff1690565b6102986104e53660046127ba565b610eef565b6000600160e060020a031982167f780e9d6300000000000000000000000000000000000000000000000000000000148061052857506105288261103d565b92915050565b60606002805461053d90612ce7565b80601f016020809104026020016040519081016040528092919081815260200182805461056990612ce7565b80156105b65780601f1061058b576101008083540402835291602001916105b6565b820191906000526020600020905b81548152906001019060200180831161059957829003601f168201915b5050505050905090565b60006105cb8261107b565b6106455760405160e560020a62461bcd02815260206004820152602c60248201527f4552433732313a20617070726f76656420717565727920666f72206e6f6e657860448201527f697374656e7420746f6b656e000000000000000000000000000000000000000060648201526084015b60405180910390fd5b50600090815260066020526040902054600160a060020a031690565b600061066c82610c50565b905080600160a060020a031683600160a060020a031614156106f95760405160e560020a62461bcd02815260206004820152602160248201527f4552433732313a20617070726f76616c20746f2063757272656e74206f776e6560448201527f7200000000000000000000000000000000000000000000000000000000000000606482015260840161063c565b33600160a060020a0382161480610715575061071581336104a9565b61078a5760405160e560020a62461bcd02815260206004820152603860248201527f4552433732313a20617070726f76652063616c6c6572206973206e6f74206f7760448201527f6e6572206e6f7220617070726f76656420666f7220616c6c0000000000000000606482015260840161063c565b6107948383611098565b505050565b6107a4600033610dd3565b6108195760405160e560020a62461bcd02815260206004820152602e60248201527f4552433732313a206d75737420686176652061646d696e20726f6c6520746f2060448201527f73657420546f6b656e2055524973000000000000000000000000000000000000606482015260840161063c565b6108238282611113565b5050565b610832335b826111b0565b6108515760405160e560020a62461bcd02815260040161063c90612be5565b6107948383836112ae565b60008281526020819052604090206001015461087781611499565b61079483836114a3565b600061088c83610cde565b82106109035760405160e560020a62461bcd02815260206004820152602b60248201527f455243373231456e756d657261626c653a206f776e657220696e646578206f7560448201527f74206f6620626f756e6473000000000000000000000000000000000000000000606482015260840161063c565b50600160a060020a03919091166000908152600860209081526040808320938352929052205490565b600160a060020a03811633146109ad5760405160e560020a62461bcd02815260206004820152602f60248201527f416363657373436f6e74726f6c3a2063616e206f6e6c792072656e6f756e636560448201527f20726f6c657320666f722073656c660000000000000000000000000000000000606482015260840161063c565b61082382826114c5565b6109e17f9f2df0fed2c77648de5860a4cc508cd0818c85b8b8a1ab4ceeef8d981c8956a633610dd3565b610a565760405160e560020a62461bcd02815260206004820152602560248201527f4552433732313a206d7573742068617665206d696e74657220726f6c6520746f60448201527f206d696e74000000000000000000000000000000000000000000000000000000606482015260840161063c565b61082382826114e7565b61079483838360405180602001604052806000815250610e6d565b610a843361082c565b610af95760405160e560020a62461bcd02815260206004820152603060248201527f4552433732314275726e61626c653a2063616c6c6572206973206e6f74206f7760448201527f6e6572206e6f7220617070726f76656400000000000000000000000000000000606482015260840161063c565b610b0281611639565b50565b6000610b10600a5490565b8210610b875760405160e560020a62461bcd02815260206004820152602c60248201527f455243373231456e756d657261626c653a20676c6f62616c20696e646578206f60448201527f7574206f6620626f756e64730000000000000000000000000000000000000000606482015260840161063c565b600a8281548110610bab5760e060020a634e487b7102600052603260045260246000fd5b90600052602060002001549050919050565b610bc8600033610dd3565b610c3d5760405160e560020a62461bcd02815260206004820152602e60248201527f4552433732313a206d75737420686176652061646d696e20726f6c6520746f2060448201527f6368616e67652062617365557269000000000000000000000000000000000000606482015260840161063c565b805161082390600e90602084019061263a565b600081815260046020526040812054600160a060020a0316806105285760405160e560020a62461bcd02815260206004820152602960248201527f4552433732313a206f776e657220717565727920666f72206e6f6e657869737460448201527f656e7420746f6b656e0000000000000000000000000000000000000000000000606482015260840161063c565b6000600160a060020a038216610d5f5760405160e560020a62461bcd02815260206004820152602a60248201527f4552433732313a2062616c616e636520717565727920666f7220746865207a6560448201527f726f206164647265737300000000000000000000000000000000000000000000606482015260840161063c565b50600160a060020a031660009081526005602052604090205490565b600d54600160a060020a03163314610da85760405160e560020a62461bcd02815260040161063c90612bb0565b610db26000611642565b565b6000828152600160205260408120610dcc90836116a1565b9392505050565b600091825260208281526040808420600160a060020a0393909316845291905290205460ff1690565b600d54600160a060020a03163314610e295760405160e560020a62461bcd02815260040161063c90612bb0565b610b027f9f2df0fed2c77648de5860a4cc508cd0818c85b8b8a1ab4ceeef8d981c8956a6826116ad565b60606003805461053d90612ce7565b6108233383836116b7565b610e7733836111b0565b610e965760405160e560020a62461bcd02815260040161063c90612be5565b610ea284848484611789565b50505050565b6060610528826117bf565b600081815260016020526040812061052890611930565b600082815260208190526040902060010154610ee581611499565b61079483836114c5565b600d54600160a060020a03163314610f1c5760405160e560020a62461bcd02815260040161063c90612bb0565b600160a060020a038116610f9b5760405160e560020a62461bcd02815260206004820152602660248201527f4f776e61626c653a206e6577206f776e657220697320746865207a65726f206160448201527f6464726573730000000000000000000000000000000000000000000000000000606482015260840161063c565b610b0281611642565b610fae8282610dd3565b61082357600082815260208181526040808320600160a060020a03851684529091529020805460ff19166001179055610fe43390565b600160a060020a031681600160a060020a0316837f2f8788117e7eff1d82e926ec794901d17c78024a50270940304540a733656f0d60405160405180910390a45050565b6000610dcc83600160a060020a03841661193a565b6000600160e060020a031982167f780e9d63000000000000000000000000000000000000000000000000000000001480610528575061052882611989565b600090815260046020526040902054600160a060020a0316151590565b6000818152600660205260409020805473ffffffffffffffffffffffffffffffffffffffff1916600160a060020a03841690811790915581906110da82610c50565b600160a060020a03167f8c5be1e5ebec7d5bd14f71427d1e84f3dd0314c0f7b2291e5b200ac8c7c3b92560405160405180910390a45050565b61111c8261107b565b6111915760405160e560020a62461bcd02815260206004820152602e60248201527f45524337323155524953746f726167653a2055524920736574206f66206e6f6e60448201527f6578697374656e7420746f6b656e000000000000000000000000000000000000606482015260840161063c565b6000828152600c6020908152604090912082516107949284019061263a565b60006111bb8261107b565b6112305760405160e560020a62461bcd02815260206004820152602c60248201527f4552433732313a206f70657261746f7220717565727920666f72206e6f6e657860448201527f697374656e7420746f6b656e0000000000000000000000000000000000000000606482015260840161063c565b600061123b83610c50565b905080600160a060020a031684600160a060020a031614806112825750600160a060020a0380821660009081526007602090815260408083209388168352929052205460ff165b806112a6575083600160a060020a031661129b846105c0565b600160a060020a0316145b949350505050565b82600160a060020a03166112c182610c50565b600160a060020a0316146113405760405160e560020a62461bcd02815260206004820152602560248201527f4552433732313a207472616e736665722066726f6d20696e636f72726563742060448201527f6f776e6572000000000000000000000000000000000000000000000000000000606482015260840161063c565b600160a060020a0382166113be5760405160e560020a62461bcd028152602060048201526024808201527f4552433732313a207472616e7366657220746f20746865207a65726f2061646460448201527f7265737300000000000000000000000000000000000000000000000000000000606482015260840161063c565b6113c98383836119fb565b6113d4600082611098565b600160a060020a03831660009081526005602052604081208054600192906113fd908490612c8d565b9091555050600160a060020a038216600090815260056020526040812080546001929061142b908490612c42565b9091555050600081815260046020526040808220805473ffffffffffffffffffffffffffffffffffffffff1916600160a060020a0386811691821790925591518493918716917fddf252ad1be2c89b69c2b068fc378daa952ba7f163c4a11628f55a4df523b3ef91a4505050565b610b028133611a06565b6114ad8282610fa4565b60008281526001602052604090206107949082611028565b6114cf8282611a6d565b60008281526001602052604090206107949082611ad2565b600160a060020a0382166115405760405160e560020a62461bcd02815260206004820181905260248201527f4552433732313a206d696e7420746f20746865207a65726f2061646472657373604482015260640161063c565b6115498161107b565b156115995760405160e560020a62461bcd02815260206004820152601c60248201527f4552433732313a20746f6b656e20616c7265616479206d696e74656400000000604482015260640161063c565b6115a5600083836119fb565b600160a060020a03821660009081526005602052604081208054600192906115ce908490612c42565b9091555050600081815260046020526040808220805473ffffffffffffffffffffffffffffffffffffffff1916600160a060020a03861690811790915590518392907fddf252ad1be2c89b69c2b068fc378daa952ba7f163c4a11628f55a4df523b3ef908290a45050565b610b0281611ae7565b600d8054600160a060020a0383811673ffffffffffffffffffffffffffffffffffffffff19831681179093556040519116919082907f8be0079c531659141344cd1fd0a4f28419497f9722a3daafe3b4186f6b6457e090600090a35050565b6000610dcc8383611b27565b61082382826114a3565b81600160a060020a031683600160a060020a0316141561171c5760405160e560020a62461bcd02815260206004820152601960248201527f4552433732313a20617070726f766520746f2063616c6c657200000000000000604482015260640161063c565b600160a060020a03838116600081815260076020908152604080832094871680845294825291829020805460ff191686151590811790915591519182527f17307eab39ab6107e8899845ad3d59bd9653f200f220920489ca2b5937696c31910160405180910390a3505050565b6117948484846112ae565b6117a084848484611b62565b610ea25760405160e560020a62461bcd02815260040161063c90612b53565b60606117ca8261107b565b61183f5760405160e560020a62461bcd02815260206004820152603160248201527f45524337323155524953746f726167653a2055524920717565727920666f722060448201527f6e6f6e6578697374656e7420746f6b656e000000000000000000000000000000606482015260840161063c565b6000828152600c60205260408120805461185890612ce7565b80601f016020809104026020016040519081016040528092919081815260200182805461188490612ce7565b80156118d15780601f106118a6576101008083540402835291602001916118d1565b820191906000526020600020905b8154815290600101906020018083116118b457829003601f168201915b5050505050905060006118e2611ca4565b90508051600014156118f5575092915050565b81511561192757808260405160200161190f929190612a54565b60405160208183030381529060405292505050919050565b6112a684611cb3565b6000610528825490565b600081815260018301602052604081205461198157508154600181810184556000848152602080822090930184905584548482528286019093526040902091909155610528565b506000610528565b6000600160e060020a031982167f80ac58cd0000000000000000000000000000000000000000000000000000000014806119ec5750600160e060020a031982167f5b5e139f00000000000000000000000000000000000000000000000000000000145b80610528575061052882611d8e565b610794838383611dcc565b611a108282610dd3565b61082357611a2881600160a060020a03166014611e84565b611a33836020611e84565b604051602001611a44929190612a83565b60408051601f198184030181529082905260e560020a62461bcd02825261063c91600401612b40565b611a778282610dd3565b1561082357600082815260208181526040808320600160a060020a0385168085529252808320805460ff1916905551339285917ff6391f5c32d9c69d2a47ea670b442974b53935d1edc7fd64eb21e047a839171b9190a45050565b6000610dcc83600160a060020a0384166120db565b611af081612201565b6000818152600c602052604090208054611b0990612ce7565b159050610b02576000818152600c60205260408120610b02916126be565b6000826000018281548110611b4f5760e060020a634e487b7102600052603260045260246000fd5b9060005260206000200154905092915050565b6000600160a060020a0384163b15611c99576040517f150b7a02000000000000000000000000000000000000000000000000000000008152600160a060020a0385169063150b7a0290611bbf903390899088908890600401612b04565b602060405180830381600087803b158015611bd957600080fd5b505af1925050508015611c09575060408051601f3d908101601f19168201909252611c0691810190612994565b60015b611c66573d808015611c37576040519150601f19603f3d011682016040523d82523d6000602084013e611c3c565b606091505b508051611c5e5760405160e560020a62461bcd02815260040161063c90612b53565b805181602001fd5b600160e060020a0319167f150b7a02000000000000000000000000000000000000000000000000000000001490506112a6565b506001949350505050565b6060600e805461053d90612ce7565b6060611cbe8261107b565b611d335760405160e560020a62461bcd02815260206004820152602f60248201527f4552433732314d657461646174613a2055524920717565727920666f72206e6f60448201527f6e6578697374656e7420746f6b656e0000000000000000000000000000000000606482015260840161063c565b6000611d3d611ca4565b90506000815111611d5d5760405180602001604052806000815250610dcc565b80611d67846122b5565b604051602001611d78929190612a54565b6040516020818303038152906040529392505050565b6000600160e060020a031982167f5a05180f000000000000000000000000000000000000000000000000000000001480610528575061052882612410565b600160a060020a038316611e2757611e2281600a80546000838152600b60205260408120829055600182018355919091527fc65a7bb8d6351c1cf70c95a316cc6a92839c986682d98bc35f958f4883f9d2a80155565b611e4a565b81600160a060020a031683600160a060020a031614611e4a57611e4a8382612477565b600160a060020a038216611e615761079481612514565b82600160a060020a031682600160a060020a0316146107945761079482826125f6565b60606000611e93836002612c6e565b611e9e906002612c42565b67ffffffffffffffff811115611ec75760e060020a634e487b7102600052604160045260246000fd5b6040519080825280601f01601f191660200182016040528015611ef1576020820181803683370190505b5090507f300000000000000000000000000000000000000000000000000000000000000081600081518110611f395760e060020a634e487b7102600052603260045260246000fd5b6020010190600160f860020a031916908160001a9053507f780000000000000000000000000000000000000000000000000000000000000081600181518110611f955760e060020a634e487b7102600052603260045260246000fd5b6020010190600160f860020a031916908160001a9053506000611fb9846002612c6e565b611fc4906001612c42565b90505b6001811115612089577f303132333435363738396162636465660000000000000000000000000000000085600f16601081106120165760e060020a634e487b7102600052603260045260246000fd5b1a7f01000000000000000000000000000000000000000000000000000000000000000282828151811061205c5760e060020a634e487b7102600052603260045260246000fd5b6020010190600160f860020a031916908160001a90535060109094049361208281612cd0565b9050611fc7565b508315610dcc5760405160e560020a62461bcd02815260206004820181905260248201527f537472696e67733a20686578206c656e67746820696e73756666696369656e74604482015260640161063c565b600081815260018301602052604081205480156121f75760006120ff600183612c8d565b855490915060009061211390600190612c8d565b905081811461219a5760008660000182815481106121445760e060020a634e487b7102600052603260045260246000fd5b90600052602060002001549050808760000184815481106121785760e060020a634e487b7102600052603260045260246000fd5b6000918252602080832090910192909255918252600188019052604090208390555b85548690806121bc5760e060020a634e487b7102600052603160045260246000fd5b600190038181906000526020600020016000905590558560010160008681526020019081526020016000206000905560019350505050610528565b6000915050610528565b600061220c82610c50565b905061221a816000846119fb565b612225600083611098565b600160a060020a038116600090815260056020526040812080546001929061224e908490612c8d565b9091555050600082815260046020526040808220805473ffffffffffffffffffffffffffffffffffffffff1916905551839190600160a060020a038416907fddf252ad1be2c89b69c2b068fc378daa952ba7f163c4a11628f55a4df523b3ef908390a45050565b6060816122f557505060408051808201909152600181527f3000000000000000000000000000000000000000000000000000000000000000602082015290565b8160005b811561231f578061230981612d25565b91506123189050600a83612c5a565b91506122f9565b60008167ffffffffffffffff81111561234b5760e060020a634e487b7102600052604160045260246000fd5b6040519080825280601f01601f191660200182016040528015612375576020820181803683370190505b5090505b84156112a65761238a600183612c8d565b9150612397600a86612d40565b6123a2906030612c42565b7f0100000000000000000000000000000000000000000000000000000000000000028183815181106123e75760e060020a634e487b7102600052603260045260246000fd5b6020010190600160f860020a031916908160001a905350612409600a86612c5a565b9450612379565b6000600160e060020a031982167f7965db0b00000000000000000000000000000000000000000000000000000000148061052857507f01ffc9a700000000000000000000000000000000000000000000000000000000600160e060020a0319831614610528565b6000600161248484610cde565b61248e9190612c8d565b6000838152600960205260409020549091508082146124e157600160a060020a03841660009081526008602090815260408083208584528252808320548484528184208190558352600990915290208190555b506000918252600960209081526040808420849055600160a060020a039094168352600881528383209183525290812055565b600a5460009061252690600190612c8d565b6000838152600b6020526040812054600a805493945090928490811061255f5760e060020a634e487b7102600052603260045260246000fd5b9060005260206000200154905080600a83815481106125915760e060020a634e487b7102600052603260045260246000fd5b6000918252602080832090910192909255828152600b9091526040808220849055858252812055600a8054806125da5760e060020a634e487b7102600052603160045260246000fd5b6001900381819060005260206000200160009055905550505050565b600061260183610cde565b600160a060020a039093166000908152600860209081526040808320868452825280832085905593825260099052919091209190915550565b82805461264690612ce7565b90600052602060002090601f01602090048101928261266857600085556126ae565b82601f1061268157805160ff19168380011785556126ae565b828001600101855582156126ae579182015b828111156126ae578251825591602001919060010190612693565b506126ba9291506126f4565b5090565b5080546126ca90612ce7565b6000825580601f106126da575050565b601f016020900490600052602060002090810190610b0291905b5b808211156126ba57600081556001016126f5565b600067ffffffffffffffff8084111561272457612724612d86565b604051601f8501601f19908116603f0116810190828211818310171561274c5761274c612d86565b8160405280935085815286868601111561276557600080fd5b858560208301376000602087830101525050509392505050565b8035600160a060020a038116811461279657600080fd5b919050565b600082601f8301126127ab578081fd5b610dcc83833560208501612709565b6000602082840312156127cb578081fd5b610dcc8261277f565b600080604083850312156127e6578081fd5b6127ef8361277f565b91506127fd6020840161277f565b90509250929050565b60008060006060848603121561281a578081fd5b6128238461277f565b92506128316020850161277f565b9150604084013590509250925092565b60008060008060808587031215612856578081fd5b61285f8561277f565b935061286d6020860161277f565b925060408501359150606085013567ffffffffffffffff81111561288f578182fd5b8501601f8101871361289f578182fd5b6128ae87823560208401612709565b91505092959194509250565b600080604083850312156128cc578182fd5b6128d58361277f565b9150602083013580151581146128e9578182fd5b809150509250929050565b60008060408385031215612906578182fd5b61290f8361277f565b946020939093013593505050565b60006020828403121561292e578081fd5b5035919050565b60008060408385031215612947578182fd5b823591506127fd6020840161277f565b60008060408385031215612969578182fd5b50508035926020909101359150565b600060208284031215612989578081fd5b8135610dcc81612d9f565b6000602082840312156129a5578081fd5b8151610dcc81612d9f565b6000602082840312156129c1578081fd5b813567ffffffffffffffff8111156129d7578182fd5b6112a68482850161279b565b600080604083850312156129f5578182fd5b82359150602083013567ffffffffffffffff811115612a12578182fd5b612a1e8582860161279b565b9150509250929050565b60008151808452612a40816020860160208601612ca4565b601f01601f19169290920160200192915050565b60008351612a66818460208801612ca4565b835190830190612a7a818360208801612ca4565b01949350505050565b7f416363657373436f6e74726f6c3a206163636f756e7420000000000000000000815260008351612abb816017850160208801612ca4565b7f206973206d697373696e6720726f6c65200000000000000000000000000000006017918401918201528351612af8816028840160208801612ca4565b01602801949350505050565b6000600160a060020a03808716835280861660208401525083604083015260806060830152612b366080830184612a28565b9695505050505050565b602081526000610dcc6020830184612a28565b60208082526032908201527f4552433732313a207472616e7366657220746f206e6f6e20455243373231526560408201527f63656976657220696d706c656d656e7465720000000000000000000000000000606082015260800190565b6020808252818101527f4f776e61626c653a2063616c6c6572206973206e6f7420746865206f776e6572604082015260600190565b60208082526031908201527f4552433732313a207472616e736665722063616c6c6572206973206e6f74206f60408201527f776e6572206e6f7220617070726f766564000000000000000000000000000000606082015260800190565b60008219821115612c5557612c55612d54565b500190565b600082612c6957612c69612d6d565b500490565b6000816000190483118215151615612c8857612c88612d54565b500290565b600082821015612c9f57612c9f612d54565b500390565b60005b83811015612cbf578181015183820152602001612ca7565b83811115610ea25750506000910152565b600081612cdf57612cdf612d54565b506000190190565b600281046001821680612cfb57607f821691505b60208210811415612d1f5760e060020a634e487b7102600052602260045260246000fd5b50919050565b6000600019821415612d3957612d39612d54565b5060010190565b600082612d4f57612d4f612d6d565b500690565b60e060020a634e487b7102600052601160045260246000fd5b60e060020a634e487b7102600052601260045260246000fd5b60e060020a634e487b7102600052604160045260246000fd5b600160e060020a031981168114610b0257600080fdfea26469706673582212207838f4a5d3cfc4f2bd6f715e612bab80abc21d6858537ca6eafbb299f347e88b64736f6c63430008040033",
  "immutableReferences": {},
  "source": "// SPDX-License-Identifier: MIT\r\n\r\npragma solidity ^0.8.0;\r\n\r\nimport \"@openzeppelin/contracts/access/Ownable.sol\";\r\nimport \"@openzeppelin/contracts/token/ERC721/extensions/ERC721Enumerable.sol\";\r\nimport \"@openzeppelin/contracts/token/ERC721/extensions/ERC721URIStorage.sol\";\r\nimport \"@openzeppelin/contracts/access/AccessControlEnumerable.sol\";\r\nimport \"@openzeppelin/contracts/utils/Context.sol\";\r\n\r\n\r\ncontract Collection is\r\nContext,\r\nAccessControlEnumerable,\r\nERC721Enumerable,\r\nERC721URIStorage,\r\nOwnable\r\n{\r\n    bytes32 public constant MINTER_ROLE = keccak256(\"MINTER_ROLE\");\r\n\r\n    string private _internalBaseURI;\r\n\r\n    constructor(\r\n        string memory name,\r\n        string memory symbol,\r\n        string memory baseURI\r\n    ) ERC721(name, symbol) {\r\n        _setupRole(DEFAULT_ADMIN_ROLE, _msgSender());\r\n\r\n        _setupRole(MINTER_ROLE, _msgSender());\r\n\r\n        _internalBaseURI = baseURI;\r\n    }\r\n\r\n    function burn(uint256 tokenId) public virtual {\r\n        require(\r\n            _isApprovedOrOwner(_msgSender(), tokenId),\r\n            \"ERC721Burnable: caller is not owner nor approved\"\r\n        );\r\n        _burn(tokenId);\r\n    }\r\n\r\n    function supportsInterface(bytes4 interfaceId)\r\n    public\r\n    view\r\n    virtual\r\n    override(ERC721Enumerable, AccessControlEnumerable, ERC721)\r\n    returns (bool)\r\n    {\r\n        return\r\n        interfaceId == type(IERC721Enumerable).interfaceId ||\r\n        super.supportsInterface(interfaceId);\r\n    }\r\n\r\n    function setBaseURI(string memory newBaseUri) public {\r\n        require(\r\n            hasRole(DEFAULT_ADMIN_ROLE, _msgSender()),\r\n            \"ERC721: must have admin role to change baseUri\"\r\n        );\r\n        _internalBaseURI = newBaseUri;\r\n    }\r\n\r\n    function mint(address to, uint256 tokenId) public virtual {\r\n        require(\r\n            hasRole(MINTER_ROLE, _msgSender()),\r\n            \"ERC721: must have minter role to mint\"\r\n        );\r\n\r\n        _mint(to, tokenId);\r\n    }\r\n\r\n    function tokenURI(uint256 tokenId)\r\n    public\r\n    view\r\n    virtual\r\n    override(ERC721URIStorage, ERC721)\r\n    returns (string memory)\r\n    {\r\n        return super.tokenURI(tokenId);\r\n    }\r\n\r\n\r\n    function setTokenURI(uint256 tokenId, string memory _tokenURI) public {\r\n        require(\r\n            hasRole(DEFAULT_ADMIN_ROLE, _msgSender()),\r\n            \"ERC721: must have admin role to set Token URIs\"\r\n        );\r\n        super._setTokenURI(tokenId, _tokenURI);\r\n    }\r\n\r\n\r\n    function _beforeTokenTransfer(\r\n        address from,\r\n        address to,\r\n        uint256 tokenId\r\n    ) internal virtual override(ERC721, ERC721Enumerable) {\r\n        super._beforeTokenTransfer(from, to, tokenId);\r\n    }\r\n\r\n    function _burn(uint256 tokenId)\r\n    internal\r\n    virtual\r\n    override(ERC721, ERC721URIStorage)\r\n    {\r\n        // TODO burn Enumerable total supply\r\n        super._burn(tokenId);\r\n    }\r\n\r\n    function setMinterRole(address addr) external onlyOwner {\r\n        _setupRole(MINTER_ROLE, addr);\r\n    }\r\n\r\n    function _baseURI() internal view override returns (string memory) {\r\n        return _internalBaseURI;\r\n    }\r\n\r\n}",
  "sourcePath": "D:\\sabakalavro\\smart-contracts-dapp\\contracts\\Collection.sol",
  "compiler": {
    "name": "solc",
    "version": "0.8.4+commit.c7e474f2.Emscripten.clang"
  },
  "schemaVersion": "3.4.7",
  "updatedAt": "2022-05-29T16:12:01.279Z",
  "devdoc": {
    "kind": "dev",
    "methods": {
      "approve(address,uint256)": {
        "details": "See {IERC721-approve}."
      },
      "balanceOf(address)": {
        "details": "See {IERC721-balanceOf}."
      },
      "getApproved(uint256)": {
        "details": "See {IERC721-getApproved}."
      },
      "getRoleAdmin(bytes32)": {
        "details": "Returns the admin role that controls `role`. See {grantRole} and {revokeRole}. To change a role's admin, use {_setRoleAdmin}."
      },
      "getRoleMember(bytes32,uint256)": {
        "details": "Returns one of the accounts that have `role`. `index` must be a value between 0 and {getRoleMemberCount}, non-inclusive. Role bearers are not sorted in any particular way, and their ordering may change at any point. WARNING: When using {getRoleMember} and {getRoleMemberCount}, make sure you perform all queries on the same block. See the following https://forum.openzeppelin.com/t/iterating-over-elements-on-enumerableset-in-openzeppelin-contracts/2296[forum post] for more information."
      },
      "getRoleMemberCount(bytes32)": {
        "details": "Returns the number of accounts that have `role`. Can be used together with {getRoleMember} to enumerate all bearers of a role."
      },
      "grantRole(bytes32,address)": {
        "details": "Grants `role` to `account`. If `account` had not been already granted `role`, emits a {RoleGranted} event. Requirements: - the caller must have ``role``'s admin role."
      },
      "hasRole(bytes32,address)": {
        "details": "Returns `true` if `account` has been granted `role`."
      },
      "isApprovedForAll(address,address)": {
        "details": "See {IERC721-isApprovedForAll}."
      },
      "name()": {
        "details": "See {IERC721Metadata-name}."
      },
      "owner()": {
        "details": "Returns the address of the current owner."
      },
      "ownerOf(uint256)": {
        "details": "See {IERC721-ownerOf}."
      },
      "renounceOwnership()": {
        "details": "Leaves the contract without owner. It will not be possible to call `onlyOwner` functions anymore. Can only be called by the current owner. NOTE: Renouncing ownership will leave the contract without an owner, thereby removing any functionality that is only available to the owner."
      },
      "renounceRole(bytes32,address)": {
        "details": "Revokes `role` from the calling account. Roles are often managed via {grantRole} and {revokeRole}: this function's purpose is to provide a mechanism for accounts to lose their privileges if they are compromised (such as when a trusted device is misplaced). If the calling account had been revoked `role`, emits a {RoleRevoked} event. Requirements: - the caller must be `account`."
      },
      "revokeRole(bytes32,address)": {
        "details": "Revokes `role` from `account`. If `account` had been granted `role`, emits a {RoleRevoked} event. Requirements: - the caller must have ``role``'s admin role."
      },
      "safeTransferFrom(address,address,uint256)": {
        "details": "See {IERC721-safeTransferFrom}."
      },
      "safeTransferFrom(address,address,uint256,bytes)": {
        "details": "See {IERC721-safeTransferFrom}."
      },
      "setApprovalForAll(address,bool)": {
        "details": "See {IERC721-setApprovalForAll}."
      },
      "symbol()": {
        "details": "See {IERC721Metadata-symbol}."
      },
      "tokenByIndex(uint256)": {
        "details": "See {IERC721Enumerable-tokenByIndex}."
      },
      "tokenOfOwnerByIndex(address,uint256)": {
        "details": "See {IERC721Enumerable-tokenOfOwnerByIndex}."
      },
      "totalSupply()": {
        "details": "See {IERC721Enumerable-totalSupply}."
      },
      "transferFrom(address,address,uint256)": {
        "details": "See {IERC721-transferFrom}."
      },
      "transferOwnership(address)": {
        "details": "Transfers ownership of the contract to a new account (`newOwner`). Can only be called by the current owner."
      }
    },
    "version": 1
  },
  "userdoc": {
    "kind": "user",
    "methods": {},
    "version": 1
  }
}