{
  "contractName": "Controller",
  "abi": [
    {
      "anonymous": false,
      "inputs": [
        {
          "indexed": false,
          "internalType": "uint256",
          "name": "_tokenId",
          "type": "uint256"
        },
        {
          "indexed": false,
          "internalType": "uint256",
          "name": "_newPrice",
          "type": "uint256"
        }
      ],
      "name": "AuctionIteration",
      "type": "event"
    },
    {
      "anonymous": false,
      "inputs": [
        {
          "indexed": false,
          "internalType": "uint256",
          "name": "_tokenId",
          "type": "uint256"
        },
        {
          "indexed": false,
          "internalType": "uint256",
          "name": "_stepPrice",
          "type": "uint256"
        },
        {
          "indexed": false,
          "internalType": "uint256",
          "name": "_stepTime",
          "type": "uint256"
        }
      ],
      "name": "AuctionRequest",
      "type": "event"
    },
    {
      "anonymous": false,
      "inputs": [
        {
          "indexed": false,
          "internalType": "uint256",
          "name": "_tokenId",
          "type": "uint256"
        },
        {
          "indexed": false,
          "internalType": "address",
          "name": "from",
          "type": "address"
        },
        {
          "indexed": false,
          "internalType": "address",
          "name": "to",
          "type": "address"
        }
      ],
      "name": "BuyNFT",
      "type": "event"
    },
    {
      "anonymous": false,
      "inputs": [
        {
          "indexed": false,
          "internalType": "uint8",
          "name": "version",
          "type": "uint8"
        }
      ],
      "name": "Initialized",
      "type": "event"
    },
    {
      "anonymous": false,
      "inputs": [
        {
          "indexed": false,
          "internalType": "uint256",
          "name": "_tokenId",
          "type": "uint256"
        },
        {
          "indexed": false,
          "internalType": "address",
          "name": "_minter",
          "type": "address"
        },
        {
          "indexed": false,
          "internalType": "string",
          "name": "uri",
          "type": "string"
        },
        {
          "indexed": false,
          "internalType": "bytes32",
          "name": "_title",
          "type": "bytes32"
        },
        {
          "indexed": false,
          "internalType": "bytes32",
          "name": "_description",
          "type": "bytes32"
        },
        {
          "indexed": false,
          "internalType": "uint256",
          "name": "_price",
          "type": "uint256"
        },
        {
          "indexed": false,
          "internalType": "uint256",
          "name": "rentPrice",
          "type": "uint256"
        },
        {
          "indexed": false,
          "internalType": "uint256",
          "name": "rentDuration",
          "type": "uint256"
        },
        {
          "indexed": false,
          "internalType": "uint256",
          "name": "videoDuration",
          "type": "uint256"
        }
      ],
      "name": "Mint",
      "type": "event"
    },
    {
      "anonymous": false,
      "inputs": [
        {
          "indexed": false,
          "internalType": "uint256",
          "name": "_tokenId",
          "type": "uint256"
        },
        {
          "indexed": false,
          "internalType": "address",
          "name": "renter",
          "type": "address"
        }
      ],
      "name": "PayForRent",
      "type": "event"
    },
    {
      "anonymous": false,
      "inputs": [
        {
          "indexed": false,
          "internalType": "uint256",
          "name": "_tokenId",
          "type": "uint256"
        },
        {
          "indexed": false,
          "internalType": "uint256",
          "name": "start",
          "type": "uint256"
        },
        {
          "indexed": false,
          "internalType": "uint256",
          "name": "duration",
          "type": "uint256"
        }
      ],
      "name": "RentFinishTime",
      "type": "event"
    },
    {
      "anonymous": false,
      "inputs": [
        {
          "indexed": false,
          "internalType": "uint256",
          "name": "_tokenId",
          "type": "uint256"
        },
        {
          "indexed": false,
          "internalType": "address",
          "name": "mainRenter",
          "type": "address"
        },
        {
          "indexed": false,
          "internalType": "address[]",
          "name": "coOwners",
          "type": "address[]"
        }
      ],
      "name": "RentRequest",
      "type": "event"
    },
    {
      "anonymous": false,
      "inputs": [
        {
          "indexed": false,
          "internalType": "uint256",
          "name": "_tokenId",
          "type": "uint256"
        },
        {
          "indexed": false,
          "internalType": "address[]",
          "name": "coOwners",
          "type": "address[]"
        }
      ],
      "name": "RentStarted",
      "type": "event"
    },
    {
      "anonymous": false,
      "inputs": [
        {
          "indexed": true,
          "internalType": "bytes32",
          "name": "role",
          "type": "bytes32"
        },
        {
          "indexed": true,
          "internalType": "bytes32",
          "name": "previousAdminRole",
          "type": "bytes32"
        },
        {
          "indexed": true,
          "internalType": "bytes32",
          "name": "newAdminRole",
          "type": "bytes32"
        }
      ],
      "name": "RoleAdminChanged",
      "type": "event"
    },
    {
      "anonymous": false,
      "inputs": [
        {
          "indexed": true,
          "internalType": "bytes32",
          "name": "role",
          "type": "bytes32"
        },
        {
          "indexed": true,
          "internalType": "address",
          "name": "account",
          "type": "address"
        },
        {
          "indexed": true,
          "internalType": "address",
          "name": "sender",
          "type": "address"
        }
      ],
      "name": "RoleGranted",
      "type": "event"
    },
    {
      "anonymous": false,
      "inputs": [
        {
          "indexed": true,
          "internalType": "bytes32",
          "name": "role",
          "type": "bytes32"
        },
        {
          "indexed": true,
          "internalType": "address",
          "name": "account",
          "type": "address"
        },
        {
          "indexed": true,
          "internalType": "address",
          "name": "sender",
          "type": "address"
        }
      ],
      "name": "RoleRevoked",
      "type": "event"
    },
    {
      "inputs": [],
      "name": "DEFAULT_ADMIN_ROLE",
      "outputs": [
        {
          "internalType": "bytes32",
          "name": "",
          "type": "bytes32"
        }
      ],
      "stateMutability": "view",
      "type": "function"
    },
    {
      "inputs": [],
      "name": "MINTER_ROLE",
      "outputs": [
        {
          "internalType": "bytes32",
          "name": "",
          "type": "bytes32"
        }
      ],
      "stateMutability": "view",
      "type": "function"
    },
    {
      "inputs": [],
      "name": "dynamicNFTCollectionAddress",
      "outputs": [
        {
          "internalType": "address",
          "name": "",
          "type": "address"
        }
      ],
      "stateMutability": "view",
      "type": "function"
    },
    {
      "inputs": [],
      "name": "eternalStorage",
      "outputs": [
        {
          "internalType": "address",
          "name": "",
          "type": "address"
        }
      ],
      "stateMutability": "view",
      "type": "function"
    },
    {
      "inputs": [
        {
          "internalType": "bytes32",
          "name": "role",
          "type": "bytes32"
        }
      ],
      "name": "getRoleAdmin",
      "outputs": [
        {
          "internalType": "bytes32",
          "name": "",
          "type": "bytes32"
        }
      ],
      "stateMutability": "view",
      "type": "function"
    },
    {
      "inputs": [
        {
          "internalType": "bytes32",
          "name": "role",
          "type": "bytes32"
        },
        {
          "internalType": "address",
          "name": "account",
          "type": "address"
        }
      ],
      "name": "grantRole",
      "outputs": [],
      "stateMutability": "nonpayable",
      "type": "function"
    },
    {
      "inputs": [
        {
          "internalType": "bytes32",
          "name": "role",
          "type": "bytes32"
        },
        {
          "internalType": "address",
          "name": "account",
          "type": "address"
        }
      ],
      "name": "hasRole",
      "outputs": [
        {
          "internalType": "bool",
          "name": "",
          "type": "bool"
        }
      ],
      "stateMutability": "view",
      "type": "function"
    },
    {
      "inputs": [
        {
          "internalType": "bytes32",
          "name": "role",
          "type": "bytes32"
        },
        {
          "internalType": "address",
          "name": "account",
          "type": "address"
        }
      ],
      "name": "renounceRole",
      "outputs": [],
      "stateMutability": "nonpayable",
      "type": "function"
    },
    {
      "inputs": [
        {
          "internalType": "bytes32",
          "name": "role",
          "type": "bytes32"
        },
        {
          "internalType": "address",
          "name": "account",
          "type": "address"
        }
      ],
      "name": "revokeRole",
      "outputs": [],
      "stateMutability": "nonpayable",
      "type": "function"
    },
    {
      "inputs": [
        {
          "internalType": "bytes4",
          "name": "interfaceId",
          "type": "bytes4"
        }
      ],
      "name": "supportsInterface",
      "outputs": [
        {
          "internalType": "bool",
          "name": "",
          "type": "bool"
        }
      ],
      "stateMutability": "view",
      "type": "function"
    },
    {
      "inputs": [],
      "name": "tokenId",
      "outputs": [
        {
          "internalType": "uint256",
          "name": "",
          "type": "uint256"
        }
      ],
      "stateMutability": "view",
      "type": "function"
    },
    {
      "inputs": [
        {
          "internalType": "address",
          "name": "_eternalStorage",
          "type": "address"
        },
        {
          "internalType": "address",
          "name": "_dynamicNFTCollectionAddress",
          "type": "address"
        }
      ],
      "name": "initialize",
      "outputs": [],
      "stateMutability": "nonpayable",
      "type": "function"
    },
    {
      "inputs": [
        {
          "internalType": "string",
          "name": "uri",
          "type": "string"
        },
        {
          "internalType": "bytes32",
          "name": "_title",
          "type": "bytes32"
        },
        {
          "internalType": "bytes32",
          "name": "_description",
          "type": "bytes32"
        },
        {
          "internalType": "uint256",
          "name": "_price",
          "type": "uint256"
        },
        {
          "internalType": "uint256",
          "name": "rentPrice",
          "type": "uint256"
        },
        {
          "internalType": "uint256",
          "name": "rentDuration",
          "type": "uint256"
        },
        {
          "internalType": "uint256",
          "name": "videoDuration",
          "type": "uint256"
        }
      ],
      "name": "mint",
      "outputs": [
        {
          "internalType": "uint256",
          "name": "",
          "type": "uint256"
        }
      ],
      "stateMutability": "nonpayable",
      "type": "function"
    },
    {
      "inputs": [
        {
          "internalType": "uint256",
          "name": "_tokenId",
          "type": "uint256"
        },
        {
          "internalType": "uint256",
          "name": "_stepPrice",
          "type": "uint256"
        },
        {
          "internalType": "uint256",
          "name": "_stepTime",
          "type": "uint256"
        }
      ],
      "name": "auctionRequest",
      "outputs": [],
      "stateMutability": "nonpayable",
      "type": "function"
    },
    {
      "inputs": [
        {
          "internalType": "uint256",
          "name": "_tokenId",
          "type": "uint256"
        }
      ],
      "name": "iterAuction",
      "outputs": [],
      "stateMutability": "nonpayable",
      "type": "function"
    },
    {
      "inputs": [
        {
          "internalType": "uint256",
          "name": "_tokenId",
          "type": "uint256"
        }
      ],
      "name": "buyNFT",
      "outputs": [],
      "stateMutability": "payable",
      "type": "function"
    },
    {
      "inputs": [
        {
          "internalType": "uint256",
          "name": "_tokenId",
          "type": "uint256"
        },
        {
          "internalType": "bytes32",
          "name": "coOwners",
          "type": "bytes32"
        },
        {
          "internalType": "address[]",
          "name": "coOwnersList",
          "type": "address[]"
        }
      ],
      "name": "rentRequest",
      "outputs": [],
      "stateMutability": "payable",
      "type": "function"
    },
    {
      "inputs": [
        {
          "internalType": "uint256",
          "name": "_tokenId",
          "type": "uint256"
        },
        {
          "internalType": "address",
          "name": "mainRenter",
          "type": "address"
        },
        {
          "internalType": "bytes32[]",
          "name": "proof",
          "type": "bytes32[]"
        }
      ],
      "name": "rentByPeer",
      "outputs": [],
      "stateMutability": "payable",
      "type": "function"
    },
    {
      "inputs": [
        {
          "internalType": "uint256",
          "name": "_tokenId",
          "type": "uint256"
        },
        {
          "internalType": "address",
          "name": "mainRenter",
          "type": "address"
        },
        {
          "internalType": "bytes32[]",
          "name": "proof",
          "type": "bytes32[]"
        }
      ],
      "name": "renterAllowedToWatch",
      "outputs": [
        {
          "internalType": "bool",
          "name": "",
          "type": "bool"
        }
      ],
      "stateMutability": "nonpayable",
      "type": "function"
    },
    {
      "inputs": [
        {
          "internalType": "uint256",
          "name": "_tokenId",
          "type": "uint256"
        }
      ],
      "name": "allowedToWatch",
      "outputs": [
        {
          "internalType": "bool",
          "name": "",
          "type": "bool"
        }
      ],
      "stateMutability": "view",
      "type": "function"
    },
    {
      "inputs": [
        {
          "internalType": "uint256",
          "name": "_tokenId",
          "type": "uint256"
        }
      ],
      "name": "getMediaRentPrice",
      "outputs": [
        {
          "internalType": "uint256",
          "name": "",
          "type": "uint256"
        }
      ],
      "stateMutability": "view",
      "type": "function"
    },
    {
      "inputs": [
        {
          "internalType": "uint256",
          "name": "_tokenId",
          "type": "uint256"
        },
        {
          "internalType": "address",
          "name": "mainRenter",
          "type": "address"
        },
        {
          "internalType": "address",
          "name": "peer",
          "type": "address"
        }
      ],
      "name": "canRemovePeer",
      "outputs": [
        {
          "internalType": "bool",
          "name": "",
          "type": "bool"
        }
      ],
      "stateMutability": "view",
      "type": "function"
    },
    {
      "inputs": [
        {
          "internalType": "uint256",
          "name": "_tokenId",
          "type": "uint256"
        },
        {
          "internalType": "address",
          "name": "mainRenter",
          "type": "address"
        }
      ],
      "name": "getPaidRentCumulativeValue",
      "outputs": [
        {
          "internalType": "uint256",
          "name": "",
          "type": "uint256"
        }
      ],
      "stateMutability": "view",
      "type": "function"
    },
    {
      "inputs": [
        {
          "internalType": "uint256",
          "name": "_tokenId",
          "type": "uint256"
        },
        {
          "internalType": "address",
          "name": "renter",
          "type": "address"
        }
      ],
      "name": "resetRentStatus",
      "outputs": [],
      "stateMutability": "nonpayable",
      "type": "function"
    },
    {
      "inputs": [
        {
          "internalType": "uint256",
          "name": "_tokenId",
          "type": "uint256"
        }
      ],
      "name": "isRented",
      "outputs": [
        {
          "internalType": "bool",
          "name": "",
          "type": "bool"
        }
      ],
      "stateMutability": "view",
      "type": "function"
    },
    {
      "inputs": [
        {
          "internalType": "uint256",
          "name": "_tokenId",
          "type": "uint256"
        }
      ],
      "name": "getMediaInfo",
      "outputs": [
        {
          "internalType": "bytes32",
          "name": "",
          "type": "bytes32"
        },
        {
          "internalType": "bytes32",
          "name": "",
          "type": "bytes32"
        },
        {
          "internalType": "uint256",
          "name": "",
          "type": "uint256"
        },
        {
          "internalType": "uint256",
          "name": "",
          "type": "uint256"
        },
        {
          "internalType": "uint256",
          "name": "",
          "type": "uint256"
        },
        {
          "internalType": "uint256",
          "name": "",
          "type": "uint256"
        }
      ],
      "stateMutability": "view",
      "type": "function"
    }
  ],
  "bytecode": "0x608060405234801561001057600080fd5b50612f67806100206000396000f3fe60806040526004361061019e576000357c01000000000000000000000000000000000000000000000000000000009004806391d14854116100ee578063a2cc5309116100a7578063d539139311610081578063d5391393146104a1578063d547741f146104d5578063e7181465146104f5578063ed8d172f1461051557600080fd5b8063a2cc53091461044e578063aa15d40f14610461578063b1861a611461048157600080fd5b806391d148541461035457806398ff9c54146103745780639f375670146103ac578063a0fd9421146103cc578063a1bffc20146103ec578063a217fddf1461043957600080fd5b80633bc5408b1161015b57806351ed82881161013557806351ed8288146102e1578063796458ea146102f45780637bc699ca146103145780638aa7d60c1461033457600080fd5b80633bc5408b1461028e578063430f6bc3146102a1578063485cc955146102c157600080fd5b806301ffc9a7146101a357806304e94133146101d857806317d70f7c14610206578063248a9ca31461021c5780632f2ff15d1461024c57806336568abe1461026e575b600080fd5b3480156101af57600080fd5b506101c36101be366004612825565b610535565b60405190151581526020015b60405180910390f35b3480156101e457600080fd5b506101f86101f3366004612862565b6105c8565b6040519081526020016101cf565b34801561021257600080fd5b506101f860995481565b34801561022857600080fd5b506101f8610237366004612788565b60009081526065602052604090206001015490565b34801561025857600080fd5b5061026c6102673660046127b8565b6107f0565b005b34801561027a57600080fd5b5061026c6102893660046127b8565b61081a565b61026c61029c366004612a11565b6108ae565b3480156102ad57600080fd5b5061026c6102bc366004612aaf565b610a4a565b3480156102cd57600080fd5b5061026c6102dc366004612692565b610b6a565b61026c6102ef366004612788565b610c2e565b34801561030057600080fd5b5061026c61030f3660046127b8565b610fa0565b34801561032057600080fd5b506101c361032f366004612788565b611033565b34801561034057600080fd5b5061026c61034f366004612788565b61111e565b34801561036057600080fd5b506101c361036f3660046127b8565b6113ed565b34801561038057600080fd5b5060975461039490600160a060020a031681565b604051600160a060020a0390911681526020016101cf565b3480156103b857600080fd5b506101c36103c7366004612922565b611418565b3480156103d857600080fd5b506101c36103e7366004612963565b6114e3565b3480156103f857600080fd5b5061040c610407366004612788565b6116f1565b604080519687526020870195909552938501929092526060840152608083015260a082015260c0016101cf565b34801561044557600080fd5b506101f8600081565b61026c61045c366004612963565b6117bf565b34801561046d57600080fd5b506101c361047c366004612788565b611e48565b34801561048d57600080fd5b5060985461039490600160a060020a031681565b3480156104ad57600080fd5b506101f87f9f2df0fed2c77648de5860a4cc508cd0818c85b8b8a1ab4ceeef8d981c8956a681565b3480156104e157600080fd5b5061026c6104f03660046127b8565b611efa565b34801561050157600080fd5b506101f86105103660046127b8565b611f1f565b34801561052157600080fd5b506101f8610530366004612788565b611fda565b60007bffffffffffffffffffffffffffffffffffffffffffffffffffffffff1982167f7965db0b0000000000000000000000000000000000000000000000000000000014806105c257507f01ffc9a7000000000000000000000000000000000000000000000000000000007bffffffffffffffffffffffffffffffffffffffffffffffffffffffff198316145b92915050565b600060995460016105d99190612e3a565b6099819055609a546040517f40c10f19000000000000000000000000000000000000000000000000000000008152600160a060020a03909116916340c10f1991610627913391600401612bf7565b600060405180830381600087803b15801561064157600080fd5b505af1158015610655573d6000803e3d6000fd5b5050609a546099546040517f162094c4000000000000000000000000000000000000000000000000000000008152600160a060020a03909216935063162094c492506106a5918c90600401612dcc565b600060405180830381600087803b1580156106bf57600080fd5b505af11580156106d3573d6000803e3d6000fd5b50506097546099546040517fa015407f000000000000000000000000000000000000000000000000000000008152600160a060020a0390921660048301526024820152604481018a9052606481018990526084810188905260a4810187905260c4810186905260e4810185905273__NFTLibrary____________________________925063a015407f91506101040160006040518083038186803b15801561077a57600080fd5b505af415801561078e573d6000803e3d6000fd5b505050507f1ed91fe96533b4bbee40063372d22ade48ee0e066536bc0c277e55c92c224e9e6099546107bd3390565b8a8a8a8a8a8a8a6040516107d999989796959493929190612d4d565b60405180910390a150609954979650505050505050565b60008281526065602052604090206001015461080b8161208c565b6108158383612099565b505050565b600160a060020a03811633146108a05760405160e560020a62461bcd02815260206004820152602f60248201527f416363657373436f6e74726f6c3a2063616e206f6e6c792072656e6f756e636560448201527f20726f6c657320666f722073656c66000000000000000000000000000000000060648201526084015b60405180910390fd5b6108aa828261211f565b5050565b60975481516040517f86daae0e00000000000000000000000000000000000000000000000000000000815273__NFTLibrary____________________________926386daae0e9261091892600160a060020a03909216918891339189919089903490600401612c33565b60006040518083038186803b15801561093057600080fd5b505af4158015610944573d6000803e3d6000fd5b5050609a5460405160e160020a6331a9108f028152600481018790526109d19350600160a060020a039091169150636352211e906024015b60206040518083038186803b15801561099457600080fd5b505afa1580156109a8573d6000803e3d6000fd5b505050506040513d601f19601f820116820180604052508101906109cc9190612676565b612186565b7fff95605c1af6046ab9ec02130b6fb52bced2e7a95e491db9da537f47cf5fb2c4833383604051610a0493929190612d25565b60405180910390a1604080518481523360208201527fc4bfcc3dcb3b93bb77753c58bf8b0700daae507b6afc6a25a6f114e02787114d91015b60405180910390a1505050565b609a5460405160e160020a6331a9108f02815260048101859052600160a060020a0390911690636352211e9060240160206040518083038186803b158015610a9157600080fd5b505afa158015610aa5573d6000803e3d6000fd5b505050506040513d601f19601f82011682018060405250810190610ac99190612676565b600160a060020a031633600160a060020a031614610b2c5760405160e560020a62461bcd02815260206004820152600c60248201527f6e6f7420616e206f776e657200000000000000000000000000000000000000006044820152606401610897565b60408051848152602081018490529081018290527f929a3f5b842f9ea350ec5a9e6640afd637d8f0b818b4de4322d2a5121c970ed990606001610a3d565b6000610b7660016121bb565b90508015610b8e576000805461ff0019166101001790555b60978054600160a060020a0380861673ffffffffffffffffffffffffffffffffffffffff19928316179092556098805492851692821683179055609a805490911690911790556000609955610be1612249565b610bec6000336122cb565b8015610815576000805461ff0019169055604051600181527f7f26b83ff96e1f2b6a682f133852f6798a09c465da95921460cefb384740249890602001610a3d565b6097546040517f8ab49a6000000000000000000000000000000000000000000000000000000000815273__NFTLibrary____________________________91638ab49a6091610c8b91600160a060020a0316908590600401612bf7565b60206040518083038186803b158015610ca357600080fd5b505af4158015610cb7573d6000803e3d6000fd5b505050506040513d601f19601f82011682018060405250810190610cdb9190612768565b15610d2b5760405160e560020a62461bcd02815260206004820152601060248201527f6d656469612072656e746564206e6f77000000000000000000000000000000006044820152606401610897565b609a5460995460405160e160020a6331a9108f0281526004810191909152600091600160a060020a031690636352211e9060240160206040518083038186803b158015610d7757600080fd5b505afa158015610d8b573d6000803e3d6000fd5b505050506040513d601f19601f82011682018060405250810190610daf9190612676565b90506000336097546040517fb1c50e4e00000000000000000000000000000000000000000000000000000000815291925060009173__NFTLibrary____________________________9163b1c50e4e91610e1791600160a060020a0316908890600401612bf7565b60206040518083038186803b158015610e2f57600080fd5b505af4158015610e43573d6000803e3d6000fd5b505050506040513d601f19601f82011682018060405250810190610e6791906127a0565b905080341015610ebc5760405160e560020a62461bcd02815260206004820152601060248201527f4e6f7420656e6f7567682066756e6473000000000000000000000000000000006044820152606401610897565b609a546040517f153e66e6000000000000000000000000000000000000000000000000000000008152600160a060020a0385811660048301528481166024830152604482018790529091169063153e66e690606401600060405180830381600087803b158015610f2b57600080fd5b505af1158015610f3f573d6000803e3d6000fd5b50505050610f4c83612186565b60408051858152600160a060020a0380861660208301528416918101919091527f83374a9e9accd6ef205e7de68ba2962060f387796cdedc3e99563fa627bf0bd2906060015b60405180910390a150505050565b6097546040517f3727bf7800000000000000000000000000000000000000000000000000000000815273__NFTLibrary____________________________91633727bf7891610fff91600160a060020a03169086908690600401612c10565b60006040518083038186803b15801561101757600080fd5b505af415801561102b573d6000803e3d6000fd5b505050505050565b609a5460405160e160020a6331a9108f02815260048101839052600091600160a060020a031690636352211e9060240160206040518083038186803b15801561107b57600080fd5b505afa15801561108f573d6000803e3d6000fd5b505050506040513d601f19601f820116820180604052508101906110b39190612676565b600160a060020a031633600160a060020a0316146111165760405160e560020a62461bcd02815260206004820152600960248201527f6e6f74206f776e657200000000000000000000000000000000000000000000006044820152606401610897565b506001919050565b6097546040517f8681c7e90000000000000000000000000000000000000000000000000000000081526000918291829173__NFTLibrary____________________________91638681c7e99161118491600160a060020a03909116908890600401612bf7565b60606040518083038186803b15801561119c57600080fd5b505af41580156111b0573d6000803e3d6000fd5b505050506040513d601f19601f820116820180604052508101906111d49190612ada565b6097546040517fb1c50e4e000000000000000000000000000000000000000000000000000000008152939650919450925060009173__NFTLibrary____________________________9163b1c50e4e9161123c91600160a060020a0316908990600401612bf7565b60206040518083038186803b15801561125457600080fd5b505af4158015611268573d6000803e3d6000fd5b505050506040513d601f19601f8201168201806040525081019061128c91906127a0565b90508281116113065760405160e560020a62461bcd02815260206004820152602360248201527f4e4654207072696365206d7573742062652067726561746572207468616e207a60448201527f65726f00000000000000000000000000000000000000000000000000000000006064820152608401610897565b60006113128483612e71565b6097546040517fb26cf462000000000000000000000000000000000000000000000000000000008152600160a060020a039091166004820152602481018890526044810182905290915073__NFTLibrary____________________________9063b26cf4629060640160006040518083038186803b15801561139357600080fd5b505af41580156113a7573d6000803e3d6000fd5b505060408051898152602081018590527f43c302d7c0e8e45156e8a77e7d83c59c52072bcad68e7a0575ebedbd7e0eb2a0935001905060405180910390a1505050505050565b6000918252606560209081526040808420600160a060020a0393909316845291905290205460ff1690565b6097546040517fcf15109c000000000000000000000000000000000000000000000000000000008152600160a060020a039182166004820152602481018590528382166044820152908216606482015260009073__NFTLibrary____________________________9063cf15109c9060840160206040518083038186803b1580156114a257600080fd5b505af41580156114b6573d6000803e3d6000fd5b505050506040513d601f19601f820116820180604052508101906114da9190612768565b15949350505050565b6097546040517f49fc540b000000000000000000000000000000000000000000000000000000008152600091829173__NFTLibrary____________________________916349fc540b9161154791600160a060020a03169089908990600401612c10565b60206040518083038186803b15801561155f57600080fd5b505af4158015611573573d6000803e3d6000fd5b505050506040513d601f19601f8201168201806040525081019061159791906127a0565b90506115ea8133604051600160a060020a03919091166c0100000000000000000000000002602082015260340160405160208183030381529060405280519060200120856122d59092919063ffffffff16565b6116395760405160e560020a62461bcd02815260206004820152601360248201527f41646472657373206e6f7420696e206c697374000000000000000000000000006044820152606401610897565b6097546040517ffcb9975900000000000000000000000000000000000000000000000000000000815273__NFTLibrary____________________________9163fcb997599161169891600160a060020a03169089908990600401612c10565b60206040518083038186803b1580156116b057600080fd5b505af41580156116c4573d6000803e3d6000fd5b505050506040513d601f19601f820116820180604052508101906116e89190612768565b95945050505050565b6097546040517fc95813370000000000000000000000000000000000000000000000000000000081526000918291829182918291829173__NFTLibrary____________________________9163c95813379161175b91600160a060020a0316908b90600401612bf7565b60c06040518083038186803b15801561177357600080fd5b505af4158015611787573d6000803e3d6000fd5b505050506040513d601f19601f820116820180604052508101906117ab91906127dc565b949c939b5091995097509550909350915050565b6097546040517f8ab49a6000000000000000000000000000000000000000000000000000000000815273__NFTLibrary____________________________91638ab49a609161181c91600160a060020a0316908790600401612bf7565b60206040518083038186803b15801561183457600080fd5b505af4158015611848573d6000803e3d6000fd5b505050506040513d601f19601f8201168201806040525081019061186c9190612768565b156118bc5760405160e560020a62461bcd02815260206004820152601060248201527f6d656469612072656e746564206e6f77000000000000000000000000000000006044820152606401610897565b6097546040517f49fc540b00000000000000000000000000000000000000000000000000000000815260009173__NFTLibrary____________________________916349fc540b9161192091600160a060020a039091169088908890600401612c10565b60206040518083038186803b15801561193857600080fd5b505af415801561194c573d6000803e3d6000fd5b505050506040513d601f19601f8201168201806040525081019061197091906127a0565b90506119c38133604051600160a060020a03919091166c0100000000000000000000000002602082015260340160405160208183030381529060405280519060200120846122d59092919063ffffffff16565b611a125760405160e560020a62461bcd02815260206004820152601360248201527f41646472657373206e6f7420696e206c697374000000000000000000000000006044820152606401610897565b609a5460405160e160020a6331a9108f02815260048101869052611a4891600160a060020a031690636352211e9060240161097c565b609754604080517fe77ed5b6000000000000000000000000000000000000000000000000000000008152600160a060020a0392831660048201526024810187905291851660448301523360648301523460848301525173__NFTLibrary____________________________9163e77ed5b69160a4808301926000929190829003018186803b158015611ad957600080fd5b505af4158015611aed573d6000803e3d6000fd5b50506097546040517ffcb9975900000000000000000000000000000000000000000000000000000000815273__NFTLibrary____________________________935063fcb997599250611b5091600160a060020a03169088908890600401612c10565b60206040518083038186803b158015611b6857600080fd5b505af4158015611b7c573d6000803e3d6000fd5b505050506040513d601f19601f82011682018060405250810190611ba09190612768565b15611e13576097546040517ff11bca5800000000000000000000000000000000000000000000000000000000815273__NFTLibrary____________________________9163f11bca5891611c0291600160a060020a0316908890600401612bf7565b60006040518083038186803b158015611c1a57600080fd5b505af4158015611c2e573d6000803e3d6000fd5b50506097546040517fa26cbe5c0000000000000000000000000000000000000000000000000000000081527f0b1d8003365ec1403df6203adb593e0b471622baaeec50cdca77e11d33169cc19350879250429173__NFTLibrary____________________________9163a26cbe5c91611cb791600160a060020a03909116908690600401612bf7565b60206040518083038186803b158015611ccf57600080fd5b505af4158015611ce3573d6000803e3d6000fd5b505050506040513d601f19601f82011682018060405250810190611d0791906127a0565b6040805193845260208401929092529082015260600160405180910390a16097546040517f5aceb8360000000000000000000000000000000000000000000000000000000081527f5e13278793d5db0f9703bc32f08d8fd51e9cfb843276306817b5a4e22b9d3a8b91869173__NFTLibrary____________________________91635aceb83691611da891600160a060020a03169085908a90600401612c10565b60006040518083038186803b158015611dc057600080fd5b505af4158015611dd4573d6000803e3d6000fd5b505050506040513d6000823e601f3d908101601f19168201604052611dfc91908101906126ca565b604051611e0a929190612dab565b60405180910390a15b604080518581523360208201527fc4bfcc3dcb3b93bb77753c58bf8b0700daae507b6afc6a25a6f114e02787114d9101610f92565b6097546040517f8ab49a6000000000000000000000000000000000000000000000000000000000815260009173__NFTLibrary____________________________91638ab49a6091611eaa91600160a060020a03909116908690600401612bf7565b60206040518083038186803b158015611ec257600080fd5b505af4158015611ed6573d6000803e3d6000fd5b505050506040513d601f19601f820116820180604052508101906105c29190612768565b600082815260656020526040902060010154611f158161208c565b610815838361211f565b6097546040517f6c42b1dd00000000000000000000000000000000000000000000000000000000815260009173__NFTLibrary____________________________91636c42b1dd91611f8391600160a060020a039091169087908790600401612c10565b60206040518083038186803b158015611f9b57600080fd5b505af4158015611faf573d6000803e3d6000fd5b505050506040513d601f19601f82011682018060405250810190611fd391906127a0565b9392505050565b6097546040517fad0c773800000000000000000000000000000000000000000000000000000000815260009173__NFTLibrary____________________________9163ad0c77389161203c91600160a060020a03909116908690600401612bf7565b60206040518083038186803b15801561205457600080fd5b505af4158015612068573d6000803e3d6000fd5b505050506040513d601f19601f820116820180604052508101906105c291906127a0565b61209681336122eb565b50565b6120a382826113ed565b6108aa576000828152606560209081526040808320600160a060020a03851684529091529020805460ff191660011790556120db3390565b600160a060020a031681600160a060020a0316837f2f8788117e7eff1d82e926ec794901d17c78024a50270940304540a733656f0d60405160405180910390a45050565b61212982826113ed565b156108aa576000828152606560209081526040808320600160a060020a0385168085529252808320805460ff1916905551339285917ff6391f5c32d9c69d2a47ea670b442974b53935d1edc7fd64eb21e047a839171b9190a45050565b604051600160a060020a038216903480156108fc02916000818181858888f193505050501580156108aa573d6000803e3d6000fd5b60008054610100900460ff1615612205578160ff1660011480156121de5750303b155b6121fd5760405160e560020a62461bcd02815260040161089790612cc8565b506000919050565b60005460ff80841691161061222f5760405160e560020a62461bcd02815260040161089790612cc8565b506000805460ff191660ff92909216919091179055600190565b600054610100900460ff166122c95760405160e560020a62461bcd02815260206004820152602b60248201527f496e697469616c697a61626c653a20636f6e7472616374206973206e6f74206960448201527f6e697469616c697a696e670000000000000000000000000000000000000000006064820152608401610897565b565b6108aa8282612099565b6000826122e28584612352565b14949350505050565b6122f582826113ed565b6108aa5761230d81600160a060020a031660146123d7565b6123188360206123d7565b604051602001612329929190612b76565b60408051601f198184030181529082905260e560020a62461bcd02825261089791600401612cb5565b600081815b84518110156123cf5760008582815181106123855760e060020a634e487b7102600052603260045260246000fd5b602002602001015190508083116123ab57600083815260208290526040902092506123bc565b600081815260208490526040902092505b50806123c781612ecf565b915050612357565b509392505050565b606060006123e6836002612e52565b6123f1906002612e3a565b67ffffffffffffffff81111561241a5760e060020a634e487b7102600052604160045260246000fd5b6040519080825280601f01601f191660200182016040528015612444576020820181803683370190505b5090507f30000000000000000000000000000000000000000000000000000000000000008160008151811061248c5760e060020a634e487b7102600052603260045260246000fd5b60200101907effffffffffffffffffffffffffffffffffffffffffffffffffffffffffffff1916908160001a9053507f7800000000000000000000000000000000000000000000000000000000000000816001815181106125005760e060020a634e487b7102600052603260045260246000fd5b60200101907effffffffffffffffffffffffffffffffffffffffffffffffffffffffffffff1916908160001a905350600061253c846002612e52565b612547906001612e3a565b90505b6001811115612624577f303132333435363738396162636465660000000000000000000000000000000085600f16601081106125995760e060020a634e487b7102600052603260045260246000fd5b1a7f0100000000000000000000000000000000000000000000000000000000000000028282815181106125df5760e060020a634e487b7102600052603260045260246000fd5b60200101907effffffffffffffffffffffffffffffffffffffffffffffffffffffffffffff1916908160001a90535060109094049361261d81612eb8565b905061254a565b508315611fd35760405160e560020a62461bcd02815260206004820181905260248201527f537472696e67733a20686578206c656e67746820696e73756666696369656e746044820152606401610897565b600060208284031215612687578081fd5b8151611fd381612f1c565b600080604083850312156126a4578081fd5b82356126af81612f1c565b915060208301356126bf81612f1c565b809150509250929050565b600060208083850312156126dc578182fd5b825167ffffffffffffffff8111156126f2578283fd5b8301601f81018513612702578283fd5b805161271561271082612e16565b612de5565b8181528381019083850185840285018601891015612731578687fd5b8694505b8385101561275c57805161274881612f1c565b835260019490940193918501918501612735565b50979650505050505050565b600060208284031215612779578081fd5b81518015158114611fd3578182fd5b600060208284031215612799578081fd5b5035919050565b6000602082840312156127b1578081fd5b5051919050565b600080604083850312156127ca578182fd5b8235915060208301356126bf81612f1c565b60008060008060008060c087890312156127f4578182fd5b865195506020870151945060408701519350606087015192506080870151915060a087015190509295509295509295565b600060208284031215612836578081fd5b81357bffffffffffffffffffffffffffffffffffffffffffffffffffffffff1981168114611fd3578182fd5b600080600080600080600060e0888a03121561287c578485fd5b873567ffffffffffffffff80821115612893578687fd5b818a0191508a601f8301126128a6578687fd5b81356020828211156128ba576128ba612f03565b6128cc601f8301601f19168201612de5565b92508183528c818386010111156128e1578889fd5b81818501828501379082018101979097529a9589013599505050604087013596606081013596506080810135955060a08101359460c0909101359350915050565b600080600060608486031215612936578081fd5b83359250602084013561294881612f1c565b9150604084013561295881612f1c565b809150509250925092565b600080600060608486031215612977578081fd5b8335925060208085013561298a81612f1c565b9250604085013567ffffffffffffffff8111156129a5578283fd5b8501601f810187136129b5578283fd5b80356129c361271082612e16565b81815283810190838501858402850186018b10156129df578687fd5b8694505b83851015612a015780358352600194909401939185019185016129e3565b5080955050505050509250925092565b600080600060608486031215612a25578081fd5b833592506020808501359250604085013567ffffffffffffffff811115612a4a578283fd5b8501601f81018713612a5a578283fd5b8035612a6861271082612e16565b81815283810190838501858402850186018b1015612a84578687fd5b8694505b83851015612a01578035612a9b81612f1c565b835260019490940193918501918501612a88565b600080600060608486031215612ac3578081fd5b505081359360208301359350604090920135919050565b600080600060608486031215612aee578081fd5b8351925060208401519150604084015190509250925092565b6000815180845260208085019450808401835b83811015612b3f578151600160a060020a031687529582019590820190600101612b1a565b509495945050505050565b60008151808452612b62816020860160208601612e88565b601f01601f19169290920160200192915050565b7f416363657373436f6e74726f6c3a206163636f756e7420000000000000000000815260008351612bae816017850160208801612e88565b7f206973206d697373696e6720726f6c65200000000000000000000000000000006017918401918201528351612beb816028840160208801612e88565b01602801949350505050565b600160a060020a03929092168252602082015260400190565b600160a060020a0393841681526020810192909252909116604082015260600190565b600060e08201600160a060020a03808b16845260208a81860152818a16604086015288606086015287608086015260e060a0860152828751808552610100870191508289019450855b81811015612c9a578551851683529483019491830191600101612c7c565b5050809450505050508260c083015298975050505050505050565b602081526000611fd36020830184612b4a565b6020808252602e908201527f496e697469616c697a61626c653a20636f6e747261637420697320616c72656160408201527f647920696e697469616c697a6564000000000000000000000000000000000000606082015260800190565b838152600160a060020a03831660208201526060604082015260006116e86060830184612b07565b60006101208b8352600160a060020a038b166020840152806040840152612d768184018b612b4a565b60608401999099525050608081019590955260a085019390935260c084019190915260e0830152610100909101529392505050565b828152604060208201526000612dc46040830184612b07565b949350505050565b828152604060208201526000612dc46040830184612b4a565b604051601f8201601f1916810167ffffffffffffffff81118282101715612e0e57612e0e612f03565b604052919050565b600067ffffffffffffffff821115612e3057612e30612f03565b5060209081020190565b60008219821115612e4d57612e4d612eea565b500190565b6000816000190483118215151615612e6c57612e6c612eea565b500290565b600082821015612e8357612e83612eea565b500390565b60005b83811015612ea3578181015183820152602001612e8b565b83811115612eb2576000848401525b50505050565b600081612ec757612ec7612eea565b506000190190565b6000600019821415612ee357612ee3612eea565b5060010190565b60e060020a634e487b7102600052601160045260246000fd5b60e060020a634e487b7102600052604160045260246000fd5b600160a060020a038116811461209657600080fdfea2646970667358221220c056e3a8f8a6f4a1b43a1bb5831f637c1cf9e83963c57ec74ad9e2e95e9856ca64736f6c63430008040033",
  "immutableReferences": {},
  "source": "// SPDX-License-Identifier: MIT\npragma solidity ^0.8.0;\n\nimport \"@openzeppelin/contracts-upgradeable/access/AccessControlUpgradeable.sol\";\nimport {MerkleProof} from \"@openzeppelin/contracts/utils/cryptography/MerkleProof.sol\";\n\nimport \"./NFTLibrary.sol\";\nimport \"./interface/IController.sol\";\nimport \"./Collection.sol\";\n\n\ncontract Controller is IController, Initializable, AccessControlUpgradeable {\n\n    bytes32 public constant MINTER_ROLE = keccak256(\"MINTER_ROLE\");\n\n    using NFTLibrary for address;\n\n    using MerkleProof for bytes32[];\n\n\n    address public eternalStorage;\n\n    address public dynamicNFTCollectionAddress;\n\n    uint256 public tokenId;\n\n    Collection NFT;\n\n    /* ========== EVENTS ========== */\n\n    event Mint(uint256 _tokenId, address _minter, string uri, bytes32 _title, bytes32 _description, uint256 _price, uint256 rentPrice, uint256 rentDuration, uint256 videoDuration);\n    event BuyNFT(uint256 _tokenId, address from, address to);\n    event RentRequest(uint256 _tokenId, address mainRenter, address[] coOwners);\n    event PayForRent(uint256 _tokenId, address renter);\n    event RentFinishTime(uint256 _tokenId, uint256 start, uint256 duration);\n    event RentStarted(uint256 _tokenId, address[] coOwners);\n    event AuctionRequest(uint256 _tokenId, uint256 _stepPrice, uint256 _stepTime);\n    event AuctionIteration(uint256 _tokenId, uint256 _newPrice);\n\n\n\n    function initialize(address _eternalStorage, address _dynamicNFTCollectionAddress) public initializer {\n        eternalStorage = _eternalStorage;\n        dynamicNFTCollectionAddress = _dynamicNFTCollectionAddress;\n        NFT = Collection(dynamicNFTCollectionAddress);\n\n        tokenId = 0;\n\n        __AccessControl_init();\n        _setupRole(DEFAULT_ADMIN_ROLE, _msgSender());\n    }\n\n    function mint(string memory uri, bytes32 _title, bytes32 _description, uint256 _price, uint256 rentPrice, uint256 rentDuration, uint256 videoDuration) external override returns (uint256){\n\n        tokenId = tokenId + 1;\n\n        NFT.mint(_msgSender(), tokenId);\n        NFT.setTokenURI(tokenId, uri);\n        eternalStorage.saveMediaInfo(tokenId, _title, _description, _price, rentPrice, rentDuration, videoDuration);\n\n        emit Mint(tokenId, _msgSender(), uri, _title, _description, _price, rentPrice, rentDuration, videoDuration);\n\n        return tokenId;\n    }\n\n    function auctionRequest(uint256 _tokenId, uint256 _stepPrice, uint256 _stepTime) external override {\n        require(_msgSender() == NFT.ownerOf(_tokenId), \"not an owner\");\n\n        emit AuctionRequest(_tokenId, _stepPrice, _stepTime);\n\n    }\n\n    function iterAuction(uint256 _tokenId) external override {\n        uint256 stepTime;\n        uint256 stepPrice;\n        uint256 lastStepTime;\n        (stepTime, stepPrice, lastStepTime) = eternalStorage.getAuctionRequestInfo(_tokenId);\n\n        // TODO check time : lastStepTime + stepTime <= now ()\n        uint256 currentPrice = eternalStorage.getMediaPrice(_tokenId);\n        require(\n            currentPrice > stepPrice,\n                \"NFT price must be greater than zero\"\n        );\n        uint256 newPrice = currentPrice - stepPrice;\n        eternalStorage.saveMediaPrice(_tokenId, newPrice);\n        // TODO lastStepTime = now ()\n\n        emit AuctionIteration(_tokenId, newPrice);\n    }\n\n    function buyNFT(uint256 _tokenId) external payable override {\n        require(eternalStorage.mediaRentStatus(_tokenId) == false, \"media rented now\");\n\n        address from = NFT.ownerOf(tokenId);\n        address to = _msgSender();\n\n        uint256 price = eternalStorage.getMediaPrice(_tokenId);\n\n        require(\n            msg.value >= price,\n            \"Not enough funds\"\n        );\n\n        NFT.buy(from, to, _tokenId);\n\n        _forwardFunds(payable(from));\n\n        emit BuyNFT(_tokenId, from, to);\n    }\n\n    function rentRequest(uint256 _tokenId, bytes32 coOwners, address[] memory coOwnersList) external payable {\n        eternalStorage.handleRentRequest(_tokenId, _msgSender(), coOwners, coOwnersList.length, coOwnersList, msg.value);\n        _forwardFunds(payable(NFT.ownerOf(_tokenId)));\n        emit RentRequest(_tokenId, _msgSender(), coOwnersList);\n        emit PayForRent(_tokenId, _msgSender());\n    }\n\n    function rentByPeer(uint256 _tokenId, address mainRenter, bytes32[] memory proof) external payable {\n        //        require(not rented now);\n        require(eternalStorage.mediaRentStatus(_tokenId) == false, \"media rented now\");\n        //        requeire(in merklepeers);\n        bytes32 merkleTree = eternalStorage.getRentRequestMerkleTree(_tokenId, mainRenter);\n        require(proof.verify(merkleTree, keccak256(abi.encodePacked(_msgSender()))), \"Address not in list\");\n        // cummulatedPrice += single_peer_price;\n        //        transfer_price_to_owner();\n        //        save_this_add in transfereds;\n        _forwardFunds(payable(NFT.ownerOf(_tokenId)));\n        eternalStorage.savePaidInfo(_tokenId, mainRenter, _msgSender(), msg.value);\n        if (eternalStorage.hasEveryOnePaid(_tokenId, mainRenter)) {\n            eternalStorage.updateRentStatus(_tokenId);\n            emit RentFinishTime(_tokenId, uint256(block.timestamp), eternalStorage.getMediaRentDuration(_tokenId));\n            emit RentStarted(_tokenId, eternalStorage.getCoOwners(_tokenId, mainRenter));\n        }\n        emit PayForRent(_tokenId, _msgSender());\n    }\n\n    function renterAllowedToWatch(uint256 _tokenId, address mainRenter, bytes32[] memory proof) external returns (bool){\n        bytes32 merkleTree = eternalStorage.getRentRequestMerkleTree(_tokenId, mainRenter);\n        require(proof.verify(merkleTree, keccak256(abi.encodePacked(_msgSender()))), \"Address not in list\");\n        return eternalStorage.hasEveryOnePaid(_tokenId, mainRenter);\n    }\n\n    function allowedToWatch(uint256 _tokenId) public view returns (bool){\n        require(_msgSender() == NFT.ownerOf(_tokenId), \"not owner\");\n        return true;\n    }\n\n    function getMediaRentPrice(uint256 _tokenId) public view returns (uint256){\n        return eternalStorage.getMediaRentPrice(_tokenId);\n    }\n\n    function canRemovePeer(uint256 _tokenId, address mainRenter, address peer) external view returns (bool){\n        return !eternalStorage.hasPaid(_tokenId, mainRenter, peer);\n    }\n\n    function getPaidRentCumulativeValue(uint256 _tokenId, address mainRenter) external view returns (uint256){\n        return eternalStorage.getPaidRentCumulativeValue(_tokenId, mainRenter);\n    }\n\n    function resetRentStatus(uint256 _tokenId, address renter) external {\n        eternalStorage.resetRentStatus(_tokenId, renter);\n    }\n\n    function isRented(uint256 _tokenId) public view returns (bool) {\n        return eternalStorage.mediaRentStatus(_tokenId);\n    }\n\n    function getMediaInfo(uint256 _tokenId) public view override returns (bytes32, bytes32, uint256, uint256, uint256, uint256){\n        return eternalStorage.getMediaInfo(_tokenId);\n    }\n\n    function _forwardFunds(address payable receiver) internal {\n        receiver.transfer(msg.value);\n    }\n\n}",
  "sourcePath": "/Users/theneo/sabacalavro/smart-contracts-dapp/contracts/Controller.sol",
  "compiler": {
    "name": "solc",
    "version": "0.8.4+commit.c7e474f2.Emscripten.clang"
  },
  "schemaVersion": "3.4.7",
  "updatedAt": "2022-09-06T20:45:52.577Z",
  "devdoc": {
    "kind": "dev",
    "methods": {
      "getRoleAdmin(bytes32)": {
        "details": "Returns the admin role that controls `role`. See {grantRole} and {revokeRole}. To change a role's admin, use {_setRoleAdmin}."
      },
      "grantRole(bytes32,address)": {
        "details": "Grants `role` to `account`. If `account` had not been already granted `role`, emits a {RoleGranted} event. Requirements: - the caller must have ``role``'s admin role."
      },
      "hasRole(bytes32,address)": {
        "details": "Returns `true` if `account` has been granted `role`."
      },
      "renounceRole(bytes32,address)": {
        "details": "Revokes `role` from the calling account. Roles are often managed via {grantRole} and {revokeRole}: this function's purpose is to provide a mechanism for accounts to lose their privileges if they are compromised (such as when a trusted device is misplaced). If the calling account had been revoked `role`, emits a {RoleRevoked} event. Requirements: - the caller must be `account`."
      },
      "revokeRole(bytes32,address)": {
        "details": "Revokes `role` from `account`. If `account` had been granted `role`, emits a {RoleRevoked} event. Requirements: - the caller must have ``role``'s admin role."
      },
      "supportsInterface(bytes4)": {
        "details": "See {IERC165-supportsInterface}."
      }
    },
    "version": 1
  },
  "userdoc": {
    "kind": "user",
    "methods": {},
    "version": 1
  }
}