{
  "contractName": "Controller",
  "abi": [
    {
      "anonymous": false,
      "inputs": [
        {
          "indexed": false,
          "internalType": "uint256",
          "name": "_tokenId",
          "type": "uint256"
        },
        {
          "indexed": false,
          "internalType": "uint256",
          "name": "_stepPrice",
          "type": "uint256"
        },
        {
          "indexed": false,
          "internalType": "uint256",
          "name": "_stepTime",
          "type": "uint256"
        }
      ],
      "name": "AuctionIteration",
      "type": "event"
    },
    {
      "anonymous": false,
      "inputs": [
        {
          "indexed": false,
          "internalType": "uint256",
          "name": "_tokenId",
          "type": "uint256"
        },
        {
          "indexed": false,
          "internalType": "address",
          "name": "from",
          "type": "address"
        },
        {
          "indexed": false,
          "internalType": "address",
          "name": "to",
          "type": "address"
        }
      ],
      "name": "BuyNFT",
      "type": "event"
    },
    {
      "anonymous": false,
      "inputs": [
        {
          "indexed": false,
          "internalType": "uint8",
          "name": "version",
          "type": "uint8"
        }
      ],
      "name": "Initialized",
      "type": "event"
    },
    {
      "anonymous": false,
      "inputs": [
        {
          "indexed": false,
          "internalType": "uint256",
          "name": "_tokenId",
          "type": "uint256"
        },
        {
          "indexed": false,
          "internalType": "address",
          "name": "_minter",
          "type": "address"
        },
        {
          "indexed": false,
          "internalType": "string",
          "name": "uri",
          "type": "string"
        },
        {
          "indexed": false,
          "internalType": "bytes32",
          "name": "_title",
          "type": "bytes32"
        },
        {
          "indexed": false,
          "internalType": "bytes32",
          "name": "_description",
          "type": "bytes32"
        },
        {
          "indexed": false,
          "internalType": "uint256",
          "name": "_price",
          "type": "uint256"
        },
        {
          "indexed": false,
          "internalType": "uint256",
          "name": "rentPrice",
          "type": "uint256"
        },
        {
          "indexed": false,
          "internalType": "uint256",
          "name": "rentDuration",
          "type": "uint256"
        },
        {
          "indexed": false,
          "internalType": "uint256",
          "name": "videoDuration",
          "type": "uint256"
        }
      ],
      "name": "Mint",
      "type": "event"
    },
    {
      "anonymous": false,
      "inputs": [
        {
          "indexed": false,
          "internalType": "uint256",
          "name": "_tokenId",
          "type": "uint256"
        },
        {
          "indexed": false,
          "internalType": "address",
          "name": "renter",
          "type": "address"
        }
      ],
      "name": "PayForRent",
      "type": "event"
    },
    {
      "anonymous": false,
      "inputs": [
        {
          "indexed": false,
          "internalType": "uint256",
          "name": "_tokenId",
          "type": "uint256"
        },
        {
          "indexed": false,
          "internalType": "uint256",
          "name": "start",
          "type": "uint256"
        },
        {
          "indexed": false,
          "internalType": "uint256",
          "name": "duration",
          "type": "uint256"
        }
      ],
      "name": "RentFinishTime",
      "type": "event"
    },
    {
      "anonymous": false,
      "inputs": [
        {
          "indexed": false,
          "internalType": "uint256",
          "name": "_tokenId",
          "type": "uint256"
        },
        {
          "indexed": false,
          "internalType": "address",
          "name": "mainRenter",
          "type": "address"
        },
        {
          "indexed": false,
          "internalType": "address[]",
          "name": "coOwners",
          "type": "address[]"
        }
      ],
      "name": "RentRequest",
      "type": "event"
    },
    {
      "anonymous": false,
      "inputs": [
        {
          "indexed": false,
          "internalType": "uint256",
          "name": "_tokenId",
          "type": "uint256"
        },
        {
          "indexed": false,
          "internalType": "address[]",
          "name": "coOwners",
          "type": "address[]"
        }
      ],
      "name": "RentStarted",
      "type": "event"
    },
    {
      "anonymous": false,
      "inputs": [
        {
          "indexed": true,
          "internalType": "bytes32",
          "name": "role",
          "type": "bytes32"
        },
        {
          "indexed": true,
          "internalType": "bytes32",
          "name": "previousAdminRole",
          "type": "bytes32"
        },
        {
          "indexed": true,
          "internalType": "bytes32",
          "name": "newAdminRole",
          "type": "bytes32"
        }
      ],
      "name": "RoleAdminChanged",
      "type": "event"
    },
    {
      "anonymous": false,
      "inputs": [
        {
          "indexed": true,
          "internalType": "bytes32",
          "name": "role",
          "type": "bytes32"
        },
        {
          "indexed": true,
          "internalType": "address",
          "name": "account",
          "type": "address"
        },
        {
          "indexed": true,
          "internalType": "address",
          "name": "sender",
          "type": "address"
        }
      ],
      "name": "RoleGranted",
      "type": "event"
    },
    {
      "anonymous": false,
      "inputs": [
        {
          "indexed": true,
          "internalType": "bytes32",
          "name": "role",
          "type": "bytes32"
        },
        {
          "indexed": true,
          "internalType": "address",
          "name": "account",
          "type": "address"
        },
        {
          "indexed": true,
          "internalType": "address",
          "name": "sender",
          "type": "address"
        }
      ],
      "name": "RoleRevoked",
      "type": "event"
    },
    {
      "inputs": [],
      "name": "DEFAULT_ADMIN_ROLE",
      "outputs": [
        {
          "internalType": "bytes32",
          "name": "",
          "type": "bytes32"
        }
      ],
      "stateMutability": "view",
      "type": "function"
    },
    {
      "inputs": [],
      "name": "MINTER_ROLE",
      "outputs": [
        {
          "internalType": "bytes32",
          "name": "",
          "type": "bytes32"
        }
      ],
      "stateMutability": "view",
      "type": "function"
    },
    {
      "inputs": [],
      "name": "dynamicNFTCollectionAddress",
      "outputs": [
        {
          "internalType": "address",
          "name": "",
          "type": "address"
        }
      ],
      "stateMutability": "view",
      "type": "function"
    },
    {
      "inputs": [],
      "name": "eternalStorage",
      "outputs": [
        {
          "internalType": "address",
          "name": "",
          "type": "address"
        }
      ],
      "stateMutability": "view",
      "type": "function"
    },
    {
      "inputs": [
        {
          "internalType": "bytes32",
          "name": "role",
          "type": "bytes32"
        }
      ],
      "name": "getRoleAdmin",
      "outputs": [
        {
          "internalType": "bytes32",
          "name": "",
          "type": "bytes32"
        }
      ],
      "stateMutability": "view",
      "type": "function"
    },
    {
      "inputs": [
        {
          "internalType": "bytes32",
          "name": "role",
          "type": "bytes32"
        },
        {
          "internalType": "address",
          "name": "account",
          "type": "address"
        }
      ],
      "name": "grantRole",
      "outputs": [],
      "stateMutability": "nonpayable",
      "type": "function"
    },
    {
      "inputs": [
        {
          "internalType": "bytes32",
          "name": "role",
          "type": "bytes32"
        },
        {
          "internalType": "address",
          "name": "account",
          "type": "address"
        }
      ],
      "name": "hasRole",
      "outputs": [
        {
          "internalType": "bool",
          "name": "",
          "type": "bool"
        }
      ],
      "stateMutability": "view",
      "type": "function"
    },
    {
      "inputs": [
        {
          "internalType": "bytes32",
          "name": "role",
          "type": "bytes32"
        },
        {
          "internalType": "address",
          "name": "account",
          "type": "address"
        }
      ],
      "name": "renounceRole",
      "outputs": [],
      "stateMutability": "nonpayable",
      "type": "function"
    },
    {
      "inputs": [
        {
          "internalType": "bytes32",
          "name": "role",
          "type": "bytes32"
        },
        {
          "internalType": "address",
          "name": "account",
          "type": "address"
        }
      ],
      "name": "revokeRole",
      "outputs": [],
      "stateMutability": "nonpayable",
      "type": "function"
    },
    {
      "inputs": [
        {
          "internalType": "bytes4",
          "name": "interfaceId",
          "type": "bytes4"
        }
      ],
      "name": "supportsInterface",
      "outputs": [
        {
          "internalType": "bool",
          "name": "",
          "type": "bool"
        }
      ],
      "stateMutability": "view",
      "type": "function"
    },
    {
      "inputs": [],
      "name": "tokenId",
      "outputs": [
        {
          "internalType": "uint256",
          "name": "",
          "type": "uint256"
        }
      ],
      "stateMutability": "view",
      "type": "function"
    },
    {
      "inputs": [
        {
          "internalType": "address",
          "name": "_eternalStorage",
          "type": "address"
        },
        {
          "internalType": "address",
          "name": "_dynamicNFTCollectionAddress",
          "type": "address"
        }
      ],
      "name": "initialize",
      "outputs": [],
      "stateMutability": "nonpayable",
      "type": "function"
    },
    {
      "inputs": [
        {
          "internalType": "string",
          "name": "uri",
          "type": "string"
        },
        {
          "internalType": "bytes32",
          "name": "_title",
          "type": "bytes32"
        },
        {
          "internalType": "bytes32",
          "name": "_description",
          "type": "bytes32"
        },
        {
          "internalType": "uint256",
          "name": "_price",
          "type": "uint256"
        },
        {
          "internalType": "uint256",
          "name": "rentPrice",
          "type": "uint256"
        },
        {
          "internalType": "uint256",
          "name": "rentDuration",
          "type": "uint256"
        },
        {
          "internalType": "uint256",
          "name": "videoDuration",
          "type": "uint256"
        }
      ],
      "name": "mint",
      "outputs": [
        {
          "internalType": "uint256",
          "name": "",
          "type": "uint256"
        }
      ],
      "stateMutability": "nonpayable",
      "type": "function"
    },
    {
      "inputs": [
        {
          "internalType": "uint256",
          "name": "_tokenId",
          "type": "uint256"
        },
        {
          "internalType": "uint256",
          "name": "_stepPrice",
          "type": "uint256"
        },
        {
          "internalType": "uint256",
          "name": "_stepTime",
          "type": "uint256"
        }
      ],
      "name": "auctionRequest",
      "outputs": [],
      "stateMutability": "nonpayable",
      "type": "function"
    },
    {
      "inputs": [
        {
          "internalType": "uint256",
          "name": "_tokenId",
          "type": "uint256"
        }
      ],
      "name": "buyNFT",
      "outputs": [],
      "stateMutability": "payable",
      "type": "function"
    },
    {
      "inputs": [
        {
          "internalType": "uint256",
          "name": "_tokenId",
          "type": "uint256"
        },
        {
          "internalType": "bytes32",
          "name": "coOwners",
          "type": "bytes32"
        },
        {
          "internalType": "address[]",
          "name": "coOwnersList",
          "type": "address[]"
        }
      ],
      "name": "rentRequest",
      "outputs": [],
      "stateMutability": "payable",
      "type": "function"
    },
    {
      "inputs": [
        {
          "internalType": "uint256",
          "name": "_tokenId",
          "type": "uint256"
        },
        {
          "internalType": "address",
          "name": "mainRenter",
          "type": "address"
        },
        {
          "internalType": "bytes32[]",
          "name": "proof",
          "type": "bytes32[]"
        }
      ],
      "name": "rentByPeer",
      "outputs": [],
      "stateMutability": "payable",
      "type": "function"
    },
    {
      "inputs": [
        {
          "internalType": "uint256",
          "name": "_tokenId",
          "type": "uint256"
        },
        {
          "internalType": "address",
          "name": "mainRenter",
          "type": "address"
        },
        {
          "internalType": "bytes32[]",
          "name": "proof",
          "type": "bytes32[]"
        }
      ],
      "name": "renterAllowedToWatch",
      "outputs": [
        {
          "internalType": "bool",
          "name": "",
          "type": "bool"
        }
      ],
      "stateMutability": "nonpayable",
      "type": "function"
    },
    {
      "inputs": [
        {
          "internalType": "uint256",
          "name": "_tokenId",
          "type": "uint256"
        }
      ],
      "name": "allowedToWatch",
      "outputs": [
        {
          "internalType": "bool",
          "name": "",
          "type": "bool"
        }
      ],
      "stateMutability": "view",
      "type": "function"
    },
    {
      "inputs": [
        {
          "internalType": "uint256",
          "name": "_tokenId",
          "type": "uint256"
        }
      ],
      "name": "getMediaRentPrice",
      "outputs": [
        {
          "internalType": "uint256",
          "name": "",
          "type": "uint256"
        }
      ],
      "stateMutability": "view",
      "type": "function"
    },
    {
      "inputs": [
        {
          "internalType": "uint256",
          "name": "_tokenId",
          "type": "uint256"
        },
        {
          "internalType": "address",
          "name": "mainRenter",
          "type": "address"
        },
        {
          "internalType": "address",
          "name": "peer",
          "type": "address"
        }
      ],
      "name": "canRemovePeer",
      "outputs": [
        {
          "internalType": "bool",
          "name": "",
          "type": "bool"
        }
      ],
      "stateMutability": "view",
      "type": "function"
    },
    {
      "inputs": [
        {
          "internalType": "uint256",
          "name": "_tokenId",
          "type": "uint256"
        },
        {
          "internalType": "address",
          "name": "mainRenter",
          "type": "address"
        }
      ],
      "name": "getPaidRentCumulativeValue",
      "outputs": [
        {
          "internalType": "uint256",
          "name": "",
          "type": "uint256"
        }
      ],
      "stateMutability": "view",
      "type": "function"
    },
    {
      "inputs": [
        {
          "internalType": "uint256",
          "name": "_tokenId",
          "type": "uint256"
        },
        {
          "internalType": "address",
          "name": "renter",
          "type": "address"
        }
      ],
      "name": "resetRentStatus",
      "outputs": [],
      "stateMutability": "nonpayable",
      "type": "function"
    },
    {
      "inputs": [
        {
          "internalType": "uint256",
          "name": "_tokenId",
          "type": "uint256"
        }
      ],
      "name": "isRented",
      "outputs": [
        {
          "internalType": "bool",
          "name": "",
          "type": "bool"
        }
      ],
      "stateMutability": "view",
      "type": "function"
    },
    {
      "inputs": [
        {
          "internalType": "uint256",
          "name": "_tokenId",
          "type": "uint256"
        }
      ],
      "name": "getMediaInfo",
      "outputs": [
        {
          "internalType": "bytes32",
          "name": "",
          "type": "bytes32"
        },
        {
          "internalType": "bytes32",
          "name": "",
          "type": "bytes32"
        },
        {
          "internalType": "uint256",
          "name": "",
          "type": "uint256"
        },
        {
          "internalType": "uint256",
          "name": "",
          "type": "uint256"
        },
        {
          "internalType": "uint256",
          "name": "",
          "type": "uint256"
        },
        {
          "internalType": "uint256",
          "name": "",
          "type": "uint256"
        }
      ],
      "stateMutability": "view",
      "type": "function"
    }
  ],
  "bytecode": "0x608060405234801561001057600080fd5b50612c17806100206000396000f3fe608060405260043610610183576000357c01000000000000000000000000000000000000000000000000000000009004806391d14854116100ee578063a2cc5309116100a7578063d539139311610081578063d539139314610466578063d547741f1461049a578063e7181465146104ba578063ed8d172f146104da57600080fd5b8063a2cc530914610413578063aa15d40f14610426578063b1861a611461044657600080fd5b806391d148541461031957806398ff9c54146103395780639f37567014610371578063a0fd942114610391578063a1bffc20146103b1578063a217fddf146103fe57600080fd5b80633bc5408b116101405780633bc5408b14610273578063430f6bc314610286578063485cc955146102a657806351ed8288146102c6578063796458ea146102d95780637bc699ca146102f957600080fd5b806301ffc9a71461018857806304e94133146101bd57806317d70f7c146101eb578063248a9ca3146102015780632f2ff15d1461023157806336568abe14610253575b600080fd5b34801561019457600080fd5b506101a86101a3366004612532565b6104fa565b60405190151581526020015b60405180910390f35b3480156101c957600080fd5b506101dd6101d836600461256f565b61058d565b6040519081526020016101b4565b3480156101f757600080fd5b506101dd60995481565b34801561020d57600080fd5b506101dd61021c366004612495565b60009081526065602052604090206001015490565b34801561023d57600080fd5b5061025161024c3660046124c5565b6107c2565b005b34801561025f57600080fd5b5061025161026e3660046124c5565b6107ec565b61025161028136600461271e565b610880565b34801561029257600080fd5b506102516102a13660046127bc565b610a1c565b3480156102b257600080fd5b506102516102c136600461239f565b610b3c565b6102516102d4366004612495565b610c00565b3480156102e557600080fd5b506102516102f43660046124c5565b610f76565b34801561030557600080fd5b506101a8610314366004612495565b611009565b34801561032557600080fd5b506101a86103343660046124c5565b6110f4565b34801561034557600080fd5b5060975461035990600160a060020a031681565b604051600160a060020a0390911681526020016101b4565b34801561037d57600080fd5b506101a861038c36600461262f565b61111f565b34801561039d57600080fd5b506101a86103ac366004612670565b6111ea565b3480156103bd57600080fd5b506103d16103cc366004612495565b6113f8565b604080519687526020870195909552938501929092526060840152608083015260a082015260c0016101b4565b34801561040a57600080fd5b506101dd600081565b610251610421366004612670565b6114c8565b34801561043257600080fd5b506101a8610441366004612495565b611b55565b34801561045257600080fd5b5060985461035990600160a060020a031681565b34801561047257600080fd5b506101dd7f9f2df0fed2c77648de5860a4cc508cd0818c85b8b8a1ab4ceeef8d981c8956a681565b3480156104a657600080fd5b506102516104b53660046124c5565b611c07565b3480156104c657600080fd5b506101dd6104d53660046124c5565b611c2c565b3480156104e657600080fd5b506101dd6104f5366004612495565b611ce7565b60007bffffffffffffffffffffffffffffffffffffffffffffffffffffffff1982167f7965db0b00000000000000000000000000000000000000000000000000000000148061058757507f01ffc9a7000000000000000000000000000000000000000000000000000000007bffffffffffffffffffffffffffffffffffffffffffffffffffffffff198316145b92915050565b6000609954600161059e9190612b01565b609955609a54600160a060020a03166340c10f19336099546040517c010000000000000000000000000000000000000000000000000000000063ffffffff8516028152600160a060020a0390921660048301526024820152604401600060405180830381600087803b15801561061357600080fd5b505af1158015610627573d6000803e3d6000fd5b5050609a546099546040517f162094c4000000000000000000000000000000000000000000000000000000008152600160a060020a03909216935063162094c49250610677918c90600401612a93565b600060405180830381600087803b15801561069157600080fd5b505af11580156106a5573d6000803e3d6000fd5b50506097546099546040517fa015407f000000000000000000000000000000000000000000000000000000008152600160a060020a0390921660048301526024820152604481018a9052606481018990526084810188905260a4810187905260c4810186905260e4810185905273__NFTLibrary____________________________925063a015407f91506101040160006040518083038186803b15801561074c57600080fd5b505af4158015610760573d6000803e3d6000fd5b505050507f1ed91fe96533b4bbee40063372d22ade48ee0e066536bc0c277e55c92c224e9e60995461078f3390565b8a8a8a8a8a8a8a6040516107ab99989796959493929190612a14565b60405180910390a150609954979650505050505050565b6000828152606560205260409020600101546107dd81611d99565b6107e78383611da6565b505050565b600160a060020a03811633146108725760405160e560020a62461bcd02815260206004820152602f60248201527f416363657373436f6e74726f6c3a2063616e206f6e6c792072656e6f756e636560448201527f20726f6c657320666f722073656c66000000000000000000000000000000000060648201526084015b60405180910390fd5b61087c8282611e2c565b5050565b60975481516040517f86daae0e00000000000000000000000000000000000000000000000000000000815273__NFTLibrary____________________________926386daae0e926108ea92600160a060020a039092169188913391899190899034906004016128fa565b60006040518083038186803b15801561090257600080fd5b505af4158015610916573d6000803e3d6000fd5b5050609a5460405160e160020a6331a9108f028152600481018790526109a39350600160a060020a039091169150636352211e906024015b60206040518083038186803b15801561096657600080fd5b505afa15801561097a573d6000803e3d6000fd5b505050506040513d601f19601f8201168201806040525081019061099e9190612383565b611e93565b7fff95605c1af6046ab9ec02130b6fb52bced2e7a95e491db9da537f47cf5fb2c48333836040516109d6939291906129ec565b60405180910390a1604080518481523360208201527fc4bfcc3dcb3b93bb77753c58bf8b0700daae507b6afc6a25a6f114e02787114d91015b60405180910390a1505050565b609a5460405160e160020a6331a9108f02815260048101859052600160a060020a0390911690636352211e9060240160206040518083038186803b158015610a6357600080fd5b505afa158015610a77573d6000803e3d6000fd5b505050506040513d601f19601f82011682018060405250810190610a9b9190612383565b600160a060020a031633600160a060020a031614610afe5760405160e560020a62461bcd02815260206004820152600c60248201527f6e6f7420616e206f776e657200000000000000000000000000000000000000006044820152606401610869565b60408051848152602081018490529081018290527ff18c947e2e5afe33f1a12b51fea8a2b48d5f03f18edfeb09b94c4e2c8444ebb490606001610a0f565b6000610b486001611ec8565b90508015610b60576000805461ff0019166101001790555b60978054600160a060020a0380861673ffffffffffffffffffffffffffffffffffffffff19928316179092556098805492851692821683179055609a805490911690911790556000609955610bb3611f56565b610bbe600033611fd8565b80156107e7576000805461ff0019169055604051600181527f7f26b83ff96e1f2b6a682f133852f6798a09c465da95921460cefb384740249890602001610a0f565b6097546040517f8ab49a60000000000000000000000000000000000000000000000000000000008152600160a060020a0390911660048201526024810182905273__NFTLibrary____________________________90638ab49a609060440160206040518083038186803b158015610c7757600080fd5b505af4158015610c8b573d6000803e3d6000fd5b505050506040513d601f19601f82011682018060405250810190610caf9190612475565b15610cff5760405160e560020a62461bcd02815260206004820152601060248201527f6d656469612072656e746564206e6f77000000000000000000000000000000006044820152606401610869565b609a5460995460405160e160020a6331a9108f0281526004810191909152600091600160a060020a031690636352211e9060240160206040518083038186803b158015610d4b57600080fd5b505afa158015610d5f573d6000803e3d6000fd5b505050506040513d601f19601f82011682018060405250810190610d839190612383565b90506000336097546040517fb1c50e4e000000000000000000000000000000000000000000000000000000008152600160a060020a0390911660048201526024810185905290915060009073__NFTLibrary____________________________9063b1c50e4e9060440160206040518083038186803b158015610e0557600080fd5b505af4158015610e19573d6000803e3d6000fd5b505050506040513d601f19601f82011682018060405250810190610e3d91906124ad565b905080341015610e925760405160e560020a62461bcd02815260206004820152601060248201527f4e6f7420656e6f7567682066756e6473000000000000000000000000000000006044820152606401610869565b609a546040517f153e66e6000000000000000000000000000000000000000000000000000000008152600160a060020a0385811660048301528481166024830152604482018790529091169063153e66e690606401600060405180830381600087803b158015610f0157600080fd5b505af1158015610f15573d6000803e3d6000fd5b50505050610f2283611e93565b60408051858152600160a060020a0380861660208301528416918101919091527f83374a9e9accd6ef205e7de68ba2962060f387796cdedc3e99563fa627bf0bd2906060015b60405180910390a150505050565b6097546040517f3727bf7800000000000000000000000000000000000000000000000000000000815273__NFTLibrary____________________________91633727bf7891610fd591600160a060020a031690869086906004016128d7565b60006040518083038186803b158015610fed57600080fd5b505af4158015611001573d6000803e3d6000fd5b505050505050565b609a5460405160e160020a6331a9108f02815260048101839052600091600160a060020a031690636352211e9060240160206040518083038186803b15801561105157600080fd5b505afa158015611065573d6000803e3d6000fd5b505050506040513d601f19601f820116820180604052508101906110899190612383565b600160a060020a031633600160a060020a0316146110ec5760405160e560020a62461bcd02815260206004820152600960248201527f6e6f74206f776e657200000000000000000000000000000000000000000000006044820152606401610869565b506001919050565b6000918252606560209081526040808420600160a060020a0393909316845291905290205460ff1690565b6097546040517fcf15109c000000000000000000000000000000000000000000000000000000008152600160a060020a039182166004820152602481018590528382166044820152908216606482015260009073__NFTLibrary____________________________9063cf15109c9060840160206040518083038186803b1580156111a957600080fd5b505af41580156111bd573d6000803e3d6000fd5b505050506040513d601f19601f820116820180604052508101906111e19190612475565b15949350505050565b6097546040517f49fc540b000000000000000000000000000000000000000000000000000000008152600091829173__NFTLibrary____________________________916349fc540b9161124e91600160a060020a031690899089906004016128d7565b60206040518083038186803b15801561126657600080fd5b505af415801561127a573d6000803e3d6000fd5b505050506040513d601f19601f8201168201806040525081019061129e91906124ad565b90506112f18133604051600160a060020a03919091166c010000000000000000000000000260208201526034016040516020818303038152906040528051906020012085611fe29092919063ffffffff16565b6113405760405160e560020a62461bcd02815260206004820152601360248201527f41646472657373206e6f7420696e206c697374000000000000000000000000006044820152606401610869565b6097546040517ffcb9975900000000000000000000000000000000000000000000000000000000815273__NFTLibrary____________________________9163fcb997599161139f91600160a060020a031690899089906004016128d7565b60206040518083038186803b1580156113b757600080fd5b505af41580156113cb573d6000803e3d6000fd5b505050506040513d601f19601f820116820180604052508101906113ef9190612475565b95945050505050565b6097546040517fc9581337000000000000000000000000000000000000000000000000000000008152600160a060020a039091166004820152602481018290526000908190819081908190819073__NFTLibrary____________________________9063c95813379060440160c06040518083038186803b15801561147c57600080fd5b505af4158015611490573d6000803e3d6000fd5b505050506040513d601f19601f820116820180604052508101906114b491906124e9565b949c939b5091995097509550909350915050565b6097546040517f8ab49a60000000000000000000000000000000000000000000000000000000008152600160a060020a0390911660048201526024810184905273__NFTLibrary____________________________90638ab49a609060440160206040518083038186803b15801561153f57600080fd5b505af4158015611553573d6000803e3d6000fd5b505050506040513d601f19601f820116820180604052508101906115779190612475565b156115c75760405160e560020a62461bcd02815260206004820152601060248201527f6d656469612072656e746564206e6f77000000000000000000000000000000006044820152606401610869565b6097546040517f49fc540b00000000000000000000000000000000000000000000000000000000815260009173__NFTLibrary____________________________916349fc540b9161162b91600160a060020a0390911690889088906004016128d7565b60206040518083038186803b15801561164357600080fd5b505af4158015611657573d6000803e3d6000fd5b505050506040513d601f19601f8201168201806040525081019061167b91906124ad565b90506116ce8133604051600160a060020a03919091166c010000000000000000000000000260208201526034016040516020818303038152906040528051906020012084611fe29092919063ffffffff16565b61171d5760405160e560020a62461bcd02815260206004820152601360248201527f41646472657373206e6f7420696e206c697374000000000000000000000000006044820152606401610869565b609a5460405160e160020a6331a9108f0281526004810186905261175391600160a060020a031690636352211e9060240161094e565b609754604080517fe77ed5b6000000000000000000000000000000000000000000000000000000008152600160a060020a0392831660048201526024810187905291851660448301523360648301523460848301525173__NFTLibrary____________________________9163e77ed5b69160a4808301926000929190829003018186803b1580156117e457600080fd5b505af41580156117f8573d6000803e3d6000fd5b50506097546040517ffcb9975900000000000000000000000000000000000000000000000000000000815273__NFTLibrary____________________________935063fcb99759925061185b91600160a060020a031690889088906004016128d7565b60206040518083038186803b15801561187357600080fd5b505af4158015611887573d6000803e3d6000fd5b505050506040513d601f19601f820116820180604052508101906118ab9190612475565b15611b20576097546040517ff11bca58000000000000000000000000000000000000000000000000000000008152600160a060020a0390911660048201526024810185905273__NFTLibrary____________________________9063f11bca589060440160006040518083038186803b15801561192757600080fd5b505af415801561193b573d6000803e3d6000fd5b50506097546040517fa26cbe5c000000000000000000000000000000000000000000000000000000008152600160a060020a039091166004820152602481018790527f0b1d8003365ec1403df6203adb593e0b471622baaeec50cdca77e11d33169cc19250869150429073__NFTLibrary____________________________9063a26cbe5c9060440160206040518083038186803b1580156119dc57600080fd5b505af41580156119f0573d6000803e3d6000fd5b505050506040513d601f19601f82011682018060405250810190611a1491906124ad565b6040805193845260208401929092529082015260600160405180910390a16097546040517f5aceb8360000000000000000000000000000000000000000000000000000000081527f5e13278793d5db0f9703bc32f08d8fd51e9cfb843276306817b5a4e22b9d3a8b91869173__NFTLibrary____________________________91635aceb83691611ab591600160a060020a03169085908a906004016128d7565b60006040518083038186803b158015611acd57600080fd5b505af4158015611ae1573d6000803e3d6000fd5b505050506040513d6000823e601f3d908101601f19168201604052611b0991908101906123d7565b604051611b17929190612a72565b60405180910390a15b604080518581523360208201527fc4bfcc3dcb3b93bb77753c58bf8b0700daae507b6afc6a25a6f114e02787114d9101610f68565b6097546040517f8ab49a60000000000000000000000000000000000000000000000000000000008152600160a060020a0390911660048201526024810182905260009073__NFTLibrary____________________________90638ab49a609060440160206040518083038186803b158015611bcf57600080fd5b505af4158015611be3573d6000803e3d6000fd5b505050506040513d601f19601f820116820180604052508101906105879190612475565b600082815260656020526040902060010154611c2281611d99565b6107e78383611e2c565b6097546040517f6c42b1dd00000000000000000000000000000000000000000000000000000000815260009173__NFTLibrary____________________________91636c42b1dd91611c9091600160a060020a0390911690879087906004016128d7565b60206040518083038186803b158015611ca857600080fd5b505af4158015611cbc573d6000803e3d6000fd5b505050506040513d601f19601f82011682018060405250810190611ce091906124ad565b9392505050565b6097546040517fad0c7738000000000000000000000000000000000000000000000000000000008152600160a060020a0390911660048201526024810182905260009073__NFTLibrary____________________________9063ad0c77389060440160206040518083038186803b158015611d6157600080fd5b505af4158015611d75573d6000803e3d6000fd5b505050506040513d601f19601f8201168201806040525081019061058791906124ad565b611da38133611ff8565b50565b611db082826110f4565b61087c576000828152606560209081526040808320600160a060020a03851684529091529020805460ff19166001179055611de83390565b600160a060020a031681600160a060020a0316837f2f8788117e7eff1d82e926ec794901d17c78024a50270940304540a733656f0d60405160405180910390a45050565b611e3682826110f4565b1561087c576000828152606560209081526040808320600160a060020a0385168085529252808320805460ff1916905551339285917ff6391f5c32d9c69d2a47ea670b442974b53935d1edc7fd64eb21e047a839171b9190a45050565b604051600160a060020a038216903480156108fc02916000818181858888f1935050505015801561087c573d6000803e3d6000fd5b60008054610100900460ff1615611f12578160ff166001148015611eeb5750303b155b611f0a5760405160e560020a62461bcd0281526004016108699061298f565b506000919050565b60005460ff808416911610611f3c5760405160e560020a62461bcd0281526004016108699061298f565b506000805460ff191660ff92909216919091179055600190565b600054610100900460ff16611fd65760405160e560020a62461bcd02815260206004820152602b60248201527f496e697469616c697a61626c653a20636f6e7472616374206973206e6f74206960448201527f6e697469616c697a696e670000000000000000000000000000000000000000006064820152608401610869565b565b61087c8282611da6565b600082611fef858461205f565b14949350505050565b61200282826110f4565b61087c5761201a81600160a060020a031660146120e4565b6120258360206120e4565b604051602001612036929190612856565b60408051601f198184030181529082905260e560020a62461bcd0282526108699160040161297c565b600081815b84518110156120dc5760008582815181106120925760e060020a634e487b7102600052603260045260246000fd5b602002602001015190508083116120b857600083815260208290526040902092506120c9565b600081815260208490526040902092505b50806120d481612b7f565b915050612064565b509392505050565b606060006120f3836002612b19565b6120fe906002612b01565b67ffffffffffffffff8111156121275760e060020a634e487b7102600052604160045260246000fd5b6040519080825280601f01601f191660200182016040528015612151576020820181803683370190505b5090507f3000000000000000000000000000000000000000000000000000000000000000816000815181106121995760e060020a634e487b7102600052603260045260246000fd5b60200101907effffffffffffffffffffffffffffffffffffffffffffffffffffffffffffff1916908160001a9053507f78000000000000000000000000000000000000000000000000000000000000008160018151811061220d5760e060020a634e487b7102600052603260045260246000fd5b60200101907effffffffffffffffffffffffffffffffffffffffffffffffffffffffffffff1916908160001a9053506000612249846002612b19565b612254906001612b01565b90505b6001811115612331577f303132333435363738396162636465660000000000000000000000000000000085600f16601081106122a65760e060020a634e487b7102600052603260045260246000fd5b1a7f0100000000000000000000000000000000000000000000000000000000000000028282815181106122ec5760e060020a634e487b7102600052603260045260246000fd5b60200101907effffffffffffffffffffffffffffffffffffffffffffffffffffffffffffff1916908160001a90535060109094049361232a81612b68565b9050612257565b508315611ce05760405160e560020a62461bcd02815260206004820181905260248201527f537472696e67733a20686578206c656e67746820696e73756666696369656e746044820152606401610869565b600060208284031215612394578081fd5b8151611ce081612bcc565b600080604083850312156123b1578081fd5b82356123bc81612bcc565b915060208301356123cc81612bcc565b809150509250929050565b600060208083850312156123e9578182fd5b825167ffffffffffffffff8111156123ff578283fd5b8301601f8101851361240f578283fd5b805161242261241d82612add565b612aac565b818152838101908385018584028501860189101561243e578687fd5b8694505b8385101561246957805161245581612bcc565b835260019490940193918501918501612442565b50979650505050505050565b600060208284031215612486578081fd5b81518015158114611ce0578182fd5b6000602082840312156124a6578081fd5b5035919050565b6000602082840312156124be578081fd5b5051919050565b600080604083850312156124d7578182fd5b8235915060208301356123cc81612bcc565b60008060008060008060c08789031215612501578182fd5b865195506020870151945060408701519350606087015192506080870151915060a087015190509295509295509295565b600060208284031215612543578081fd5b81357bffffffffffffffffffffffffffffffffffffffffffffffffffffffff1981168114611ce0578182fd5b600080600080600080600060e0888a031215612589578485fd5b873567ffffffffffffffff808211156125a0578687fd5b818a0191508a601f8301126125b3578687fd5b81356020828211156125c7576125c7612bb3565b6125d9601f8301601f19168201612aac565b92508183528c818386010111156125ee578889fd5b81818501828501379082018101979097529a9589013599505050604087013596606081013596506080810135955060a08101359460c0909101359350915050565b600080600060608486031215612643578081fd5b83359250602084013561265581612bcc565b9150604084013561266581612bcc565b809150509250925092565b600080600060608486031215612684578081fd5b8335925060208085013561269781612bcc565b9250604085013567ffffffffffffffff8111156126b2578283fd5b8501601f810187136126c2578283fd5b80356126d061241d82612add565b81815283810190838501858402850186018b10156126ec578687fd5b8694505b8385101561270e5780358352600194909401939185019185016126f0565b5080955050505050509250925092565b600080600060608486031215612732578081fd5b833592506020808501359250604085013567ffffffffffffffff811115612757578283fd5b8501601f81018713612767578283fd5b803561277561241d82612add565b81815283810190838501858402850186018b1015612791578687fd5b8694505b8385101561270e5780356127a881612bcc565b835260019490940193918501918501612795565b6000806000606084860312156127d0578081fd5b505081359360208301359350604090920135919050565b6000815180845260208085019450808401835b8381101561281f578151600160a060020a0316875295820195908201906001016127fa565b509495945050505050565b60008151808452612842816020860160208601612b38565b601f01601f19169290920160200192915050565b7f416363657373436f6e74726f6c3a206163636f756e742000000000000000000081526000835161288e816017850160208801612b38565b7f206973206d697373696e6720726f6c652000000000000000000000000000000060179184019182015283516128cb816028840160208801612b38565b01602801949350505050565b600160a060020a0393841681526020810192909252909116604082015260600190565b600060e08201600160a060020a03808b16845260208a81860152818a16604086015288606086015287608086015260e060a0860152828751808552610100870191508289019450855b81811015612961578551851683529483019491830191600101612943565b5050809450505050508260c083015298975050505050505050565b602081526000611ce0602083018461282a565b6020808252602e908201527f496e697469616c697a61626c653a20636f6e747261637420697320616c72656160408201527f647920696e697469616c697a6564000000000000000000000000000000000000606082015260800190565b838152600160a060020a03831660208201526060604082015260006113ef60608301846127e7565b60006101208b8352600160a060020a038b166020840152806040840152612a3d8184018b61282a565b60608401999099525050608081019590955260a085019390935260c084019190915260e0830152610100909101529392505050565b828152604060208201526000612a8b60408301846127e7565b949350505050565b828152604060208201526000612a8b604083018461282a565b604051601f8201601f1916810167ffffffffffffffff81118282101715612ad557612ad5612bb3565b604052919050565b600067ffffffffffffffff821115612af757612af7612bb3565b5060209081020190565b60008219821115612b1457612b14612b9a565b500190565b6000816000190483118215151615612b3357612b33612b9a565b500290565b60005b83811015612b53578181015183820152602001612b3b565b83811115612b62576000848401525b50505050565b600081612b7757612b77612b9a565b506000190190565b6000600019821415612b9357612b93612b9a565b5060010190565b60e060020a634e487b7102600052601160045260246000fd5b60e060020a634e487b7102600052604160045260246000fd5b600160a060020a0381168114611da357600080fdfea2646970667358221220d10304307e9271c79db0d06696a9e7fb256c4a951960c219f42045f4622834b564736f6c63430008040033",
  "immutableReferences": {},
  "source": "// SPDX-License-Identifier: MIT\npragma solidity ^0.8.0;\n\nimport \"@openzeppelin/contracts-upgradeable/access/AccessControlUpgradeable.sol\";\nimport {MerkleProof} from \"@openzeppelin/contracts/utils/cryptography/MerkleProof.sol\";\n\nimport \"./NFTLibrary.sol\";\nimport \"./interface/IController.sol\";\nimport \"./Collection.sol\";\n\n\ncontract Controller is IController, Initializable, AccessControlUpgradeable {\n\n    bytes32 public constant MINTER_ROLE = keccak256(\"MINTER_ROLE\");\n\n    using NFTLibrary for address;\n\n    using MerkleProof for bytes32[];\n\n\n    address public eternalStorage;\n\n    address public dynamicNFTCollectionAddress;\n\n    uint256 public tokenId;\n\n    Collection NFT;\n\n    /* ========== EVENTS ========== */\n\n    event Mint(uint256 _tokenId, address _minter, string uri, bytes32 _title, bytes32 _description, uint256 _price, uint256 rentPrice, uint256 rentDuration, uint256 videoDuration);\n    event BuyNFT(uint256 _tokenId, address from, address to);\n    event RentRequest(uint256 _tokenId, address mainRenter, address[] coOwners);\n    event PayForRent(uint256 _tokenId, address renter);\n    event RentFinishTime(uint256 _tokenId, uint256 start, uint256 duration);\n    event RentStarted(uint256 _tokenId, address[] coOwners);\n    event AuctionIteration(uint256 _tokenId, uint256 _stepPrice, uint256 _stepTime);\n\n\n    function initialize(address _eternalStorage, address _dynamicNFTCollectionAddress) public initializer {\n        eternalStorage = _eternalStorage;\n        dynamicNFTCollectionAddress = _dynamicNFTCollectionAddress;\n        NFT = Collection(dynamicNFTCollectionAddress);\n\n        tokenId = 0;\n\n        __AccessControl_init();\n        _setupRole(DEFAULT_ADMIN_ROLE, _msgSender());\n    }\n\n    function mint(string memory uri, bytes32 _title, bytes32 _description, uint256 _price, uint256 rentPrice, uint256 rentDuration, uint256 videoDuration) external override returns (uint256){\n\n        tokenId = tokenId + 1;\n\n        NFT.mint(_msgSender(), tokenId);\n        NFT.setTokenURI(tokenId, uri);\n        eternalStorage.saveMediaInfo(tokenId, _title, _description, _price, rentPrice, rentDuration, videoDuration);\n\n        emit Mint(tokenId, _msgSender(), uri, _title, _description, _price, rentPrice, rentDuration, videoDuration);\n\n        return tokenId;\n    }\n\n    function auctionRequest(uint256 _tokenId, uint256 _stepPrice, uint256 _stepTime) external override {\n        require(_msgSender() == NFT.ownerOf(_tokenId), \"not an owner\");\n\n        emit AuctionIteration(_tokenId, _stepPrice, _stepTime);\n\n    }\n\n    function buyNFT(uint256 _tokenId) external payable override {\n        require(eternalStorage.mediaRentStatus(_tokenId) == false, \"media rented now\");\n\n        address from = NFT.ownerOf(tokenId);\n        address to = _msgSender();\n\n        uint256 price = eternalStorage.getMediaPrice(_tokenId);\n\n        require(\n            msg.value >= price,\n            \"Not enough funds\"\n        );\n\n        NFT.buy(from, to, _tokenId);\n\n        _forwardFunds(payable(from));\n\n        emit BuyNFT(_tokenId, from, to);\n    }\n\n    function rentRequest(uint256 _tokenId, bytes32 coOwners, address[] memory coOwnersList) external payable {\n        eternalStorage.handleRentRequest(_tokenId, _msgSender(), coOwners, coOwnersList.length, coOwnersList, msg.value);\n        _forwardFunds(payable(NFT.ownerOf(_tokenId)));\n        emit RentRequest(_tokenId, _msgSender(), coOwnersList);\n        emit PayForRent(_tokenId, _msgSender());\n    }\n\n    function rentByPeer(uint256 _tokenId, address mainRenter, bytes32[] memory proof) external payable {\n        //        require(not rented now);\n        require(eternalStorage.mediaRentStatus(_tokenId) == false, \"media rented now\");\n        //        requeire(in merklepeers);\n        bytes32 merkleTree = eternalStorage.getRentRequestMerkleTree(_tokenId, mainRenter);\n        require(proof.verify(merkleTree, keccak256(abi.encodePacked(_msgSender()))), \"Address not in list\");\n        // cummulatedPrice += single_peer_price;\n        //        transfer_price_to_owner();\n        //        save_this_add in transfereds;\n        _forwardFunds(payable(NFT.ownerOf(_tokenId)));\n        eternalStorage.savePaidInfo(_tokenId, mainRenter, _msgSender(), msg.value);\n        if (eternalStorage.hasEveryOnePaid(_tokenId, mainRenter)) {\n            eternalStorage.updateRentStatus(_tokenId);\n            emit RentFinishTime(_tokenId, uint256(block.timestamp), eternalStorage.getMediaRentDuration(_tokenId));\n            emit RentStarted(_tokenId, eternalStorage.getCoOwners(_tokenId, mainRenter));\n        }\n        emit PayForRent(_tokenId, _msgSender());\n    }\n\n    function renterAllowedToWatch(uint256 _tokenId, address mainRenter, bytes32[] memory proof) external returns (bool){\n        bytes32 merkleTree = eternalStorage.getRentRequestMerkleTree(_tokenId, mainRenter);\n        require(proof.verify(merkleTree, keccak256(abi.encodePacked(_msgSender()))), \"Address not in list\");\n        return eternalStorage.hasEveryOnePaid(_tokenId, mainRenter);\n    }\n\n    function allowedToWatch(uint256 _tokenId) public view returns (bool){\n        require(_msgSender() == NFT.ownerOf(_tokenId), \"not owner\");\n        return true;\n    }\n\n    function getMediaRentPrice(uint256 _tokenId) public view returns (uint256){\n        return eternalStorage.getMediaRentPrice(_tokenId);\n    }\n\n    function canRemovePeer(uint256 _tokenId, address mainRenter, address peer) external view returns (bool){\n        return !eternalStorage.hasPaid(_tokenId, mainRenter, peer);\n    }\n\n    function getPaidRentCumulativeValue(uint256 _tokenId, address mainRenter) external view returns (uint256){\n        return eternalStorage.getPaidRentCumulativeValue(_tokenId, mainRenter);\n    }\n\n    function resetRentStatus(uint256 _tokenId, address renter) external {\n        eternalStorage.resetRentStatus(_tokenId, renter);\n    }\n\n    function isRented(uint256 _tokenId) public view returns (bool) {\n        return eternalStorage.mediaRentStatus(_tokenId);\n    }\n\n    function getMediaInfo(uint256 _tokenId) public view override returns (bytes32, bytes32, uint256, uint256, uint256, uint256){\n        return eternalStorage.getMediaInfo(_tokenId);\n    }\n\n    function _forwardFunds(address payable receiver) internal {\n        receiver.transfer(msg.value);\n    }\n\n}",
  "sourcePath": "/Users/theneo/sabacalavro/smart-contracts-dapp/contracts/Controller.sol",
  "compiler": {
    "name": "solc",
    "version": "0.8.4+commit.c7e474f2.Emscripten.clang"
  },
  "schemaVersion": "3.4.7",
  "updatedAt": "2022-09-06T20:13:41.498Z",
  "devdoc": {
    "kind": "dev",
    "methods": {
      "getRoleAdmin(bytes32)": {
        "details": "Returns the admin role that controls `role`. See {grantRole} and {revokeRole}. To change a role's admin, use {_setRoleAdmin}."
      },
      "grantRole(bytes32,address)": {
        "details": "Grants `role` to `account`. If `account` had not been already granted `role`, emits a {RoleGranted} event. Requirements: - the caller must have ``role``'s admin role."
      },
      "hasRole(bytes32,address)": {
        "details": "Returns `true` if `account` has been granted `role`."
      },
      "renounceRole(bytes32,address)": {
        "details": "Revokes `role` from the calling account. Roles are often managed via {grantRole} and {revokeRole}: this function's purpose is to provide a mechanism for accounts to lose their privileges if they are compromised (such as when a trusted device is misplaced). If the calling account had been revoked `role`, emits a {RoleRevoked} event. Requirements: - the caller must be `account`."
      },
      "revokeRole(bytes32,address)": {
        "details": "Revokes `role` from `account`. If `account` had been granted `role`, emits a {RoleRevoked} event. Requirements: - the caller must have ``role``'s admin role."
      },
      "supportsInterface(bytes4)": {
        "details": "See {IERC165-supportsInterface}."
      }
    },
    "version": 1
  },
  "userdoc": {
    "kind": "user",
    "methods": {},
    "version": 1
  }
}