{
  "contractName": "Controller",
  "abi": [
    {
      "anonymous": false,
      "inputs": [
        {
          "indexed": false,
          "internalType": "uint8",
          "name": "version",
          "type": "uint8"
        }
      ],
      "name": "Initialized",
      "type": "event"
    },
    {
      "anonymous": false,
      "inputs": [
        {
          "indexed": false,
          "internalType": "uint256",
          "name": "_tokenId",
          "type": "uint256"
        },
        {
          "indexed": false,
          "internalType": "address",
          "name": "_minter",
          "type": "address"
        },
        {
          "indexed": false,
          "internalType": "string",
          "name": "uri",
          "type": "string"
        }
      ],
      "name": "MintNFT",
      "type": "event"
    },
    {
      "anonymous": false,
      "inputs": [
        {
          "indexed": true,
          "internalType": "bytes32",
          "name": "role",
          "type": "bytes32"
        },
        {
          "indexed": true,
          "internalType": "bytes32",
          "name": "previousAdminRole",
          "type": "bytes32"
        },
        {
          "indexed": true,
          "internalType": "bytes32",
          "name": "newAdminRole",
          "type": "bytes32"
        }
      ],
      "name": "RoleAdminChanged",
      "type": "event"
    },
    {
      "anonymous": false,
      "inputs": [
        {
          "indexed": true,
          "internalType": "bytes32",
          "name": "role",
          "type": "bytes32"
        },
        {
          "indexed": true,
          "internalType": "address",
          "name": "account",
          "type": "address"
        },
        {
          "indexed": true,
          "internalType": "address",
          "name": "sender",
          "type": "address"
        }
      ],
      "name": "RoleGranted",
      "type": "event"
    },
    {
      "anonymous": false,
      "inputs": [
        {
          "indexed": true,
          "internalType": "bytes32",
          "name": "role",
          "type": "bytes32"
        },
        {
          "indexed": true,
          "internalType": "address",
          "name": "account",
          "type": "address"
        },
        {
          "indexed": true,
          "internalType": "address",
          "name": "sender",
          "type": "address"
        }
      ],
      "name": "RoleRevoked",
      "type": "event"
    },
    {
      "inputs": [],
      "name": "DEFAULT_ADMIN_ROLE",
      "outputs": [
        {
          "internalType": "bytes32",
          "name": "",
          "type": "bytes32"
        }
      ],
      "stateMutability": "view",
      "type": "function"
    },
    {
      "inputs": [],
      "name": "MINTER_ROLE",
      "outputs": [
        {
          "internalType": "bytes32",
          "name": "",
          "type": "bytes32"
        }
      ],
      "stateMutability": "view",
      "type": "function"
    },
    {
      "inputs": [],
      "name": "dynamicNFTCollectionAddress",
      "outputs": [
        {
          "internalType": "address",
          "name": "",
          "type": "address"
        }
      ],
      "stateMutability": "view",
      "type": "function"
    },
    {
      "inputs": [],
      "name": "eternalStorage",
      "outputs": [
        {
          "internalType": "address",
          "name": "",
          "type": "address"
        }
      ],
      "stateMutability": "view",
      "type": "function"
    },
    {
      "inputs": [
        {
          "internalType": "bytes32",
          "name": "role",
          "type": "bytes32"
        }
      ],
      "name": "getRoleAdmin",
      "outputs": [
        {
          "internalType": "bytes32",
          "name": "",
          "type": "bytes32"
        }
      ],
      "stateMutability": "view",
      "type": "function"
    },
    {
      "inputs": [
        {
          "internalType": "bytes32",
          "name": "role",
          "type": "bytes32"
        },
        {
          "internalType": "address",
          "name": "account",
          "type": "address"
        }
      ],
      "name": "grantRole",
      "outputs": [],
      "stateMutability": "nonpayable",
      "type": "function"
    },
    {
      "inputs": [
        {
          "internalType": "bytes32",
          "name": "role",
          "type": "bytes32"
        },
        {
          "internalType": "address",
          "name": "account",
          "type": "address"
        }
      ],
      "name": "hasRole",
      "outputs": [
        {
          "internalType": "bool",
          "name": "",
          "type": "bool"
        }
      ],
      "stateMutability": "view",
      "type": "function"
    },
    {
      "inputs": [
        {
          "internalType": "bytes32",
          "name": "role",
          "type": "bytes32"
        },
        {
          "internalType": "address",
          "name": "account",
          "type": "address"
        }
      ],
      "name": "renounceRole",
      "outputs": [],
      "stateMutability": "nonpayable",
      "type": "function"
    },
    {
      "inputs": [
        {
          "internalType": "bytes32",
          "name": "role",
          "type": "bytes32"
        },
        {
          "internalType": "address",
          "name": "account",
          "type": "address"
        }
      ],
      "name": "revokeRole",
      "outputs": [],
      "stateMutability": "nonpayable",
      "type": "function"
    },
    {
      "inputs": [
        {
          "internalType": "bytes4",
          "name": "interfaceId",
          "type": "bytes4"
        }
      ],
      "name": "supportsInterface",
      "outputs": [
        {
          "internalType": "bool",
          "name": "",
          "type": "bool"
        }
      ],
      "stateMutability": "view",
      "type": "function"
    },
    {
      "inputs": [],
      "name": "tokenId",
      "outputs": [
        {
          "internalType": "uint256",
          "name": "",
          "type": "uint256"
        }
      ],
      "stateMutability": "view",
      "type": "function"
    },
    {
      "inputs": [
        {
          "internalType": "address",
          "name": "_eternalStorage",
          "type": "address"
        },
        {
          "internalType": "address",
          "name": "_dynamicNFTCollectionAddress",
          "type": "address"
        }
      ],
      "name": "initialize",
      "outputs": [],
      "stateMutability": "nonpayable",
      "type": "function"
    },
    {
      "inputs": [
        {
          "internalType": "string",
          "name": "uri",
          "type": "string"
        },
        {
          "internalType": "bytes32",
          "name": "_title",
          "type": "bytes32"
        },
        {
          "internalType": "bytes32",
          "name": "_description",
          "type": "bytes32"
        },
        {
          "internalType": "uint256",
          "name": "_price",
          "type": "uint256"
        }
      ],
      "name": "mint",
      "outputs": [
        {
          "internalType": "uint256",
          "name": "",
          "type": "uint256"
        }
      ],
      "stateMutability": "nonpayable",
      "type": "function"
    },
    {
      "inputs": [
        {
          "internalType": "uint256",
          "name": "_tokenId",
          "type": "uint256"
        }
      ],
      "name": "buyNFT",
      "outputs": [],
      "stateMutability": "payable",
      "type": "function"
    },
    {
      "inputs": [
        {
          "internalType": "uint256",
          "name": "_tokenId",
          "type": "uint256"
        }
      ],
      "name": "getMediaInfo",
      "outputs": [
        {
          "internalType": "bytes32",
          "name": "",
          "type": "bytes32"
        },
        {
          "internalType": "bytes32",
          "name": "",
          "type": "bytes32"
        },
        {
          "internalType": "uint256",
          "name": "",
          "type": "uint256"
        }
      ],
      "stateMutability": "view",
      "type": "function"
    }
  ],
  "bytecode": "0x608060405234801561001057600080fd5b50611453806100206000396000f3fe608060405260043610610105576000357c01000000000000000000000000000000000000000000000000000000009004806391d14854116100a7578063b1861a6111610076578063b1861a61146102b0578063d5391393146102d0578063d547741f14610304578063e75aa6ff1461032457600080fd5b806391d148541461020857806398ff9c5414610228578063a1bffc2014610260578063a217fddf1461029b57600080fd5b80632f2ff15d116100e35780632f2ff15d1461019357806336568abe146101b5578063485cc955146101d557806351ed8288146101f557600080fd5b806301ffc9a71461010a57806317d70f7c1461013f578063248a9ca314610163575b600080fd5b34801561011657600080fd5b5061012a6101253660046110d6565b610344565b60405190151581526020015b60405180910390f35b34801561014b57600080fd5b5061015560995481565b604051908152602001610136565b34801561016f57600080fd5b5061015561017e36600461106d565b60009081526065602052604090206001015490565b34801561019f57600080fd5b506101b36101ae366004611085565b6103d7565b005b3480156101c157600080fd5b506101b36101d0366004611085565b610401565b3480156101e157600080fd5b506101b36101f0366004611035565b610495565b6101b361020336600461106d565b610561565b34801561021457600080fd5b5061012a610223366004611085565b6107a0565b34801561023457600080fd5b5060975461024890600160a060020a031681565b604051600160a060020a039091168152602001610136565b34801561026c57600080fd5b5061028061027b36600461106d565b6107cb565b60408051938452602084019290925290820152606001610136565b3480156102a757600080fd5b50610155600081565b3480156102bc57600080fd5b5060985461024890600160a060020a031681565b3480156102dc57600080fd5b506101557f9f2df0fed2c77648de5860a4cc508cd0818c85b8b8a1ab4ceeef8d981c8956a681565b34801561031057600080fd5b506101b361031f366004611085565b61088e565b34801561033057600080fd5b5061015561033f366004611113565b6108b3565b60007bffffffffffffffffffffffffffffffffffffffffffffffffffffffff1982167f7965db0b0000000000000000000000000000000000000000000000000000000014806103d157507f01ffc9a7000000000000000000000000000000000000000000000000000000007bffffffffffffffffffffffffffffffffffffffffffffffffffffffff198316145b92915050565b6000828152606560205260409020600101546103f281610ac3565b6103fc8383610ad0565b505050565b600160a060020a03811633146104875760405160e560020a62461bcd02815260206004820152602f60248201527f416363657373436f6e74726f6c3a2063616e206f6e6c792072656e6f756e636560448201527f20726f6c657320666f722073656c66000000000000000000000000000000000060648201526084015b60405180910390fd5b6104918282610b56565b5050565b60006104a16001610bbd565b905080156104b9576000805461ff0019166101001790555b60978054600160a060020a0380861673ffffffffffffffffffffffffffffffffffffffff19928316179092556098805492851692821683179055609a80549091169091179055600060995561050c610c4b565b610517600033610ccd565b80156103fc576000805461ff0019169055604051600181527f7f26b83ff96e1f2b6a682f133852f6798a09c465da95921460cefb38474024989060200160405180910390a1505050565b609a546099546040517f6352211e0000000000000000000000000000000000000000000000000000000081526004810191909152600091600160a060020a031690636352211e9060240160206040518083038186803b1580156105c357600080fd5b505afa1580156105d7573d6000803e3d6000fd5b505050506040513d601f19601f820116820180604052508101906105fb9190611019565b90506000336097546040517fb1c50e4e000000000000000000000000000000000000000000000000000000008152600160a060020a0390911660048201526024810185905290915060009073__NFTLibrary____________________________9063b1c50e4e9060440160206040518083038186803b15801561067d57600080fd5b505af4158015610691573d6000803e3d6000fd5b505050506040513d601f19601f820116820180604052508101906106b591906111d5565b90508034101561070a5760405160e560020a62461bcd02815260206004820152601060248201527f4e6f7420656e6f7567682066756e647300000000000000000000000000000000604482015260640161047e565b609a546040517f23b872dd000000000000000000000000000000000000000000000000000000008152600160a060020a038581166004830152848116602483015260448201879052909116906323b872dd90606401600060405180830381600087803b15801561077957600080fd5b505af115801561078d573d6000803e3d6000fd5b5050505061079a83610cd7565b50505050565b6000918252606560209081526040808420600160a060020a0393909316845291905290205460ff1690565b6097546040517fc9581337000000000000000000000000000000000000000000000000000000008152600160a060020a039091166004820152602481018290526000908190819073__NFTLibrary____________________________9063c95813379060440160606040518083038186803b15801561084957600080fd5b505af415801561085d573d6000803e3d6000fd5b505050506040513d601f19601f8201168201806040525081019061088191906110a9565b9250925092509193909250565b6000828152606560205260409020600101546108a981610ac3565b6103fc8383610b56565b600060995460016108c4919061135c565b609955609a54600160a060020a03166340c10f19336099546040517c010000000000000000000000000000000000000000000000000000000063ffffffff8516028152600160a060020a0390921660048301526024820152604401600060405180830381600087803b15801561093957600080fd5b505af115801561094d573d6000803e3d6000fd5b5050609a546099546040517f162094c4000000000000000000000000000000000000000000000000000000008152600160a060020a03909216935063162094c4925061099d91899060040161133b565b600060405180830381600087803b1580156109b757600080fd5b505af11580156109cb573d6000803e3d6000fd5b50506097546099546040517f8fba84b7000000000000000000000000000000000000000000000000000000008152600160a060020a039092166004830152602482015260448101879052606481018690526084810185905273__NFTLibrary____________________________9250638fba84b7915060a40160006040518083038186803b158015610a5c57600080fd5b505af4158015610a70573d6000803e3d6000fd5b505050507f6a916d1516417270d3ed6525dde2f437fe954fd61996dc1637f0d9358b2857ff609954610a9f3390565b87604051610aaf9392919061130a565b60405180910390a150609954949350505050565b610acd8133610d0c565b50565b610ada82826107a0565b610491576000828152606560209081526040808320600160a060020a03851684529091529020805460ff19166001179055610b123390565b600160a060020a031681600160a060020a0316837f2f8788117e7eff1d82e926ec794901d17c78024a50270940304540a733656f0d60405160405180910390a45050565b610b6082826107a0565b15610491576000828152606560209081526040808320600160a060020a0385168085529252808320805460ff1916905551339285917ff6391f5c32d9c69d2a47ea670b442974b53935d1edc7fd64eb21e047a839171b9190a45050565b60008054610100900460ff1615610c07578160ff166001148015610be05750303b155b610bff5760405160e560020a62461bcd02815260040161047e906112ad565b506000919050565b60005460ff808416911610610c315760405160e560020a62461bcd02815260040161047e906112ad565b506000805460ff191660ff92909216919091179055600190565b600054610100900460ff16610ccb5760405160e560020a62461bcd02815260206004820152602b60248201527f496e697469616c697a61626c653a20636f6e7472616374206973206e6f74206960448201527f6e697469616c697a696e67000000000000000000000000000000000000000000606482015260840161047e565b565b6104918282610ad0565b604051600160a060020a038216903480156108fc02916000818181858888f19350505050158015610491573d6000803e3d6000fd5b610d1682826107a0565b61049157610d2e81600160a060020a03166014610d73565b610d39836020610d73565b604051602001610d4a929190611219565b60408051601f198184030181529082905260e560020a62461bcd02825261047e9160040161129a565b60606000610d82836002611374565b610d8d90600261135c565b67ffffffffffffffff811115610db65760e060020a634e487b7102600052604160045260246000fd5b6040519080825280601f01601f191660200182016040528015610de0576020820181803683370190505b5090507f300000000000000000000000000000000000000000000000000000000000000081600081518110610e285760e060020a634e487b7102600052603260045260246000fd5b60200101907effffffffffffffffffffffffffffffffffffffffffffffffffffffffffffff1916908160001a9053507f780000000000000000000000000000000000000000000000000000000000000081600181518110610e9c5760e060020a634e487b7102600052603260045260246000fd5b60200101907effffffffffffffffffffffffffffffffffffffffffffffffffffffffffffff1916908160001a9053506000610ed8846002611374565b610ee390600161135c565b90505b6001811115610fc0577f303132333435363738396162636465660000000000000000000000000000000085600f1660108110610f355760e060020a634e487b7102600052603260045260246000fd5b1a7f010000000000000000000000000000000000000000000000000000000000000002828281518110610f7b5760e060020a634e487b7102600052603260045260246000fd5b60200101907effffffffffffffffffffffffffffffffffffffffffffffffffffffffffffff1916908160001a905350601090940493610fb9816113bf565b9050610ee6565b5083156110125760405160e560020a62461bcd02815260206004820181905260248201527f537472696e67733a20686578206c656e67746820696e73756666696369656e74604482015260640161047e565b9392505050565b60006020828403121561102a578081fd5b815161101281611408565b60008060408385031215611047578081fd5b823561105281611408565b9150602083013561106281611408565b809150509250929050565b60006020828403121561107e578081fd5b5035919050565b60008060408385031215611097578182fd5b82359150602083013561106281611408565b6000806000606084860312156110bd578081fd5b8351925060208401519150604084015190509250925092565b6000602082840312156110e7578081fd5b81357bffffffffffffffffffffffffffffffffffffffffffffffffffffffff1981168114611012578182fd5b60008060008060808587031215611128578081fd5b843567ffffffffffffffff8082111561113f578283fd5b818701915087601f830112611152578283fd5b813581811115611164576111646113ef565b604051601f8201601f19908116603f0116810190838211818310171561118c5761118c6113ef565b816040528281528a60208487010111156111a4578586fd5b8260208601602083013791820160209081019590955250989287013597505050604085013594606001359350915050565b6000602082840312156111e6578081fd5b5051919050565b60008151808452611205816020860160208601611393565b601f01601f19169290920160200192915050565b7f416363657373436f6e74726f6c3a206163636f756e7420000000000000000000815260008351611251816017850160208801611393565b7f206973206d697373696e6720726f6c6520000000000000000000000000000000601791840191820152835161128e816028840160208801611393565b01602801949350505050565b60208152600061101260208301846111ed565b6020808252602e908201527f496e697469616c697a61626c653a20636f6e747261637420697320616c72656160408201527f647920696e697469616c697a6564000000000000000000000000000000000000606082015260800190565b838152600160a060020a038316602082015260606040820152600061133260608301846111ed565b95945050505050565b82815260406020820152600061135460408301846111ed565b949350505050565b6000821982111561136f5761136f6113d6565b500190565b600081600019048311821515161561138e5761138e6113d6565b500290565b60005b838110156113ae578181015183820152602001611396565b8381111561079a5750506000910152565b6000816113ce576113ce6113d6565b506000190190565b60e060020a634e487b7102600052601160045260246000fd5b60e060020a634e487b7102600052604160045260246000fd5b600160a060020a0381168114610acd57600080fdfea2646970667358221220408ef355cee17d5170744928453535ac9ab3947dd0fcc184bf8f8d368b86837564736f6c63430008040033",
  "immutableReferences": {},
  "source": "// SPDX-License-Identifier: MIT\r\npragma solidity ^0.8.0;\r\n\r\nimport \"@openzeppelin/contracts-upgradeable/access/AccessControlUpgradeable.sol\";\r\n\r\nimport \"./NFTLibrary.sol\";\r\nimport \"./interface/IController.sol\";\r\nimport \"./Collection.sol\";\r\n\r\n\r\ncontract Controller is IController, Initializable, AccessControlUpgradeable {\r\n\r\n    bytes32 public constant MINTER_ROLE = keccak256(\"MINTER_ROLE\");\r\n\r\n    using NFTLibrary for address;\r\n\r\n    address public eternalStorage;\r\n\r\n    address public dynamicNFTCollectionAddress;\r\n\r\n    uint256 public tokenId;\r\n\r\n    Collection NFT;\r\n\r\n    /* ========== EVENTS ========== */\r\n\r\n    event MintNFT(uint256 _tokenId, address _minter, string uri);\r\n\r\n\r\n    function initialize(address _eternalStorage, address _dynamicNFTCollectionAddress) public initializer {\r\n        eternalStorage = _eternalStorage;\r\n        dynamicNFTCollectionAddress = _dynamicNFTCollectionAddress;\r\n        NFT = Collection(dynamicNFTCollectionAddress);\r\n\r\n        tokenId = 0;\r\n\r\n        __AccessControl_init();\r\n        _setupRole(DEFAULT_ADMIN_ROLE, _msgSender());\r\n    }\r\n\r\n    function mint(string memory uri, bytes32 _title, bytes32 _description, uint256 _price) external override returns (uint256){\r\n\r\n        tokenId = tokenId + 1;\r\n\r\n        NFT.mint(_msgSender(), tokenId);\r\n        NFT.setTokenURI(tokenId, uri);\r\n        eternalStorage.saveMediaInfo(tokenId, _title, _description, _price);\r\n\r\n        emit MintNFT(tokenId, _msgSender(), uri);\r\n\r\n        return tokenId;\r\n    }\r\n\r\n    function buyNFT(uint256 _tokenId) external payable override {\r\n        address seller = NFT.ownerOf(tokenId);\r\n        address buyer = _msgSender();\r\n\r\n        uint256 price = eternalStorage.getMediaPrice(_tokenId);\r\n\r\n        require(\r\n            msg.value >= price,\r\n            \"Not enough funds\"\r\n        );\r\n\r\n        NFT.transferFrom(seller, buyer, _tokenId);\r\n\r\n        _forwardFunds(payable(seller));\r\n    }\r\n\r\n    function getMediaInfo(uint256 _tokenId) public view override returns (bytes32, bytes32, uint256){\r\n        return eternalStorage.getMediaInfo(_tokenId);\r\n    }\r\n\r\n    function _forwardFunds(address payable receiver) internal {\r\n        receiver.transfer(msg.value);\r\n    }\r\n\r\n}",
  "sourcePath": "D:\\sabakalavro\\smart-contracts-dapp\\contracts\\Controller.sol",
  "compiler": {
    "name": "solc",
    "version": "0.8.4+commit.c7e474f2.Emscripten.clang"
  },
  "schemaVersion": "3.4.7",
  "updatedAt": "2022-05-29T16:12:01.290Z",
  "devdoc": {
    "kind": "dev",
    "methods": {
      "getRoleAdmin(bytes32)": {
        "details": "Returns the admin role that controls `role`. See {grantRole} and {revokeRole}. To change a role's admin, use {_setRoleAdmin}."
      },
      "grantRole(bytes32,address)": {
        "details": "Grants `role` to `account`. If `account` had not been already granted `role`, emits a {RoleGranted} event. Requirements: - the caller must have ``role``'s admin role."
      },
      "hasRole(bytes32,address)": {
        "details": "Returns `true` if `account` has been granted `role`."
      },
      "renounceRole(bytes32,address)": {
        "details": "Revokes `role` from the calling account. Roles are often managed via {grantRole} and {revokeRole}: this function's purpose is to provide a mechanism for accounts to lose their privileges if they are compromised (such as when a trusted device is misplaced). If the calling account had been revoked `role`, emits a {RoleRevoked} event. Requirements: - the caller must be `account`."
      },
      "revokeRole(bytes32,address)": {
        "details": "Revokes `role` from `account`. If `account` had been granted `role`, emits a {RoleRevoked} event. Requirements: - the caller must have ``role``'s admin role."
      },
      "supportsInterface(bytes4)": {
        "details": "See {IERC165-supportsInterface}."
      }
    },
    "version": 1
  },
  "userdoc": {
    "kind": "user",
    "methods": {},
    "version": 1
  }
}