{
  "contractName": "Controller",
  "abi": [
    {
      "anonymous": false,
      "inputs": [
        {
          "indexed": false,
          "internalType": "uint256",
          "name": "_tokenId",
          "type": "uint256"
        },
        {
          "indexed": false,
          "internalType": "address",
          "name": "from",
          "type": "address"
        },
        {
          "indexed": false,
          "internalType": "address",
          "name": "to",
          "type": "address"
        }
      ],
      "name": "BuyNFT",
      "type": "event"
    },
    {
      "anonymous": false,
      "inputs": [
        {
          "indexed": false,
          "internalType": "uint8",
          "name": "version",
          "type": "uint8"
        }
      ],
      "name": "Initialized",
      "type": "event"
    },
    {
      "anonymous": false,
      "inputs": [
        {
          "indexed": false,
          "internalType": "uint256",
          "name": "_tokenId",
          "type": "uint256"
        },
        {
          "indexed": false,
          "internalType": "address",
          "name": "_minter",
          "type": "address"
        },
        {
          "indexed": false,
          "internalType": "string",
          "name": "uri",
          "type": "string"
        },
        {
          "indexed": false,
          "internalType": "bytes32",
          "name": "_title",
          "type": "bytes32"
        },
        {
          "indexed": false,
          "internalType": "bytes32",
          "name": "_description",
          "type": "bytes32"
        },
        {
          "indexed": false,
          "internalType": "uint256",
          "name": "_price",
          "type": "uint256"
        },
        {
          "indexed": false,
          "internalType": "uint256",
          "name": "rentPrice",
          "type": "uint256"
        },
        {
          "indexed": false,
          "internalType": "uint256",
          "name": "rentDuration",
          "type": "uint256"
        },
        {
          "indexed": false,
          "internalType": "uint256",
          "name": "videoDuration",
          "type": "uint256"
        }
      ],
      "name": "Mint",
      "type": "event"
    },
    {
      "anonymous": false,
      "inputs": [
        {
          "indexed": false,
          "internalType": "uint256",
          "name": "_tokenId",
          "type": "uint256"
        },
        {
          "indexed": false,
          "internalType": "address",
          "name": "renter",
          "type": "address"
        }
      ],
      "name": "PayForRent",
      "type": "event"
    },
    {
      "anonymous": false,
      "inputs": [
        {
          "indexed": false,
          "internalType": "uint256",
          "name": "_tokenId",
          "type": "uint256"
        },
        {
          "indexed": false,
          "internalType": "uint256",
          "name": "start",
          "type": "uint256"
        },
        {
          "indexed": false,
          "internalType": "uint256",
          "name": "duration",
          "type": "uint256"
        }
      ],
      "name": "RentFinishTime",
      "type": "event"
    },
    {
      "anonymous": false,
      "inputs": [
        {
          "indexed": false,
          "internalType": "uint256",
          "name": "_tokenId",
          "type": "uint256"
        },
        {
          "indexed": false,
          "internalType": "address",
          "name": "mainRenter",
          "type": "address"
        },
        {
          "indexed": false,
          "internalType": "address[]",
          "name": "coOwners",
          "type": "address[]"
        }
      ],
      "name": "RentRequest",
      "type": "event"
    },
    {
      "anonymous": false,
      "inputs": [
        {
          "indexed": false,
          "internalType": "uint256",
          "name": "_tokenId",
          "type": "uint256"
        },
        {
          "indexed": false,
          "internalType": "address[]",
          "name": "coOwners",
          "type": "address[]"
        }
      ],
      "name": "RentStarted",
      "type": "event"
    },
    {
      "anonymous": false,
      "inputs": [
        {
          "indexed": true,
          "internalType": "bytes32",
          "name": "role",
          "type": "bytes32"
        },
        {
          "indexed": true,
          "internalType": "bytes32",
          "name": "previousAdminRole",
          "type": "bytes32"
        },
        {
          "indexed": true,
          "internalType": "bytes32",
          "name": "newAdminRole",
          "type": "bytes32"
        }
      ],
      "name": "RoleAdminChanged",
      "type": "event"
    },
    {
      "anonymous": false,
      "inputs": [
        {
          "indexed": true,
          "internalType": "bytes32",
          "name": "role",
          "type": "bytes32"
        },
        {
          "indexed": true,
          "internalType": "address",
          "name": "account",
          "type": "address"
        },
        {
          "indexed": true,
          "internalType": "address",
          "name": "sender",
          "type": "address"
        }
      ],
      "name": "RoleGranted",
      "type": "event"
    },
    {
      "anonymous": false,
      "inputs": [
        {
          "indexed": true,
          "internalType": "bytes32",
          "name": "role",
          "type": "bytes32"
        },
        {
          "indexed": true,
          "internalType": "address",
          "name": "account",
          "type": "address"
        },
        {
          "indexed": true,
          "internalType": "address",
          "name": "sender",
          "type": "address"
        }
      ],
      "name": "RoleRevoked",
      "type": "event"
    },
    {
      "inputs": [],
      "name": "DEFAULT_ADMIN_ROLE",
      "outputs": [
        {
          "internalType": "bytes32",
          "name": "",
          "type": "bytes32"
        }
      ],
      "stateMutability": "view",
      "type": "function"
    },
    {
      "inputs": [],
      "name": "MINTER_ROLE",
      "outputs": [
        {
          "internalType": "bytes32",
          "name": "",
          "type": "bytes32"
        }
      ],
      "stateMutability": "view",
      "type": "function"
    },
    {
      "inputs": [],
      "name": "dynamicNFTCollectionAddress",
      "outputs": [
        {
          "internalType": "address",
          "name": "",
          "type": "address"
        }
      ],
      "stateMutability": "view",
      "type": "function"
    },
    {
      "inputs": [],
      "name": "eternalStorage",
      "outputs": [
        {
          "internalType": "address",
          "name": "",
          "type": "address"
        }
      ],
      "stateMutability": "view",
      "type": "function"
    },
    {
      "inputs": [
        {
          "internalType": "bytes32",
          "name": "role",
          "type": "bytes32"
        }
      ],
      "name": "getRoleAdmin",
      "outputs": [
        {
          "internalType": "bytes32",
          "name": "",
          "type": "bytes32"
        }
      ],
      "stateMutability": "view",
      "type": "function"
    },
    {
      "inputs": [
        {
          "internalType": "bytes32",
          "name": "role",
          "type": "bytes32"
        },
        {
          "internalType": "address",
          "name": "account",
          "type": "address"
        }
      ],
      "name": "grantRole",
      "outputs": [],
      "stateMutability": "nonpayable",
      "type": "function"
    },
    {
      "inputs": [
        {
          "internalType": "bytes32",
          "name": "role",
          "type": "bytes32"
        },
        {
          "internalType": "address",
          "name": "account",
          "type": "address"
        }
      ],
      "name": "hasRole",
      "outputs": [
        {
          "internalType": "bool",
          "name": "",
          "type": "bool"
        }
      ],
      "stateMutability": "view",
      "type": "function"
    },
    {
      "inputs": [
        {
          "internalType": "bytes32",
          "name": "role",
          "type": "bytes32"
        },
        {
          "internalType": "address",
          "name": "account",
          "type": "address"
        }
      ],
      "name": "renounceRole",
      "outputs": [],
      "stateMutability": "nonpayable",
      "type": "function"
    },
    {
      "inputs": [
        {
          "internalType": "bytes32",
          "name": "role",
          "type": "bytes32"
        },
        {
          "internalType": "address",
          "name": "account",
          "type": "address"
        }
      ],
      "name": "revokeRole",
      "outputs": [],
      "stateMutability": "nonpayable",
      "type": "function"
    },
    {
      "inputs": [
        {
          "internalType": "bytes4",
          "name": "interfaceId",
          "type": "bytes4"
        }
      ],
      "name": "supportsInterface",
      "outputs": [
        {
          "internalType": "bool",
          "name": "",
          "type": "bool"
        }
      ],
      "stateMutability": "view",
      "type": "function"
    },
    {
      "inputs": [],
      "name": "tokenId",
      "outputs": [
        {
          "internalType": "uint256",
          "name": "",
          "type": "uint256"
        }
      ],
      "stateMutability": "view",
      "type": "function"
    },
    {
      "inputs": [
        {
          "internalType": "address",
          "name": "_eternalStorage",
          "type": "address"
        },
        {
          "internalType": "address",
          "name": "_dynamicNFTCollectionAddress",
          "type": "address"
        }
      ],
      "name": "initialize",
      "outputs": [],
      "stateMutability": "nonpayable",
      "type": "function"
    },
    {
      "inputs": [
        {
          "internalType": "string",
          "name": "uri",
          "type": "string"
        },
        {
          "internalType": "bytes32",
          "name": "_title",
          "type": "bytes32"
        },
        {
          "internalType": "bytes32",
          "name": "_description",
          "type": "bytes32"
        },
        {
          "internalType": "uint256",
          "name": "_price",
          "type": "uint256"
        },
        {
          "internalType": "uint256",
          "name": "rentPrice",
          "type": "uint256"
        },
        {
          "internalType": "uint256",
          "name": "rentDuration",
          "type": "uint256"
        },
        {
          "internalType": "uint256",
          "name": "videoDuration",
          "type": "uint256"
        }
      ],
      "name": "mint",
      "outputs": [
        {
          "internalType": "uint256",
          "name": "",
          "type": "uint256"
        }
      ],
      "stateMutability": "nonpayable",
      "type": "function"
    },
    {
      "inputs": [
        {
          "internalType": "uint256",
          "name": "_tokenId",
          "type": "uint256"
        }
      ],
      "name": "buyNFT",
      "outputs": [],
      "stateMutability": "payable",
      "type": "function"
    },
    {
      "inputs": [
        {
          "internalType": "uint256",
          "name": "_tokenId",
          "type": "uint256"
        },
        {
          "internalType": "bytes32",
          "name": "coOwners",
          "type": "bytes32"
        },
        {
          "internalType": "address[]",
          "name": "coOwnersList",
          "type": "address[]"
        }
      ],
      "name": "rentRequest",
      "outputs": [],
      "stateMutability": "payable",
      "type": "function"
    },
    {
      "inputs": [
        {
          "internalType": "uint256",
          "name": "_tokenId",
          "type": "uint256"
        },
        {
          "internalType": "address",
          "name": "mainRenter",
          "type": "address"
        },
        {
          "internalType": "bytes32[]",
          "name": "proof",
          "type": "bytes32[]"
        }
      ],
      "name": "rentByPeer",
      "outputs": [],
      "stateMutability": "payable",
      "type": "function"
    },
    {
      "inputs": [
        {
          "internalType": "uint256",
          "name": "_tokenId",
          "type": "uint256"
        },
        {
          "internalType": "address",
          "name": "mainRenter",
          "type": "address"
        },
        {
          "internalType": "bytes32[]",
          "name": "proof",
          "type": "bytes32[]"
        }
      ],
      "name": "renterAllowedToWatch",
      "outputs": [
        {
          "internalType": "bool",
          "name": "",
          "type": "bool"
        }
      ],
      "stateMutability": "nonpayable",
      "type": "function"
    },
    {
      "inputs": [
        {
          "internalType": "uint256",
          "name": "_tokenId",
          "type": "uint256"
        }
      ],
      "name": "allowedToWatch",
      "outputs": [
        {
          "internalType": "bool",
          "name": "",
          "type": "bool"
        }
      ],
      "stateMutability": "view",
      "type": "function"
    },
    {
      "inputs": [
        {
          "internalType": "uint256",
          "name": "_tokenId",
          "type": "uint256"
        }
      ],
      "name": "getMediaRentPrice",
      "outputs": [
        {
          "internalType": "uint256",
          "name": "",
          "type": "uint256"
        }
      ],
      "stateMutability": "view",
      "type": "function"
    },
    {
      "inputs": [
        {
          "internalType": "uint256",
          "name": "_tokenId",
          "type": "uint256"
        },
        {
          "internalType": "address",
          "name": "mainRenter",
          "type": "address"
        },
        {
          "internalType": "address",
          "name": "peer",
          "type": "address"
        }
      ],
      "name": "canRemovePeer",
      "outputs": [
        {
          "internalType": "bool",
          "name": "",
          "type": "bool"
        }
      ],
      "stateMutability": "view",
      "type": "function"
    },
    {
      "inputs": [
        {
          "internalType": "uint256",
          "name": "_tokenId",
          "type": "uint256"
        },
        {
          "internalType": "address",
          "name": "mainRenter",
          "type": "address"
        }
      ],
      "name": "getPaidRentCumulativeValue",
      "outputs": [
        {
          "internalType": "uint256",
          "name": "",
          "type": "uint256"
        }
      ],
      "stateMutability": "view",
      "type": "function"
    },
    {
      "inputs": [
        {
          "internalType": "uint256",
          "name": "_tokenId",
          "type": "uint256"
        },
        {
          "internalType": "address",
          "name": "renter",
          "type": "address"
        }
      ],
      "name": "resetRentStatus",
      "outputs": [],
      "stateMutability": "nonpayable",
      "type": "function"
    },
    {
      "inputs": [
        {
          "internalType": "uint256",
          "name": "_tokenId",
          "type": "uint256"
        }
      ],
      "name": "isRented",
      "outputs": [
        {
          "internalType": "bool",
          "name": "",
          "type": "bool"
        }
      ],
      "stateMutability": "view",
      "type": "function"
    },
    {
      "inputs": [
        {
          "internalType": "uint256",
          "name": "_tokenId",
          "type": "uint256"
        }
      ],
      "name": "getMediaInfo",
      "outputs": [
        {
          "internalType": "bytes32",
          "name": "",
          "type": "bytes32"
        },
        {
          "internalType": "bytes32",
          "name": "",
          "type": "bytes32"
        },
        {
          "internalType": "uint256",
          "name": "",
          "type": "uint256"
        },
        {
          "internalType": "uint256",
          "name": "",
          "type": "uint256"
        },
        {
          "internalType": "uint256",
          "name": "",
          "type": "uint256"
        },
        {
          "internalType": "uint256",
          "name": "",
          "type": "uint256"
        }
      ],
      "stateMutability": "view",
      "type": "function"
    }
  ],
  "bytecode": "0x608060405234801561001057600080fd5b50612a91806100206000396000f3fe608060405260043610610168576000357c01000000000000000000000000000000000000000000000000000000009004806398ff9c54116100d3578063aa15d40f1161008c578063aa15d40f146103eb578063b1861a611461040b578063d53913931461042b578063d547741f1461045f578063e71814651461047f578063ed8d172f1461049f57600080fd5b806398ff9c54146102fe5780639f37567014610336578063a0fd942114610356578063a1bffc2014610376578063a217fddf146103c3578063a2cc5309146103d857600080fd5b80633bc5408b116101255780633bc5408b14610258578063485cc9551461026b57806351ed82881461028b578063796458ea1461029e5780637bc699ca146102be57806391d14854146102de57600080fd5b806301ffc9a71461016d57806304e94133146101a257806317d70f7c146101d0578063248a9ca3146101e65780632f2ff15d1461021657806336568abe14610238575b600080fd5b34801561017957600080fd5b5061018d6101883660046123d7565b6104bf565b60405190151581526020015b60405180910390f35b3480156101ae57600080fd5b506101c26101bd366004612414565b610552565b604051908152602001610199565b3480156101dc57600080fd5b506101c260995481565b3480156101f257600080fd5b506101c261020136600461233a565b60009081526065602052604090206001015490565b34801561022257600080fd5b5061023661023136600461236a565b610787565b005b34801561024457600080fd5b5061023661025336600461236a565b6107b1565b6102366102663660046125c3565b610845565b34801561027757600080fd5b50610236610286366004612244565b6109e1565b61023661029936600461233a565b610aa5565b3480156102aa57600080fd5b506102366102b936600461236a565b610e1b565b3480156102ca57600080fd5b5061018d6102d936600461233a565b610eae565b3480156102ea57600080fd5b5061018d6102f936600461236a565b610f99565b34801561030a57600080fd5b5060975461031e90600160a060020a031681565b604051600160a060020a039091168152602001610199565b34801561034257600080fd5b5061018d6103513660046124d4565b610fc4565b34801561036257600080fd5b5061018d610371366004612515565b61108f565b34801561038257600080fd5b5061039661039136600461233a565b61129d565b604080519687526020870195909552938501929092526060840152608083015260a082015260c001610199565b3480156103cf57600080fd5b506101c2600081565b6102366103e6366004612515565b61136d565b3480156103f757600080fd5b5061018d61040636600461233a565b6119fa565b34801561041757600080fd5b5060985461031e90600160a060020a031681565b34801561043757600080fd5b506101c27f9f2df0fed2c77648de5860a4cc508cd0818c85b8b8a1ab4ceeef8d981c8956a681565b34801561046b57600080fd5b5061023661047a36600461236a565b611aac565b34801561048b57600080fd5b506101c261049a36600461236a565b611ad1565b3480156104ab57600080fd5b506101c26104ba36600461233a565b611b8c565b60007bffffffffffffffffffffffffffffffffffffffffffffffffffffffff1982167f7965db0b00000000000000000000000000000000000000000000000000000000148061054c57507f01ffc9a7000000000000000000000000000000000000000000000000000000007bffffffffffffffffffffffffffffffffffffffffffffffffffffffff198316145b92915050565b60006099546001610563919061297b565b609955609a54600160a060020a03166340c10f19336099546040517c010000000000000000000000000000000000000000000000000000000063ffffffff8516028152600160a060020a0390921660048301526024820152604401600060405180830381600087803b1580156105d857600080fd5b505af11580156105ec573d6000803e3d6000fd5b5050609a546099546040517f162094c4000000000000000000000000000000000000000000000000000000008152600160a060020a03909216935063162094c4925061063c918c9060040161290d565b600060405180830381600087803b15801561065657600080fd5b505af115801561066a573d6000803e3d6000fd5b50506097546099546040517fa015407f000000000000000000000000000000000000000000000000000000008152600160a060020a0390921660048301526024820152604481018a9052606481018990526084810188905260a4810187905260c4810186905260e4810185905273__NFTLibrary____________________________925063a015407f91506101040160006040518083038186803b15801561071157600080fd5b505af4158015610725573d6000803e3d6000fd5b505050507f1ed91fe96533b4bbee40063372d22ade48ee0e066536bc0c277e55c92c224e9e6099546107543390565b8a8a8a8a8a8a8a6040516107709998979695949392919061288e565b60405180910390a150609954979650505050505050565b6000828152606560205260409020600101546107a281611c3e565b6107ac8383611c4b565b505050565b600160a060020a03811633146108375760405160e560020a62461bcd02815260206004820152602f60248201527f416363657373436f6e74726f6c3a2063616e206f6e6c792072656e6f756e636560448201527f20726f6c657320666f722073656c66000000000000000000000000000000000060648201526084015b60405180910390fd5b6108418282611cd1565b5050565b60975481516040517f86daae0e00000000000000000000000000000000000000000000000000000000815273__NFTLibrary____________________________926386daae0e926108af92600160a060020a03909216918891339189919089903490600401612774565b60006040518083038186803b1580156108c757600080fd5b505af41580156108db573d6000803e3d6000fd5b5050609a5460405160e160020a6331a9108f028152600481018790526109689350600160a060020a039091169150636352211e906024015b60206040518083038186803b15801561092b57600080fd5b505afa15801561093f573d6000803e3d6000fd5b505050506040513d601f19601f820116820180604052508101906109639190612228565b611d38565b7fff95605c1af6046ab9ec02130b6fb52bced2e7a95e491db9da537f47cf5fb2c483338360405161099b93929190612866565b60405180910390a1604080518481523360208201527fc4bfcc3dcb3b93bb77753c58bf8b0700daae507b6afc6a25a6f114e02787114d91015b60405180910390a1505050565b60006109ed6001611d6d565b90508015610a05576000805461ff0019166101001790555b60978054600160a060020a0380861673ffffffffffffffffffffffffffffffffffffffff19928316179092556098805492851692821683179055609a805490911690911790556000609955610a58611dfb565b610a63600033611e7d565b80156107ac576000805461ff0019169055604051600181527f7f26b83ff96e1f2b6a682f133852f6798a09c465da95921460cefb3847402498906020016109d4565b6097546040517f8ab49a60000000000000000000000000000000000000000000000000000000008152600160a060020a0390911660048201526024810182905273__NFTLibrary____________________________90638ab49a609060440160206040518083038186803b158015610b1c57600080fd5b505af4158015610b30573d6000803e3d6000fd5b505050506040513d601f19601f82011682018060405250810190610b54919061231a565b15610ba45760405160e560020a62461bcd02815260206004820152601060248201527f6d656469612072656e746564206e6f7700000000000000000000000000000000604482015260640161082e565b609a5460995460405160e160020a6331a9108f0281526004810191909152600091600160a060020a031690636352211e9060240160206040518083038186803b158015610bf057600080fd5b505afa158015610c04573d6000803e3d6000fd5b505050506040513d601f19601f82011682018060405250810190610c289190612228565b90506000336097546040517fb1c50e4e000000000000000000000000000000000000000000000000000000008152600160a060020a0390911660048201526024810185905290915060009073__NFTLibrary____________________________9063b1c50e4e9060440160206040518083038186803b158015610caa57600080fd5b505af4158015610cbe573d6000803e3d6000fd5b505050506040513d601f19601f82011682018060405250810190610ce29190612352565b905080341015610d375760405160e560020a62461bcd02815260206004820152601060248201527f4e6f7420656e6f7567682066756e647300000000000000000000000000000000604482015260640161082e565b609a546040517f153e66e6000000000000000000000000000000000000000000000000000000008152600160a060020a0385811660048301528481166024830152604482018790529091169063153e66e690606401600060405180830381600087803b158015610da657600080fd5b505af1158015610dba573d6000803e3d6000fd5b50505050610dc783611d38565b60408051858152600160a060020a0380861660208301528416918101919091527f83374a9e9accd6ef205e7de68ba2962060f387796cdedc3e99563fa627bf0bd2906060015b60405180910390a150505050565b6097546040517f3727bf7800000000000000000000000000000000000000000000000000000000815273__NFTLibrary____________________________91633727bf7891610e7a91600160a060020a03169086908690600401612751565b60006040518083038186803b158015610e9257600080fd5b505af4158015610ea6573d6000803e3d6000fd5b505050505050565b609a5460405160e160020a6331a9108f02815260048101839052600091600160a060020a031690636352211e9060240160206040518083038186803b158015610ef657600080fd5b505afa158015610f0a573d6000803e3d6000fd5b505050506040513d601f19601f82011682018060405250810190610f2e9190612228565b600160a060020a031633600160a060020a031614610f915760405160e560020a62461bcd02815260206004820152600960248201527f6e6f74206f776e65720000000000000000000000000000000000000000000000604482015260640161082e565b506001919050565b6000918252606560209081526040808420600160a060020a0393909316845291905290205460ff1690565b6097546040517fcf15109c000000000000000000000000000000000000000000000000000000008152600160a060020a039182166004820152602481018590528382166044820152908216606482015260009073__NFTLibrary____________________________9063cf15109c9060840160206040518083038186803b15801561104e57600080fd5b505af4158015611062573d6000803e3d6000fd5b505050506040513d601f19601f82011682018060405250810190611086919061231a565b15949350505050565b6097546040517f49fc540b000000000000000000000000000000000000000000000000000000008152600091829173__NFTLibrary____________________________916349fc540b916110f391600160a060020a03169089908990600401612751565b60206040518083038186803b15801561110b57600080fd5b505af415801561111f573d6000803e3d6000fd5b505050506040513d601f19601f820116820180604052508101906111439190612352565b90506111968133604051600160a060020a03919091166c010000000000000000000000000260208201526034016040516020818303038152906040528051906020012085611e879092919063ffffffff16565b6111e55760405160e560020a62461bcd02815260206004820152601360248201527f41646472657373206e6f7420696e206c69737400000000000000000000000000604482015260640161082e565b6097546040517ffcb9975900000000000000000000000000000000000000000000000000000000815273__NFTLibrary____________________________9163fcb997599161124491600160a060020a03169089908990600401612751565b60206040518083038186803b15801561125c57600080fd5b505af4158015611270573d6000803e3d6000fd5b505050506040513d601f19601f82011682018060405250810190611294919061231a565b95945050505050565b6097546040517fc9581337000000000000000000000000000000000000000000000000000000008152600160a060020a039091166004820152602481018290526000908190819081908190819073__NFTLibrary____________________________9063c95813379060440160c06040518083038186803b15801561132157600080fd5b505af4158015611335573d6000803e3d6000fd5b505050506040513d601f19601f82011682018060405250810190611359919061238e565b949c939b5091995097509550909350915050565b6097546040517f8ab49a60000000000000000000000000000000000000000000000000000000008152600160a060020a0390911660048201526024810184905273__NFTLibrary____________________________90638ab49a609060440160206040518083038186803b1580156113e457600080fd5b505af41580156113f8573d6000803e3d6000fd5b505050506040513d601f19601f8201168201806040525081019061141c919061231a565b1561146c5760405160e560020a62461bcd02815260206004820152601060248201527f6d656469612072656e746564206e6f7700000000000000000000000000000000604482015260640161082e565b6097546040517f49fc540b00000000000000000000000000000000000000000000000000000000815260009173__NFTLibrary____________________________916349fc540b916114d091600160a060020a039091169088908890600401612751565b60206040518083038186803b1580156114e857600080fd5b505af41580156114fc573d6000803e3d6000fd5b505050506040513d601f19601f820116820180604052508101906115209190612352565b90506115738133604051600160a060020a03919091166c010000000000000000000000000260208201526034016040516020818303038152906040528051906020012084611e879092919063ffffffff16565b6115c25760405160e560020a62461bcd02815260206004820152601360248201527f41646472657373206e6f7420696e206c69737400000000000000000000000000604482015260640161082e565b609a5460405160e160020a6331a9108f028152600481018690526115f891600160a060020a031690636352211e90602401610913565b609754604080517fe77ed5b6000000000000000000000000000000000000000000000000000000008152600160a060020a0392831660048201526024810187905291851660448301523360648301523460848301525173__NFTLibrary____________________________9163e77ed5b69160a4808301926000929190829003018186803b15801561168957600080fd5b505af415801561169d573d6000803e3d6000fd5b50506097546040517ffcb9975900000000000000000000000000000000000000000000000000000000815273__NFTLibrary____________________________935063fcb99759925061170091600160a060020a03169088908890600401612751565b60206040518083038186803b15801561171857600080fd5b505af415801561172c573d6000803e3d6000fd5b505050506040513d601f19601f82011682018060405250810190611750919061231a565b156119c5576097546040517ff11bca58000000000000000000000000000000000000000000000000000000008152600160a060020a0390911660048201526024810185905273__NFTLibrary____________________________9063f11bca589060440160006040518083038186803b1580156117cc57600080fd5b505af41580156117e0573d6000803e3d6000fd5b50506097546040517fa26cbe5c000000000000000000000000000000000000000000000000000000008152600160a060020a039091166004820152602481018790527f0b1d8003365ec1403df6203adb593e0b471622baaeec50cdca77e11d33169cc19250869150429073__NFTLibrary____________________________9063a26cbe5c9060440160206040518083038186803b15801561188157600080fd5b505af4158015611895573d6000803e3d6000fd5b505050506040513d601f19601f820116820180604052508101906118b99190612352565b6040805193845260208401929092529082015260600160405180910390a16097546040517f5aceb8360000000000000000000000000000000000000000000000000000000081527f5e13278793d5db0f9703bc32f08d8fd51e9cfb843276306817b5a4e22b9d3a8b91869173__NFTLibrary____________________________91635aceb8369161195a91600160a060020a03169085908a90600401612751565b60006040518083038186803b15801561197257600080fd5b505af4158015611986573d6000803e3d6000fd5b505050506040513d6000823e601f3d908101601f191682016040526119ae919081019061227c565b6040516119bc9291906128ec565b60405180910390a15b604080518581523360208201527fc4bfcc3dcb3b93bb77753c58bf8b0700daae507b6afc6a25a6f114e02787114d9101610e0d565b6097546040517f8ab49a60000000000000000000000000000000000000000000000000000000008152600160a060020a0390911660048201526024810182905260009073__NFTLibrary____________________________90638ab49a609060440160206040518083038186803b158015611a7457600080fd5b505af4158015611a88573d6000803e3d6000fd5b505050506040513d601f19601f8201168201806040525081019061054c919061231a565b600082815260656020526040902060010154611ac781611c3e565b6107ac8383611cd1565b6097546040517f6c42b1dd00000000000000000000000000000000000000000000000000000000815260009173__NFTLibrary____________________________91636c42b1dd91611b3591600160a060020a039091169087908790600401612751565b60206040518083038186803b158015611b4d57600080fd5b505af4158015611b61573d6000803e3d6000fd5b505050506040513d601f19601f82011682018060405250810190611b859190612352565b9392505050565b6097546040517fad0c7738000000000000000000000000000000000000000000000000000000008152600160a060020a0390911660048201526024810182905260009073__NFTLibrary____________________________9063ad0c77389060440160206040518083038186803b158015611c0657600080fd5b505af4158015611c1a573d6000803e3d6000fd5b505050506040513d601f19601f8201168201806040525081019061054c9190612352565b611c488133611e9d565b50565b611c558282610f99565b610841576000828152606560209081526040808320600160a060020a03851684529091529020805460ff19166001179055611c8d3390565b600160a060020a031681600160a060020a0316837f2f8788117e7eff1d82e926ec794901d17c78024a50270940304540a733656f0d60405160405180910390a45050565b611cdb8282610f99565b15610841576000828152606560209081526040808320600160a060020a0385168085529252808320805460ff1916905551339285917ff6391f5c32d9c69d2a47ea670b442974b53935d1edc7fd64eb21e047a839171b9190a45050565b604051600160a060020a038216903480156108fc02916000818181858888f19350505050158015610841573d6000803e3d6000fd5b60008054610100900460ff1615611db7578160ff166001148015611d905750303b155b611daf5760405160e560020a62461bcd02815260040161082e90612809565b506000919050565b60005460ff808416911610611de15760405160e560020a62461bcd02815260040161082e90612809565b506000805460ff191660ff92909216919091179055600190565b600054610100900460ff16611e7b5760405160e560020a62461bcd02815260206004820152602b60248201527f496e697469616c697a61626c653a20636f6e7472616374206973206e6f74206960448201527f6e697469616c697a696e67000000000000000000000000000000000000000000606482015260840161082e565b565b6108418282611c4b565b600082611e948584611f04565b14949350505050565b611ea78282610f99565b61084157611ebf81600160a060020a03166014611f89565b611eca836020611f89565b604051602001611edb9291906126d0565b60408051601f198184030181529082905260e560020a62461bcd02825261082e916004016127f6565b600081815b8451811015611f81576000858281518110611f375760e060020a634e487b7102600052603260045260246000fd5b60200260200101519050808311611f5d5760008381526020829052604090209250611f6e565b600081815260208490526040902092505b5080611f79816129f9565b915050611f09565b509392505050565b60606000611f98836002612993565b611fa390600261297b565b67ffffffffffffffff811115611fcc5760e060020a634e487b7102600052604160045260246000fd5b6040519080825280601f01601f191660200182016040528015611ff6576020820181803683370190505b5090507f30000000000000000000000000000000000000000000000000000000000000008160008151811061203e5760e060020a634e487b7102600052603260045260246000fd5b60200101907effffffffffffffffffffffffffffffffffffffffffffffffffffffffffffff1916908160001a9053507f7800000000000000000000000000000000000000000000000000000000000000816001815181106120b25760e060020a634e487b7102600052603260045260246000fd5b60200101907effffffffffffffffffffffffffffffffffffffffffffffffffffffffffffff1916908160001a90535060006120ee846002612993565b6120f990600161297b565b90505b60018111156121d6577f303132333435363738396162636465660000000000000000000000000000000085600f166010811061214b5760e060020a634e487b7102600052603260045260246000fd5b1a7f0100000000000000000000000000000000000000000000000000000000000000028282815181106121915760e060020a634e487b7102600052603260045260246000fd5b60200101907effffffffffffffffffffffffffffffffffffffffffffffffffffffffffffff1916908160001a9053506010909404936121cf816129e2565b90506120fc565b508315611b855760405160e560020a62461bcd02815260206004820181905260248201527f537472696e67733a20686578206c656e67746820696e73756666696369656e74604482015260640161082e565b600060208284031215612239578081fd5b8151611b8581612a46565b60008060408385031215612256578081fd5b823561226181612a46565b9150602083013561227181612a46565b809150509250929050565b6000602080838503121561228e578182fd5b825167ffffffffffffffff8111156122a4578283fd5b8301601f810185136122b4578283fd5b80516122c76122c282612957565b612926565b81815283810190838501858402850186018910156122e3578687fd5b8694505b8385101561230e5780516122fa81612a46565b8352600194909401939185019185016122e7565b50979650505050505050565b60006020828403121561232b578081fd5b81518015158114611b85578182fd5b60006020828403121561234b578081fd5b5035919050565b600060208284031215612363578081fd5b5051919050565b6000806040838503121561237c578182fd5b82359150602083013561227181612a46565b60008060008060008060c087890312156123a6578182fd5b865195506020870151945060408701519350606087015192506080870151915060a087015190509295509295509295565b6000602082840312156123e8578081fd5b81357bffffffffffffffffffffffffffffffffffffffffffffffffffffffff1981168114611b85578182fd5b600080600080600080600060e0888a03121561242e578485fd5b873567ffffffffffffffff80821115612445578687fd5b818a0191508a601f830112612458578687fd5b813560208282111561246c5761246c612a2d565b61247e601f8301601f19168201612926565b92508183528c81838601011115612493578889fd5b81818501828501379082018101979097529a9589013599505050604087013596606081013596506080810135955060a08101359460c0909101359350915050565b6000806000606084860312156124e8578081fd5b8335925060208401356124fa81612a46565b9150604084013561250a81612a46565b809150509250925092565b600080600060608486031215612529578081fd5b8335925060208085013561253c81612a46565b9250604085013567ffffffffffffffff811115612557578283fd5b8501601f81018713612567578283fd5b80356125756122c282612957565b81815283810190838501858402850186018b1015612591578687fd5b8694505b838510156125b3578035835260019490940193918501918501612595565b5080955050505050509250925092565b6000806000606084860312156125d7578081fd5b833592506020808501359250604085013567ffffffffffffffff8111156125fc578283fd5b8501601f8101871361260c578283fd5b803561261a6122c282612957565b81815283810190838501858402850186018b1015612636578687fd5b8694505b838510156125b357803561264d81612a46565b83526001949094019391850191850161263a565b6000815180845260208085019450808401835b83811015612699578151600160a060020a031687529582019590820190600101612674565b509495945050505050565b600081518084526126bc8160208601602086016129b2565b601f01601f19169290920160200192915050565b7f416363657373436f6e74726f6c3a206163636f756e74200000000000000000008152600083516127088160178501602088016129b2565b7f206973206d697373696e6720726f6c652000000000000000000000000000000060179184019182015283516127458160288401602088016129b2565b01602801949350505050565b600160a060020a0393841681526020810192909252909116604082015260600190565b600060e08201600160a060020a03808b16845260208a81860152818a16604086015288606086015287608086015260e060a0860152828751808552610100870191508289019450855b818110156127db5785518516835294830194918301916001016127bd565b5050809450505050508260c083015298975050505050505050565b602081526000611b8560208301846126a4565b6020808252602e908201527f496e697469616c697a61626c653a20636f6e747261637420697320616c72656160408201527f647920696e697469616c697a6564000000000000000000000000000000000000606082015260800190565b838152600160a060020a03831660208201526060604082015260006112946060830184612661565b60006101208b8352600160a060020a038b1660208401528060408401526128b78184018b6126a4565b60608401999099525050608081019590955260a085019390935260c084019190915260e0830152610100909101529392505050565b8281526040602082015260006129056040830184612661565b949350505050565b82815260406020820152600061290560408301846126a4565b604051601f8201601f1916810167ffffffffffffffff8111828210171561294f5761294f612a2d565b604052919050565b600067ffffffffffffffff82111561297157612971612a2d565b5060209081020190565b6000821982111561298e5761298e612a14565b500190565b60008160001904831182151516156129ad576129ad612a14565b500290565b60005b838110156129cd5781810151838201526020016129b5565b838111156129dc576000848401525b50505050565b6000816129f1576129f1612a14565b506000190190565b6000600019821415612a0d57612a0d612a14565b5060010190565b60e060020a634e487b7102600052601160045260246000fd5b60e060020a634e487b7102600052604160045260246000fd5b600160a060020a0381168114611c4857600080fdfea26469706673582212201c25ca7c07b55ab5740d6e86d9f9e7680801cef51187a342c1bb593e8f7fae5764736f6c63430008040033",
  "immutableReferences": {},
  "source": "// SPDX-License-Identifier: MIT\npragma solidity ^0.8.0;\n\nimport \"@openzeppelin/contracts-upgradeable/access/AccessControlUpgradeable.sol\";\nimport {MerkleProof} from \"@openzeppelin/contracts/utils/cryptography/MerkleProof.sol\";\n\nimport \"./NFTLibrary.sol\";\nimport \"./interface/IController.sol\";\nimport \"./Collection.sol\";\n\n\ncontract Controller is IController, Initializable, AccessControlUpgradeable {\n\n    bytes32 public constant MINTER_ROLE = keccak256(\"MINTER_ROLE\");\n\n    using NFTLibrary for address;\n\n    using MerkleProof for bytes32[];\n\n\n    address public eternalStorage;\n\n    address public dynamicNFTCollectionAddress;\n\n    uint256 public tokenId;\n\n    Collection NFT;\n\n    /* ========== EVENTS ========== */\n\n    event Mint(uint256 _tokenId, address _minter, string uri, bytes32 _title, bytes32 _description, uint256 _price, uint256 rentPrice, uint256 rentDuration, uint256 videoDuration);\n    event BuyNFT(uint256 _tokenId, address from, address to);\n    event RentRequest(uint256 _tokenId, address mainRenter, address[] coOwners);\n    event PayForRent(uint256 _tokenId, address renter);\n    event RentFinishTime(uint256 _tokenId, uint256 start, uint256 duration);\n    event RentStarted(uint256 _tokenId, address[] coOwners);\n\n    function initialize(address _eternalStorage, address _dynamicNFTCollectionAddress) public initializer {\n        eternalStorage = _eternalStorage;\n        dynamicNFTCollectionAddress = _dynamicNFTCollectionAddress;\n        NFT = Collection(dynamicNFTCollectionAddress);\n\n        tokenId = 0;\n\n        __AccessControl_init();\n        _setupRole(DEFAULT_ADMIN_ROLE, _msgSender());\n    }\n\n    function mint(string memory uri, bytes32 _title, bytes32 _description, uint256 _price, uint256 rentPrice, uint256 rentDuration, uint256 videoDuration) external override returns (uint256){\n\n        tokenId = tokenId + 1;\n\n        NFT.mint(_msgSender(), tokenId);\n        NFT.setTokenURI(tokenId, uri);\n        eternalStorage.saveMediaInfo(tokenId, _title, _description, _price, rentPrice, rentDuration, videoDuration);\n\n        emit Mint(tokenId, _msgSender(), uri, _title, _description, _price, rentPrice, rentDuration, videoDuration);\n\n        return tokenId;\n    }\n\n    function buyNFT(uint256 _tokenId) external payable override {\n        require(eternalStorage.mediaRentStatus(_tokenId) == false, \"media rented now\");\n\n        address from = NFT.ownerOf(tokenId);\n        address to = _msgSender();\n\n        uint256 price = eternalStorage.getMediaPrice(_tokenId);\n\n        require(\n            msg.value >= price,\n            \"Not enough funds\"\n        );\n\n        NFT.buy(from, to, _tokenId);\n\n        _forwardFunds(payable(from));\n\n        emit BuyNFT(_tokenId, from, to);\n    }\n\n    function rentRequest(uint256 _tokenId, bytes32 coOwners, address[] memory coOwnersList) external payable {\n        eternalStorage.handleRentRequest(_tokenId, _msgSender(), coOwners, coOwnersList.length, coOwnersList, msg.value);\n        _forwardFunds(payable(NFT.ownerOf(_tokenId)));\n        emit RentRequest(_tokenId, _msgSender(), coOwnersList);\n        emit PayForRent(_tokenId, _msgSender());\n    }\n\n    function rentByPeer(uint256 _tokenId, address mainRenter, bytes32[] memory proof) external payable {\n        //        require(not rented now);\n        require(eternalStorage.mediaRentStatus(_tokenId) == false, \"media rented now\");\n        //        requeire(in merklepeers);\n        bytes32 merkleTree = eternalStorage.getRentRequestMerkleTree(_tokenId, mainRenter);\n        require(proof.verify(merkleTree, keccak256(abi.encodePacked(_msgSender()))), \"Address not in list\");\n        // cummulatedPrice += single_peer_price;\n        //        transfer_price_to_owner();\n        //        save_this_add in transfereds;\n        _forwardFunds(payable(NFT.ownerOf(_tokenId)));\n        eternalStorage.savePaidInfo(_tokenId, mainRenter, _msgSender(), msg.value);\n        if (eternalStorage.hasEveryOnePaid(_tokenId, mainRenter)) {\n            eternalStorage.updateRentStatus(_tokenId);\n            emit RentFinishTime(_tokenId, uint256(block.timestamp), eternalStorage.getMediaRentDuration(_tokenId));\n            emit RentStarted(_tokenId, eternalStorage.getCoOwners(_tokenId, mainRenter));\n        }\n        emit PayForRent(_tokenId, _msgSender());\n    }\n\n    function renterAllowedToWatch(uint256 _tokenId, address mainRenter, bytes32[] memory proof) external returns (bool){\n        bytes32 merkleTree = eternalStorage.getRentRequestMerkleTree(_tokenId, mainRenter);\n        require(proof.verify(merkleTree, keccak256(abi.encodePacked(_msgSender()))), \"Address not in list\");\n        return eternalStorage.hasEveryOnePaid(_tokenId, mainRenter);\n    }\n\n    function allowedToWatch(uint256 _tokenId) public view returns (bool){\n        require(_msgSender() == NFT.ownerOf(_tokenId), \"not owner\");\n        return true;\n    }\n\n    function getMediaRentPrice(uint256 _tokenId) public view returns (uint256){\n        return eternalStorage.getMediaRentPrice(_tokenId);\n    }\n\n    function canRemovePeer(uint256 _tokenId, address mainRenter, address peer) external view returns (bool){\n        return !eternalStorage.hasPaid(_tokenId, mainRenter, peer);\n    }\n\n    function getPaidRentCumulativeValue(uint256 _tokenId, address mainRenter) external view returns (uint256){\n        return eternalStorage.getPaidRentCumulativeValue(_tokenId, mainRenter);\n    }\n\n    function resetRentStatus(uint256 _tokenId, address renter) external {\n        eternalStorage.resetRentStatus(_tokenId, renter);\n    }\n\n    function isRented(uint256 _tokenId) public view returns (bool) {\n        return eternalStorage.mediaRentStatus(_tokenId);\n    }\n\n    function getMediaInfo(uint256 _tokenId) public view override returns (bytes32, bytes32, uint256, uint256, uint256, uint256){\n        return eternalStorage.getMediaInfo(_tokenId);\n    }\n\n    function _forwardFunds(address payable receiver) internal {\n        receiver.transfer(msg.value);\n    }\n\n}",
  "sourcePath": "/Users/theneo/sabacalavro/smart-contracts-dapp/contracts/Controller.sol",
  "compiler": {
    "name": "solc",
    "version": "0.8.4+commit.c7e474f2.Emscripten.clang"
  },
  "schemaVersion": "3.4.7",
  "updatedAt": "2022-09-06T19:35:52.828Z",
  "devdoc": {
    "kind": "dev",
    "methods": {
      "getRoleAdmin(bytes32)": {
        "details": "Returns the admin role that controls `role`. See {grantRole} and {revokeRole}. To change a role's admin, use {_setRoleAdmin}."
      },
      "grantRole(bytes32,address)": {
        "details": "Grants `role` to `account`. If `account` had not been already granted `role`, emits a {RoleGranted} event. Requirements: - the caller must have ``role``'s admin role."
      },
      "hasRole(bytes32,address)": {
        "details": "Returns `true` if `account` has been granted `role`."
      },
      "renounceRole(bytes32,address)": {
        "details": "Revokes `role` from the calling account. Roles are often managed via {grantRole} and {revokeRole}: this function's purpose is to provide a mechanism for accounts to lose their privileges if they are compromised (such as when a trusted device is misplaced). If the calling account had been revoked `role`, emits a {RoleRevoked} event. Requirements: - the caller must be `account`."
      },
      "revokeRole(bytes32,address)": {
        "details": "Revokes `role` from `account`. If `account` had been granted `role`, emits a {RoleRevoked} event. Requirements: - the caller must have ``role``'s admin role."
      },
      "supportsInterface(bytes4)": {
        "details": "See {IERC165-supportsInterface}."
      }
    },
    "version": 1
  },
  "userdoc": {
    "kind": "user",
    "methods": {},
    "version": 1
  }
}