{
  "contractName": "Controller",
  "abi": [
    {
      "anonymous": false,
      "inputs": [
        {
          "indexed": false,
          "internalType": "uint256",
          "name": "_tokenId",
          "type": "uint256"
        },
        {
          "indexed": false,
          "internalType": "address",
          "name": "from",
          "type": "address"
        },
        {
          "indexed": false,
          "internalType": "address",
          "name": "to",
          "type": "address"
        }
      ],
      "name": "BuyNFT",
      "type": "event"
    },
    {
      "anonymous": false,
      "inputs": [
        {
          "indexed": false,
          "internalType": "uint8",
          "name": "version",
          "type": "uint8"
        }
      ],
      "name": "Initialized",
      "type": "event"
    },
    {
      "anonymous": false,
      "inputs": [
        {
          "indexed": false,
          "internalType": "uint256",
          "name": "_tokenId",
          "type": "uint256"
        },
        {
          "indexed": false,
          "internalType": "address",
          "name": "_minter",
          "type": "address"
        },
        {
          "indexed": false,
          "internalType": "string",
          "name": "uri",
          "type": "string"
        },
        {
          "indexed": false,
          "internalType": "bytes32",
          "name": "_title",
          "type": "bytes32"
        },
        {
          "indexed": false,
          "internalType": "bytes32",
          "name": "_description",
          "type": "bytes32"
        },
        {
          "indexed": false,
          "internalType": "uint256",
          "name": "_price",
          "type": "uint256"
        }
      ],
      "name": "Mint",
      "type": "event"
    },
    {
      "anonymous": false,
      "inputs": [
        {
          "indexed": true,
          "internalType": "bytes32",
          "name": "role",
          "type": "bytes32"
        },
        {
          "indexed": true,
          "internalType": "bytes32",
          "name": "previousAdminRole",
          "type": "bytes32"
        },
        {
          "indexed": true,
          "internalType": "bytes32",
          "name": "newAdminRole",
          "type": "bytes32"
        }
      ],
      "name": "RoleAdminChanged",
      "type": "event"
    },
    {
      "anonymous": false,
      "inputs": [
        {
          "indexed": true,
          "internalType": "bytes32",
          "name": "role",
          "type": "bytes32"
        },
        {
          "indexed": true,
          "internalType": "address",
          "name": "account",
          "type": "address"
        },
        {
          "indexed": true,
          "internalType": "address",
          "name": "sender",
          "type": "address"
        }
      ],
      "name": "RoleGranted",
      "type": "event"
    },
    {
      "anonymous": false,
      "inputs": [
        {
          "indexed": true,
          "internalType": "bytes32",
          "name": "role",
          "type": "bytes32"
        },
        {
          "indexed": true,
          "internalType": "address",
          "name": "account",
          "type": "address"
        },
        {
          "indexed": true,
          "internalType": "address",
          "name": "sender",
          "type": "address"
        }
      ],
      "name": "RoleRevoked",
      "type": "event"
    },
    {
      "inputs": [],
      "name": "DEFAULT_ADMIN_ROLE",
      "outputs": [
        {
          "internalType": "bytes32",
          "name": "",
          "type": "bytes32"
        }
      ],
      "stateMutability": "view",
      "type": "function"
    },
    {
      "inputs": [],
      "name": "MINTER_ROLE",
      "outputs": [
        {
          "internalType": "bytes32",
          "name": "",
          "type": "bytes32"
        }
      ],
      "stateMutability": "view",
      "type": "function"
    },
    {
      "inputs": [],
      "name": "dynamicNFTCollectionAddress",
      "outputs": [
        {
          "internalType": "address",
          "name": "",
          "type": "address"
        }
      ],
      "stateMutability": "view",
      "type": "function"
    },
    {
      "inputs": [],
      "name": "eternalStorage",
      "outputs": [
        {
          "internalType": "address",
          "name": "",
          "type": "address"
        }
      ],
      "stateMutability": "view",
      "type": "function"
    },
    {
      "inputs": [
        {
          "internalType": "bytes32",
          "name": "role",
          "type": "bytes32"
        }
      ],
      "name": "getRoleAdmin",
      "outputs": [
        {
          "internalType": "bytes32",
          "name": "",
          "type": "bytes32"
        }
      ],
      "stateMutability": "view",
      "type": "function"
    },
    {
      "inputs": [
        {
          "internalType": "bytes32",
          "name": "role",
          "type": "bytes32"
        },
        {
          "internalType": "address",
          "name": "account",
          "type": "address"
        }
      ],
      "name": "grantRole",
      "outputs": [],
      "stateMutability": "nonpayable",
      "type": "function"
    },
    {
      "inputs": [
        {
          "internalType": "bytes32",
          "name": "role",
          "type": "bytes32"
        },
        {
          "internalType": "address",
          "name": "account",
          "type": "address"
        }
      ],
      "name": "hasRole",
      "outputs": [
        {
          "internalType": "bool",
          "name": "",
          "type": "bool"
        }
      ],
      "stateMutability": "view",
      "type": "function"
    },
    {
      "inputs": [
        {
          "internalType": "bytes32",
          "name": "role",
          "type": "bytes32"
        },
        {
          "internalType": "address",
          "name": "account",
          "type": "address"
        }
      ],
      "name": "renounceRole",
      "outputs": [],
      "stateMutability": "nonpayable",
      "type": "function"
    },
    {
      "inputs": [
        {
          "internalType": "bytes32",
          "name": "role",
          "type": "bytes32"
        },
        {
          "internalType": "address",
          "name": "account",
          "type": "address"
        }
      ],
      "name": "revokeRole",
      "outputs": [],
      "stateMutability": "nonpayable",
      "type": "function"
    },
    {
      "inputs": [
        {
          "internalType": "bytes4",
          "name": "interfaceId",
          "type": "bytes4"
        }
      ],
      "name": "supportsInterface",
      "outputs": [
        {
          "internalType": "bool",
          "name": "",
          "type": "bool"
        }
      ],
      "stateMutability": "view",
      "type": "function"
    },
    {
      "inputs": [],
      "name": "tokenId",
      "outputs": [
        {
          "internalType": "uint256",
          "name": "",
          "type": "uint256"
        }
      ],
      "stateMutability": "view",
      "type": "function"
    },
    {
      "inputs": [
        {
          "internalType": "address",
          "name": "_eternalStorage",
          "type": "address"
        },
        {
          "internalType": "address",
          "name": "_dynamicNFTCollectionAddress",
          "type": "address"
        }
      ],
      "name": "initialize",
      "outputs": [],
      "stateMutability": "nonpayable",
      "type": "function"
    },
    {
      "inputs": [
        {
          "internalType": "string",
          "name": "uri",
          "type": "string"
        },
        {
          "internalType": "bytes32",
          "name": "_title",
          "type": "bytes32"
        },
        {
          "internalType": "bytes32",
          "name": "_description",
          "type": "bytes32"
        },
        {
          "internalType": "uint256",
          "name": "_price",
          "type": "uint256"
        },
        {
          "internalType": "uint256",
          "name": "rentPrice",
          "type": "uint256"
        },
        {
          "internalType": "uint256",
          "name": "rentDuration",
          "type": "uint256"
        }
      ],
      "name": "mint",
      "outputs": [
        {
          "internalType": "uint256",
          "name": "",
          "type": "uint256"
        }
      ],
      "stateMutability": "nonpayable",
      "type": "function"
    },
    {
      "inputs": [
        {
          "internalType": "uint256",
          "name": "_tokenId",
          "type": "uint256"
        }
      ],
      "name": "buyNFT",
      "outputs": [],
      "stateMutability": "payable",
      "type": "function"
    },
    {
      "inputs": [
        {
          "internalType": "uint256",
          "name": "_tokenId",
          "type": "uint256"
        },
        {
          "internalType": "bytes32",
          "name": "coOwners",
          "type": "bytes32"
        },
        {
          "internalType": "address[]",
          "name": "coOwnersList",
          "type": "address[]"
        }
      ],
      "name": "rentRequest",
      "outputs": [],
      "stateMutability": "payable",
      "type": "function"
    },
    {
      "inputs": [
        {
          "internalType": "uint256",
          "name": "_tokenId",
          "type": "uint256"
        },
        {
          "internalType": "address",
          "name": "mainRenter",
          "type": "address"
        },
        {
          "internalType": "bytes32[]",
          "name": "proof",
          "type": "bytes32[]"
        }
      ],
      "name": "rentByPeer",
      "outputs": [],
      "stateMutability": "payable",
      "type": "function"
    },
    {
      "inputs": [
        {
          "internalType": "uint256",
          "name": "_tokenId",
          "type": "uint256"
        },
        {
          "internalType": "address",
          "name": "mainRenter",
          "type": "address"
        },
        {
          "internalType": "bytes32[]",
          "name": "proof",
          "type": "bytes32[]"
        }
      ],
      "name": "renterAllowedToWatch",
      "outputs": [
        {
          "internalType": "bool",
          "name": "",
          "type": "bool"
        }
      ],
      "stateMutability": "nonpayable",
      "type": "function"
    },
    {
      "inputs": [
        {
          "internalType": "uint256",
          "name": "_tokenId",
          "type": "uint256"
        }
      ],
      "name": "getMediaRentPrice",
      "outputs": [
        {
          "internalType": "uint256",
          "name": "",
          "type": "uint256"
        }
      ],
      "stateMutability": "view",
      "type": "function"
    },
    {
      "inputs": [
        {
          "internalType": "uint256",
          "name": "_tokenId",
          "type": "uint256"
        },
        {
          "internalType": "address",
          "name": "mainRenter",
          "type": "address"
        },
        {
          "internalType": "address",
          "name": "peer",
          "type": "address"
        }
      ],
      "name": "canRemovePeer",
      "outputs": [
        {
          "internalType": "bool",
          "name": "",
          "type": "bool"
        }
      ],
      "stateMutability": "view",
      "type": "function"
    },
    {
      "inputs": [
        {
          "internalType": "uint256",
          "name": "_tokenId",
          "type": "uint256"
        },
        {
          "internalType": "address",
          "name": "mainRenter",
          "type": "address"
        }
      ],
      "name": "getPaidRentCumulativeValue",
      "outputs": [
        {
          "internalType": "uint256",
          "name": "",
          "type": "uint256"
        }
      ],
      "stateMutability": "view",
      "type": "function"
    },
    {
      "inputs": [
        {
          "internalType": "uint256",
          "name": "_tokenId",
          "type": "uint256"
        },
        {
          "internalType": "address",
          "name": "renter",
          "type": "address"
        }
      ],
      "name": "resetRentStatus",
      "outputs": [],
      "stateMutability": "nonpayable",
      "type": "function"
    },
    {
      "inputs": [
        {
          "internalType": "uint256",
          "name": "_tokenId",
          "type": "uint256"
        }
      ],
      "name": "isRented",
      "outputs": [
        {
          "internalType": "bool",
          "name": "",
          "type": "bool"
        }
      ],
      "stateMutability": "view",
      "type": "function"
    },
    {
      "inputs": [
        {
          "internalType": "uint256",
          "name": "_tokenId",
          "type": "uint256"
        }
      ],
      "name": "getMediaInfo",
      "outputs": [
        {
          "internalType": "bytes32",
          "name": "",
          "type": "bytes32"
        },
        {
          "internalType": "bytes32",
          "name": "",
          "type": "bytes32"
        },
        {
          "internalType": "uint256",
          "name": "",
          "type": "uint256"
        },
        {
          "internalType": "uint256",
          "name": "",
          "type": "uint256"
        },
        {
          "internalType": "uint256",
          "name": "",
          "type": "uint256"
        }
      ],
      "stateMutability": "view",
      "type": "function"
    }
  ],
  "bytecode": "0x608060405234801561001057600080fd5b506125d2806100206000396000f3fe60806040526004361061015d576000357c0100000000000000000000000000000000000000000000000000000000900480639f375670116100d3578063aa15d40f1161008c578063aa15d40f146103bb578063b1861a61146103db578063d5391393146103fb578063d547741f1461042f578063e71814651461044f578063ed8d172f1461046f57600080fd5b80639f375670146102eb578063a0fd94211461030b578063a1bffc201461032b578063a217fddf14610373578063a2cc530914610388578063a5a59e461461039b57600080fd5b80633bc5408b116101255780633bc5408b1461022d578063485cc9551461024057806351ed828814610260578063796458ea1461027357806391d148541461029357806398ff9c54146102b357600080fd5b806301ffc9a71461016257806317d70f7c14610197578063248a9ca3146101bb5780632f2ff15d146101eb57806336568abe1461020d575b600080fd5b34801561016e57600080fd5b5061018261017d366004611fbe565b61048f565b60405190151581526020015b60405180910390f35b3480156101a357600080fd5b506101ad60995481565b60405190815260200161018e565b3480156101c757600080fd5b506101ad6101d6366004611f2b565b60009081526065602052604090206001015490565b3480156101f757600080fd5b5061020b610206366004611f5b565b610522565b005b34801561021957600080fd5b5061020b610228366004611f5b565b61054c565b61020b61023b3660046121a4565b6105e0565b34801561024c57600080fd5b5061020b61025b366004611ed3565b610719565b61020b61026e366004611f2b565b6107e5565b34801561027f57600080fd5b5061020b61028e366004611f5b565b610b6c565b34801561029f57600080fd5b506101826102ae366004611f5b565b610bff565b3480156102bf57600080fd5b506097546102d390600160a060020a031681565b604051600160a060020a03909116815260200161018e565b3480156102f757600080fd5b506101826103063660046120b0565b610c2a565b34801561031757600080fd5b506101826103263660046120f1565b610cf5565b34801561033757600080fd5b5061034b610346366004611f2b565b610f03565b604080519586526020860194909452928401919091526060830152608082015260a00161018e565b34801561037f57600080fd5b506101ad600081565b61020b6103963660046120f1565b610fcf565b3480156103a757600080fd5b506101ad6103b6366004611ffb565b611463565b3480156103c757600080fd5b506101826103d6366004611f2b565b611689565b3480156103e757600080fd5b506098546102d390600160a060020a031681565b34801561040757600080fd5b506101ad7f9f2df0fed2c77648de5860a4cc508cd0818c85b8b8a1ab4ceeef8d981c8956a681565b34801561043b57600080fd5b5061020b61044a366004611f5b565b61173b565b34801561045b57600080fd5b506101ad61046a366004611f5b565b611760565b34801561047b57600080fd5b506101ad61048a366004611f2b565b61181b565b60007bffffffffffffffffffffffffffffffffffffffffffffffffffffffff1982167f7965db0b00000000000000000000000000000000000000000000000000000000148061051c57507f01ffc9a7000000000000000000000000000000000000000000000000000000007bffffffffffffffffffffffffffffffffffffffffffffffffffffffff198316145b92915050565b60008281526065602052604090206001015461053d816118cd565b61054783836118da565b505050565b600160a060020a03811633146105d25760405160e560020a62461bcd02815260206004820152602f60248201527f416363657373436f6e74726f6c3a2063616e206f6e6c792072656e6f756e636560448201527f20726f6c657320666f722073656c66000000000000000000000000000000000060648201526084015b60405180910390fd5b6105dc8282611960565b5050565b60975481516040517f86daae0e00000000000000000000000000000000000000000000000000000000815273__NFTLibrary____________________________926386daae0e9261064a92600160a060020a03909216918891339189919089903490600401612312565b60006040518083038186803b15801561066257600080fd5b505af4158015610676573d6000803e3d6000fd5b5050609a546040517f6352211e000000000000000000000000000000000000000000000000000000008152600481018790526105479350600160a060020a039091169150636352211e906024015b60206040518083038186803b1580156106dc57600080fd5b505afa1580156106f0573d6000803e3d6000fd5b505050506040513d601f19601f820116820180604052508101906107149190611eb7565b6119c7565b600061072560016119fc565b9050801561073d576000805461ff0019166101001790555b60978054600160a060020a0380861673ffffffffffffffffffffffffffffffffffffffff19928316179092556098805492851692821683179055609a805490911690911790556000609955610790611a8a565b61079b600033611b0c565b8015610547576000805461ff0019169055604051600181527f7f26b83ff96e1f2b6a682f133852f6798a09c465da95921460cefb38474024989060200160405180910390a1505050565b6097546040517f8ab49a60000000000000000000000000000000000000000000000000000000008152600160a060020a0390911660048201526024810182905273__NFTLibrary____________________________90638ab49a609060440160206040518083038186803b15801561085c57600080fd5b505af4158015610870573d6000803e3d6000fd5b505050506040513d601f19601f820116820180604052508101906108949190611f0b565b156108e45760405160e560020a62461bcd02815260206004820152601060248201527f6d656469612072656e746564206e6f770000000000000000000000000000000060448201526064016105c9565b609a546099546040517f6352211e0000000000000000000000000000000000000000000000000000000081526004810191909152600091600160a060020a031690636352211e9060240160206040518083038186803b15801561094657600080fd5b505afa15801561095a573d6000803e3d6000fd5b505050506040513d601f19601f8201168201806040525081019061097e9190611eb7565b90506000336097546040517fb1c50e4e000000000000000000000000000000000000000000000000000000008152600160a060020a0390911660048201526024810185905290915060009073__NFTLibrary____________________________9063b1c50e4e9060440160206040518083038186803b158015610a0057600080fd5b505af4158015610a14573d6000803e3d6000fd5b505050506040513d601f19601f82011682018060405250810190610a389190611f43565b905080341015610a8d5760405160e560020a62461bcd02815260206004820152601060248201527f4e6f7420656e6f7567682066756e64730000000000000000000000000000000060448201526064016105c9565b609a546040517f153e66e6000000000000000000000000000000000000000000000000000000008152600160a060020a0385811660048301528481166024830152604482018790529091169063153e66e690606401600060405180830381600087803b158015610afc57600080fd5b505af1158015610b10573d6000803e3d6000fd5b50505050610b1d836119c7565b60408051858152600160a060020a03858116602083015284168183015290517f83374a9e9accd6ef205e7de68ba2962060f387796cdedc3e99563fa627bf0bd29181900360600190a150505050565b6097546040517f3727bf7800000000000000000000000000000000000000000000000000000000815273__NFTLibrary____________________________91633727bf7891610bcb91600160a060020a031690869086906004016122ef565b60006040518083038186803b158015610be357600080fd5b505af4158015610bf7573d6000803e3d6000fd5b505050505050565b6000918252606560209081526040808420600160a060020a0393909316845291905290205460ff1690565b6097546040517fcf15109c000000000000000000000000000000000000000000000000000000008152600160a060020a039182166004820152602481018590528382166044820152908216606482015260009073__NFTLibrary____________________________9063cf15109c9060840160206040518083038186803b158015610cb457600080fd5b505af4158015610cc8573d6000803e3d6000fd5b505050506040513d601f19601f82011682018060405250810190610cec9190611f0b565b15949350505050565b6097546040517f49fc540b000000000000000000000000000000000000000000000000000000008152600091829173__NFTLibrary____________________________916349fc540b91610d5991600160a060020a031690899089906004016122ef565b60206040518083038186803b158015610d7157600080fd5b505af4158015610d85573d6000803e3d6000fd5b505050506040513d601f19601f82011682018060405250810190610da99190611f43565b9050610dfc8133604051600160a060020a03919091166c010000000000000000000000000260208201526034016040516020818303038152906040528051906020012085611b169092919063ffffffff16565b610e4b5760405160e560020a62461bcd02815260206004820152601360248201527f41646472657373206e6f7420696e206c6973740000000000000000000000000060448201526064016105c9565b6097546040517ffcb9975900000000000000000000000000000000000000000000000000000000815273__NFTLibrary____________________________9163fcb9975991610eaa91600160a060020a031690899089906004016122ef565b60206040518083038186803b158015610ec257600080fd5b505af4158015610ed6573d6000803e3d6000fd5b505050506040513d601f19601f82011682018060405250810190610efa9190611f0b565b95945050505050565b6097546040517fc9581337000000000000000000000000000000000000000000000000000000008152600160a060020a03909116600482015260248101829052600090819081908190819073__NFTLibrary____________________________9063c95813379060440160a06040518083038186803b158015610f8557600080fd5b505af4158015610f99573d6000803e3d6000fd5b505050506040513d601f19601f82011682018060405250810190610fbd9190611f7f565b939a9299509097509550909350915050565b6097546040517f8ab49a60000000000000000000000000000000000000000000000000000000008152600160a060020a0390911660048201526024810184905273__NFTLibrary____________________________90638ab49a609060440160206040518083038186803b15801561104657600080fd5b505af415801561105a573d6000803e3d6000fd5b505050506040513d601f19601f8201168201806040525081019061107e9190611f0b565b156110ce5760405160e560020a62461bcd02815260206004820152601060248201527f6d656469612072656e746564206e6f770000000000000000000000000000000060448201526064016105c9565b6097546040517f49fc540b00000000000000000000000000000000000000000000000000000000815260009173__NFTLibrary____________________________916349fc540b9161113291600160a060020a0390911690889088906004016122ef565b60206040518083038186803b15801561114a57600080fd5b505af415801561115e573d6000803e3d6000fd5b505050506040513d601f19601f820116820180604052508101906111829190611f43565b90506111d58133604051600160a060020a03919091166c010000000000000000000000000260208201526034016040516020818303038152906040528051906020012084611b169092919063ffffffff16565b6112245760405160e560020a62461bcd02815260206004820152601360248201527f41646472657373206e6f7420696e206c6973740000000000000000000000000060448201526064016105c9565b609a546040517f6352211e0000000000000000000000000000000000000000000000000000000081526004810186905261127091600160a060020a031690636352211e906024016106c4565b609754604080517fe77ed5b6000000000000000000000000000000000000000000000000000000008152600160a060020a0392831660048201526024810187905291851660448301523360648301523460848301525173__NFTLibrary____________________________9163e77ed5b69160a4808301926000929190829003018186803b15801561130157600080fd5b505af4158015611315573d6000803e3d6000fd5b50506097546040517ffcb9975900000000000000000000000000000000000000000000000000000000815273__NFTLibrary____________________________935063fcb99759925061137891600160a060020a031690889088906004016122ef565b60206040518083038186803b15801561139057600080fd5b505af41580156113a4573d6000803e3d6000fd5b505050506040513d601f19601f820116820180604052508101906113c89190611f0b565b1561145d576097546040517ff11bca58000000000000000000000000000000000000000000000000000000008152600160a060020a0390911660048201526024810185905273__NFTLibrary____________________________9063f11bca589060440160006040518083038186803b15801561144457600080fd5b505af4158015611458573d6000803e3d6000fd5b505050505b50505050565b6000609954600161147491906124c0565b609955609a54600160a060020a03166340c10f19336099546040517c010000000000000000000000000000000000000000000000000000000063ffffffff8516028152600160a060020a0390921660048301526024820152604401600060405180830381600087803b1580156114e957600080fd5b505af11580156114fd573d6000803e3d6000fd5b5050609a546099546040517f162094c4000000000000000000000000000000000000000000000000000000008152600160a060020a03909216935063162094c4925061154d918b9060040161244a565b600060405180830381600087803b15801561156757600080fd5b505af115801561157b573d6000803e3d6000fd5b50506097546099546040517f29feddb2000000000000000000000000000000000000000000000000000000008152600160a060020a039092166004830152602482015260448101899052606481018890526084810187905260a4810186905260c4810185905273__NFTLibrary____________________________92506329feddb2915060e40160006040518083038186803b15801561161a57600080fd5b505af415801561162e573d6000803e3d6000fd5b505050507f9929b97a0593a5cbfbd1d2f6f2413d8fe9faf44b7527920c503ef54dc59eaead60995461165d3390565b8989898960405161167396959493929190612404565b60405180910390a1506099549695505050505050565b6097546040517f8ab49a60000000000000000000000000000000000000000000000000000000008152600160a060020a0390911660048201526024810182905260009073__NFTLibrary____________________________90638ab49a609060440160206040518083038186803b15801561170357600080fd5b505af4158015611717573d6000803e3d6000fd5b505050506040513d601f19601f8201168201806040525081019061051c9190611f0b565b600082815260656020526040902060010154611756816118cd565b6105478383611960565b6097546040517f6c42b1dd00000000000000000000000000000000000000000000000000000000815260009173__NFTLibrary____________________________91636c42b1dd916117c491600160a060020a0390911690879087906004016122ef565b60206040518083038186803b1580156117dc57600080fd5b505af41580156117f0573d6000803e3d6000fd5b505050506040513d601f19601f820116820180604052508101906118149190611f43565b9392505050565b6097546040517fad0c7738000000000000000000000000000000000000000000000000000000008152600160a060020a0390911660048201526024810182905260009073__NFTLibrary____________________________9063ad0c77389060440160206040518083038186803b15801561189557600080fd5b505af41580156118a9573d6000803e3d6000fd5b505050506040513d601f19601f8201168201806040525081019061051c9190611f43565b6118d78133611b2c565b50565b6118e48282610bff565b6105dc576000828152606560209081526040808320600160a060020a03851684529091529020805460ff1916600117905561191c3390565b600160a060020a031681600160a060020a0316837f2f8788117e7eff1d82e926ec794901d17c78024a50270940304540a733656f0d60405160405180910390a45050565b61196a8282610bff565b156105dc576000828152606560209081526040808320600160a060020a0385168085529252808320805460ff1916905551339285917ff6391f5c32d9c69d2a47ea670b442974b53935d1edc7fd64eb21e047a839171b9190a45050565b604051600160a060020a038216903480156108fc02916000818181858888f193505050501580156105dc573d6000803e3d6000fd5b60008054610100900460ff1615611a46578160ff166001148015611a1f5750303b155b611a3e5760405160e560020a62461bcd0281526004016105c9906123a7565b506000919050565b60005460ff808416911610611a705760405160e560020a62461bcd0281526004016105c9906123a7565b506000805460ff191660ff92909216919091179055600190565b600054610100900460ff16611b0a5760405160e560020a62461bcd02815260206004820152602b60248201527f496e697469616c697a61626c653a20636f6e7472616374206973206e6f74206960448201527f6e697469616c697a696e6700000000000000000000000000000000000000000060648201526084016105c9565b565b6105dc82826118da565b600082611b238584611b93565b14949350505050565b611b368282610bff565b6105dc57611b4e81600160a060020a03166014611c18565b611b59836020611c18565b604051602001611b6a92919061226e565b60408051601f198184030181529082905260e560020a62461bcd0282526105c991600401612394565b600081815b8451811015611c10576000858281518110611bc65760e060020a634e487b7102600052603260045260246000fd5b60200260200101519050808311611bec5760008381526020829052604090209250611bfd565b600081815260208490526040902092505b5080611c088161253a565b915050611b98565b509392505050565b60606000611c278360026124d8565b611c329060026124c0565b67ffffffffffffffff811115611c5b5760e060020a634e487b7102600052604160045260246000fd5b6040519080825280601f01601f191660200182016040528015611c85576020820181803683370190505b5090507f300000000000000000000000000000000000000000000000000000000000000081600081518110611ccd5760e060020a634e487b7102600052603260045260246000fd5b60200101907effffffffffffffffffffffffffffffffffffffffffffffffffffffffffffff1916908160001a9053507f780000000000000000000000000000000000000000000000000000000000000081600181518110611d415760e060020a634e487b7102600052603260045260246000fd5b60200101907effffffffffffffffffffffffffffffffffffffffffffffffffffffffffffff1916908160001a9053506000611d7d8460026124d8565b611d889060016124c0565b90505b6001811115611e65577f303132333435363738396162636465660000000000000000000000000000000085600f1660108110611dda5760e060020a634e487b7102600052603260045260246000fd5b1a7f010000000000000000000000000000000000000000000000000000000000000002828281518110611e205760e060020a634e487b7102600052603260045260246000fd5b60200101907effffffffffffffffffffffffffffffffffffffffffffffffffffffffffffff1916908160001a905350601090940493611e5e81612523565b9050611d8b565b5083156118145760405160e560020a62461bcd02815260206004820181905260248201527f537472696e67733a20686578206c656e67746820696e73756666696369656e7460448201526064016105c9565b600060208284031215611ec8578081fd5b815161181481612587565b60008060408385031215611ee5578081fd5b8235611ef081612587565b91506020830135611f0081612587565b809150509250929050565b600060208284031215611f1c578081fd5b81518015158114611814578182fd5b600060208284031215611f3c578081fd5b5035919050565b600060208284031215611f54578081fd5b5051919050565b60008060408385031215611f6d578182fd5b823591506020830135611f0081612587565b600080600080600060a08688031215611f96578081fd5b5050835160208501516040860151606087015160809097015192989197509594509092509050565b600060208284031215611fcf578081fd5b81357bffffffffffffffffffffffffffffffffffffffffffffffffffffffff1981168114611814578182fd5b60008060008060008060c08789031215612013578081fd5b863567ffffffffffffffff8082111561202a578283fd5b818901915089601f83011261203d578283fd5b81356020828211156120515761205161256e565b612063601f8301601f1916820161246b565b92508183528b81838601011115612078578485fd5b81818501828501379082018101939093529991880135985050604087013596606081013596506080810135955060a001359350915050565b6000806000606084860312156120c4578081fd5b8335925060208401356120d681612587565b915060408401356120e681612587565b809150509250925092565b600080600060608486031215612105578081fd5b8335925060208085013561211881612587565b9250604085013567ffffffffffffffff811115612133578283fd5b8501601f81018713612143578283fd5b80356121566121518261249c565b61246b565b81815283810190838501858402850186018b1015612172578687fd5b8694505b83851015612194578035835260019490940193918501918501612176565b5080955050505050509250925092565b6000806000606084860312156121b8578081fd5b833592506020808501359250604085013567ffffffffffffffff8111156121dd578283fd5b8501601f810187136121ed578283fd5b80356121fb6121518261249c565b81815283810190838501858402850186018b1015612217578687fd5b8694505b8385101561219457803561222e81612587565b83526001949094019391850191850161221b565b6000815180845261225a8160208601602086016124f7565b601f01601f19169290920160200192915050565b7f416363657373436f6e74726f6c3a206163636f756e74200000000000000000008152600083516122a68160178501602088016124f7565b7f206973206d697373696e6720726f6c652000000000000000000000000000000060179184019182015283516122e38160288401602088016124f7565b01602801949350505050565b600160a060020a0393841681526020810192909252909116604082015260600190565b600060e08201600160a060020a03808b16845260208a81860152818a16604086015288606086015287608086015260e060a0860152828751808552610100870191508289019450855b8181101561237957855185168352948301949183019160010161235b565b5050809450505050508260c083015298975050505050505050565b6020815260006118146020830184612242565b6020808252602e908201527f496e697469616c697a61626c653a20636f6e747261637420697320616c72656160408201527f647920696e697469616c697a6564000000000000000000000000000000000000606082015260800190565b868152600160a060020a038616602082015260c06040820152600061242c60c0830187612242565b606083019590955250608081019290925260a0909101529392505050565b8281526040602082015260006124636040830184612242565b949350505050565b604051601f8201601f1916810167ffffffffffffffff811182821017156124945761249461256e565b604052919050565b600067ffffffffffffffff8211156124b6576124b661256e565b5060209081020190565b600082198211156124d3576124d3612555565b500190565b60008160001904831182151516156124f2576124f2612555565b500290565b60005b838110156125125781810151838201526020016124fa565b8381111561145d5750506000910152565b60008161253257612532612555565b506000190190565b600060001982141561254e5761254e612555565b5060010190565b60e060020a634e487b7102600052601160045260246000fd5b60e060020a634e487b7102600052604160045260246000fd5b600160a060020a03811681146118d757600080fdfea264697066735822122063aa95d99b56606c96e34cd6c0905afe9e2f327908d3eade432cf6934f2d020264736f6c63430008040033",
  "immutableReferences": {},
  "source": "// SPDX-License-Identifier: MIT\r\npragma solidity ^0.8.0;\r\n\r\nimport \"@openzeppelin/contracts-upgradeable/access/AccessControlUpgradeable.sol\";\r\nimport {MerkleProof} from \"@openzeppelin/contracts/utils/cryptography/MerkleProof.sol\";\r\n\r\nimport \"./NFTLibrary.sol\";\r\nimport \"./interface/IController.sol\";\r\nimport \"./Collection.sol\";\r\n\r\n\r\ncontract Controller is IController, Initializable, AccessControlUpgradeable {\r\n\r\n    bytes32 public constant MINTER_ROLE = keccak256(\"MINTER_ROLE\");\r\n\r\n    using NFTLibrary for address;\r\n\r\n    using MerkleProof for bytes32[];\r\n\r\n\r\n    address public eternalStorage;\r\n\r\n    address public dynamicNFTCollectionAddress;\r\n\r\n    uint256 public tokenId;\r\n\r\n    Collection NFT;\r\n\r\n    /* ========== EVENTS ========== */\r\n\r\n    event Mint(uint256 _tokenId, address _minter, string uri, bytes32 _title, bytes32 _description, uint256 _price);\r\n    event BuyNFT(uint256 _tokenId, address from, address to);\r\n\r\n\r\n    function initialize(address _eternalStorage, address _dynamicNFTCollectionAddress) public initializer {\r\n        eternalStorage = _eternalStorage;\r\n        dynamicNFTCollectionAddress = _dynamicNFTCollectionAddress;\r\n        NFT = Collection(dynamicNFTCollectionAddress);\r\n\r\n        tokenId = 0;\r\n\r\n        __AccessControl_init();\r\n        _setupRole(DEFAULT_ADMIN_ROLE, _msgSender());\r\n    }\r\n\r\n    function mint(string memory uri, bytes32 _title, bytes32 _description, uint256 _price, uint256 rentPrice, uint256 rentDuration) external override returns (uint256){\r\n\r\n        tokenId = tokenId + 1;\r\n\r\n        NFT.mint(_msgSender(), tokenId);\r\n        NFT.setTokenURI(tokenId, uri);\r\n        eternalStorage.saveMediaInfo(tokenId, _title, _description, _price, rentPrice, rentDuration);\r\n\r\n        emit Mint(tokenId, _msgSender(), uri, _title, _description, _price);\r\n\r\n        return tokenId;\r\n    }\r\n\r\n    function buyNFT(uint256 _tokenId) external payable override {\r\n        require(eternalStorage.mediaRentStatus(_tokenId) == false, \"media rented now\");\r\n\r\n        address from = NFT.ownerOf(tokenId);\r\n        address to = _msgSender();\r\n\r\n        uint256 price = eternalStorage.getMediaPrice(_tokenId);\r\n\r\n        require(\r\n            msg.value >= price,\r\n            \"Not enough funds\"\r\n        );\r\n\r\n        NFT.buy(from, to, _tokenId);\r\n\r\n        _forwardFunds(payable(from));\r\n\r\n        emit BuyNFT(_tokenId, from, to);\r\n    }\r\n\r\n    function rentRequest(uint256 _tokenId, bytes32 coOwners, address[] memory coOwnersList) external payable {\r\n        eternalStorage.handleRentRequest(_tokenId, _msgSender(), coOwners, coOwnersList.length, coOwnersList, msg.value);\r\n        _forwardFunds(payable(NFT.ownerOf(_tokenId)));\r\n        //emit paid\r\n    }\r\n\r\n    function rentByPeer(uint256 _tokenId, address mainRenter, bytes32[] memory proof) external payable {\r\n        //        require(not rented now);\r\n        require(eternalStorage.mediaRentStatus(_tokenId) == false, \"media rented now\");\r\n        //        requeire(in merklepeers);\r\n        bytes32 merkleTree = eternalStorage.getRentRequestMerkleTree(_tokenId, mainRenter);\r\n        require(proof.verify(merkleTree, keccak256(abi.encodePacked(_msgSender()))), \"Address not in list\");\r\n        // cummulatedPrice += single_peer_price;\r\n        //        transfer_price_to_owner();\r\n        //        save_this_add in transfereds;\r\n        _forwardFunds(payable(NFT.ownerOf(_tokenId)));\r\n        eternalStorage.savePaidInfo(_tokenId, mainRenter, _msgSender(), msg.value);\r\n        if(eternalStorage.hasEveryOnePaid(_tokenId, mainRenter)){\r\n            eternalStorage.updateRentStatus(_tokenId);\r\n            //emit finishTime\r\n        }\r\n        //emit paid\r\n    }\r\n\r\n    function renterAllowedToWatch(uint256 _tokenId, address mainRenter, bytes32[] memory proof) external returns(bool){\r\n        bytes32 merkleTree = eternalStorage.getRentRequestMerkleTree(_tokenId, mainRenter);\r\n        require(proof.verify(merkleTree, keccak256(abi.encodePacked(_msgSender()))), \"Address not in list\");\r\n        return eternalStorage.hasEveryOnePaid(_tokenId, mainRenter);\r\n    }\r\n\r\n    function getMediaRentPrice(uint256 _tokenId) public view returns(uint256){\r\n        return eternalStorage.getMediaRentPrice(_tokenId);\r\n    }\r\n\r\n    function canRemovePeer(uint256 _tokenId, address mainRenter, address peer) external view returns(bool){\r\n        return !eternalStorage.hasPaid(_tokenId, mainRenter, peer);\r\n    }\r\n\r\n    function getPaidRentCumulativeValue(uint256 _tokenId, address mainRenter) external view returns(uint256){\r\n        return eternalStorage.getPaidRentCumulativeValue(_tokenId, mainRenter);\r\n    }\r\n\r\n    function resetRentStatus(uint256 _tokenId, address renter) external {\r\n        eternalStorage.resetRentStatus(_tokenId, renter);\r\n    }\r\n\r\n    function isRented(uint256 _tokenId) public view returns(bool) {\r\n        return eternalStorage.mediaRentStatus(_tokenId);\r\n    }\r\n\r\n    function getMediaInfo(uint256 _tokenId) public view override returns (bytes32, bytes32, uint256, uint256, uint256){\r\n        return eternalStorage.getMediaInfo(_tokenId);\r\n    }\r\n\r\n    function _forwardFunds(address payable receiver) internal {\r\n        receiver.transfer(msg.value);\r\n    }\r\n\r\n}",
  "sourcePath": "C:\\Users\\MyLaptop\\Desktop\\sabacalavro\\smart-contracts-dapp\\contracts\\Controller.sol",
  "compiler": {
    "name": "solc",
    "version": "0.8.4+commit.c7e474f2.Emscripten.clang"
  },
  "schemaVersion": "3.4.7",
  "updatedAt": "2022-08-14T08:48:47.481Z",
  "devdoc": {
    "kind": "dev",
    "methods": {
      "getRoleAdmin(bytes32)": {
        "details": "Returns the admin role that controls `role`. See {grantRole} and {revokeRole}. To change a role's admin, use {_setRoleAdmin}."
      },
      "grantRole(bytes32,address)": {
        "details": "Grants `role` to `account`. If `account` had not been already granted `role`, emits a {RoleGranted} event. Requirements: - the caller must have ``role``'s admin role."
      },
      "hasRole(bytes32,address)": {
        "details": "Returns `true` if `account` has been granted `role`."
      },
      "renounceRole(bytes32,address)": {
        "details": "Revokes `role` from the calling account. Roles are often managed via {grantRole} and {revokeRole}: this function's purpose is to provide a mechanism for accounts to lose their privileges if they are compromised (such as when a trusted device is misplaced). If the calling account had been revoked `role`, emits a {RoleRevoked} event. Requirements: - the caller must be `account`."
      },
      "revokeRole(bytes32,address)": {
        "details": "Revokes `role` from `account`. If `account` had been granted `role`, emits a {RoleRevoked} event. Requirements: - the caller must have ``role``'s admin role."
      },
      "supportsInterface(bytes4)": {
        "details": "See {IERC165-supportsInterface}."
      }
    },
    "version": 1
  },
  "userdoc": {
    "kind": "user",
    "methods": {},
    "version": 1
  }
}