{
  "contractName": "EternalStorage",
  "abi": [
    {
      "inputs": [
        {
          "internalType": "address",
          "name": "_owner",
          "type": "address"
        },
        {
          "internalType": "address",
          "name": "_associatedContract",
          "type": "address"
        }
      ],
      "stateMutability": "nonpayable",
      "type": "constructor"
    },
    {
      "anonymous": false,
      "inputs": [
        {
          "indexed": false,
          "internalType": "address",
          "name": "associatedContract",
          "type": "address"
        }
      ],
      "name": "AssociatedContractUpdated",
      "type": "event"
    },
    {
      "anonymous": false,
      "inputs": [
        {
          "indexed": false,
          "internalType": "address",
          "name": "oldOwner",
          "type": "address"
        },
        {
          "indexed": false,
          "internalType": "address",
          "name": "newOwner",
          "type": "address"
        }
      ],
      "name": "OwnerChanged",
      "type": "event"
    },
    {
      "anonymous": false,
      "inputs": [
        {
          "indexed": false,
          "internalType": "address",
          "name": "newOwner",
          "type": "address"
        }
      ],
      "name": "OwnerNominated",
      "type": "event"
    },
    {
      "inputs": [],
      "name": "acceptOwnership",
      "outputs": [],
      "stateMutability": "nonpayable",
      "type": "function"
    },
    {
      "inputs": [],
      "name": "associatedContract",
      "outputs": [
        {
          "internalType": "address",
          "name": "",
          "type": "address"
        }
      ],
      "stateMutability": "view",
      "type": "function"
    },
    {
      "inputs": [
        {
          "internalType": "address",
          "name": "_owner",
          "type": "address"
        }
      ],
      "name": "nominateNewOwner",
      "outputs": [],
      "stateMutability": "nonpayable",
      "type": "function"
    },
    {
      "inputs": [],
      "name": "nominatedOwner",
      "outputs": [
        {
          "internalType": "address",
          "name": "",
          "type": "address"
        }
      ],
      "stateMutability": "view",
      "type": "function"
    },
    {
      "inputs": [],
      "name": "owner",
      "outputs": [
        {
          "internalType": "address",
          "name": "",
          "type": "address"
        }
      ],
      "stateMutability": "view",
      "type": "function"
    },
    {
      "inputs": [
        {
          "internalType": "address",
          "name": "_associatedContract",
          "type": "address"
        }
      ],
      "name": "setAssociatedContract",
      "outputs": [],
      "stateMutability": "nonpayable",
      "type": "function"
    },
    {
      "inputs": [
        {
          "internalType": "bytes32",
          "name": "record",
          "type": "bytes32"
        }
      ],
      "name": "getUIntValue",
      "outputs": [
        {
          "internalType": "uint256",
          "name": "",
          "type": "uint256"
        }
      ],
      "stateMutability": "view",
      "type": "function"
    },
    {
      "inputs": [
        {
          "internalType": "bytes32",
          "name": "record",
          "type": "bytes32"
        },
        {
          "internalType": "uint256",
          "name": "value",
          "type": "uint256"
        }
      ],
      "name": "setUIntValue",
      "outputs": [],
      "stateMutability": "nonpayable",
      "type": "function"
    },
    {
      "inputs": [
        {
          "internalType": "bytes32",
          "name": "record",
          "type": "bytes32"
        }
      ],
      "name": "deleteUIntValue",
      "outputs": [],
      "stateMutability": "nonpayable",
      "type": "function"
    },
    {
      "inputs": [
        {
          "internalType": "bytes32",
          "name": "record",
          "type": "bytes32"
        }
      ],
      "name": "getUInt16Value",
      "outputs": [
        {
          "internalType": "uint16",
          "name": "",
          "type": "uint16"
        }
      ],
      "stateMutability": "view",
      "type": "function"
    },
    {
      "inputs": [
        {
          "internalType": "bytes32",
          "name": "record",
          "type": "bytes32"
        },
        {
          "internalType": "uint16",
          "name": "value",
          "type": "uint16"
        }
      ],
      "name": "setUInt16Value",
      "outputs": [],
      "stateMutability": "nonpayable",
      "type": "function"
    },
    {
      "inputs": [
        {
          "internalType": "bytes32",
          "name": "record",
          "type": "bytes32"
        }
      ],
      "name": "deleteUInt16Value",
      "outputs": [],
      "stateMutability": "nonpayable",
      "type": "function"
    },
    {
      "inputs": [
        {
          "internalType": "bytes32",
          "name": "record",
          "type": "bytes32"
        }
      ],
      "name": "getStringValue",
      "outputs": [
        {
          "internalType": "string",
          "name": "",
          "type": "string"
        }
      ],
      "stateMutability": "view",
      "type": "function"
    },
    {
      "inputs": [
        {
          "internalType": "bytes32",
          "name": "record",
          "type": "bytes32"
        },
        {
          "internalType": "string",
          "name": "value",
          "type": "string"
        }
      ],
      "name": "setStringValue",
      "outputs": [],
      "stateMutability": "nonpayable",
      "type": "function"
    },
    {
      "inputs": [
        {
          "internalType": "bytes32",
          "name": "record",
          "type": "bytes32"
        }
      ],
      "name": "deleteStringValue",
      "outputs": [],
      "stateMutability": "nonpayable",
      "type": "function"
    },
    {
      "inputs": [
        {
          "internalType": "bytes32",
          "name": "record",
          "type": "bytes32"
        }
      ],
      "name": "getAddressValue",
      "outputs": [
        {
          "internalType": "address",
          "name": "",
          "type": "address"
        }
      ],
      "stateMutability": "view",
      "type": "function"
    },
    {
      "inputs": [
        {
          "internalType": "bytes32",
          "name": "record",
          "type": "bytes32"
        },
        {
          "internalType": "address",
          "name": "value",
          "type": "address"
        }
      ],
      "name": "setAddressValue",
      "outputs": [],
      "stateMutability": "nonpayable",
      "type": "function"
    },
    {
      "inputs": [
        {
          "internalType": "bytes32",
          "name": "record",
          "type": "bytes32"
        }
      ],
      "name": "deleteAddressValue",
      "outputs": [],
      "stateMutability": "nonpayable",
      "type": "function"
    },
    {
      "inputs": [
        {
          "internalType": "bytes32",
          "name": "record",
          "type": "bytes32"
        }
      ],
      "name": "getAddressListValue",
      "outputs": [
        {
          "internalType": "address[]",
          "name": "",
          "type": "address[]"
        }
      ],
      "stateMutability": "view",
      "type": "function"
    },
    {
      "inputs": [
        {
          "internalType": "bytes32",
          "name": "record",
          "type": "bytes32"
        },
        {
          "internalType": "address[]",
          "name": "value",
          "type": "address[]"
        }
      ],
      "name": "setAddressListValue",
      "outputs": [],
      "stateMutability": "nonpayable",
      "type": "function"
    },
    {
      "inputs": [
        {
          "internalType": "bytes32",
          "name": "record",
          "type": "bytes32"
        }
      ],
      "name": "deleteAddressListValue",
      "outputs": [],
      "stateMutability": "nonpayable",
      "type": "function"
    },
    {
      "inputs": [
        {
          "internalType": "bytes32",
          "name": "record",
          "type": "bytes32"
        }
      ],
      "name": "getBytesValue",
      "outputs": [
        {
          "internalType": "bytes",
          "name": "",
          "type": "bytes"
        }
      ],
      "stateMutability": "view",
      "type": "function"
    },
    {
      "inputs": [
        {
          "internalType": "bytes32",
          "name": "record",
          "type": "bytes32"
        },
        {
          "internalType": "bytes",
          "name": "value",
          "type": "bytes"
        }
      ],
      "name": "setBytesValue",
      "outputs": [],
      "stateMutability": "nonpayable",
      "type": "function"
    },
    {
      "inputs": [
        {
          "internalType": "bytes32",
          "name": "record",
          "type": "bytes32"
        }
      ],
      "name": "deleteBytesValue",
      "outputs": [],
      "stateMutability": "nonpayable",
      "type": "function"
    },
    {
      "inputs": [
        {
          "internalType": "bytes32",
          "name": "record",
          "type": "bytes32"
        }
      ],
      "name": "getBytes32Value",
      "outputs": [
        {
          "internalType": "bytes32",
          "name": "",
          "type": "bytes32"
        }
      ],
      "stateMutability": "view",
      "type": "function"
    },
    {
      "inputs": [
        {
          "internalType": "bytes32",
          "name": "record",
          "type": "bytes32"
        },
        {
          "internalType": "bytes32",
          "name": "value",
          "type": "bytes32"
        }
      ],
      "name": "setBytes32Value",
      "outputs": [],
      "stateMutability": "nonpayable",
      "type": "function"
    },
    {
      "inputs": [
        {
          "internalType": "bytes32",
          "name": "record",
          "type": "bytes32"
        }
      ],
      "name": "deleteBytes32Value",
      "outputs": [],
      "stateMutability": "nonpayable",
      "type": "function"
    },
    {
      "inputs": [
        {
          "internalType": "bytes32",
          "name": "record",
          "type": "bytes32"
        }
      ],
      "name": "getBooleanValue",
      "outputs": [
        {
          "internalType": "bool",
          "name": "",
          "type": "bool"
        }
      ],
      "stateMutability": "view",
      "type": "function"
    },
    {
      "inputs": [
        {
          "internalType": "bytes32",
          "name": "record",
          "type": "bytes32"
        },
        {
          "internalType": "bool",
          "name": "value",
          "type": "bool"
        }
      ],
      "name": "setBooleanValue",
      "outputs": [],
      "stateMutability": "nonpayable",
      "type": "function"
    },
    {
      "inputs": [
        {
          "internalType": "bytes32",
          "name": "record",
          "type": "bytes32"
        }
      ],
      "name": "deleteBooleanValue",
      "outputs": [],
      "stateMutability": "nonpayable",
      "type": "function"
    },
    {
      "inputs": [
        {
          "internalType": "bytes32",
          "name": "record",
          "type": "bytes32"
        }
      ],
      "name": "getIntValue",
      "outputs": [
        {
          "internalType": "int256",
          "name": "",
          "type": "int256"
        }
      ],
      "stateMutability": "view",
      "type": "function"
    },
    {
      "inputs": [
        {
          "internalType": "bytes32",
          "name": "record",
          "type": "bytes32"
        },
        {
          "internalType": "int256",
          "name": "value",
          "type": "int256"
        }
      ],
      "name": "setIntValue",
      "outputs": [],
      "stateMutability": "nonpayable",
      "type": "function"
    },
    {
      "inputs": [
        {
          "internalType": "bytes32",
          "name": "record",
          "type": "bytes32"
        }
      ],
      "name": "deleteIntValue",
      "outputs": [],
      "stateMutability": "nonpayable",
      "type": "function"
    }
  ],
  "bytecode": "0x60806040523480156200001157600080fd5b50604051620015be380380620015be8339810160408190526200003491620001ef565b8082600160a060020a038116620000ac576040517f08c379a000000000000000000000000000000000000000000000000000000000815260206004820152601960248201527f4f776e657220616464726573732063616e6e6f7420626520300000000000000060448201526064015b60405180910390fd5b60008054600160a060020a031916600160a060020a03831690811782556040805192835260208301919091527fb532073b38c83145e3e5135377a08bf9aab55bc0fd7c1179cd4fb995d2a5159c910160405180910390a150600054600160a060020a031662000178576040517f08c379a000000000000000000000000000000000000000000000000000000000815260206004820152601160248201527f4f776e6572206d757374206265207365740000000000000000000000000000006044820152606401620000a3565b60028054600160a060020a031916600160a060020a0383169081179091556040519081527f73f20cff579e8a4086fa607db83867595f1b6a798e718c0bfa0b94a404128e039060200160405180910390a150505062000226565b8051600160a060020a0381168114620001ea57600080fd5b919050565b6000806040838503121562000202578182fd5b6200020d83620001d2565b91506200021d60208401620001d2565b90509250929050565b61138880620002366000396000f3fe608060405234801561001057600080fd5b5060043610610218576000357c010000000000000000000000000000000000000000000000000000000090048063726d9dea11610137578063aefc4ccb116100ca578063c9a52d2c11610099578063c9a52d2c146104ee578063dcc3025c14610501578063deb48f7f14610514578063edff734614610527578063f58660661461053a57600080fd5b8063aefc4ccb14610471578063b4cebb9014610484578063ba69fcaa146104bb578063bdc963d8146104ce57600080fd5b80639007127b116101065780639007127b1461041857806393fe424814610438578063a209a29c1461044b578063a77aa49e1461045e57600080fd5b8063726d9dea146103ca57806379ba5097146103ea5780638267a9ee146103f25780638da5cb5b1461040557600080fd5b80633cc1635c116101af57806352f445ca1161017e57806352f445ca1461037e57806353a47bb7146103915780635686f05d146103a45780635a2bf25a146103b757600080fd5b80633cc1635c146102f75780633eba9ed21461030a57806344bfa56e1461031d5780634c77e5ba1461033d57600080fd5b80631627540c116101eb5780631627540c1461028b57806317e7dd221461029e57806325cf512d146102d15780633562fd20146102e457600080fd5b8063025ec81a1461021d578063043106c0146102505780630c55d92514610265578063124f241814610278575b600080fd5b61023d61022b366004610fb9565b60009081526009602052604090205490565b6040519081526020015b60405180910390f35b61026361025e366004610fb9565b61054d565b005b610263610273366004610fb9565b6105ae565b610263610286366004610fb9565b6105f5565b610263610299366004610f98565b610633565b6102c16102ac366004610fb9565b6000908152600a602052604090205460ff1690565b6040519015158152602001610247565b6102636102df366004611101565b61069d565b6102636102f2366004611101565b6106dc565b610263610305366004610fb9565b61071b565b6102636103183660046110ce565b610760565b61033061032b366004610fb9565b6107ad565b604051610247919061125f565b61036661034b366004610fb9565b600090815260066020526040902054600160a060020a031690565b604051600160a060020a039091168152602001610247565b61026361038c366004610f98565b61084f565b60015461036690600160a060020a031681565b6102636103b236600461119d565b6108b2565b6102636103c5366004610fd1565b610903565b6103dd6103d8366004610fb9565b61096b565b6040516102479190611212565b6102636109d6565b610263610400366004610fb9565b610ad8565b60005461036690600160a060020a031681565b61023d610426366004610fb9565b6000908152600b602052604090205490565b610263610446366004610fb9565b610b16565b610330610459366004610fb9565b610b54565b61026361046c366004611101565b610b71565b60025461036690600160a060020a031681565b6104a8610492366004610fb9565b60009081526004602052604090205461ffff1690565b60405161ffff9091168152602001610247565b6102636104c9366004610fb9565b610bb0565b61023d6104dc366004610fb9565b60009081526003602052604090205490565b6102636104fc366004611122565b610bf4565b61026361050f366004610fb9565b610c40565b610263610522366004610ffc565b610c86565b610263610535366004610fb9565b610cd7565b61026361054836600461116c565b610d1b565b600254600160a060020a031633146105835760405160e560020a62461bcd02815260040161057a90611272565b60405180910390fd5b6000908152600660205260409020805473ffffffffffffffffffffffffffffffffffffffff19169055565b600254600160a060020a031633146105db5760405160e560020a62461bcd02815260040161057a90611272565b60008181526008602052604081206105f291610de6565b50565b600254600160a060020a031633146106225760405160e560020a62461bcd02815260040161057a90611272565b600090815260096020526040812055565b61063b610d61565b6001805473ffffffffffffffffffffffffffffffffffffffff1916600160a060020a0383169081179091556040519081527f906a1c6bd7e3091ea86693dd029a831c19049ce77f1dce2ce0bab1cacbabce22906020015b60405180910390a150565b600254600160a060020a031633146106ca5760405160e560020a62461bcd02815260040161057a90611272565b60009182526009602052604090912055565b600254600160a060020a031633146107095760405160e560020a62461bcd02815260040161057a90611272565b60009182526003602052604090912055565b600254600160a060020a031633146107485760405160e560020a62461bcd02815260040161057a90611272565b6000908152600a60205260409020805460ff19169055565b600254600160a060020a0316331461078d5760405160e560020a62461bcd02815260040161057a90611272565b6000918252600a6020526040909120805460ff1916911515919091179055565b60008181526008602052604090208054606091906107ca906112cf565b80601f01602080910402602001604051908101604052809291908181526020018280546107f6906112cf565b80156108435780601f1061081857610100808354040283529160200191610843565b820191906000526020600020905b81548152906001019060200180831161082657829003601f168201915b50505050509050919050565b610857610d61565b6002805473ffffffffffffffffffffffffffffffffffffffff1916600160a060020a0383169081179091556040519081527f73f20cff579e8a4086fa607db83867595f1b6a798e718c0bfa0b94a404128e0390602001610692565b600254600160a060020a031633146108df5760405160e560020a62461bcd02815260040161057a90611272565b600091825260046020526040909120805461ffff191661ffff909216919091179055565b600254600160a060020a031633146109305760405160e560020a62461bcd02815260040161057a90611272565b600091825260066020526040909120805473ffffffffffffffffffffffffffffffffffffffff1916600160a060020a03909216919091179055565b60008181526007602090815260409182902080548351818402810184019094528084526060939283018282801561084357602002820191906000526020600020905b8154600160a060020a031681526001909101906020018083116109ad5750505050509050919050565b600154600160a060020a03163314610a595760405160e560020a62461bcd02815260206004820152603560248201527f596f75206d757374206265206e6f6d696e61746564206265666f726520796f7560448201527f2063616e20616363657074206f776e6572736869700000000000000000000000606482015260840161057a565b60005460015460408051600160a060020a0393841681529290911660208301527fb532073b38c83145e3e5135377a08bf9aab55bc0fd7c1179cd4fb995d2a5159c910160405180910390a1600180546000805473ffffffffffffffffffffffffffffffffffffffff19908116600160a060020a03841617909155169055565b600254600160a060020a03163314610b055760405160e560020a62461bcd02815260040161057a90611272565b6000908152600b6020526040812055565b600254600160a060020a03163314610b435760405160e560020a62461bcd02815260040161057a90611272565b600090815260036020526040812055565b60008181526005602052604090208054606091906107ca906112cf565b600254600160a060020a03163314610b9e5760405160e560020a62461bcd02815260040161057a90611272565b6000918252600b602052604090912055565b600254600160a060020a03163314610bdd5760405160e560020a62461bcd02815260040161057a90611272565b60008181526005602052604081206105f291610de6565b600254600160a060020a03163314610c215760405160e560020a62461bcd02815260040161057a90611272565b6000838152600860205260409020610c3a908383610e20565b50505050565b600254600160a060020a03163314610c6d5760405160e560020a62461bcd02815260040161057a90611272565b6000908152600460205260409020805461ffff19169055565b600254600160a060020a03163314610cb35760405160e560020a62461bcd02815260040161057a90611272565b60008281526007602090815260409091208251610cd292840190610ea4565b505050565b600254600160a060020a03163314610d045760405160e560020a62461bcd02815260040161057a90611272565b60008181526007602052604081206105f291610f06565b600254600160a060020a03163314610d485760405160e560020a62461bcd02815260040161057a90611272565b6000838152600560205260409020610c3a908383610e20565b600054600160a060020a03163314610de45760405160e560020a62461bcd02815260206004820152602f60248201527f4f6e6c792074686520636f6e7472616374206f776e6572206d6179207065726660448201527f6f726d207468697320616374696f6e0000000000000000000000000000000000606482015260840161057a565b565b508054610df2906112cf565b6000825580601f10610e02575050565b601f0160209004906000526020600020908101906105f29190610f20565b828054610e2c906112cf565b90600052602060002090601f016020900481019282610e4e5760008555610e94565b82601f10610e675782800160ff19823516178555610e94565b82800160010185558215610e94579182015b82811115610e94578235825591602001919060010190610e79565b50610ea0929150610f20565b5090565b828054828255906000526020600020908101928215610e94579160200282015b82811115610e94578251825473ffffffffffffffffffffffffffffffffffffffff1916600160a060020a03909116178255602090920191600190910190610ec4565b50805460008255906000526020600020908101906105f291905b5b80821115610ea05760008155600101610f21565b8035600160a060020a0381168114610f4c57600080fd5b919050565b60008083601f840112610f62578182fd5b50813567ffffffffffffffff811115610f79578182fd5b602083019150836020828501011115610f9157600080fd5b9250929050565b600060208284031215610fa9578081fd5b610fb282610f35565b9392505050565b600060208284031215610fca578081fd5b5035919050565b60008060408385031215610fe3578081fd5b82359150610ff360208401610f35565b90509250929050565b6000806040838503121561100e578182fd5b8235915060208084013567ffffffffffffffff8082111561102d578384fd5b818601915086601f830112611040578384fd5b81358181111561105257611052611323565b838102604051601f19603f8301168101818110858211171561107657611076611323565b604052828152858101935084860182860187018b1015611094578788fd5b8795505b838610156110bd576110a981610f35565b855260019590950194938601938601611098565b508096505050505050509250929050565b600080604083850312156110e0578182fd5b82359150602083013580151581146110f6578182fd5b809150509250929050565b60008060408385031215611113578182fd5b50508035926020909101359150565b600080600060408486031215611136578081fd5b83359250602084013567ffffffffffffffff811115611153578182fd5b61115f86828701610f51565b9497909650939450505050565b600080600060408486031215611180578283fd5b83359250602084013567ffffffffffffffff811115611153578283fd5b600080604083850312156111af578182fd5b82359150602083013561ffff811681146110f6578182fd5b60008151808452815b818110156111ec576020818501810151868301820152016111d0565b818111156111fd5782602083870101525b50601f01601f19169290920160200192915050565b6020808252825182820181905260009190848201906040850190845b81811015611253578351600160a060020a03168352928401929184019160010161122e565b50909695505050505050565b602081526000610fb260208301846111c7565b60208082526034908201527f4f6e6c7920746865206173736f63696174656420636f6e74726163742063616e60408201527f20706572666f726d207468697320616374696f6e000000000000000000000000606082015260800190565b6002810460018216806112e357607f821691505b6020821081141561131d577f4e487b7100000000000000000000000000000000000000000000000000000000600052602260045260246000fd5b50919050565b7f4e487b7100000000000000000000000000000000000000000000000000000000600052604160045260246000fdfea26469706673582212207f36a21fb22ff0e81d6d58fdc66e1f9ca9242868246e06f0ec3ee599e3d34ca864736f6c63430008040033",
  "immutableReferences": {},
  "source": "// SPDX-License-Identifier: MIT\r\npragma solidity ^0.8.0;\r\n\r\n// Inheritance\r\nimport \"./Owned.sol\";\r\nimport \"./State.sol\";\r\n\r\n// https://docs.synthetix.io/contracts/source/contracts/eternalstorage\r\n/**\r\n * @notice  This contract is based on the code available from this blog\r\n * https://blog.colony.io/writing-upgradeable-contracts-in-solidity-6743f0eecc88/\r\n * Implements support for storing a keccak256 key and value pairs. It is the more flexible\r\n * and extensible option. This ensures data schema changes can be implemented without\r\n * requiring upgrades to the storage contract.\r\n */\r\ncontract EternalStorage is Owned, State {\r\n\r\n    constructor(address _owner, address _associatedContract) Owned(_owner) State(_associatedContract) {}\r\n\r\n    /* ========== DATA TYPES ========== */\r\n    mapping(bytes32 => uint) internal UIntStorage;\r\n\r\n    mapping(bytes32 => uint16) internal UInt16Storage;\r\n    mapping(bytes32 => string) internal StringStorage;\r\n    mapping(bytes32 => address) internal AddressStorage;\r\n    mapping(bytes32 => address[]) internal AddressListStorage;\r\n    mapping(bytes32 => bytes) internal BytesStorage;\r\n    mapping(bytes32 => bytes32) internal Bytes32Storage;\r\n    mapping(bytes32 => bool) internal BooleanStorage;\r\n    mapping(bytes32 => int) internal IntStorage;\r\n\r\n\r\n    function getUIntValue(bytes32 record) external view returns (uint) {\r\n        return UIntStorage[record];\r\n    }\r\n\r\n    function setUIntValue(bytes32 record, uint value) external onlyAssociatedContract {\r\n        UIntStorage[record] = value;\r\n    }\r\n\r\n    function deleteUIntValue(bytes32 record) external onlyAssociatedContract {\r\n        delete UIntStorage[record];\r\n    }\r\n\r\n    function getUInt16Value(bytes32 record) external view returns (uint16) {\r\n        return UInt16Storage[record];\r\n    }\r\n\r\n    function setUInt16Value(bytes32 record, uint16 value) external onlyAssociatedContract {\r\n        UInt16Storage[record] = value;\r\n    }\r\n\r\n    function deleteUInt16Value(bytes32 record) external onlyAssociatedContract {\r\n        delete UInt16Storage[record];\r\n    }\r\n\r\n    function getStringValue(bytes32 record) external view returns (string memory) {\r\n        return StringStorage[record];\r\n    }\r\n\r\n    function setStringValue(bytes32 record, string calldata value) external onlyAssociatedContract {\r\n        StringStorage[record] = value;\r\n    }\r\n\r\n    function deleteStringValue(bytes32 record) external onlyAssociatedContract {\r\n        delete StringStorage[record];\r\n    }\r\n\r\n    function getAddressValue(bytes32 record) external view returns (address) {\r\n        return AddressStorage[record];\r\n    }\r\n\r\n    function setAddressValue(bytes32 record, address value) external onlyAssociatedContract {\r\n        AddressStorage[record] = value;\r\n    }\r\n\r\n    function deleteAddressValue(bytes32 record) external onlyAssociatedContract {\r\n        delete AddressStorage[record];\r\n    }\r\n\r\n    function getAddressListValue(bytes32 record) external view returns (address[] memory) {\r\n        return AddressListStorage[record];\r\n    }\r\n\r\n    function setAddressListValue(bytes32 record, address[] memory value) external onlyAssociatedContract {\r\n        AddressListStorage[record] = value;\r\n    }\r\n\r\n    function deleteAddressListValue(bytes32 record) external onlyAssociatedContract {\r\n        delete AddressListStorage[record];\r\n    }\r\n\r\n    function getBytesValue(bytes32 record) external view returns (bytes memory) {\r\n        return BytesStorage[record];\r\n    }\r\n\r\n    function setBytesValue(bytes32 record, bytes calldata value) external onlyAssociatedContract {\r\n        BytesStorage[record] = value;\r\n    }\r\n\r\n    function deleteBytesValue(bytes32 record) external onlyAssociatedContract {\r\n        delete BytesStorage[record];\r\n    }\r\n\r\n    function getBytes32Value(bytes32 record) external view returns (bytes32) {\r\n        return Bytes32Storage[record];\r\n    }\r\n\r\n    function setBytes32Value(bytes32 record, bytes32 value) external onlyAssociatedContract {\r\n        Bytes32Storage[record] = value;\r\n    }\r\n\r\n    function deleteBytes32Value(bytes32 record) external onlyAssociatedContract {\r\n        delete Bytes32Storage[record];\r\n    }\r\n\r\n    function getBooleanValue(bytes32 record) external view returns (bool) {\r\n        return BooleanStorage[record];\r\n    }\r\n\r\n    function setBooleanValue(bytes32 record, bool value) external onlyAssociatedContract {\r\n        BooleanStorage[record] = value;\r\n    }\r\n\r\n    function deleteBooleanValue(bytes32 record) external onlyAssociatedContract {\r\n        delete BooleanStorage[record];\r\n    }\r\n\r\n    function getIntValue(bytes32 record) external view returns (int) {\r\n        return IntStorage[record];\r\n    }\r\n\r\n    function setIntValue(bytes32 record, int value) external onlyAssociatedContract {\r\n        IntStorage[record] = value;\r\n    }\r\n\r\n    function deleteIntValue(bytes32 record) external onlyAssociatedContract {\r\n        delete IntStorage[record];\r\n    }\r\n}\r\n",
  "sourcePath": "C:\\Users\\MyLaptop\\Desktop\\sabacalavro\\smart-contracts-dapp\\contracts\\storage\\EternalStorage.sol",
  "compiler": {
    "name": "solc",
    "version": "0.8.4+commit.c7e474f2.Emscripten.clang"
  },
  "schemaVersion": "3.4.7",
  "updatedAt": "2022-08-14T08:48:47.520Z",
  "devdoc": {
    "kind": "dev",
    "methods": {},
    "version": 1
  },
  "userdoc": {
    "kind": "user",
    "methods": {},
    "notice": "This contract is based on the code available from this blog https://blog.colony.io/writing-upgradeable-contracts-in-solidity-6743f0eecc88/ Implements support for storing a keccak256 key and value pairs. It is the more flexible and extensible option. This ensures data schema changes can be implemented without requiring upgrades to the storage contract.",
    "version": 1
  }
}