{
  "contractName": "EternalStorage",
  "abi": [
    {
      "inputs": [
        {
          "internalType": "address",
          "name": "_owner",
          "type": "address"
        },
        {
          "internalType": "address",
          "name": "_associatedContract",
          "type": "address"
        }
      ],
      "stateMutability": "nonpayable",
      "type": "constructor"
    },
    {
      "anonymous": false,
      "inputs": [
        {
          "indexed": false,
          "internalType": "address",
          "name": "associatedContract",
          "type": "address"
        }
      ],
      "name": "AssociatedContractUpdated",
      "type": "event"
    },
    {
      "anonymous": false,
      "inputs": [
        {
          "indexed": false,
          "internalType": "address",
          "name": "oldOwner",
          "type": "address"
        },
        {
          "indexed": false,
          "internalType": "address",
          "name": "newOwner",
          "type": "address"
        }
      ],
      "name": "OwnerChanged",
      "type": "event"
    },
    {
      "anonymous": false,
      "inputs": [
        {
          "indexed": false,
          "internalType": "address",
          "name": "newOwner",
          "type": "address"
        }
      ],
      "name": "OwnerNominated",
      "type": "event"
    },
    {
      "inputs": [],
      "name": "acceptOwnership",
      "outputs": [],
      "stateMutability": "nonpayable",
      "type": "function"
    },
    {
      "inputs": [],
      "name": "associatedContract",
      "outputs": [
        {
          "internalType": "address",
          "name": "",
          "type": "address"
        }
      ],
      "stateMutability": "view",
      "type": "function"
    },
    {
      "inputs": [
        {
          "internalType": "address",
          "name": "_owner",
          "type": "address"
        }
      ],
      "name": "nominateNewOwner",
      "outputs": [],
      "stateMutability": "nonpayable",
      "type": "function"
    },
    {
      "inputs": [],
      "name": "nominatedOwner",
      "outputs": [
        {
          "internalType": "address",
          "name": "",
          "type": "address"
        }
      ],
      "stateMutability": "view",
      "type": "function"
    },
    {
      "inputs": [],
      "name": "owner",
      "outputs": [
        {
          "internalType": "address",
          "name": "",
          "type": "address"
        }
      ],
      "stateMutability": "view",
      "type": "function"
    },
    {
      "inputs": [
        {
          "internalType": "address",
          "name": "_associatedContract",
          "type": "address"
        }
      ],
      "name": "setAssociatedContract",
      "outputs": [],
      "stateMutability": "nonpayable",
      "type": "function"
    },
    {
      "inputs": [
        {
          "internalType": "bytes32",
          "name": "record",
          "type": "bytes32"
        }
      ],
      "name": "getUIntValue",
      "outputs": [
        {
          "internalType": "uint256",
          "name": "",
          "type": "uint256"
        }
      ],
      "stateMutability": "view",
      "type": "function"
    },
    {
      "inputs": [
        {
          "internalType": "bytes32",
          "name": "record",
          "type": "bytes32"
        },
        {
          "internalType": "uint256",
          "name": "value",
          "type": "uint256"
        }
      ],
      "name": "setUIntValue",
      "outputs": [],
      "stateMutability": "nonpayable",
      "type": "function"
    },
    {
      "inputs": [
        {
          "internalType": "bytes32",
          "name": "record",
          "type": "bytes32"
        }
      ],
      "name": "deleteUIntValue",
      "outputs": [],
      "stateMutability": "nonpayable",
      "type": "function"
    },
    {
      "inputs": [
        {
          "internalType": "bytes32",
          "name": "record",
          "type": "bytes32"
        }
      ],
      "name": "getUInt16Value",
      "outputs": [
        {
          "internalType": "uint16",
          "name": "",
          "type": "uint16"
        }
      ],
      "stateMutability": "view",
      "type": "function"
    },
    {
      "inputs": [
        {
          "internalType": "bytes32",
          "name": "record",
          "type": "bytes32"
        },
        {
          "internalType": "uint16",
          "name": "value",
          "type": "uint16"
        }
      ],
      "name": "setUInt16Value",
      "outputs": [],
      "stateMutability": "nonpayable",
      "type": "function"
    },
    {
      "inputs": [
        {
          "internalType": "bytes32",
          "name": "record",
          "type": "bytes32"
        }
      ],
      "name": "deleteUInt16Value",
      "outputs": [],
      "stateMutability": "nonpayable",
      "type": "function"
    },
    {
      "inputs": [
        {
          "internalType": "bytes32",
          "name": "record",
          "type": "bytes32"
        }
      ],
      "name": "getStringValue",
      "outputs": [
        {
          "internalType": "string",
          "name": "",
          "type": "string"
        }
      ],
      "stateMutability": "view",
      "type": "function"
    },
    {
      "inputs": [
        {
          "internalType": "bytes32",
          "name": "record",
          "type": "bytes32"
        },
        {
          "internalType": "string",
          "name": "value",
          "type": "string"
        }
      ],
      "name": "setStringValue",
      "outputs": [],
      "stateMutability": "nonpayable",
      "type": "function"
    },
    {
      "inputs": [
        {
          "internalType": "bytes32",
          "name": "record",
          "type": "bytes32"
        }
      ],
      "name": "deleteStringValue",
      "outputs": [],
      "stateMutability": "nonpayable",
      "type": "function"
    },
    {
      "inputs": [
        {
          "internalType": "bytes32",
          "name": "record",
          "type": "bytes32"
        }
      ],
      "name": "getAddressValue",
      "outputs": [
        {
          "internalType": "address",
          "name": "",
          "type": "address"
        }
      ],
      "stateMutability": "view",
      "type": "function"
    },
    {
      "inputs": [
        {
          "internalType": "bytes32",
          "name": "record",
          "type": "bytes32"
        },
        {
          "internalType": "address",
          "name": "value",
          "type": "address"
        }
      ],
      "name": "setAddressValue",
      "outputs": [],
      "stateMutability": "nonpayable",
      "type": "function"
    },
    {
      "inputs": [
        {
          "internalType": "bytes32",
          "name": "record",
          "type": "bytes32"
        }
      ],
      "name": "deleteAddressValue",
      "outputs": [],
      "stateMutability": "nonpayable",
      "type": "function"
    },
    {
      "inputs": [
        {
          "internalType": "bytes32",
          "name": "record",
          "type": "bytes32"
        }
      ],
      "name": "getBytesValue",
      "outputs": [
        {
          "internalType": "bytes",
          "name": "",
          "type": "bytes"
        }
      ],
      "stateMutability": "view",
      "type": "function"
    },
    {
      "inputs": [
        {
          "internalType": "bytes32",
          "name": "record",
          "type": "bytes32"
        },
        {
          "internalType": "bytes",
          "name": "value",
          "type": "bytes"
        }
      ],
      "name": "setBytesValue",
      "outputs": [],
      "stateMutability": "nonpayable",
      "type": "function"
    },
    {
      "inputs": [
        {
          "internalType": "bytes32",
          "name": "record",
          "type": "bytes32"
        }
      ],
      "name": "deleteBytesValue",
      "outputs": [],
      "stateMutability": "nonpayable",
      "type": "function"
    },
    {
      "inputs": [
        {
          "internalType": "bytes32",
          "name": "record",
          "type": "bytes32"
        }
      ],
      "name": "getBytes32Value",
      "outputs": [
        {
          "internalType": "bytes32",
          "name": "",
          "type": "bytes32"
        }
      ],
      "stateMutability": "view",
      "type": "function"
    },
    {
      "inputs": [
        {
          "internalType": "bytes32",
          "name": "record",
          "type": "bytes32"
        },
        {
          "internalType": "bytes32",
          "name": "value",
          "type": "bytes32"
        }
      ],
      "name": "setBytes32Value",
      "outputs": [],
      "stateMutability": "nonpayable",
      "type": "function"
    },
    {
      "inputs": [
        {
          "internalType": "bytes32",
          "name": "record",
          "type": "bytes32"
        }
      ],
      "name": "deleteBytes32Value",
      "outputs": [],
      "stateMutability": "nonpayable",
      "type": "function"
    },
    {
      "inputs": [
        {
          "internalType": "bytes32",
          "name": "record",
          "type": "bytes32"
        }
      ],
      "name": "getBooleanValue",
      "outputs": [
        {
          "internalType": "bool",
          "name": "",
          "type": "bool"
        }
      ],
      "stateMutability": "view",
      "type": "function"
    },
    {
      "inputs": [
        {
          "internalType": "bytes32",
          "name": "record",
          "type": "bytes32"
        },
        {
          "internalType": "bool",
          "name": "value",
          "type": "bool"
        }
      ],
      "name": "setBooleanValue",
      "outputs": [],
      "stateMutability": "nonpayable",
      "type": "function"
    },
    {
      "inputs": [
        {
          "internalType": "bytes32",
          "name": "record",
          "type": "bytes32"
        }
      ],
      "name": "deleteBooleanValue",
      "outputs": [],
      "stateMutability": "nonpayable",
      "type": "function"
    },
    {
      "inputs": [
        {
          "internalType": "bytes32",
          "name": "record",
          "type": "bytes32"
        }
      ],
      "name": "getIntValue",
      "outputs": [
        {
          "internalType": "int256",
          "name": "",
          "type": "int256"
        }
      ],
      "stateMutability": "view",
      "type": "function"
    },
    {
      "inputs": [
        {
          "internalType": "bytes32",
          "name": "record",
          "type": "bytes32"
        },
        {
          "internalType": "int256",
          "name": "value",
          "type": "int256"
        }
      ],
      "name": "setIntValue",
      "outputs": [],
      "stateMutability": "nonpayable",
      "type": "function"
    },
    {
      "inputs": [
        {
          "internalType": "bytes32",
          "name": "record",
          "type": "bytes32"
        }
      ],
      "name": "deleteIntValue",
      "outputs": [],
      "stateMutability": "nonpayable",
      "type": "function"
    }
  ],
  "bytecode": "0x608060405234801561001057600080fd5b5060405161127d38038061127d83398101604081905261002f916101e5565b8082600160a060020a0381166100a6576040517f08c379a000000000000000000000000000000000000000000000000000000000815260206004820152601960248201527f4f776e657220616464726573732063616e6e6f7420626520300000000000000060448201526064015b60405180910390fd5b60008054600160a060020a031916600160a060020a03831690811782556040805192835260208301919091527fb532073b38c83145e3e5135377a08bf9aab55bc0fd7c1179cd4fb995d2a5159c910160405180910390a150600054600160a060020a0316610170576040517f08c379a000000000000000000000000000000000000000000000000000000000815260206004820152601160248201527f4f776e6572206d75737420626520736574000000000000000000000000000000604482015260640161009d565b60028054600160a060020a031916600160a060020a0383169081179091556040519081527f73f20cff579e8a4086fa607db83867595f1b6a798e718c0bfa0b94a404128e039060200160405180910390a1505050610217565b8051600160a060020a03811681146101e057600080fd5b919050565b600080604083850312156101f7578182fd5b610200836101c9565b915061020e602084016101c9565b90509250929050565b611057806102266000396000f3fe608060405234801561001057600080fd5b50600436106101f7576000357c0100000000000000000000000000000000000000000000000000000000900480635a2bf25a11610121578063a77aa49e116100bf578063bdc963d81161008e578063bdc963d81461048d578063c9a52d2c146104ad578063dcc3025c146104c0578063f5866066146104d357600080fd5b8063a77aa49e1461041d578063aefc4ccb14610430578063b4cebb9014610443578063ba69fcaa1461047a57600080fd5b80638da5cb5b116100fb5780638da5cb5b146103c45780639007127b146103d757806393fe4248146103f7578063a209a29c1461040a57600080fd5b80635a2bf25a1461039657806379ba5097146103a95780638267a9ee146103b157600080fd5b80633562fd20116101995780634c77e5ba116101685780634c77e5ba1461031c57806352f445ca1461035d57806353a47bb7146103705780635686f05d1461038357600080fd5b80633562fd20146102c35780633cc1635c146102d65780633eba9ed2146102e957806344bfa56e146102fc57600080fd5b8063124f2418116101d5578063124f2418146102575780631627540c1461026a57806317e7dd221461027d57806325cf512d146102b057600080fd5b8063025ec81a146101fc578063043106c01461022f5780630c55d92514610244575b600080fd5b61021c61020a366004610dd6565b60009081526008602052604090205490565b6040519081526020015b60405180910390f35b61024261023d366004610dd6565b6104e6565b005b610242610252366004610dd6565b610547565b610242610265366004610dd6565b61058e565b610242610278366004610db5565b6105cc565b6102a061028b366004610dd6565b60009081526009602052604090205460ff1690565b6040519015158152602001610226565b6102426102be366004610e4c565b610636565b6102426102d1366004610e4c565b610675565b6102426102e4366004610dd6565b6106b4565b6102426102f7366004610e19565b6106f9565b61030f61030a366004610dd6565b610746565b6040516102269190610f5d565b61034561032a366004610dd6565b600090815260066020526040902054600160a060020a031690565b604051600160a060020a039091168152602001610226565b61024261036b366004610db5565b6107e8565b60015461034590600160a060020a031681565b610242610391366004610ee8565b61084b565b6102426103a4366004610dee565b61089c565b610242610904565b6102426103bf366004610dd6565b610a06565b60005461034590600160a060020a031681565b61021c6103e5366004610dd6565b6000908152600a602052604090205490565b610242610405366004610dd6565b610a44565b61030f610418366004610dd6565b610a82565b61024261042b366004610e4c565b610a9f565b60025461034590600160a060020a031681565b610467610451366004610dd6565b60009081526004602052604090205461ffff1690565b60405161ffff9091168152602001610226565b610242610488366004610dd6565b610ade565b61021c61049b366004610dd6565b60009081526003602052604090205490565b6102426104bb366004610e6d565b610b22565b6102426104ce366004610dd6565b610b6e565b6102426104e1366004610eb7565b610bb4565b600254600160a060020a0316331461051c5760405160e560020a62461bcd02815260040161051390610f70565b60405180910390fd5b6000908152600660205260409020805473ffffffffffffffffffffffffffffffffffffffff19169055565b600254600160a060020a031633146105745760405160e560020a62461bcd02815260040161051390610f70565b600081815260076020526040812061058b91610c7f565b50565b600254600160a060020a031633146105bb5760405160e560020a62461bcd02815260040161051390610f70565b600090815260086020526040812055565b6105d4610bfa565b6001805473ffffffffffffffffffffffffffffffffffffffff1916600160a060020a0383169081179091556040519081527f906a1c6bd7e3091ea86693dd029a831c19049ce77f1dce2ce0bab1cacbabce22906020015b60405180910390a150565b600254600160a060020a031633146106635760405160e560020a62461bcd02815260040161051390610f70565b60009182526008602052604090912055565b600254600160a060020a031633146106a25760405160e560020a62461bcd02815260040161051390610f70565b60009182526003602052604090912055565b600254600160a060020a031633146106e15760405160e560020a62461bcd02815260040161051390610f70565b6000908152600960205260409020805460ff19169055565b600254600160a060020a031633146107265760405160e560020a62461bcd02815260040161051390610f70565b600091825260096020526040909120805460ff1916911515919091179055565b600081815260076020526040902080546060919061076390610fcd565b80601f016020809104026020016040519081016040528092919081815260200182805461078f90610fcd565b80156107dc5780601f106107b1576101008083540402835291602001916107dc565b820191906000526020600020905b8154815290600101906020018083116107bf57829003601f168201915b50505050509050919050565b6107f0610bfa565b6002805473ffffffffffffffffffffffffffffffffffffffff1916600160a060020a0383169081179091556040519081527f73f20cff579e8a4086fa607db83867595f1b6a798e718c0bfa0b94a404128e039060200161062b565b600254600160a060020a031633146108785760405160e560020a62461bcd02815260040161051390610f70565b600091825260046020526040909120805461ffff191661ffff909216919091179055565b600254600160a060020a031633146108c95760405160e560020a62461bcd02815260040161051390610f70565b600091825260066020526040909120805473ffffffffffffffffffffffffffffffffffffffff1916600160a060020a03909216919091179055565b600154600160a060020a031633146109875760405160e560020a62461bcd02815260206004820152603560248201527f596f75206d757374206265206e6f6d696e61746564206265666f726520796f7560448201527f2063616e20616363657074206f776e65727368697000000000000000000000006064820152608401610513565b60005460015460408051600160a060020a0393841681529290911660208301527fb532073b38c83145e3e5135377a08bf9aab55bc0fd7c1179cd4fb995d2a5159c910160405180910390a1600180546000805473ffffffffffffffffffffffffffffffffffffffff19908116600160a060020a03841617909155169055565b600254600160a060020a03163314610a335760405160e560020a62461bcd02815260040161051390610f70565b6000908152600a6020526040812055565b600254600160a060020a03163314610a715760405160e560020a62461bcd02815260040161051390610f70565b600090815260036020526040812055565b600081815260056020526040902080546060919061076390610fcd565b600254600160a060020a03163314610acc5760405160e560020a62461bcd02815260040161051390610f70565b6000918252600a602052604090912055565b600254600160a060020a03163314610b0b5760405160e560020a62461bcd02815260040161051390610f70565b600081815260056020526040812061058b91610c7f565b600254600160a060020a03163314610b4f5760405160e560020a62461bcd02815260040161051390610f70565b6000838152600760205260409020610b68908383610cb9565b50505050565b600254600160a060020a03163314610b9b5760405160e560020a62461bcd02815260040161051390610f70565b6000908152600460205260409020805461ffff19169055565b600254600160a060020a03163314610be15760405160e560020a62461bcd02815260040161051390610f70565b6000838152600560205260409020610b68908383610cb9565b600054600160a060020a03163314610c7d5760405160e560020a62461bcd02815260206004820152602f60248201527f4f6e6c792074686520636f6e7472616374206f776e6572206d6179207065726660448201527f6f726d207468697320616374696f6e00000000000000000000000000000000006064820152608401610513565b565b508054610c8b90610fcd565b6000825580601f10610c9b575050565b601f01602090049060005260206000209081019061058b9190610d3d565b828054610cc590610fcd565b90600052602060002090601f016020900481019282610ce75760008555610d2d565b82601f10610d005782800160ff19823516178555610d2d565b82800160010185558215610d2d579182015b82811115610d2d578235825591602001919060010190610d12565b50610d39929150610d3d565b5090565b5b80821115610d395760008155600101610d3e565b8035600160a060020a0381168114610d6957600080fd5b919050565b60008083601f840112610d7f578182fd5b50813567ffffffffffffffff811115610d96578182fd5b602083019150836020828501011115610dae57600080fd5b9250929050565b600060208284031215610dc6578081fd5b610dcf82610d52565b9392505050565b600060208284031215610de7578081fd5b5035919050565b60008060408385031215610e00578081fd5b82359150610e1060208401610d52565b90509250929050565b60008060408385031215610e2b578182fd5b8235915060208301358015158114610e41578182fd5b809150509250929050565b60008060408385031215610e5e578182fd5b50508035926020909101359150565b600080600060408486031215610e81578081fd5b83359250602084013567ffffffffffffffff811115610e9e578182fd5b610eaa86828701610d6e565b9497909650939450505050565b600080600060408486031215610ecb578283fd5b83359250602084013567ffffffffffffffff811115610e9e578283fd5b60008060408385031215610efa578182fd5b82359150602083013561ffff81168114610e41578182fd5b60008151808452815b81811015610f3757602081850181015186830182015201610f1b565b81811115610f485782602083870101525b50601f01601f19169290920160200192915050565b602081526000610dcf6020830184610f12565b60208082526034908201527f4f6e6c7920746865206173736f63696174656420636f6e74726163742063616e60408201527f20706572666f726d207468697320616374696f6e000000000000000000000000606082015260800190565b600281046001821680610fe157607f821691505b6020821081141561101b577f4e487b7100000000000000000000000000000000000000000000000000000000600052602260045260246000fd5b5091905056fea2646970667358221220160d550200bbcb2ebdcaf70d8fbda32d33c78bcc63e394c7b05ff205dab8381e64736f6c63430008040033",
  "immutableReferences": {},
  "source": "// SPDX-License-Identifier: MIT\r\npragma solidity ^0.8.0;\r\n\r\n// Inheritance\r\nimport \"./Owned.sol\";\r\nimport \"./State.sol\";\r\n\r\n// https://docs.synthetix.io/contracts/source/contracts/eternalstorage\r\n/**\r\n * @notice  This contract is based on the code available from this blog\r\n * https://blog.colony.io/writing-upgradeable-contracts-in-solidity-6743f0eecc88/\r\n * Implements support for storing a keccak256 key and value pairs. It is the more flexible\r\n * and extensible option. This ensures data schema changes can be implemented without\r\n * requiring upgrades to the storage contract.\r\n */\r\ncontract EternalStorage is Owned, State {\r\n\r\n    constructor(address _owner, address _associatedContract) Owned(_owner) State(_associatedContract) {}\r\n\r\n    /* ========== DATA TYPES ========== */\r\n    mapping(bytes32 => uint) internal UIntStorage;\r\n\r\n    mapping(bytes32 => uint16) internal UInt16Storage;\r\n    mapping(bytes32 => string) internal StringStorage;\r\n    mapping(bytes32 => address) internal AddressStorage;\r\n    mapping(bytes32 => bytes) internal BytesStorage;\r\n    mapping(bytes32 => bytes32) internal Bytes32Storage;\r\n    mapping(bytes32 => bool) internal BooleanStorage;\r\n    mapping(bytes32 => int) internal IntStorage;\r\n\r\n\r\n    function getUIntValue(bytes32 record) external view returns (uint) {\r\n        return UIntStorage[record];\r\n    }\r\n\r\n    function setUIntValue(bytes32 record, uint value) external onlyAssociatedContract {\r\n        UIntStorage[record] = value;\r\n    }\r\n\r\n    function deleteUIntValue(bytes32 record) external onlyAssociatedContract {\r\n        delete UIntStorage[record];\r\n    }\r\n\r\n    function getUInt16Value(bytes32 record) external view returns (uint16) {\r\n        return UInt16Storage[record];\r\n    }\r\n\r\n    function setUInt16Value(bytes32 record, uint16 value) external onlyAssociatedContract {\r\n        UInt16Storage[record] = value;\r\n    }\r\n\r\n    function deleteUInt16Value(bytes32 record) external onlyAssociatedContract {\r\n        delete UInt16Storage[record];\r\n    }\r\n\r\n    function getStringValue(bytes32 record) external view returns (string memory) {\r\n        return StringStorage[record];\r\n    }\r\n\r\n    function setStringValue(bytes32 record, string calldata value) external onlyAssociatedContract {\r\n        StringStorage[record] = value;\r\n    }\r\n\r\n    function deleteStringValue(bytes32 record) external onlyAssociatedContract {\r\n        delete StringStorage[record];\r\n    }\r\n\r\n    function getAddressValue(bytes32 record) external view returns (address) {\r\n        return AddressStorage[record];\r\n    }\r\n\r\n    function setAddressValue(bytes32 record, address value) external onlyAssociatedContract {\r\n        AddressStorage[record] = value;\r\n    }\r\n\r\n    function deleteAddressValue(bytes32 record) external onlyAssociatedContract {\r\n        delete AddressStorage[record];\r\n    }\r\n\r\n    function getBytesValue(bytes32 record) external view returns (bytes memory) {\r\n        return BytesStorage[record];\r\n    }\r\n\r\n    function setBytesValue(bytes32 record, bytes calldata value) external onlyAssociatedContract {\r\n        BytesStorage[record] = value;\r\n    }\r\n\r\n    function deleteBytesValue(bytes32 record) external onlyAssociatedContract {\r\n        delete BytesStorage[record];\r\n    }\r\n\r\n    function getBytes32Value(bytes32 record) external view returns (bytes32) {\r\n        return Bytes32Storage[record];\r\n    }\r\n\r\n    function setBytes32Value(bytes32 record, bytes32 value) external onlyAssociatedContract {\r\n        Bytes32Storage[record] = value;\r\n    }\r\n\r\n    function deleteBytes32Value(bytes32 record) external onlyAssociatedContract {\r\n        delete Bytes32Storage[record];\r\n    }\r\n\r\n    function getBooleanValue(bytes32 record) external view returns (bool) {\r\n        return BooleanStorage[record];\r\n    }\r\n\r\n    function setBooleanValue(bytes32 record, bool value) external onlyAssociatedContract {\r\n        BooleanStorage[record] = value;\r\n    }\r\n\r\n    function deleteBooleanValue(bytes32 record) external onlyAssociatedContract {\r\n        delete BooleanStorage[record];\r\n    }\r\n\r\n    function getIntValue(bytes32 record) external view returns (int) {\r\n        return IntStorage[record];\r\n    }\r\n\r\n    function setIntValue(bytes32 record, int value) external onlyAssociatedContract {\r\n        IntStorage[record] = value;\r\n    }\r\n\r\n    function deleteIntValue(bytes32 record) external onlyAssociatedContract {\r\n        delete IntStorage[record];\r\n    }\r\n}\r\n",
  "sourcePath": "D:\\sabakalavro\\smart-contracts-dapp\\contracts\\storage\\EternalStorage.sol",
  "compiler": {
    "name": "solc",
    "version": "0.8.4+commit.c7e474f2.Emscripten.clang"
  },
  "schemaVersion": "3.4.7",
  "updatedAt": "2022-05-29T16:12:01.307Z",
  "devdoc": {
    "kind": "dev",
    "methods": {},
    "version": 1
  },
  "userdoc": {
    "kind": "user",
    "methods": {},
    "notice": "This contract is based on the code available from this blog https://blog.colony.io/writing-upgradeable-contracts-in-solidity-6743f0eecc88/ Implements support for storing a keccak256 key and value pairs. It is the more flexible and extensible option. This ensures data schema changes can be implemented without requiring upgrades to the storage contract.",
    "version": 1
  }
}