{
  "contractName": "NFTLibrary",
  "abi": [
    {
      "inputs": [
        {
          "internalType": "address",
          "name": "_storageContract",
          "type": "address"
        },
        {
          "internalType": "uint256",
          "name": "_tokenId",
          "type": "uint256"
        },
        {
          "internalType": "address",
          "name": "renter",
          "type": "address"
        },
        {
          "internalType": "address",
          "name": "currentPeer",
          "type": "address"
        }
      ],
      "name": "hasPaid",
      "outputs": [
        {
          "internalType": "bool",
          "name": "",
          "type": "bool"
        }
      ],
      "stateMutability": "view",
      "type": "function"
    },
    {
      "inputs": [
        {
          "internalType": "address",
          "name": "_storageContract",
          "type": "address"
        },
        {
          "internalType": "uint256",
          "name": "_tokenId",
          "type": "uint256"
        }
      ],
      "name": "mediaRentStatus",
      "outputs": [
        {
          "internalType": "bool",
          "name": "",
          "type": "bool"
        }
      ],
      "stateMutability": "view",
      "type": "function"
    },
    {
      "inputs": [
        {
          "internalType": "address",
          "name": "_storageContract",
          "type": "address"
        },
        {
          "internalType": "uint256",
          "name": "_tokenId",
          "type": "uint256"
        },
        {
          "internalType": "address",
          "name": "renter",
          "type": "address"
        }
      ],
      "name": "getRentRequestMerkleTree",
      "outputs": [
        {
          "internalType": "bytes32",
          "name": "",
          "type": "bytes32"
        }
      ],
      "stateMutability": "view",
      "type": "function"
    },
    {
      "inputs": [
        {
          "internalType": "address",
          "name": "_storageContract",
          "type": "address"
        },
        {
          "internalType": "uint256",
          "name": "_tokenId",
          "type": "uint256"
        }
      ],
      "name": "getMediaInfo",
      "outputs": [
        {
          "internalType": "bytes32",
          "name": "",
          "type": "bytes32"
        },
        {
          "internalType": "bytes32",
          "name": "",
          "type": "bytes32"
        },
        {
          "internalType": "uint256",
          "name": "",
          "type": "uint256"
        },
        {
          "internalType": "uint256",
          "name": "",
          "type": "uint256"
        },
        {
          "internalType": "uint256",
          "name": "",
          "type": "uint256"
        }
      ],
      "stateMutability": "view",
      "type": "function"
    },
    {
      "inputs": [
        {
          "internalType": "address",
          "name": "_storageContract",
          "type": "address"
        },
        {
          "internalType": "uint256",
          "name": "_tokenId",
          "type": "uint256"
        }
      ],
      "name": "getMediaPrice",
      "outputs": [
        {
          "internalType": "uint256",
          "name": "",
          "type": "uint256"
        }
      ],
      "stateMutability": "view",
      "type": "function"
    },
    {
      "inputs": [
        {
          "internalType": "address",
          "name": "_storageContract",
          "type": "address"
        },
        {
          "internalType": "uint256",
          "name": "_tokenId",
          "type": "uint256"
        }
      ],
      "name": "getMediaRentPrice",
      "outputs": [
        {
          "internalType": "uint256",
          "name": "",
          "type": "uint256"
        }
      ],
      "stateMutability": "view",
      "type": "function"
    },
    {
      "inputs": [
        {
          "internalType": "address",
          "name": "_storageContract",
          "type": "address"
        },
        {
          "internalType": "uint256",
          "name": "_tokenId",
          "type": "uint256"
        },
        {
          "internalType": "address",
          "name": "renter",
          "type": "address"
        }
      ],
      "name": "getPaidRentCumulativeValue",
      "outputs": [
        {
          "internalType": "uint256",
          "name": "",
          "type": "uint256"
        }
      ],
      "stateMutability": "view",
      "type": "function"
    }
  ],
  "bytecode": "0x611d4d610053600b82828239805160001a607314610046577f4e487b7100000000000000000000000000000000000000000000000000000000600052600060045260246000fd5b30600052607381538281f3fe73000000000000000000000000000000000000000030146080604052600436106100dd5760003560e060020a90048063ad0c77381161009a578063cf15109c11610074578063cf15109c14610201578063e77ed5b614610214578063f11bca5814610234578063fcb997591461025457600080fd5b8063ad0c7738146101a0578063b1c50e4e146101b3578063c9581337146101c657600080fd5b806329feddb2146100e25780633727bf781461010457806349fc540b146101245780636c42b1dd1461014a57806386daae0e1461015d5780638ab49a601461017d575b600080fd5b8180156100ee57600080fd5b506101026100fd36600461192a565b610274565b005b81801561011057600080fd5b5061010261011f366004611751565b6105ba565b610137610132366004611751565b61088f565b6040519081526020015b60405180910390f35b610137610158366004611751565b61093b565b81801561016957600080fd5b5061010261017836600461183e565b61095f565b61019061018b366004611726565b610d0e565b6040519015158152602001610141565b6101376101ae366004611726565b610ddc565b6101376101c1366004611726565b610e7e565b6101d96101d4366004611726565b610eca565b604080519586526020860194909452928401919091526060830152608082015260a001610141565b61019061020f366004611792565b61129d565b81801561022057600080fd5b5061010261022f3660046117e4565b61134c565b81801561024057600080fd5b5061010261024f366004611726565b61151f565b81801561026057600080fd5b5061019061026f366004611751565b6115d0565b6040517f6d656469615f7469746c650000000000000000000000000000000000000000006020820152602b8101879052600160a060020a038816906325cf512d90604b0160408051601f1981840301815290829052805160209091012060e060020a63ffffffff8416028252600482015260248101889052604401600060405180830381600087803b15801561030957600080fd5b505af115801561031d573d6000803e3d6000fd5b50506040517f6d656469615f6465736372697074696f6e000000000000000000000000000000602082015260318101899052600160a060020a038a1692506325cf512d915060510160408051601f1981840301815290829052805160209091012060e060020a63ffffffff8416028252600482015260248101879052604401600060405180830381600087803b1580156103b657600080fd5b505af11580156103ca573d6000803e3d6000fd5b50506040517f6d656469615f70726963650000000000000000000000000000000000000000006020820152602b8101899052600160a060020a038a169250633562fd209150604b0160408051601f1981840301815290829052805160209091012060e060020a63ffffffff8416028252600482015260248101869052604401600060405180830381600087803b15801561046357600080fd5b505af1158015610477573d6000803e3d6000fd5b5050505086600160a060020a0316633562fd208760405160200161049b9190611aeb565b60408051601f1981840301815290829052805160209091012060e060020a63ffffffff8416028252600482015260248101859052604401600060405180830381600087803b1580156104ec57600080fd5b505af1158015610500573d6000803e3d6000fd5b50506040517f6d656469615f72656e745f6475726174696f6e00000000000000000000000000602082015260338101899052600160a060020a038a169250633562fd20915060530160408051601f1981840301815290829052805160209091012060e060020a63ffffffff8416028252600482015260248101849052604401600060405180830381600087803b15801561059957600080fd5b505af11580156105ad573d6000803e3d6000fd5b5050505050505050505050565b6040517f6d656469615f72656e745f737461747573000000000000000000000000000000602082015260318101839052600160a060020a03841690633eba9ed29060510160408051601f1981840301815290829052805160209091012060e060020a63ffffffff8416028252600482015260006024820152604401600060405180830381600087803b15801561064f57600080fd5b505af1158015610663573d6000803e3d6000fd5b5050505082600160a060020a0316633562fd208284604051602001610689929190611a9d565b60408051601f1981840301815290829052805160209091012060e060020a63ffffffff8416028252600482015260006024820152604401600060405180830381600087803b1580156106da57600080fd5b505af11580156106ee573d6000803e3d6000fd5b50505050600083600160a060020a031663726d9dea8385604051602001610716929190611a4f565b60408051601f1981840301815290829052805160209091012060e060020a63ffffffff8416028252600482015260240160006040518083038186803b15801561075e57600080fd5b505afa158015610772573d6000803e3d6000fd5b505050506040513d6000823e601f3d908101601f1916820160405261079a919081019061197e565b905060005b81518110156108885784600160a060020a0316633eba9ed284868585815181106107f2577f4e487b7100000000000000000000000000000000000000000000000000000000600052603260045260246000fd5b602002602001015160405160200161080c93929190611b6a565b60408051601f1981840301815290829052805160209091012060e060020a63ffffffff8416028252600482015260006024820152604401600060405180830381600087803b15801561085d57600080fd5b505af1158015610871573d6000803e3d6000fd5b50505050808061088090611c86565b91505061079f565b5050505050565b600083600160a060020a031663025ec81a84846040516020016108b3929190611b1c565b60408051601f1981840301815290829052805160209091012060e060020a63ffffffff8416028252600482015260240160206040518083038186803b1580156108fb57600080fd5b505afa15801561090f573d6000803e3d6000fd5b505050506040513d601f19601f820116820180604052508101906109339190611a37565b949350505050565b600083600160a060020a031663bdc963d883856040516020016108b3929190611a9d565b86600160a060020a03166325cf512d8787604051602001610981929190611b1c565b60408051601f1981840301815290829052805160209091012060e060020a63ffffffff8416028252600482015260248101879052604401600060405180830381600087803b1580156109d257600080fd5b505af11580156109e6573d6000803e3d6000fd5b50506040517f72656e745f726571756573742c206e756d5f6f665f636f5f6f776e65727300006020820152600160a060020a038881166c0100000000000000000000000002603e830152605282018a90528a169250633562fd20915060720160408051601f1981840301815290829052805160209091012060e060020a63ffffffff8416028252600482015260248101869052604401600060405180830381600087803b158015610a9657600080fd5b505af1158015610aaa573d6000803e3d6000fd5b5050505086600160a060020a031663deb48f7f8688604051602001610ad0929190611a4f565b60405160208183030381529060405280519060200120846040518363ffffffff1660e060020a028152600401610b07929190611bc3565b600060405180830381600087803b158015610b2157600080fd5b505af1158015610b35573d6000803e3d6000fd5b50505050600087600160a060020a031663bdc963d88789604051602001610b5d929190611a9d565b60408051601f1981840301815290829052805160209091012060e060020a63ffffffff8416028252600482015260240160206040518083038186803b158015610ba557600080fd5b505afa158015610bb9573d6000803e3d6000fd5b505050506040513d601f19601f82011682018060405250810190610bdd9190611a37565b905087600160a060020a0316633562fd208789604051602001610c01929190611a9d565b604051602081830303815290604052805190602001208385610c239190611c6e565b60405160e060020a63ffffffff851602815260048101929092526024820152604401600060405180830381600087803b158015610c5f57600080fd5b505af1158015610c73573d6000803e3d6000fd5b5050505087600160a060020a0316633eba9ed2878989604051602001610c9b93929190611b6a565b60408051601f1981840301815290829052805160209091012060e060020a63ffffffff8416028252600482015260016024820152604401600060405180830381600087803b158015610cec57600080fd5b505af1158015610d00573d6000803e3d6000fd5b505050505050505050505050565b6040517f6d656469615f72656e745f737461747573000000000000000000000000000000602082015260318101829052600090600160a060020a038416906317e7dd229060510160408051601f1981840301815290829052805160209091012060e060020a63ffffffff8416028252600482015260240160206040518083038186803b158015610d9d57600080fd5b505afa158015610db1573d6000803e3d6000fd5b505050506040513d601f19601f82011682018060405250810190610dd59190611a17565b9392505050565b600082600160a060020a031663bdc963d883604051602001610dfe9190611aeb565b60408051601f1981840301815290829052805160209091012060e060020a63ffffffff8416028252600482015260240160206040518083038186803b158015610e4657600080fd5b505afa158015610e5a573d6000803e3d6000fd5b505050506040513d601f19601f82011682018060405250810190610dd59190611a37565b6040517f6d656469615f70726963650000000000000000000000000000000000000000006020820152602b8101829052600090600160a060020a0384169063bdc963d890604b01610dfe565b600080600080600086600160a060020a031663025ec81a87604051602001610f1e91907f6d656469615f7469746c650000000000000000000000000000000000000000008152600b810191909152602b0190565b60408051601f1981840301815290829052805160209091012060e060020a63ffffffff8416028252600482015260240160206040518083038186803b158015610f6657600080fd5b505afa158015610f7a573d6000803e3d6000fd5b505050506040513d601f19601f82011682018060405250810190610f9e9190611a37565b6040517f6d656469615f6465736372697074696f6e000000000000000000000000000000602082015260318101889052600160a060020a0389169063025ec81a9060510160408051601f1981840301815290829052805160209091012060e060020a63ffffffff8416028252600482015260240160206040518083038186803b15801561102a57600080fd5b505afa15801561103e573d6000803e3d6000fd5b505050506040513d601f19601f820116820180604052508101906110629190611a37565b6040517f6d656469615f70726963650000000000000000000000000000000000000000006020820152602b8101899052600160a060020a038a169063bdc963d890604b0160408051601f1981840301815290829052805160209091012060e060020a63ffffffff8416028252600482015260240160206040518083038186803b1580156110ee57600080fd5b505afa158015611102573d6000803e3d6000fd5b505050506040513d601f19601f820116820180604052508101906111269190611a37565b89600160a060020a031663bdc963d88a6040516020016111469190611aeb565b60408051601f1981840301815290829052805160209091012060e060020a63ffffffff8416028252600482015260240160206040518083038186803b15801561118e57600080fd5b505afa1580156111a2573d6000803e3d6000fd5b505050506040513d601f19601f820116820180604052508101906111c69190611a37565b6040517f6d656469615f72656e745f6475726174696f6e000000000000000000000000006020820152603381018b9052600160a060020a038c169063bdc963d89060530160408051601f1981840301815290829052805160209091012060e060020a63ffffffff8416028252600482015260240160206040518083038186803b15801561125257600080fd5b505afa158015611266573d6000803e3d6000fd5b505050506040513d601f19601f8201168201806040525081019061128a9190611a37565b939b929a50909850965090945092505050565b600084600160a060020a03166317e7dd228486856040516020016112c393929190611b6a565b60408051601f1981840301815290829052805160209091012060e060020a63ffffffff8416028252600482015260240160206040518083038186803b15801561130b57600080fd5b505afa15801561131f573d6000803e3d6000fd5b505050506040513d601f19601f820116820180604052508101906113439190611a17565b95945050505050565b600085600160a060020a031663bdc963d88587604051602001611370929190611a9d565b60408051601f1981840301815290829052805160209091012060e060020a63ffffffff8416028252600482015260240160206040518083038186803b1580156113b857600080fd5b505afa1580156113cc573d6000803e3d6000fd5b505050506040513d601f19601f820116820180604052508101906113f09190611a37565b905085600160a060020a0316633562fd208587604051602001611414929190611a9d565b6040516020818303038152906040528051906020012084846114369190611c6e565b60405160e060020a63ffffffff851602815260048101929092526024820152604401600060405180830381600087803b15801561147257600080fd5b505af1158015611486573d6000803e3d6000fd5b5050505085600160a060020a0316633eba9ed28587866040516020016114ae93929190611b6a565b60408051601f1981840301815290829052805160209091012060e060020a63ffffffff8416028252600482015260016024820152604401600060405180830381600087803b1580156114ff57600080fd5b505af1158015611513573d6000803e3d6000fd5b50505050505050505050565b6040517f6d656469615f72656e745f737461747573000000000000000000000000000000602082015260318101829052600160a060020a03831690633eba9ed29060510160408051601f1981840301815290829052805160209091012060e060020a63ffffffff8416028252600482015260016024820152604401600060405180830381600087803b1580156115b457600080fd5b505af11580156115c8573d6000803e3d6000fd5b505050505050565b60008084600160a060020a031663bdc963d884866040516020016115f5929190611a9d565b60408051601f1981840301815290829052805160209091012060e060020a63ffffffff8416028252600482015260240160206040518083038186803b15801561163d57600080fd5b505afa158015611651573d6000803e3d6000fd5b505050506040513d601f19601f820116820180604052508101906116759190611a37565b9050600085600160a060020a031663bdc963d8866040516020016116999190611aeb565b60408051601f1981840301815290829052805160209091012060e060020a63ffffffff8416028252600482015260240160206040518083038186803b1580156116e157600080fd5b505afa1580156116f5573d6000803e3d6000fd5b505050506040513d601f19601f820116820180604052508101906117199190611a37565b9091101595945050505050565b60008060408385031215611738578182fd5b823561174381611cff565b946020939093013593505050565b600080600060608486031215611765578081fd5b833561177081611cff565b925060208401359150604084013561178781611cff565b809150509250925092565b600080600080608085870312156117a7578081fd5b84356117b281611cff565b93506020850135925060408501356117c981611cff565b915060608501356117d981611cff565b939692955090935050565b600080600080600060a086880312156117fb578081fd5b853561180681611cff565b945060208601359350604086013561181d81611cff565b9250606086013561182d81611cff565b949793965091946080013592915050565b600080600080600080600060e0888a031215611858578182fd5b873561186381611cff565b96506020888101359650604089013561187b81611cff565b9550606089013594506080890135935060a089013567ffffffffffffffff8111156118a4578384fd5b8901601f81018b136118b4578384fd5b80356118c76118c282611c4a565b611c19565b81815283810190838501858402850186018f10156118e3578788fd5b8794505b8385101561190e5780356118fa81611cff565b8352600194909401939185019185016118e7565b50809650505050505060c0880135905092959891949750929550565b600080600080600080600060e0888a031215611944578283fd5b873561194f81611cff565b9960208901359950604089013598606081013598506080810135975060a0810135965060c00135945092505050565b60006020808385031215611990578182fd5b825167ffffffffffffffff8111156119a6578283fd5b8301601f810185136119b6578283fd5b80516119c46118c282611c4a565b81815283810190838501858402850186018910156119e0578687fd5b8694505b83851015611a0b5780516119f781611cff565b8352600194909401939185019185016119e4565b50979650505050505050565b600060208284031215611a28578081fd5b81518015158114610dd5578182fd5b600060208284031215611a48578081fd5b5051919050565b7f72656e745f726571756573742c20636f4f776e6572735f6c69737400000000008152600160a060020a03929092166c0100000000000000000000000002601b830152602f820152604f0190565b7f72656e745f7061696400000000000000000000000000000000000000000000008152600160a060020a03929092166c01000000000000000000000000026009830152601d820152603d0190565b7f6d656469615f72656e745f7072696365000000000000000000000000000000008152601081019190915260300190565b7f72656e745f7265717565737400000000000000000000000000000000000000008152600c810192909252600160a060020a03166c0100000000000000000000000002602c82015260400190565b7f72656e745f706169645f62795f7065657200000000000000000000000000000081526c01000000000000000000000000600160a060020a03948516810260118301526025820193909352921602604582015260590190565b60006040820184835260206040818501528185518084526060860191508287019350845b81811015611c0c578451600160a060020a031683529383019391830191600101611be7565b5090979650505050505050565b604051601f8201601f1916810167ffffffffffffffff81118282101715611c4257611c42611cd0565b604052919050565b600067ffffffffffffffff821115611c6457611c64611cd0565b5060209081020190565b60008219821115611c8157611c81611ca1565b500190565b6000600019821415611c9a57611c9a611ca1565b5060010190565b7f4e487b7100000000000000000000000000000000000000000000000000000000600052601160045260246000fd5b7f4e487b7100000000000000000000000000000000000000000000000000000000600052604160045260246000fd5b600160a060020a0381168114611d1457600080fd5b5056fea2646970667358221220d07c158370fbb810a1b52c65d31abc170b1af0aa5cce7466f6d9b0d8ee76acf364736f6c63430008040033",
  "immutableReferences": {},
  "source": "pragma solidity ^0.8.0;\r\n\r\nimport \"@openzeppelin/contracts/utils/math/Math.sol\";\r\nimport \"@openzeppelin/contracts/utils/math/SafeMath.sol\";\r\n\r\nimport \"./storage/EternalStorage.sol\";\r\n\r\nlibrary NFTLibrary {\r\n\r\n    using SafeMath for uint256;\r\n\r\n    function saveMediaInfo(address _storageContract, uint256 _tokenId, bytes32 _title, bytes32 _description, uint256 _price, uint256 rentPrice, uint256 rentDuration) public\r\n    {\r\n        EternalStorage(_storageContract).setBytes32Value(keccak256(abi.encodePacked(\"media_title\", _tokenId)), _title);\r\n        EternalStorage(_storageContract).setBytes32Value(keccak256(abi.encodePacked(\"media_description\", _tokenId)), _description);\r\n        EternalStorage(_storageContract).setUIntValue(keccak256(abi.encodePacked(\"media_price\", _tokenId)), _price);\r\n        EternalStorage(_storageContract).setUIntValue(keccak256(abi.encodePacked(\"media_rent_price\", _tokenId)), rentPrice);\r\n        EternalStorage(_storageContract).setUIntValue(keccak256(abi.encodePacked(\"media_rent_duration\", _tokenId)), rentDuration);\r\n    }\r\n\r\n    function handleRentRequest(address _storageContract, uint256 _tokenId, address renter, bytes32 coOwners, uint256 numOfCoOwners, address[] memory coOwnersList, uint256 amount) public {\r\n        EternalStorage(_storageContract).setBytes32Value(keccak256(abi.encodePacked(\"rent_request\", _tokenId, renter)), coOwners);\r\n        EternalStorage(_storageContract).setUIntValue(keccak256(abi.encodePacked(\"rent_request, num_of_co_owners\", renter, _tokenId)), numOfCoOwners);\r\n        EternalStorage(_storageContract).setAddressListValue(keccak256(abi.encodePacked(\"rent_request, coOwners_list\", renter, _tokenId)), coOwnersList);\r\n        uint256 paid = EternalStorage(_storageContract).getUIntValue(keccak256(abi.encodePacked(\"rent_paid\", renter, _tokenId)));\r\n        EternalStorage(_storageContract).setUIntValue(keccak256(abi.encodePacked(\"rent_paid\", renter, _tokenId)), amount + paid);\r\n        EternalStorage(_storageContract).setBooleanValue(keccak256(abi.encodePacked(\"rent_paid_by_peer\", renter, _tokenId, renter)), true);\r\n    }\r\n\r\n    function savePaidInfo(address _storageContract, uint256 _tokenId, address renter, address currentPeer, uint256 amount) public {\r\n        uint256 paid = EternalStorage(_storageContract).getUIntValue(keccak256(abi.encodePacked(\"rent_paid\", renter, _tokenId)));\r\n        EternalStorage(_storageContract).setUIntValue(keccak256(abi.encodePacked(\"rent_paid\", renter, _tokenId)), paid + amount);\r\n        EternalStorage(_storageContract).setBooleanValue(keccak256(abi.encodePacked(\"rent_paid_by_peer\", renter, _tokenId, currentPeer)), true);\r\n    }\r\n\r\n    function hasPaid(address _storageContract, uint256 _tokenId, address renter, address currentPeer) public view returns (bool){\r\n        return EternalStorage(_storageContract).getBooleanValue(keccak256(abi.encodePacked(\"rent_paid_by_peer\", renter, _tokenId, currentPeer)));\r\n    }\r\n\r\n    function hasEveryOnePaid(address _storageContract, uint256 _tokenId, address renter) public returns (bool){\r\n        uint256 totalPaid = EternalStorage(_storageContract).getUIntValue(keccak256(abi.encodePacked(\"rent_paid\", renter, _tokenId)));\r\n        uint256 rentPrice = EternalStorage(_storageContract).getUIntValue(keccak256(abi.encodePacked(\"media_rent_price\", _tokenId)));\r\n        return totalPaid >= rentPrice;\r\n    }\r\n\r\n    function mediaRentStatus(address _storageContract, uint256 _tokenId) public view returns (bool)\r\n    {\r\n        return EternalStorage(_storageContract).getBooleanValue(keccak256(abi.encodePacked(\"media_rent_status\", _tokenId)));\r\n    }\r\n\r\n    function updateRentStatus(address _storageContract, uint256 _tokenId) public\r\n    {\r\n        EternalStorage(_storageContract).setBooleanValue(keccak256(abi.encodePacked(\"media_rent_status\", _tokenId)), true);\r\n    }\r\n\r\n    function getRentRequestMerkleTree(address _storageContract, uint256 _tokenId, address renter) public view returns (bytes32)\r\n    {\r\n        return EternalStorage(_storageContract).getBytes32Value(keccak256(abi.encodePacked(\"rent_request\", _tokenId, renter)));\r\n    }\r\n\r\n    function getMediaInfo(address _storageContract, uint256 _tokenId) public view returns (bytes32, bytes32, uint256, uint256, uint256)\r\n    {\r\n        return\r\n        (\r\n        EternalStorage(_storageContract).getBytes32Value(keccak256(abi.encodePacked(\"media_title\", _tokenId))),\r\n        EternalStorage(_storageContract).getBytes32Value(keccak256(abi.encodePacked(\"media_description\", _tokenId))),\r\n        EternalStorage(_storageContract).getUIntValue(keccak256(abi.encodePacked(\"media_price\", _tokenId))),\r\n        EternalStorage(_storageContract).getUIntValue(keccak256(abi.encodePacked(\"media_rent_price\", _tokenId))),\r\n        EternalStorage(_storageContract).getUIntValue(keccak256(abi.encodePacked(\"media_rent_duration\", _tokenId)))\r\n        );\r\n    }\r\n\r\n    function getMediaPrice(address _storageContract, uint256 _tokenId) public view returns (uint256)\r\n    {\r\n        return EternalStorage(_storageContract).getUIntValue(keccak256(abi.encodePacked(\"media_price\", _tokenId)));\r\n    }\r\n\r\n    function getMediaRentPrice(address _storageContract, uint256 _tokenId) public view returns (uint256){\r\n        return EternalStorage(_storageContract).getUIntValue(keccak256(abi.encodePacked(\"media_rent_price\", _tokenId)));\r\n    }\r\n\r\n    function getPaidRentCumulativeValue(address _storageContract, uint256 _tokenId, address renter) public view returns (uint256){\r\n        return EternalStorage(_storageContract).getUIntValue(keccak256(abi.encodePacked(\"rent_paid\", renter, _tokenId)));\r\n    }\r\n\r\n\r\n    function resetRentStatus(address _storageContract, uint256 _tokenId, address renter) public {\r\n        EternalStorage(_storageContract).setBooleanValue(keccak256(abi.encodePacked(\"media_rent_status\", _tokenId)), false);\r\n        EternalStorage(_storageContract).setUIntValue(keccak256(abi.encodePacked(\"rent_paid\", renter, _tokenId)), 0);\r\n        address[] memory list = EternalStorage(_storageContract).getAddressListValue(keccak256(abi.encodePacked(\"rent_request, coOwners_list\", renter, _tokenId)));\r\n        for (uint i = 0; i < list.length; i++) {\r\n            EternalStorage(_storageContract).setBooleanValue(keccak256(abi.encodePacked(\"rent_paid_by_peer\", renter, _tokenId, list[i])), false);\r\n        }\r\n\r\n\r\n    }\r\n\r\n\r\n}\r\n",
  "sourcePath": "C:\\Users\\MyLaptop\\Desktop\\sabacalavro\\smart-contracts-dapp\\contracts\\NFTLibrary.sol",
  "compiler": {
    "name": "solc",
    "version": "0.8.4+commit.c7e474f2.Emscripten.clang"
  },
  "schemaVersion": "3.4.7",
  "updatedAt": "2022-08-14T08:48:47.505Z",
  "devdoc": {
    "kind": "dev",
    "methods": {},
    "version": 1
  },
  "userdoc": {
    "kind": "user",
    "methods": {},
    "version": 1
  }
}