{
  "contractName": "NFTLibrary",
  "abi": [
    {
      "inputs": [
        {
          "internalType": "address",
          "name": "_storageContract",
          "type": "address"
        },
        {
          "internalType": "uint256",
          "name": "_tokenId",
          "type": "uint256"
        },
        {
          "internalType": "address",
          "name": "renter",
          "type": "address"
        },
        {
          "internalType": "address",
          "name": "currentPeer",
          "type": "address"
        }
      ],
      "name": "hasPaid",
      "outputs": [
        {
          "internalType": "bool",
          "name": "",
          "type": "bool"
        }
      ],
      "stateMutability": "view",
      "type": "function"
    },
    {
      "inputs": [
        {
          "internalType": "address",
          "name": "_storageContract",
          "type": "address"
        },
        {
          "internalType": "uint256",
          "name": "_tokenId",
          "type": "uint256"
        }
      ],
      "name": "mediaRentStatus",
      "outputs": [
        {
          "internalType": "bool",
          "name": "",
          "type": "bool"
        }
      ],
      "stateMutability": "view",
      "type": "function"
    },
    {
      "inputs": [
        {
          "internalType": "address",
          "name": "_storageContract",
          "type": "address"
        },
        {
          "internalType": "uint256",
          "name": "_tokenId",
          "type": "uint256"
        },
        {
          "internalType": "address",
          "name": "renter",
          "type": "address"
        }
      ],
      "name": "getRentRequestMerkleTree",
      "outputs": [
        {
          "internalType": "bytes32",
          "name": "",
          "type": "bytes32"
        }
      ],
      "stateMutability": "view",
      "type": "function"
    },
    {
      "inputs": [
        {
          "internalType": "address",
          "name": "_storageContract",
          "type": "address"
        },
        {
          "internalType": "uint256",
          "name": "_tokenId",
          "type": "uint256"
        },
        {
          "internalType": "address",
          "name": "renter",
          "type": "address"
        }
      ],
      "name": "getCoOwners",
      "outputs": [
        {
          "internalType": "address[]",
          "name": "",
          "type": "address[]"
        }
      ],
      "stateMutability": "view",
      "type": "function"
    },
    {
      "inputs": [
        {
          "internalType": "address",
          "name": "_storageContract",
          "type": "address"
        },
        {
          "internalType": "uint256",
          "name": "_tokenId",
          "type": "uint256"
        }
      ],
      "name": "getMediaInfo",
      "outputs": [
        {
          "internalType": "bytes32",
          "name": "",
          "type": "bytes32"
        },
        {
          "internalType": "bytes32",
          "name": "",
          "type": "bytes32"
        },
        {
          "internalType": "uint256",
          "name": "",
          "type": "uint256"
        },
        {
          "internalType": "uint256",
          "name": "",
          "type": "uint256"
        },
        {
          "internalType": "uint256",
          "name": "",
          "type": "uint256"
        },
        {
          "internalType": "uint256",
          "name": "",
          "type": "uint256"
        }
      ],
      "stateMutability": "view",
      "type": "function"
    },
    {
      "inputs": [
        {
          "internalType": "address",
          "name": "_storageContract",
          "type": "address"
        },
        {
          "internalType": "uint256",
          "name": "_tokenId",
          "type": "uint256"
        }
      ],
      "name": "getAuctionRequestInfo",
      "outputs": [
        {
          "internalType": "uint256",
          "name": "",
          "type": "uint256"
        },
        {
          "internalType": "uint256",
          "name": "",
          "type": "uint256"
        },
        {
          "internalType": "uint256",
          "name": "",
          "type": "uint256"
        }
      ],
      "stateMutability": "view",
      "type": "function"
    },
    {
      "inputs": [
        {
          "internalType": "address",
          "name": "_storageContract",
          "type": "address"
        },
        {
          "internalType": "uint256",
          "name": "_tokenId",
          "type": "uint256"
        }
      ],
      "name": "getMediaPrice",
      "outputs": [
        {
          "internalType": "uint256",
          "name": "",
          "type": "uint256"
        }
      ],
      "stateMutability": "view",
      "type": "function"
    },
    {
      "inputs": [
        {
          "internalType": "address",
          "name": "_storageContract",
          "type": "address"
        },
        {
          "internalType": "uint256",
          "name": "_tokenId",
          "type": "uint256"
        }
      ],
      "name": "getMediaRentDuration",
      "outputs": [
        {
          "internalType": "uint256",
          "name": "",
          "type": "uint256"
        }
      ],
      "stateMutability": "view",
      "type": "function"
    },
    {
      "inputs": [
        {
          "internalType": "address",
          "name": "_storageContract",
          "type": "address"
        },
        {
          "internalType": "uint256",
          "name": "_tokenId",
          "type": "uint256"
        }
      ],
      "name": "getMediaRentPrice",
      "outputs": [
        {
          "internalType": "uint256",
          "name": "",
          "type": "uint256"
        }
      ],
      "stateMutability": "view",
      "type": "function"
    },
    {
      "inputs": [
        {
          "internalType": "address",
          "name": "_storageContract",
          "type": "address"
        },
        {
          "internalType": "uint256",
          "name": "_tokenId",
          "type": "uint256"
        },
        {
          "internalType": "address",
          "name": "renter",
          "type": "address"
        }
      ],
      "name": "getPaidRentCumulativeValue",
      "outputs": [
        {
          "internalType": "uint256",
          "name": "",
          "type": "uint256"
        }
      ],
      "stateMutability": "view",
      "type": "function"
    }
  ],
  "bytecode": "0x6125ec610053600b82828239805160001a607314610046577f4e487b7100000000000000000000000000000000000000000000000000000000600052600060045260246000fd5b30600052607381538281f3fe73000000000000000000000000000000000000000030146080604052600436106101245760003560e060020a90048063a26cbe5c116100b0578063c95813371161007f578063c9581337146102ae578063cf15109c146102ee578063e77ed5b614610301578063f11bca5814610321578063fcb997591461034157600080fd5b8063a26cbe5c14610255578063ad0c773814610268578063b1c50e4e1461027b578063b26cf4621461028e57600080fd5b80636c42b1dd116100f75780636c42b1dd146101b15780638681c7e9146101c457806386daae0e146101f25780638ab49a6014610212578063a015407f1461023557600080fd5b80633727bf781461012957806349fc540b1461014b57806356b5dc6a146101715780635aceb83614610191575b600080fd5b81801561013557600080fd5b50610149610144366004611efb565b610361565b005b61015e610159366004611efb565b610636565b6040519081526020015b60405180910390f35b81801561017d57600080fd5b5061014961018c366004612165565b6106e2565b6101a461019f366004611efb565b6108ee565b6040516101689190612415565b61015e6101bf366004611efb565b610996565b6101d76101d2366004611ed0565b6109ba565b60408051938452602084019290925290820152606001610168565b8180156101fe57600080fd5b5061014961020d366004611fe8565b610c20565b610225610220366004611ed0565b610fd0565b6040519015158152602001610168565b81801561024157600080fd5b506101496102503660046120d4565b61109e565b61015e610263366004611ed0565b611437565b61015e610276366004611ed0565b6114ff565b61015e610289366004611ed0565b611521565b81801561029a57600080fd5b506101496102a9366004612131565b611543565b6102c16102bc366004611ed0565b6115d1565b604080519687526020870195909552938501929092526060840152608083015260a082015260c001610168565b6102256102fc366004611f3c565b611a47565b81801561030d57600080fd5b5061014961031c366004611f8e565b611af6565b81801561032d57600080fd5b5061014961033c366004611ed0565b611cc9565b81801561034d57600080fd5b5061022561035c366004611efb565b611d7a565b6040517f6d656469615f72656e745f737461747573000000000000000000000000000000602082015260318101839052600160a060020a03841690633eba9ed29060510160408051601f1981840301815290829052805160209091012060e060020a63ffffffff8416028252600482015260006024820152604401600060405180830381600087803b1580156103f657600080fd5b505af115801561040a573d6000803e3d6000fd5b5050505082600160a060020a0316633562fd2082846040516020016104309291906122ef565b60408051601f1981840301815290829052805160209091012060e060020a63ffffffff8416028252600482015260006024820152604401600060405180830381600087803b15801561048157600080fd5b505af1158015610495573d6000803e3d6000fd5b50505050600083600160a060020a031663726d9dea83856040516020016104bd929190612270565b60408051601f1981840301815290829052805160209091012060e060020a63ffffffff8416028252600482015260240160006040518083038186803b15801561050557600080fd5b505afa158015610519573d6000803e3d6000fd5b505050506040513d6000823e601f3d908101601f19168201604052610541919081019061219f565b905060005b815181101561062f5784600160a060020a0316633eba9ed28486858581518110610599577f4e487b7100000000000000000000000000000000000000000000000000000000600052603260045260246000fd5b60200260200101516040516020016105b3939291906123bc565b60408051601f1981840301815290829052805160209091012060e060020a63ffffffff8416028252600482015260006024820152604401600060405180830381600087803b15801561060457600080fd5b505af1158015610618573d6000803e3d6000fd5b50505050808061062790612525565b915050610546565b5050505050565b600083600160a060020a031663025ec81a848460405160200161065a92919061236e565b60408051601f1981840301815290829052805160209091012060e060020a63ffffffff8416028252600482015260240160206040518083038186803b1580156106a257600080fd5b505afa1580156106b6573d6000803e3d6000fd5b505050506040513d601f19601f820116820180604052508101906106da9190612258565b949350505050565b6040517f61756374696f6e5f737465705f74696d65000000000000000000000000000000602082015260318101849052600160a060020a03851690633562fd209060510160408051601f1981840301815290829052805160209091012060e060020a63ffffffff8416028252600482015260248101859052604401600060405180830381600087803b15801561077757600080fd5b505af115801561078b573d6000803e3d6000fd5b50506040517f61756374696f6e5f737465705f70726963650000000000000000000000000000602082015260328101869052600160a060020a0387169250633562fd20915060520160408051601f1981840301815290829052805160209091012060e060020a63ffffffff8416028252600482015260248101849052604401600060405180830381600087803b15801561082457600080fd5b505af1158015610838573d6000803e3d6000fd5b50506040517f61756374696f6e5f6c6173745f737465705f74696d6500000000000000000000602082015260368101869052600160a060020a0387169250633562fd20915060560160408051601f1981840301815290829052805160209091012060e060020a63ffffffff84160282526004820152426024820152604401600060405180830381600087803b1580156108d057600080fd5b505af11580156108e4573d6000803e3d6000fd5b5050505050505050565b606083600160a060020a031663726d9dea8385604051602001610912929190612270565b60408051601f1981840301815290829052805160209091012060e060020a63ffffffff8416028252600482015260240160006040518083038186803b15801561095a57600080fd5b505afa15801561096e573d6000803e3d6000fd5b505050506040513d6000823e601f3d908101601f191682016040526106da919081019061219f565b600083600160a060020a031663bdc963d8838560405160200161065a9291906122ef565b600080600084600160a060020a031663bdc963d885604051602001610a0b91907f61756374696f6e5f737465705f74696d650000000000000000000000000000008152601181019190915260310190565b60408051601f1981840301815290829052805160209091012060e060020a63ffffffff8416028252600482015260240160206040518083038186803b158015610a5357600080fd5b505afa158015610a67573d6000803e3d6000fd5b505050506040513d601f19601f82011682018060405250810190610a8b9190612258565b6040517f61756374696f6e5f737465705f70726963650000000000000000000000000000602082015260328101869052600160a060020a0387169063bdc963d89060520160408051601f1981840301815290829052805160209091012060e060020a63ffffffff8416028252600482015260240160206040518083038186803b158015610b1757600080fd5b505afa158015610b2b573d6000803e3d6000fd5b505050506040513d601f19601f82011682018060405250810190610b4f9190612258565b6040517f61756374696f6e5f6c6173745f737465705f74696d6500000000000000000000602082015260368101879052600160a060020a0388169063bdc963d89060560160408051601f1981840301815290829052805160209091012060e060020a63ffffffff8416028252600482015260240160206040518083038186803b158015610bdb57600080fd5b505afa158015610bef573d6000803e3d6000fd5b505050506040513d601f19601f82011682018060405250810190610c139190612258565b9250925092509250925092565b86600160a060020a03166325cf512d8787604051602001610c4292919061236e565b60408051601f1981840301815290829052805160209091012060e060020a63ffffffff8416028252600482015260248101879052604401600060405180830381600087803b158015610c9357600080fd5b505af1158015610ca7573d6000803e3d6000fd5b50506040517f72656e745f726571756573742c206e756d5f6f665f636f5f6f776e65727300006020820152600160a060020a038881166c0100000000000000000000000002603e830152605282018a90528a169250633562fd20915060720160408051601f1981840301815290829052805160209091012060e060020a63ffffffff8416028252600482015260248101869052604401600060405180830381600087803b158015610d5757600080fd5b505af1158015610d6b573d6000803e3d6000fd5b5050505086600160a060020a031663deb48f7f8688604051602001610d91929190612270565b60405160208183030381529060405280519060200120846040518363ffffffff1660e060020a028152600401610dc8929190612462565b600060405180830381600087803b158015610de257600080fd5b505af1158015610df6573d6000803e3d6000fd5b50505050600087600160a060020a031663bdc963d88789604051602001610e1e9291906122ef565b60408051601f1981840301815290829052805160209091012060e060020a63ffffffff8416028252600482015260240160206040518083038186803b158015610e6657600080fd5b505afa158015610e7a573d6000803e3d6000fd5b505050506040513d601f19601f82011682018060405250810190610e9e9190612258565b905087600160a060020a0316633562fd208789604051602001610ec29291906122ef565b604051602081830303815290604052805190602001208385610ee4919061250d565b60405160e060020a63ffffffff851602815260048101929092526024820152604401600060405180830381600087803b158015610f2057600080fd5b505af1158015610f34573d6000803e3d6000fd5b5050505087600160a060020a0316633eba9ed2878989604051602001610f5c939291906123bc565b60408051601f1981840301815290829052805160209091012060e060020a63ffffffff84160282526004820152600160248201526044015b600060405180830381600087803b158015610fae57600080fd5b505af1158015610fc2573d6000803e3d6000fd5b505050505050505050505050565b6040517f6d656469615f72656e745f737461747573000000000000000000000000000000602082015260318101829052600090600160a060020a038416906317e7dd229060510160408051601f1981840301815290829052805160209091012060e060020a63ffffffff8416028252600482015260240160206040518083038186803b15801561105f57600080fd5b505afa158015611073573d6000803e3d6000fd5b505050506040513d601f19601f820116820180604052508101906110979190612238565b9392505050565b6040517f6d656469615f7469746c650000000000000000000000000000000000000000006020820152602b8101889052600160a060020a038916906325cf512d90604b0160408051601f1981840301815290829052805160209091012060e060020a63ffffffff8416028252600482015260248101899052604401600060405180830381600087803b15801561113357600080fd5b505af1158015611147573d6000803e3d6000fd5b50506040517f6d656469615f6465736372697074696f6e0000000000000000000000000000006020820152603181018a9052600160a060020a038b1692506325cf512d915060510160408051601f1981840301815290829052805160209091012060e060020a63ffffffff8416028252600482015260248101889052604401600060405180830381600087803b1580156111e057600080fd5b505af11580156111f4573d6000803e3d6000fd5b5050505087600160a060020a0316633562fd208860405160200161121891906122be565b60408051601f1981840301815290829052805160209091012060e060020a63ffffffff8416028252600482015260248101879052604401600060405180830381600087803b15801561126957600080fd5b505af115801561127d573d6000803e3d6000fd5b5050505087600160a060020a0316633562fd20886040516020016112a1919061233d565b60408051601f1981840301815290829052805160209091012060e060020a63ffffffff8416028252600482015260248101869052604401600060405180830381600087803b1580156112f257600080fd5b505af1158015611306573d6000803e3d6000fd5b50506040517f6d656469615f72656e745f6475726174696f6e000000000000000000000000006020820152603381018a9052600160a060020a038b169250633562fd20915060530160408051601f1981840301815290829052805160209091012060e060020a63ffffffff8416028252600482015260248101859052604401600060405180830381600087803b15801561139f57600080fd5b505af11580156113b3573d6000803e3d6000fd5b50506040517f6d656469615f766964656f5f6475726174696f6e0000000000000000000000006020820152603481018a9052600160a060020a038b169250633562fd20915060540160408051601f1981840301815290829052805160209091012060e060020a63ffffffff8416028252600482015260248101849052604401610f94565b6040517f6d656469615f72656e745f6475726174696f6e00000000000000000000000000602082015260338101829052600090600160a060020a0384169063bdc963d8906053015b60408051601f1981840301815290829052805160209091012060e060020a63ffffffff8416028252600482015260240160206040518083038186803b1580156114c757600080fd5b505afa1580156114db573d6000803e3d6000fd5b505050506040513d601f19601f820116820180604052508101906110979190612258565b600082600160a060020a031663bdc963d88360405160200161147f919061233d565b600082600160a060020a031663bdc963d88360405160200161147f91906122be565b82600160a060020a0316633562fd208360405160200161156391906122be565b60408051601f1981840301815290829052805160209091012060e060020a63ffffffff8416028252600482015260248101849052604401600060405180830381600087803b1580156115b457600080fd5b505af11580156115c8573d6000803e3d6000fd5b50505050505050565b60008060008060008087600160a060020a031663025ec81a8860405160200161162691907f6d656469615f7469746c650000000000000000000000000000000000000000008152600b810191909152602b0190565b60408051601f1981840301815290829052805160209091012060e060020a63ffffffff8416028252600482015260240160206040518083038186803b15801561166e57600080fd5b505afa158015611682573d6000803e3d6000fd5b505050506040513d601f19601f820116820180604052508101906116a69190612258565b6040517f6d656469615f6465736372697074696f6e000000000000000000000000000000602082015260318101899052600160a060020a038a169063025ec81a9060510160408051601f1981840301815290829052805160209091012060e060020a63ffffffff8416028252600482015260240160206040518083038186803b15801561173257600080fd5b505afa158015611746573d6000803e3d6000fd5b505050506040513d601f19601f8201168201806040525081019061176a9190612258565b89600160a060020a031663bdc963d88a60405160200161178a91906122be565b60408051601f1981840301815290829052805160209091012060e060020a63ffffffff8416028252600482015260240160206040518083038186803b1580156117d257600080fd5b505afa1580156117e6573d6000803e3d6000fd5b505050506040513d601f19601f8201168201806040525081019061180a9190612258565b8a600160a060020a031663bdc963d88b60405160200161182a919061233d565b60408051601f1981840301815290829052805160209091012060e060020a63ffffffff8416028252600482015260240160206040518083038186803b15801561187257600080fd5b505afa158015611886573d6000803e3d6000fd5b505050506040513d601f19601f820116820180604052508101906118aa9190612258565b6040517f6d656469615f72656e745f6475726174696f6e000000000000000000000000006020820152603381018c9052600160a060020a038d169063bdc963d89060530160408051601f1981840301815290829052805160209091012060e060020a63ffffffff8416028252600482015260240160206040518083038186803b15801561193657600080fd5b505afa15801561194a573d6000803e3d6000fd5b505050506040513d601f19601f8201168201806040525081019061196e9190612258565b6040517f6d656469615f766964656f5f6475726174696f6e0000000000000000000000006020820152603481018d9052600160a060020a038e169063bdc963d89060540160408051601f1981840301815290829052805160209091012060e060020a63ffffffff8416028252600482015260240160206040518083038186803b1580156119fa57600080fd5b505afa158015611a0e573d6000803e3d6000fd5b505050506040513d601f19601f82011682018060405250810190611a329190612258565b949d939c50919a509850965090945092505050565b600084600160a060020a03166317e7dd22848685604051602001611a6d939291906123bc565b60408051601f1981840301815290829052805160209091012060e060020a63ffffffff8416028252600482015260240160206040518083038186803b158015611ab557600080fd5b505afa158015611ac9573d6000803e3d6000fd5b505050506040513d601f19601f82011682018060405250810190611aed9190612238565b95945050505050565b600085600160a060020a031663bdc963d88587604051602001611b1a9291906122ef565b60408051601f1981840301815290829052805160209091012060e060020a63ffffffff8416028252600482015260240160206040518083038186803b158015611b6257600080fd5b505afa158015611b76573d6000803e3d6000fd5b505050506040513d601f19601f82011682018060405250810190611b9a9190612258565b905085600160a060020a0316633562fd208587604051602001611bbe9291906122ef565b604051602081830303815290604052805190602001208484611be0919061250d565b60405160e060020a63ffffffff851602815260048101929092526024820152604401600060405180830381600087803b158015611c1c57600080fd5b505af1158015611c30573d6000803e3d6000fd5b5050505085600160a060020a0316633eba9ed2858786604051602001611c58939291906123bc565b60408051601f1981840301815290829052805160209091012060e060020a63ffffffff8416028252600482015260016024820152604401600060405180830381600087803b158015611ca957600080fd5b505af1158015611cbd573d6000803e3d6000fd5b50505050505050505050565b6040517f6d656469615f72656e745f737461747573000000000000000000000000000000602082015260318101829052600160a060020a03831690633eba9ed29060510160408051601f1981840301815290829052805160209091012060e060020a63ffffffff8416028252600482015260016024820152604401600060405180830381600087803b158015611d5e57600080fd5b505af1158015611d72573d6000803e3d6000fd5b505050505050565b60008084600160a060020a031663bdc963d88486604051602001611d9f9291906122ef565b60408051601f1981840301815290829052805160209091012060e060020a63ffffffff8416028252600482015260240160206040518083038186803b158015611de757600080fd5b505afa158015611dfb573d6000803e3d6000fd5b505050506040513d601f19601f82011682018060405250810190611e1f9190612258565b9050600085600160a060020a031663bdc963d886604051602001611e43919061233d565b60408051601f1981840301815290829052805160209091012060e060020a63ffffffff8416028252600482015260240160206040518083038186803b158015611e8b57600080fd5b505afa158015611e9f573d6000803e3d6000fd5b505050506040513d601f19601f82011682018060405250810190611ec39190612258565b9091101595945050505050565b60008060408385031215611ee2578182fd5b8235611eed8161259e565b946020939093013593505050565b600080600060608486031215611f0f578081fd5b8335611f1a8161259e565b9250602084013591506040840135611f318161259e565b809150509250925092565b60008060008060808587031215611f51578081fd5b8435611f5c8161259e565b9350602085013592506040850135611f738161259e565b91506060850135611f838161259e565b939692955090935050565b600080600080600060a08688031215611fa5578081fd5b8535611fb08161259e565b9450602086013593506040860135611fc78161259e565b92506060860135611fd78161259e565b949793965091946080013592915050565b600080600080600080600060e0888a031215612002578182fd5b873561200d8161259e565b9650602088810135965060408901356120258161259e565b9550606089013594506080890135935060a089013567ffffffffffffffff81111561204e578384fd5b8901601f81018b1361205e578384fd5b803561207161206c826124e9565b6124b8565b81815283810190838501858402850186018f101561208d578788fd5b8794505b838510156120b85780356120a48161259e565b835260019490940193918501918501612091565b50809650505050505060c0880135905092959891949750929550565b600080600080600080600080610100898b0312156120f0578081fd5b88356120fb8161259e565b9a60208a01359a5060408a013599606081013599506080810135985060a0810135975060c0810135965060e00135945092505050565b600080600060608486031215612145578081fd5b83356121508161259e565b95602085013595506040909401359392505050565b6000806000806080858703121561217a578182fd5b84356121858161259e565b966020860135965060408601359560600135945092505050565b600060208083850312156121b1578182fd5b825167ffffffffffffffff8111156121c7578283fd5b8301601f810185136121d7578283fd5b80516121e561206c826124e9565b8181528381019083850185840285018601891015612201578687fd5b8694505b8385101561222c5780516122188161259e565b835260019490940193918501918501612205565b50979650505050505050565b600060208284031215612249578081fd5b81518015158114611097578182fd5b600060208284031215612269578081fd5b5051919050565b7f72656e745f726571756573742c20636f4f776e6572735f6c69737400000000008152600160a060020a03929092166c0100000000000000000000000002601b830152602f820152604f0190565b7f6d656469615f70726963650000000000000000000000000000000000000000008152600b810191909152602b0190565b7f72656e745f7061696400000000000000000000000000000000000000000000008152600160a060020a03929092166c01000000000000000000000000026009830152601d820152603d0190565b7f6d656469615f72656e745f7072696365000000000000000000000000000000008152601081019190915260300190565b7f72656e745f7265717565737400000000000000000000000000000000000000008152600c810192909252600160a060020a03166c0100000000000000000000000002602c82015260400190565b7f72656e745f706169645f62795f7065657200000000000000000000000000000081526c01000000000000000000000000600160a060020a03948516810260118301526025820193909352921602604582015260590190565b6020808252825182820181905260009190848201906040850190845b81811015612456578351600160a060020a031683529284019291840191600101612431565b50909695505050505050565b60006040820184835260206040818501528185518084526060860191508287019350845b818110156124ab578451600160a060020a031683529383019391830191600101612486565b5090979650505050505050565b604051601f8201601f1916810167ffffffffffffffff811182821017156124e1576124e161256f565b604052919050565b600067ffffffffffffffff8211156125035761250361256f565b5060209081020190565b6000821982111561252057612520612540565b500190565b600060001982141561253957612539612540565b5060010190565b7f4e487b7100000000000000000000000000000000000000000000000000000000600052601160045260246000fd5b7f4e487b7100000000000000000000000000000000000000000000000000000000600052604160045260246000fd5b600160a060020a03811681146125b357600080fd5b5056fea26469706673582212208226ff282bc4da8491bfefec759e8578b5b6788188ce6d62ad331105f685e40b64736f6c63430008040033",
  "immutableReferences": {},
  "source": "pragma solidity ^0.8.0;\n\nimport \"@openzeppelin/contracts/utils/math/Math.sol\";\nimport \"@openzeppelin/contracts/utils/math/SafeMath.sol\";\n\nimport \"./storage/EternalStorage.sol\";\n\nlibrary NFTLibrary {\n\n    using SafeMath for uint256;\n\n    function saveMediaInfo(address _storageContract, uint256 _tokenId, bytes32 _title, bytes32 _description, uint256 _price, uint256 rentPrice, uint256 rentDuration, uint256 videoDuration) public\n    {\n        EternalStorage(_storageContract).setBytes32Value(keccak256(abi.encodePacked(\"media_title\", _tokenId)), _title);\n        EternalStorage(_storageContract).setBytes32Value(keccak256(abi.encodePacked(\"media_description\", _tokenId)), _description);\n        EternalStorage(_storageContract).setUIntValue(keccak256(abi.encodePacked(\"media_price\", _tokenId)), _price);\n        EternalStorage(_storageContract).setUIntValue(keccak256(abi.encodePacked(\"media_rent_price\", _tokenId)), rentPrice);\n        EternalStorage(_storageContract).setUIntValue(keccak256(abi.encodePacked(\"media_rent_duration\", _tokenId)), rentDuration);\n        EternalStorage(_storageContract).setUIntValue(keccak256(abi.encodePacked(\"media_video_duration\", _tokenId)), videoDuration);\n\n    }\n\n    function saveMediaPrice(address _storageContract, uint256 _tokenId, uint256 _price) public\n    {\n        EternalStorage(_storageContract).setUIntValue(keccak256(abi.encodePacked(\"media_price\", _tokenId)), _price);\n\n    }\n\n    function saveAuctionRequestInfo(address _storageContract, uint256 _tokenId, uint256 _stepTime, uint256 _stepPrice) public\n    {\n        EternalStorage(_storageContract).setUIntValue(keccak256(abi.encodePacked(\"auction_step_time\", _tokenId)), _stepTime);\n        EternalStorage(_storageContract).setUIntValue(keccak256(abi.encodePacked(\"auction_step_price\", _tokenId)), _stepPrice);\n        EternalStorage(_storageContract).setUIntValue(keccak256(abi.encodePacked(\"auction_last_step_time\", _tokenId)), block.timestamp);\n    }\n\n    function handleRentRequest(address _storageContract, uint256 _tokenId, address renter, bytes32 coOwners, uint256 numOfCoOwners, address[] memory coOwnersList, uint256 amount) public {\n        EternalStorage(_storageContract).setBytes32Value(keccak256(abi.encodePacked(\"rent_request\", _tokenId, renter)), coOwners);\n        EternalStorage(_storageContract).setUIntValue(keccak256(abi.encodePacked(\"rent_request, num_of_co_owners\", renter, _tokenId)), numOfCoOwners);\n        EternalStorage(_storageContract).setAddressListValue(keccak256(abi.encodePacked(\"rent_request, coOwners_list\", renter, _tokenId)), coOwnersList);\n        uint256 paid = EternalStorage(_storageContract).getUIntValue(keccak256(abi.encodePacked(\"rent_paid\", renter, _tokenId)));\n        EternalStorage(_storageContract).setUIntValue(keccak256(abi.encodePacked(\"rent_paid\", renter, _tokenId)), amount + paid);\n        EternalStorage(_storageContract).setBooleanValue(keccak256(abi.encodePacked(\"rent_paid_by_peer\", renter, _tokenId, renter)), true);\n    }\n\n    function savePaidInfo(address _storageContract, uint256 _tokenId, address renter, address currentPeer, uint256 amount) public {\n        uint256 paid = EternalStorage(_storageContract).getUIntValue(keccak256(abi.encodePacked(\"rent_paid\", renter, _tokenId)));\n        EternalStorage(_storageContract).setUIntValue(keccak256(abi.encodePacked(\"rent_paid\", renter, _tokenId)), paid + amount);\n        EternalStorage(_storageContract).setBooleanValue(keccak256(abi.encodePacked(\"rent_paid_by_peer\", renter, _tokenId, currentPeer)), true);\n    }\n\n    function hasPaid(address _storageContract, uint256 _tokenId, address renter, address currentPeer) public view returns (bool){\n        return EternalStorage(_storageContract).getBooleanValue(keccak256(abi.encodePacked(\"rent_paid_by_peer\", renter, _tokenId, currentPeer)));\n    }\n\n    function hasEveryOnePaid(address _storageContract, uint256 _tokenId, address renter) public returns (bool){\n        uint256 totalPaid = EternalStorage(_storageContract).getUIntValue(keccak256(abi.encodePacked(\"rent_paid\", renter, _tokenId)));\n        uint256 rentPrice = EternalStorage(_storageContract).getUIntValue(keccak256(abi.encodePacked(\"media_rent_price\", _tokenId)));\n        return totalPaid >= rentPrice;\n    }\n\n    function mediaRentStatus(address _storageContract, uint256 _tokenId) public view returns (bool)\n    {\n        return EternalStorage(_storageContract).getBooleanValue(keccak256(abi.encodePacked(\"media_rent_status\", _tokenId)));\n    }\n\n    function updateRentStatus(address _storageContract, uint256 _tokenId) public\n    {\n        EternalStorage(_storageContract).setBooleanValue(keccak256(abi.encodePacked(\"media_rent_status\", _tokenId)), true);\n    }\n\n    function getRentRequestMerkleTree(address _storageContract, uint256 _tokenId, address renter) public view returns (bytes32)\n    {\n        return EternalStorage(_storageContract).getBytes32Value(keccak256(abi.encodePacked(\"rent_request\", _tokenId, renter)));\n    }\n\n    function getCoOwners(address _storageContract, uint256 _tokenId, address renter) public view returns (address[] memory)\n    {\n        return EternalStorage(_storageContract).getAddressListValue(keccak256(abi.encodePacked(\"rent_request, coOwners_list\", renter, _tokenId)));\n    }\n\n    function getMediaInfo(address _storageContract, uint256 _tokenId) public view returns (bytes32, bytes32, uint256, uint256, uint256, uint256)\n    {\n        return\n        (\n        EternalStorage(_storageContract).getBytes32Value(keccak256(abi.encodePacked(\"media_title\", _tokenId))),\n        EternalStorage(_storageContract).getBytes32Value(keccak256(abi.encodePacked(\"media_description\", _tokenId))),\n        EternalStorage(_storageContract).getUIntValue(keccak256(abi.encodePacked(\"media_price\", _tokenId))),\n        EternalStorage(_storageContract).getUIntValue(keccak256(abi.encodePacked(\"media_rent_price\", _tokenId))),\n        EternalStorage(_storageContract).getUIntValue(keccak256(abi.encodePacked(\"media_rent_duration\", _tokenId))),\n        EternalStorage(_storageContract).getUIntValue(keccak256(abi.encodePacked(\"media_video_duration\", _tokenId)))\n\n        );\n    }\n\n    function getAuctionRequestInfo(address _storageContract, uint256 _tokenId) public view returns (uint256, uint256, uint256)\n    {\n        return\n        (\n        EternalStorage(_storageContract).getUIntValue(keccak256(abi.encodePacked(\"auction_step_time\", _tokenId))),\n        EternalStorage(_storageContract).getUIntValue(keccak256(abi.encodePacked(\"auction_step_price\", _tokenId))),\n        EternalStorage(_storageContract).getUIntValue(keccak256(abi.encodePacked(\"auction_last_step_time\", _tokenId)))\n        );\n    }\n\n    function getMediaPrice(address _storageContract, uint256 _tokenId) public view returns (uint256)\n    {\n        return EternalStorage(_storageContract).getUIntValue(keccak256(abi.encodePacked(\"media_price\", _tokenId)));\n    }\n\n    function getMediaRentDuration(address _storageContract, uint256 _tokenId) public view returns (uint256){\n        return EternalStorage(_storageContract).getUIntValue(keccak256(abi.encodePacked(\"media_rent_duration\", _tokenId)));\n    }\n\n    function getMediaRentPrice(address _storageContract, uint256 _tokenId) public view returns (uint256){\n        return EternalStorage(_storageContract).getUIntValue(keccak256(abi.encodePacked(\"media_rent_price\", _tokenId)));\n    }\n\n    function getPaidRentCumulativeValue(address _storageContract, uint256 _tokenId, address renter) public view returns (uint256){\n        return EternalStorage(_storageContract).getUIntValue(keccak256(abi.encodePacked(\"rent_paid\", renter, _tokenId)));\n    }\n\n\n    function resetRentStatus(address _storageContract, uint256 _tokenId, address renter) public {\n        EternalStorage(_storageContract).setBooleanValue(keccak256(abi.encodePacked(\"media_rent_status\", _tokenId)), false);\n        EternalStorage(_storageContract).setUIntValue(keccak256(abi.encodePacked(\"rent_paid\", renter, _tokenId)), 0);\n        address[] memory list = EternalStorage(_storageContract).getAddressListValue(keccak256(abi.encodePacked(\"rent_request, coOwners_list\", renter, _tokenId)));\n        for (uint i = 0; i < list.length; i++) {\n            EternalStorage(_storageContract).setBooleanValue(keccak256(abi.encodePacked(\"rent_paid_by_peer\", renter, _tokenId, list[i])), false);\n        }\n\n\n    }\n\n\n}\n",
  "sourcePath": "/Users/theneo/sabacalavro/smart-contracts-dapp/contracts/NFTLibrary.sol",
  "compiler": {
    "name": "solc",
    "version": "0.8.4+commit.c7e474f2.Emscripten.clang"
  },
  "schemaVersion": "3.4.7",
  "updatedAt": "2022-09-06T20:45:52.599Z",
  "devdoc": {
    "kind": "dev",
    "methods": {},
    "version": 1
  },
  "userdoc": {
    "kind": "user",
    "methods": {},
    "version": 1
  }
}