{
  "contractName": "NFTLibrary",
  "abi": [
    {
      "inputs": [
        {
          "internalType": "address",
          "name": "_storageContract",
          "type": "address"
        },
        {
          "internalType": "uint256",
          "name": "_tokenId",
          "type": "uint256"
        }
      ],
      "name": "getMediaInfo",
      "outputs": [
        {
          "internalType": "bytes32",
          "name": "",
          "type": "bytes32"
        },
        {
          "internalType": "bytes32",
          "name": "",
          "type": "bytes32"
        },
        {
          "internalType": "uint256",
          "name": "",
          "type": "uint256"
        }
      ],
      "stateMutability": "view",
      "type": "function"
    },
    {
      "inputs": [
        {
          "internalType": "address",
          "name": "_storageContract",
          "type": "address"
        },
        {
          "internalType": "uint256",
          "name": "_tokenId",
          "type": "uint256"
        }
      ],
      "name": "getMediaPrice",
      "outputs": [
        {
          "internalType": "uint256",
          "name": "",
          "type": "uint256"
        }
      ],
      "stateMutability": "view",
      "type": "function"
    }
  ],
  "bytecode": "0x6106df610053600b82828239805160001a607314610046577f4e487b7100000000000000000000000000000000000000000000000000000000600052600060045260246000fd5b30600052607381538281f3fe730000000000000000000000000000000000000000301460806040526004361061004e5760e060020a60003504638fba84b78114610053578063b1c50e4e14610075578063c95813371461009b575b600080fd5b81801561005f57600080fd5b5061007361006e366004610650565b6100c9565b005b610088610083366004610627565b6102d7565b6040519081526020015b60405180910390f35b6100ae6100a9366004610627565b6103a5565b60408051938452602084019290925290820152606001610092565b6040517f6d656469615f7469746c650000000000000000000000000000000000000000006020820152602b8101859052600160a060020a038616906325cf512d90604b0160408051601f1981840301815290829052805160209091012060e060020a63ffffffff8416028252600482015260248101869052604401600060405180830381600087803b15801561015e57600080fd5b505af1158015610172573d6000803e3d6000fd5b50506040517f6d656469615f6465736372697074696f6e000000000000000000000000000000602082015260318101879052600160a060020a03881692506325cf512d915060510160408051601f1981840301815290829052805160209091012060e060020a63ffffffff8416028252600482015260248101859052604401600060405180830381600087803b15801561020b57600080fd5b505af115801561021f573d6000803e3d6000fd5b50506040517f6d656469615f70726963650000000000000000000000000000000000000000006020820152602b8101879052600160a060020a0388169250633562fd209150604b0160408051601f1981840301815290829052805160209091012060e060020a63ffffffff8416028252600482015260248101849052604401600060405180830381600087803b1580156102b857600080fd5b505af11580156102cc573d6000803e3d6000fd5b505050505050505050565b6040517f6d656469615f70726963650000000000000000000000000000000000000000006020820152602b8101829052600090600160a060020a0384169063bdc963d890604b0160408051601f1981840301815290829052805160209091012060e060020a63ffffffff8416028252600482015260240160206040518083038186803b15801561036657600080fd5b505afa15801561037a573d6000803e3d6000fd5b505050506040513d601f19601f8201168201806040525081019061039e9190610691565b9392505050565b600080600084600160a060020a031663025ec81a856040516020016103f691907f6d656469615f7469746c650000000000000000000000000000000000000000008152600b810191909152602b0190565b60408051601f1981840301815290829052805160209091012060e060020a63ffffffff8416028252600482015260240160206040518083038186803b15801561043e57600080fd5b505afa158015610452573d6000803e3d6000fd5b505050506040513d601f19601f820116820180604052508101906104769190610691565b6040517f6d656469615f6465736372697074696f6e000000000000000000000000000000602082015260318101869052600160a060020a0387169063025ec81a9060510160408051601f1981840301815290829052805160209091012060e060020a63ffffffff8416028252600482015260240160206040518083038186803b15801561050257600080fd5b505afa158015610516573d6000803e3d6000fd5b505050506040513d601f19601f8201168201806040525081019061053a9190610691565b6040517f6d656469615f70726963650000000000000000000000000000000000000000006020820152602b8101879052600160a060020a0388169063bdc963d890604b0160408051601f1981840301815290829052805160209091012060e060020a63ffffffff8416028252600482015260240160206040518083038186803b1580156105c657600080fd5b505afa1580156105da573d6000803e3d6000fd5b505050506040513d601f19601f820116820180604052508101906105fe9190610691565b9250925092509250925092565b8035600160a060020a038116811461062257600080fd5b919050565b60008060408385031215610639578182fd5b6106428361060b565b946020939093013593505050565b600080600080600060a08688031215610667578081fd5b6106708661060b565b97602087013597506040870135966060810135965060800135945092505050565b6000602082840312156106a2578081fd5b505191905056fea26469706673582212206f015b574fc53b84cd34866e32be5a3dec985e8321641aacf0036d240ed6b22164736f6c63430008040033",
  "immutableReferences": {},
  "source": "pragma solidity ^0.8.0;\r\n\r\nimport \"@openzeppelin/contracts/utils/math/Math.sol\";\r\nimport \"@openzeppelin/contracts/utils/math/SafeMath.sol\";\r\n\r\nimport \"./storage/EternalStorage.sol\";\r\n\r\nlibrary NFTLibrary {\r\n\r\n    using SafeMath for uint256;\r\n\r\n    function saveMediaInfo(address _storageContract, uint256 _tokenId, bytes32 _title, bytes32 _description, uint256 _price) public\r\n    {\r\n        EternalStorage(_storageContract).setBytes32Value(keccak256(abi.encodePacked(\"media_title\", _tokenId)), _title);\r\n        EternalStorage(_storageContract).setBytes32Value(keccak256(abi.encodePacked(\"media_description\", _tokenId)), _description);\r\n        EternalStorage(_storageContract).setUIntValue(keccak256(abi.encodePacked(\"media_price\", _tokenId)), _price);\r\n    }\r\n\r\n    function getMediaInfo(address _storageContract, uint256 _tokenId) public view returns (bytes32, bytes32, uint256)\r\n    {\r\n        return\r\n        (\r\n        EternalStorage(_storageContract).getBytes32Value(keccak256(abi.encodePacked(\"media_title\", _tokenId))),\r\n        EternalStorage(_storageContract).getBytes32Value(keccak256(abi.encodePacked(\"media_description\", _tokenId))),\r\n        EternalStorage(_storageContract).getUIntValue(keccak256(abi.encodePacked(\"media_price\", _tokenId)))\r\n        );\r\n    }\r\n\r\n    function getMediaPrice(address _storageContract, uint256 _tokenId) public view returns (uint256)\r\n    {\r\n        return EternalStorage(_storageContract).getUIntValue(keccak256(abi.encodePacked(\"media_price\", _tokenId)));\r\n    }\r\n\r\n}\r\n",
  "sourcePath": "D:\\sabakalavro\\smart-contracts-dapp\\contracts\\NFTLibrary.sol",
  "compiler": {
    "name": "solc",
    "version": "0.8.4+commit.c7e474f2.Emscripten.clang"
  },
  "schemaVersion": "3.4.7",
  "updatedAt": "2022-05-29T16:12:01.302Z",
  "devdoc": {
    "kind": "dev",
    "methods": {},
    "version": 1
  },
  "userdoc": {
    "kind": "user",
    "methods": {},
    "version": 1
  }
}