{
  "contractName": "NFTLibrary",
  "abi": [
    {
      "inputs": [
        {
          "internalType": "address",
          "name": "_storageContract",
          "type": "address"
        },
        {
          "internalType": "uint256",
          "name": "_tokenId",
          "type": "uint256"
        },
        {
          "internalType": "address",
          "name": "renter",
          "type": "address"
        },
        {
          "internalType": "address",
          "name": "currentPeer",
          "type": "address"
        }
      ],
      "name": "hasPaid",
      "outputs": [
        {
          "internalType": "bool",
          "name": "",
          "type": "bool"
        }
      ],
      "stateMutability": "view",
      "type": "function"
    },
    {
      "inputs": [
        {
          "internalType": "address",
          "name": "_storageContract",
          "type": "address"
        },
        {
          "internalType": "uint256",
          "name": "_tokenId",
          "type": "uint256"
        }
      ],
      "name": "mediaRentStatus",
      "outputs": [
        {
          "internalType": "bool",
          "name": "",
          "type": "bool"
        }
      ],
      "stateMutability": "view",
      "type": "function"
    },
    {
      "inputs": [
        {
          "internalType": "address",
          "name": "_storageContract",
          "type": "address"
        },
        {
          "internalType": "uint256",
          "name": "_tokenId",
          "type": "uint256"
        },
        {
          "internalType": "address",
          "name": "renter",
          "type": "address"
        }
      ],
      "name": "getRentRequestMerkleTree",
      "outputs": [
        {
          "internalType": "bytes32",
          "name": "",
          "type": "bytes32"
        }
      ],
      "stateMutability": "view",
      "type": "function"
    },
    {
      "inputs": [
        {
          "internalType": "address",
          "name": "_storageContract",
          "type": "address"
        },
        {
          "internalType": "uint256",
          "name": "_tokenId",
          "type": "uint256"
        },
        {
          "internalType": "address",
          "name": "renter",
          "type": "address"
        }
      ],
      "name": "getCoOwners",
      "outputs": [
        {
          "internalType": "address[]",
          "name": "",
          "type": "address[]"
        }
      ],
      "stateMutability": "view",
      "type": "function"
    },
    {
      "inputs": [
        {
          "internalType": "address",
          "name": "_storageContract",
          "type": "address"
        },
        {
          "internalType": "uint256",
          "name": "_tokenId",
          "type": "uint256"
        }
      ],
      "name": "getMediaInfo",
      "outputs": [
        {
          "internalType": "bytes32",
          "name": "",
          "type": "bytes32"
        },
        {
          "internalType": "bytes32",
          "name": "",
          "type": "bytes32"
        },
        {
          "internalType": "uint256",
          "name": "",
          "type": "uint256"
        },
        {
          "internalType": "uint256",
          "name": "",
          "type": "uint256"
        },
        {
          "internalType": "uint256",
          "name": "",
          "type": "uint256"
        },
        {
          "internalType": "uint256",
          "name": "",
          "type": "uint256"
        }
      ],
      "stateMutability": "view",
      "type": "function"
    },
    {
      "inputs": [
        {
          "internalType": "address",
          "name": "_storageContract",
          "type": "address"
        },
        {
          "internalType": "uint256",
          "name": "_tokenId",
          "type": "uint256"
        }
      ],
      "name": "getMediaPrice",
      "outputs": [
        {
          "internalType": "uint256",
          "name": "",
          "type": "uint256"
        }
      ],
      "stateMutability": "view",
      "type": "function"
    },
    {
      "inputs": [
        {
          "internalType": "address",
          "name": "_storageContract",
          "type": "address"
        },
        {
          "internalType": "uint256",
          "name": "_tokenId",
          "type": "uint256"
        }
      ],
      "name": "getMediaRentDuration",
      "outputs": [
        {
          "internalType": "uint256",
          "name": "",
          "type": "uint256"
        }
      ],
      "stateMutability": "view",
      "type": "function"
    },
    {
      "inputs": [
        {
          "internalType": "address",
          "name": "_storageContract",
          "type": "address"
        },
        {
          "internalType": "uint256",
          "name": "_tokenId",
          "type": "uint256"
        }
      ],
      "name": "getMediaRentPrice",
      "outputs": [
        {
          "internalType": "uint256",
          "name": "",
          "type": "uint256"
        }
      ],
      "stateMutability": "view",
      "type": "function"
    },
    {
      "inputs": [
        {
          "internalType": "address",
          "name": "_storageContract",
          "type": "address"
        },
        {
          "internalType": "uint256",
          "name": "_tokenId",
          "type": "uint256"
        },
        {
          "internalType": "address",
          "name": "renter",
          "type": "address"
        }
      ],
      "name": "getPaidRentCumulativeValue",
      "outputs": [
        {
          "internalType": "uint256",
          "name": "",
          "type": "uint256"
        }
      ],
      "stateMutability": "view",
      "type": "function"
    }
  ],
  "bytecode": "0x612030610053600b82828239805160001a607314610046577f4e487b7100000000000000000000000000000000000000000000000000000000600052600060045260246000fd5b30600052607381538281f3fe73000000000000000000000000000000000000000030146080604052600436106101035760003560e060020a90048063a26cbe5c116100a5578063cf15109c11610074578063cf15109c1461025f578063e77ed5b614610272578063f11bca5814610292578063fcb99759146102b257600080fd5b8063a26cbe5c146101e6578063ad0c7738146101f9578063b1c50e4e1461020c578063c95813371461021f57600080fd5b80636c42b1dd116100e15780636c42b1dd1461017057806386daae0e146101835780638ab49a60146101a3578063a015407f146101c657600080fd5b80633727bf781461010857806349fc540b1461012a5780635aceb83614610150575b600080fd5b81801561011457600080fd5b506101286101233660046119de565b6102d2565b005b61013d6101383660046119de565b6105a7565b6040519081526020015b60405180910390f35b61016361015e3660046119de565b610653565b6040516101479190611e59565b61013d61017e3660046119de565b6106fb565b81801561018f57600080fd5b5061012861019e366004611acb565b61071f565b6101b66101b13660046119b3565b610acf565b6040519015158152602001610147565b8180156101d257600080fd5b506101286101e1366004611bb7565b610b9d565b61013d6101f43660046119b3565b610f5a565b61013d6102073660046119b3565b611022565b61013d61021a3660046119b3565b611044565b61023261022d3660046119b3565b611090565b604080519687526020870195909552938501929092526060840152608083015260a082015260c001610147565b6101b661026d366004611a1f565b61152a565b81801561027e57600080fd5b5061012861028d366004611a71565b6115d9565b81801561029e57600080fd5b506101286102ad3660046119b3565b6117ac565b8180156102be57600080fd5b506101b66102cd3660046119de565b61185d565b6040517f6d656469615f72656e745f737461747573000000000000000000000000000000602082015260318101839052600160a060020a03841690633eba9ed29060510160408051601f1981840301815290829052805160209091012060e060020a63ffffffff8416028252600482015260006024820152604401600060405180830381600087803b15801561036757600080fd5b505af115801561037b573d6000803e3d6000fd5b5050505082600160a060020a0316633562fd2082846040516020016103a1929190611d33565b60408051601f1981840301815290829052805160209091012060e060020a63ffffffff8416028252600482015260006024820152604401600060405180830381600087803b1580156103f257600080fd5b505af1158015610406573d6000803e3d6000fd5b50505050600083600160a060020a031663726d9dea838560405160200161042e929190611ce5565b60408051601f1981840301815290829052805160209091012060e060020a63ffffffff8416028252600482015260240160006040518083038186803b15801561047657600080fd5b505afa15801561048a573d6000803e3d6000fd5b505050506040513d6000823e601f3d908101601f191682016040526104b29190810190611c14565b905060005b81518110156105a05784600160a060020a0316633eba9ed2848685858151811061050a577f4e487b7100000000000000000000000000000000000000000000000000000000600052603260045260246000fd5b602002602001015160405160200161052493929190611e00565b60408051601f1981840301815290829052805160209091012060e060020a63ffffffff8416028252600482015260006024820152604401600060405180830381600087803b15801561057557600080fd5b505af1158015610589573d6000803e3d6000fd5b50505050808061059890611f69565b9150506104b7565b5050505050565b600083600160a060020a031663025ec81a84846040516020016105cb929190611db2565b60408051601f1981840301815290829052805160209091012060e060020a63ffffffff8416028252600482015260240160206040518083038186803b15801561061357600080fd5b505afa158015610627573d6000803e3d6000fd5b505050506040513d601f19601f8201168201806040525081019061064b9190611ccd565b949350505050565b606083600160a060020a031663726d9dea8385604051602001610677929190611ce5565b60408051601f1981840301815290829052805160209091012060e060020a63ffffffff8416028252600482015260240160006040518083038186803b1580156106bf57600080fd5b505afa1580156106d3573d6000803e3d6000fd5b505050506040513d6000823e601f3d908101601f1916820160405261064b9190810190611c14565b600083600160a060020a031663bdc963d883856040516020016105cb929190611d33565b86600160a060020a03166325cf512d8787604051602001610741929190611db2565b60408051601f1981840301815290829052805160209091012060e060020a63ffffffff8416028252600482015260248101879052604401600060405180830381600087803b15801561079257600080fd5b505af11580156107a6573d6000803e3d6000fd5b50506040517f72656e745f726571756573742c206e756d5f6f665f636f5f6f776e65727300006020820152600160a060020a038881166c0100000000000000000000000002603e830152605282018a90528a169250633562fd20915060720160408051601f1981840301815290829052805160209091012060e060020a63ffffffff8416028252600482015260248101869052604401600060405180830381600087803b15801561085657600080fd5b505af115801561086a573d6000803e3d6000fd5b5050505086600160a060020a031663deb48f7f8688604051602001610890929190611ce5565b60405160208183030381529060405280519060200120846040518363ffffffff1660e060020a0281526004016108c7929190611ea6565b600060405180830381600087803b1580156108e157600080fd5b505af11580156108f5573d6000803e3d6000fd5b50505050600087600160a060020a031663bdc963d8878960405160200161091d929190611d33565b60408051601f1981840301815290829052805160209091012060e060020a63ffffffff8416028252600482015260240160206040518083038186803b15801561096557600080fd5b505afa158015610979573d6000803e3d6000fd5b505050506040513d601f19601f8201168201806040525081019061099d9190611ccd565b905087600160a060020a0316633562fd2087896040516020016109c1929190611d33565b6040516020818303038152906040528051906020012083856109e39190611f51565b60405160e060020a63ffffffff851602815260048101929092526024820152604401600060405180830381600087803b158015610a1f57600080fd5b505af1158015610a33573d6000803e3d6000fd5b5050505087600160a060020a0316633eba9ed2878989604051602001610a5b93929190611e00565b60408051601f1981840301815290829052805160209091012060e060020a63ffffffff84160282526004820152600160248201526044015b600060405180830381600087803b158015610aad57600080fd5b505af1158015610ac1573d6000803e3d6000fd5b505050505050505050505050565b6040517f6d656469615f72656e745f737461747573000000000000000000000000000000602082015260318101829052600090600160a060020a038416906317e7dd229060510160408051601f1981840301815290829052805160209091012060e060020a63ffffffff8416028252600482015260240160206040518083038186803b158015610b5e57600080fd5b505afa158015610b72573d6000803e3d6000fd5b505050506040513d601f19601f82011682018060405250810190610b969190611cad565b9392505050565b6040517f6d656469615f7469746c650000000000000000000000000000000000000000006020820152602b8101889052600160a060020a038916906325cf512d90604b0160408051601f1981840301815290829052805160209091012060e060020a63ffffffff8416028252600482015260248101899052604401600060405180830381600087803b158015610c3257600080fd5b505af1158015610c46573d6000803e3d6000fd5b50506040517f6d656469615f6465736372697074696f6e0000000000000000000000000000006020820152603181018a9052600160a060020a038b1692506325cf512d915060510160408051601f1981840301815290829052805160209091012060e060020a63ffffffff8416028252600482015260248101889052604401600060405180830381600087803b158015610cdf57600080fd5b505af1158015610cf3573d6000803e3d6000fd5b50506040517f6d656469615f70726963650000000000000000000000000000000000000000006020820152602b81018a9052600160a060020a038b169250633562fd209150604b0160408051601f1981840301815290829052805160209091012060e060020a63ffffffff8416028252600482015260248101879052604401600060405180830381600087803b158015610d8c57600080fd5b505af1158015610da0573d6000803e3d6000fd5b5050505087600160a060020a0316633562fd2088604051602001610dc49190611d81565b60408051601f1981840301815290829052805160209091012060e060020a63ffffffff8416028252600482015260248101869052604401600060405180830381600087803b158015610e1557600080fd5b505af1158015610e29573d6000803e3d6000fd5b50506040517f6d656469615f72656e745f6475726174696f6e000000000000000000000000006020820152603381018a9052600160a060020a038b169250633562fd20915060530160408051601f1981840301815290829052805160209091012060e060020a63ffffffff8416028252600482015260248101859052604401600060405180830381600087803b158015610ec257600080fd5b505af1158015610ed6573d6000803e3d6000fd5b50506040517f6d656469615f766964656f5f6475726174696f6e0000000000000000000000006020820152603481018a9052600160a060020a038b169250633562fd20915060540160408051601f1981840301815290829052805160209091012060e060020a63ffffffff8416028252600482015260248101849052604401610a93565b6040517f6d656469615f72656e745f6475726174696f6e00000000000000000000000000602082015260338101829052600090600160a060020a0384169063bdc963d8906053015b60408051601f1981840301815290829052805160209091012060e060020a63ffffffff8416028252600482015260240160206040518083038186803b158015610fea57600080fd5b505afa158015610ffe573d6000803e3d6000fd5b505050506040513d601f19601f82011682018060405250810190610b969190611ccd565b600082600160a060020a031663bdc963d883604051602001610fa29190611d81565b6040517f6d656469615f70726963650000000000000000000000000000000000000000006020820152602b8101829052600090600160a060020a0384169063bdc963d890604b01610fa2565b60008060008060008087600160a060020a031663025ec81a886040516020016110e591907f6d656469615f7469746c650000000000000000000000000000000000000000008152600b810191909152602b0190565b60408051601f1981840301815290829052805160209091012060e060020a63ffffffff8416028252600482015260240160206040518083038186803b15801561112d57600080fd5b505afa158015611141573d6000803e3d6000fd5b505050506040513d601f19601f820116820180604052508101906111659190611ccd565b6040517f6d656469615f6465736372697074696f6e000000000000000000000000000000602082015260318101899052600160a060020a038a169063025ec81a9060510160408051601f1981840301815290829052805160209091012060e060020a63ffffffff8416028252600482015260240160206040518083038186803b1580156111f157600080fd5b505afa158015611205573d6000803e3d6000fd5b505050506040513d601f19601f820116820180604052508101906112299190611ccd565b6040517f6d656469615f70726963650000000000000000000000000000000000000000006020820152602b81018a9052600160a060020a038b169063bdc963d890604b0160408051601f1981840301815290829052805160209091012060e060020a63ffffffff8416028252600482015260240160206040518083038186803b1580156112b557600080fd5b505afa1580156112c9573d6000803e3d6000fd5b505050506040513d601f19601f820116820180604052508101906112ed9190611ccd565b8a600160a060020a031663bdc963d88b60405160200161130d9190611d81565b60408051601f1981840301815290829052805160209091012060e060020a63ffffffff8416028252600482015260240160206040518083038186803b15801561135557600080fd5b505afa158015611369573d6000803e3d6000fd5b505050506040513d601f19601f8201168201806040525081019061138d9190611ccd565b6040517f6d656469615f72656e745f6475726174696f6e000000000000000000000000006020820152603381018c9052600160a060020a038d169063bdc963d89060530160408051601f1981840301815290829052805160209091012060e060020a63ffffffff8416028252600482015260240160206040518083038186803b15801561141957600080fd5b505afa15801561142d573d6000803e3d6000fd5b505050506040513d601f19601f820116820180604052508101906114519190611ccd565b6040517f6d656469615f766964656f5f6475726174696f6e0000000000000000000000006020820152603481018d9052600160a060020a038e169063bdc963d89060540160408051601f1981840301815290829052805160209091012060e060020a63ffffffff8416028252600482015260240160206040518083038186803b1580156114dd57600080fd5b505afa1580156114f1573d6000803e3d6000fd5b505050506040513d601f19601f820116820180604052508101906115159190611ccd565b949d939c50919a509850965090945092505050565b600084600160a060020a03166317e7dd2284868560405160200161155093929190611e00565b60408051601f1981840301815290829052805160209091012060e060020a63ffffffff8416028252600482015260240160206040518083038186803b15801561159857600080fd5b505afa1580156115ac573d6000803e3d6000fd5b505050506040513d601f19601f820116820180604052508101906115d09190611cad565b95945050505050565b600085600160a060020a031663bdc963d885876040516020016115fd929190611d33565b60408051601f1981840301815290829052805160209091012060e060020a63ffffffff8416028252600482015260240160206040518083038186803b15801561164557600080fd5b505afa158015611659573d6000803e3d6000fd5b505050506040513d601f19601f8201168201806040525081019061167d9190611ccd565b905085600160a060020a0316633562fd2085876040516020016116a1929190611d33565b6040516020818303038152906040528051906020012084846116c39190611f51565b60405160e060020a63ffffffff851602815260048101929092526024820152604401600060405180830381600087803b1580156116ff57600080fd5b505af1158015611713573d6000803e3d6000fd5b5050505085600160a060020a0316633eba9ed285878660405160200161173b93929190611e00565b60408051601f1981840301815290829052805160209091012060e060020a63ffffffff8416028252600482015260016024820152604401600060405180830381600087803b15801561178c57600080fd5b505af11580156117a0573d6000803e3d6000fd5b50505050505050505050565b6040517f6d656469615f72656e745f737461747573000000000000000000000000000000602082015260318101829052600160a060020a03831690633eba9ed29060510160408051601f1981840301815290829052805160209091012060e060020a63ffffffff8416028252600482015260016024820152604401600060405180830381600087803b15801561184157600080fd5b505af1158015611855573d6000803e3d6000fd5b505050505050565b60008084600160a060020a031663bdc963d88486604051602001611882929190611d33565b60408051601f1981840301815290829052805160209091012060e060020a63ffffffff8416028252600482015260240160206040518083038186803b1580156118ca57600080fd5b505afa1580156118de573d6000803e3d6000fd5b505050506040513d601f19601f820116820180604052508101906119029190611ccd565b9050600085600160a060020a031663bdc963d8866040516020016119269190611d81565b60408051601f1981840301815290829052805160209091012060e060020a63ffffffff8416028252600482015260240160206040518083038186803b15801561196e57600080fd5b505afa158015611982573d6000803e3d6000fd5b505050506040513d601f19601f820116820180604052508101906119a69190611ccd565b9091101595945050505050565b600080604083850312156119c5578182fd5b82356119d081611fe2565b946020939093013593505050565b6000806000606084860312156119f2578081fd5b83356119fd81611fe2565b9250602084013591506040840135611a1481611fe2565b809150509250925092565b60008060008060808587031215611a34578081fd5b8435611a3f81611fe2565b9350602085013592506040850135611a5681611fe2565b91506060850135611a6681611fe2565b939692955090935050565b600080600080600060a08688031215611a88578081fd5b8535611a9381611fe2565b9450602086013593506040860135611aaa81611fe2565b92506060860135611aba81611fe2565b949793965091946080013592915050565b600080600080600080600060e0888a031215611ae5578182fd5b8735611af081611fe2565b965060208881013596506040890135611b0881611fe2565b9550606089013594506080890135935060a089013567ffffffffffffffff811115611b31578384fd5b8901601f81018b13611b41578384fd5b8035611b54611b4f82611f2d565b611efc565b81815283810190838501858402850186018f1015611b70578788fd5b8794505b83851015611b9b578035611b8781611fe2565b835260019490940193918501918501611b74565b50809650505050505060c0880135905092959891949750929550565b600080600080600080600080610100898b031215611bd3578081fd5b8835611bde81611fe2565b9a60208a01359a5060408a013599606081013599506080810135985060a0810135975060c0810135965060e00135945092505050565b60006020808385031215611c26578182fd5b825167ffffffffffffffff811115611c3c578283fd5b8301601f81018513611c4c578283fd5b8051611c5a611b4f82611f2d565b8181528381019083850185840285018601891015611c76578687fd5b8694505b83851015611ca1578051611c8d81611fe2565b835260019490940193918501918501611c7a565b50979650505050505050565b600060208284031215611cbe578081fd5b81518015158114610b96578182fd5b600060208284031215611cde578081fd5b5051919050565b7f72656e745f726571756573742c20636f4f776e6572735f6c69737400000000008152600160a060020a03929092166c0100000000000000000000000002601b830152602f820152604f0190565b7f72656e745f7061696400000000000000000000000000000000000000000000008152600160a060020a03929092166c01000000000000000000000000026009830152601d820152603d0190565b7f6d656469615f72656e745f7072696365000000000000000000000000000000008152601081019190915260300190565b7f72656e745f7265717565737400000000000000000000000000000000000000008152600c810192909252600160a060020a03166c0100000000000000000000000002602c82015260400190565b7f72656e745f706169645f62795f7065657200000000000000000000000000000081526c01000000000000000000000000600160a060020a03948516810260118301526025820193909352921602604582015260590190565b6020808252825182820181905260009190848201906040850190845b81811015611e9a578351600160a060020a031683529284019291840191600101611e75565b50909695505050505050565b60006040820184835260206040818501528185518084526060860191508287019350845b81811015611eef578451600160a060020a031683529383019391830191600101611eca565b5090979650505050505050565b604051601f8201601f1916810167ffffffffffffffff81118282101715611f2557611f25611fb3565b604052919050565b600067ffffffffffffffff821115611f4757611f47611fb3565b5060209081020190565b60008219821115611f6457611f64611f84565b500190565b6000600019821415611f7d57611f7d611f84565b5060010190565b7f4e487b7100000000000000000000000000000000000000000000000000000000600052601160045260246000fd5b7f4e487b7100000000000000000000000000000000000000000000000000000000600052604160045260246000fd5b600160a060020a0381168114611ff757600080fd5b5056fea26469706673582212202bd2a6bf3bf4190f09ec78848aa21301885f13da6c1903cdd26311682cc1faef64736f6c63430008040033",
  "immutableReferences": {},
  "source": "pragma solidity ^0.8.0;\n\nimport \"@openzeppelin/contracts/utils/math/Math.sol\";\nimport \"@openzeppelin/contracts/utils/math/SafeMath.sol\";\n\nimport \"./storage/EternalStorage.sol\";\n\nlibrary NFTLibrary {\n\n    using SafeMath for uint256;\n\n    function saveMediaInfo(address _storageContract, uint256 _tokenId, bytes32 _title, bytes32 _description, uint256 _price, uint256 rentPrice, uint256 rentDuration, uint256 videoDuration) public\n    {\n        EternalStorage(_storageContract).setBytes32Value(keccak256(abi.encodePacked(\"media_title\", _tokenId)), _title);\n        EternalStorage(_storageContract).setBytes32Value(keccak256(abi.encodePacked(\"media_description\", _tokenId)), _description);\n        EternalStorage(_storageContract).setUIntValue(keccak256(abi.encodePacked(\"media_price\", _tokenId)), _price);\n        EternalStorage(_storageContract).setUIntValue(keccak256(abi.encodePacked(\"media_rent_price\", _tokenId)), rentPrice);\n        EternalStorage(_storageContract).setUIntValue(keccak256(abi.encodePacked(\"media_rent_duration\", _tokenId)), rentDuration);\n        EternalStorage(_storageContract).setUIntValue(keccak256(abi.encodePacked(\"media_video_duration\", _tokenId)), videoDuration);\n\n    }\n\n    function handleRentRequest(address _storageContract, uint256 _tokenId, address renter, bytes32 coOwners, uint256 numOfCoOwners, address[] memory coOwnersList, uint256 amount) public {\n        EternalStorage(_storageContract).setBytes32Value(keccak256(abi.encodePacked(\"rent_request\", _tokenId, renter)), coOwners);\n        EternalStorage(_storageContract).setUIntValue(keccak256(abi.encodePacked(\"rent_request, num_of_co_owners\", renter, _tokenId)), numOfCoOwners);\n        EternalStorage(_storageContract).setAddressListValue(keccak256(abi.encodePacked(\"rent_request, coOwners_list\", renter, _tokenId)), coOwnersList);\n        uint256 paid = EternalStorage(_storageContract).getUIntValue(keccak256(abi.encodePacked(\"rent_paid\", renter, _tokenId)));\n        EternalStorage(_storageContract).setUIntValue(keccak256(abi.encodePacked(\"rent_paid\", renter, _tokenId)), amount + paid);\n        EternalStorage(_storageContract).setBooleanValue(keccak256(abi.encodePacked(\"rent_paid_by_peer\", renter, _tokenId, renter)), true);\n    }\n\n    function savePaidInfo(address _storageContract, uint256 _tokenId, address renter, address currentPeer, uint256 amount) public {\n        uint256 paid = EternalStorage(_storageContract).getUIntValue(keccak256(abi.encodePacked(\"rent_paid\", renter, _tokenId)));\n        EternalStorage(_storageContract).setUIntValue(keccak256(abi.encodePacked(\"rent_paid\", renter, _tokenId)), paid + amount);\n        EternalStorage(_storageContract).setBooleanValue(keccak256(abi.encodePacked(\"rent_paid_by_peer\", renter, _tokenId, currentPeer)), true);\n    }\n\n    function hasPaid(address _storageContract, uint256 _tokenId, address renter, address currentPeer) public view returns (bool){\n        return EternalStorage(_storageContract).getBooleanValue(keccak256(abi.encodePacked(\"rent_paid_by_peer\", renter, _tokenId, currentPeer)));\n    }\n\n    function hasEveryOnePaid(address _storageContract, uint256 _tokenId, address renter) public returns (bool){\n        uint256 totalPaid = EternalStorage(_storageContract).getUIntValue(keccak256(abi.encodePacked(\"rent_paid\", renter, _tokenId)));\n        uint256 rentPrice = EternalStorage(_storageContract).getUIntValue(keccak256(abi.encodePacked(\"media_rent_price\", _tokenId)));\n        return totalPaid >= rentPrice;\n    }\n\n    function mediaRentStatus(address _storageContract, uint256 _tokenId) public view returns (bool)\n    {\n        return EternalStorage(_storageContract).getBooleanValue(keccak256(abi.encodePacked(\"media_rent_status\", _tokenId)));\n    }\n\n    function updateRentStatus(address _storageContract, uint256 _tokenId) public\n    {\n        EternalStorage(_storageContract).setBooleanValue(keccak256(abi.encodePacked(\"media_rent_status\", _tokenId)), true);\n    }\n\n    function getRentRequestMerkleTree(address _storageContract, uint256 _tokenId, address renter) public view returns (bytes32)\n    {\n        return EternalStorage(_storageContract).getBytes32Value(keccak256(abi.encodePacked(\"rent_request\", _tokenId, renter)));\n    }\n\n    function getCoOwners(address _storageContract, uint256 _tokenId, address renter) public view returns (address[] memory)\n    {\n        return EternalStorage(_storageContract).getAddressListValue(keccak256(abi.encodePacked(\"rent_request, coOwners_list\", renter, _tokenId)));\n    }\n\n    function getMediaInfo(address _storageContract, uint256 _tokenId) public view returns (bytes32, bytes32, uint256, uint256, uint256, uint256)\n    {\n        return\n        (\n        EternalStorage(_storageContract).getBytes32Value(keccak256(abi.encodePacked(\"media_title\", _tokenId))),\n        EternalStorage(_storageContract).getBytes32Value(keccak256(abi.encodePacked(\"media_description\", _tokenId))),\n        EternalStorage(_storageContract).getUIntValue(keccak256(abi.encodePacked(\"media_price\", _tokenId))),\n        EternalStorage(_storageContract).getUIntValue(keccak256(abi.encodePacked(\"media_rent_price\", _tokenId))),\n        EternalStorage(_storageContract).getUIntValue(keccak256(abi.encodePacked(\"media_rent_duration\", _tokenId))),\n        EternalStorage(_storageContract).getUIntValue(keccak256(abi.encodePacked(\"media_video_duration\", _tokenId)))\n\n        );\n    }\n\n    function getMediaPrice(address _storageContract, uint256 _tokenId) public view returns (uint256)\n    {\n        return EternalStorage(_storageContract).getUIntValue(keccak256(abi.encodePacked(\"media_price\", _tokenId)));\n    }\n\n    function getMediaRentDuration(address _storageContract, uint256 _tokenId) public view returns (uint256){\n        return EternalStorage(_storageContract).getUIntValue(keccak256(abi.encodePacked(\"media_rent_duration\", _tokenId)));\n    }\n\n    function getMediaRentPrice(address _storageContract, uint256 _tokenId) public view returns (uint256){\n        return EternalStorage(_storageContract).getUIntValue(keccak256(abi.encodePacked(\"media_rent_price\", _tokenId)));\n    }\n\n    function getPaidRentCumulativeValue(address _storageContract, uint256 _tokenId, address renter) public view returns (uint256){\n        return EternalStorage(_storageContract).getUIntValue(keccak256(abi.encodePacked(\"rent_paid\", renter, _tokenId)));\n    }\n\n\n    function resetRentStatus(address _storageContract, uint256 _tokenId, address renter) public {\n        EternalStorage(_storageContract).setBooleanValue(keccak256(abi.encodePacked(\"media_rent_status\", _tokenId)), false);\n        EternalStorage(_storageContract).setUIntValue(keccak256(abi.encodePacked(\"rent_paid\", renter, _tokenId)), 0);\n        address[] memory list = EternalStorage(_storageContract).getAddressListValue(keccak256(abi.encodePacked(\"rent_request, coOwners_list\", renter, _tokenId)));\n        for (uint i = 0; i < list.length; i++) {\n            EternalStorage(_storageContract).setBooleanValue(keccak256(abi.encodePacked(\"rent_paid_by_peer\", renter, _tokenId, list[i])), false);\n        }\n\n\n    }\n\n\n}\n",
  "sourcePath": "/Users/theneo/sabacalavro/smart-contracts-dapp/contracts/NFTLibrary.sol",
  "compiler": {
    "name": "solc",
    "version": "0.8.4+commit.c7e474f2.Emscripten.clang"
  },
  "schemaVersion": "3.4.7",
  "updatedAt": "2022-09-06T19:35:52.854Z",
  "devdoc": {
    "kind": "dev",
    "methods": {},
    "version": 1
  },
  "userdoc": {
    "kind": "user",
    "methods": {},
    "version": 1
  }
}